:020000040000FA
:10000000021F3F022003FFFFFFFFFF02200BFFFF45
:10001000FFFFFF022013FFFFFFFFFF02201BFFFF78
:10002000FFFFFF022023FFFFFFFFFF02202BFFFF48
:10003000FFFFFF022033FFFFFFFFFF02203BFFFF18
:10004000FFFFFF022043FFFFFFFFFF02204BFFFFE8
:10005000FFFFFF022053FFFFFFFFFF02205BFFFFB8
:10006000FFFFFF022063FFFFFFFFFF02206BFFFF88
:10007000FFFFFF022073FFFFFFFFFF02207BFFFF58
:10008000FFFFFF022083FFFFFFFFFF02208BFFFF28
:10009000FFFF70DFFFFF040000000002000000C847
:1000A000030002030369A5020269A532730000017F
:1000B00000000000000400FFFFFFFFFFFFFFFF0440
:1000C00003090424035400650078006100730020D4
:1000D0000049006E0073007400720075006D0065C9
:1000E000006E007400730024035400490020004394
:1000F000004300320035003300310020005500532A
:10010000004200200043004400430000035F005F02
:100110000030005800000000000000000000000057
:1001200000000000000000000000000000000000CF
:100130000000000000303132333435363738394171
:100140004243444546331C881C881C881C881C90EC
:100150001C74F8121BCD900391E06015900302749B
:10016000FEF0900304744DF0A37405F07A011207B9
:100170001C7F01021D6C74F8121BCD74FF121EB699
:100180007E00801F851882851983E064FE700690CA
:1001900003877401F0851882851983E0F890038441
:1001A000E068F07901AA18AB191210E9E9700302AE
:1001B0000287851882851983E064EF70027E07E06C
:1001C000C0E0900387E0FA900385E0F8EA28F8E4BD
:1001D0003400F9740228F582740339F583D0E0F015
:1001E000900387E0609E14600E14602B14603B1433
:1001F0006051146067809E900384E4F085188285C6
:100200001983E0900386F0C394809003874003E451
:1002100080827402020194851882851983E090031C
:1002200082F09003877403020194851882851983F4
:10023000E0900383F0900386E060199003877404D4
:10024000020194900385E004F0F8900386E0686072
:10025000030201959003877405020194900385E4DD
:10026000F0900387F0900384E0F885188285198365
:10027000E0686003020195900382E0644D60030230
:1002800001951203BF8002EEF97401121E370201BC
:100290007174F7121BCD74FB121EB6EAFEEBFF75EC
:1002A00008047509007808121ED07402121F377AEC
:1002B000907B0079041218EB7402121E3712070E9D
:1002C000121F88E0687003A3E069701285188285A8
:1002D0001983E0F47003A3E0F4600302039A74044A
:1002E000121F2F1207708A088B09A808A909740227
:1002F000121F88E8F0A3E9F07404121F88E0600878
:1003000079011201510203B3851882851983E068CF
:100310007003A3E0697076851882851983E0F47014
:1003200003A3E0F470197402121F887410F0A37410
:1003300020F08518828519837410F0A37420F0755D
:1003400008017509007808121ED07402121F377A4E
:10035000247B0812196F7402121E3775080478087E
:10036000121ED07402121F377A907B007904121883
:10037000EB7402121E3712070E121F88E06870031A
:10038000A3E069700479028006790480027903127F
:1003900001518E828F83741E80058E828F83E4F0DC
:1003A00012070E121F88E0687003A3E069700479D9
:1003B00001800279007405121E377F02021D6C74E1
:1003C000ED121BCD74F8121EB6900307E0FD9003EA
:1003D00006E0FCFAEDF8E4C8F9EA28FEE93408FF83
:1003E000751001750B00750A068E088F0974027866
:1003F00008121F1CC39508F8E49509F9740228F542
:100400000E740339F50F8E088F0974097808121FCE
:100410004EE508F511EE2410F508E43FF509EEF578
:100420000CEF5401F50D900383E014605914700330
:100430000204FB14700302057614601024FE70039E
:100440000206311470030206E10206F1750A03790F
:100450004E1213BD9003071207047402F0A37440F8
:100460001207027408120702F0A3F07418C394076D
:1004700004F510AA10A90B12071CA90A7408121E71
:10048000377F0C021D6C750A04794E1213BDEE45C0
:100490000D7005A9111219D5C3EE9425EF940850DB
:1004A0003CC3E5089424E50994084031E50E249600
:1004B000F8E50F3420F988828983E0701BA3AA82B3
:1004C000AB83E070139003887401F0888289837491
:1004D000A5F08A828B838004900388E4F07508106D
:1004E0007509007808121ED07C087D03EEFAEFFB38
:1004F00012196F7402121E37020473750A05E51192
:10050000C394794006750B0102047375124075138C
:10051000007812121ED07C097D037402780C121F21
:100520001CAA0CAB0DA9111218EB7402121E379005
:100530000307E0A3F0900306E0A3F0751043C3EEB9
:100540009425EF94084003020473C3E5089424E55E
:100550000994085003020473900388E070030204B6
:1005600073E50E2497F8E50F3420F988828983E437
:10057000F0A3F00204737508047509007808121ED0
:10058000D07402121F377A907B0079041218EB7432
:1005900002121E377402121F88E0F8A3E0F98518D2
:1005A00082851983E0687003A3E069851882851944
:1005B00083700BE0F47003A3E0F470578009E0F45B
:1005C0007003A3E0F4700D8518828519837410F010
:1005D000A37420F012070E121F88E8F0A3E9F0754B
:1005E00008017808121ED07402121F377A247B0883
:1005F00012196F7402121E377508047808121ED083
:100600007402121F377A907B0079041218EB74027F
:10061000121E3712070E121F88E0687003A3E069EC
:100620007006750A01020473750A02750B0702044D
:10063000739003D6E0600764026003020473EDFF69
:100640007A01790012071CE060030206D5800312CC
:10065000118512116CE970F77404121F881206F6E6
:100660007404121F887808121F6C85080C85090D08
:10067000850A0E850B0F9003C2780C121EF67404C7
:10068000121F88780C121F5DE5084509450A450BC5
:1006900070CE8EC2E5C554E04FF5C57404121F88B4
:1006A0001206F67404121F887808121F6C85080C55
:1006B00085090D850A0E850B0F9003C2780C121E5A
:1006C000F67404121F88780C121F5DE50845094571
:1006D0000A450B70CE7A01790012071C79080204D2
:1006E0007CEC900391F07003020473750A09020414
:1006F00073790602047CE4F0A37426F0A3E4F0A36B
:10070000F022F0A3E4F0A3F0A3F0A3F0A322851855
:1007100082851983E0F8A3E0F974022274F8121BB1
:10072000CDEAFE900305E0D2E7F0E9A3F0EE9003F6
:1007300003F08E0874042AFE7C028004E062080C38
:10074000ECFA3395E0FB74022AF58274033BF583DF
:10075000EEF8C3EA98EB9400A2D265D03340DDE511
:1007600008F074012AF97A027B0312112702017141
:1007700074E9121BCD7582007583FE121E198A164C
:100780008B177514007515008A828B83E4F0900333
:10079000D6E07006D2AAD2AF800464027005790058
:1007A000120151750C00750D20750E00750F00902B
:1007B00003D6E0600464027015121185120176E917
:1007C000F874096860030208AC7900120151E06412
:1007D000027007A29240030208877508007509029B
:1007E0007808121ED07402121F37850C08850D0977
:1007F000AA08E5095407FB850E0A850F0B740B78D0
:1008000008121E87A9081218EB7402121E377E0008
:100810007F009003CAC0828E10EFF5113395E0F58A
:1008200012F513850C08850D09850E0A850F0B78C6
:10083000087910121F099003C67808121EF67583F6
:1008400003D0827808121DFA501D851882851983FD
:10085000E5822EF582E5833FF583E0F9AA14AB1516
:100860001208DB8A148B150EEE70010FC3EF940291
:1008700040A09003CE780C121EF69003D2780C1292
:100880001DFA40030207AF7900AA14AB151208DB6A
:1008900079001208DB8B159003D6E07004C2AFC25A
:1008A000AAEA451570277AA57BA58021E870030286
:1008B00007CE74066870030207CE740768700302DF
:1008C00007CE8516828517837401F080BA75820081
:1008D000758302121E197F10021D6CC008C0097CAE
:1008E000088A088B09740F7808121F4EE508F8EA89
:1008F00025E0FAEB33FBE9A2E7500474014AFAE879
:10090000A2E0500874216AFA74106BFBE9C333F952
:100910001CEC70CDD009D00822C082C083120F33E6
:1009200060030209F0A3E0F8A3E060030209F0A36A
:10093000E064027002A3E060030209F09003B8E0F3
:100940002480600914604F14605C0209F0E86003C1
:100950000209F09003B2E060047801800278009010
:1009600003C0E8F0A3E4F09003B1E0600A9003C094
:10097000E04402F0A3E4F09003A6E0640460149065
:1009800003B374C0F0A37403F0A3E4F0A3740212E1
:100990000F95F0020E6E90039FE064047052900376
:1009A000C0E4F0A380D0E8547FFA90039FE0640491
:1009B000703EEAC394065038749F2AF582E43403EB
:1009C000F583E854806018A3A3A3A3A3A3A3E064C2
:1009D0000370047801800278009003C0E88094E5F9
:1009E00082240CF58250020583E0640370E980E301
:1009F0009003A67404809B74F8121BCDE9FE90034B
:100A0000BE120F366003020AD990039FE0640460AF
:100A10000B9003BC120F366003020AD99003B8E0B2
:100A2000541F6009146030146020020AD99003BA80
:100A3000E064017022EE9003B1F060047905800259
:100A400079067A00121BCB020ADF9003BCE0547FC8
:100A5000FA9003BAE060057900020AE1EAC394065D
:100A60005077EA90620EF0749F2AF8E43403F9900C
:100A700003BCE05480602EEE600474108002744069
:100A8000906211F0EE60047B0380027B00EB8882B1
:100A90008983A3A3A3A3A3A3A3F0EE600479088092
:100AA0002F7907802BEE60047B2080027B80EB9007
:100AB0006214F0EE60047B0380027B00E8240CF5F6
:100AC00082E439F583EBF0EE6004790A800279095B
:100AD000121BCB90620EE480059003A67404F0799B
:100AE000017F01021D6C79001209F7E97003121BE6
:100AF000BA2279011209F7E97003121BC922C082D8
:100B0000C0839003BC120F367015A3120F36700FFE
:100B10009003BA120CD95480FAE9FBEA4B600790B3
:100B200003A67404801AE8906200F090039F6009A5
:100B3000E06402700C74038007E0640370037402C5
:100B4000F0020E6E74F5121BCD9003BAE0FAA3E02A
:100B50001460081460101460398057121754120C76
:100B6000B6A37B8080417900121776120CB67B8089
:100B7000E92402F9E43AFA121E6DFC1919E0FAA30D
:100B8000E92403F9E43AFA121E6DF9ECA3F0A3E9A3
:100B9000801CEAF91217E49003B3EAF0A3EBF0A388
:100BA000E4120CC5A37B00121E6DA3F0A3E4F002B7
:100BB0000C709003B3E4F0A3F0A3F0750B00900465
:100BC0007DE0FAA3E0FB020C4E850B08750900746A
:100BD000037808121F1CEA2508F8EB3509F9900381
:100BE000BA120CCFE493C0E0EFFCD0E06C705DA3D0
:100BF000E4936E70579003BC120CCFA3A3E493C090
:100C0000E0EFFCD0E06C704488828983A3A3A3E466
:100C1000936E703888828983A3A3A3A3E493F50815
:100C2000740193F5099003B3E508F0A3E509F0A377
:100C30007480F088828983A3A3A3A3A3A3E493F879
:100C4000740193F99003B6E8F0A3E9F0050B900462
:100C50007F120CD9C39AF508E99BF509740378084B
:100C6000121F4EC3E50B9508E495095003020BC90A
:100C70009003B3E0FCA3E0FDA3E0FEEC4D4E900337
:100C8000A6700474048029E0640460259003BEE02B
:100C9000FAA3E0FB9003B6E0F8A3E0F9C3EA98EB0F
:100CA0009950089003B6EAF0A3EBF09003A6740104
:100CB000F07F04021D6C9003B3EAF0A3EBF0A37481
:100CC00080120CC522F09003B3E0F9A3E0FA22E011
:100CD000FEA3E0FF8882898322E0F8A3E0F9E822FE
:100CE00074EE121BCDEA2404F8E43BF98808890964
:100CF0008882F583E4936025900481120CD9FEE983
:100D0000FF8007EE2404FE50010F8E828F83E49350
:100D1000F8740193F9EA687002EB6970E6750B00EC
:100D2000803F9062147490F07410120E3570037549
:100D30000A408E828F83A3A3A3E493550E6006E539
:100D40000AD2E0F50AE50A906215F0EA906213F023
:100D5000EC240CF582E43DF583E4F090620EF0059E
:100D60000B850882850983E493F8E50BC39840035B
:100D7000020E307A0079051216E78A0C8B0DEA45CF
:100D80000D60DCEA2402F8E4350DF9881089118839
:100D900082F583E493540FF51290620EF0750A0009
:100DA0008A828B83A3A3A3A3E4932407F50EA3E471
:100DB000933400F50F7403780E121F4EAA0EA8127A
:100DC000749F28F8E43403F9E8FCE9FD750E017519
:100DD0000F00E512780E121F1CE50EF50EE50C242F
:100DE00003F8E4350DF9851082851183E493A2E7B9
:100DF0004003020D229062117448F07408120E35FF
:100E00007003750A408E828F83A3A3E493550E600E
:100E100006E50AD2E0F50AE50A906212F0EA90626D
:100E200010F08C828D83A3A3A3A3A3A3A3020D59C7
:100E30007F0B021D6CF088828983E4935403640164
:100E400022C082C083120F337010A3120F36700AB3
:100E5000A3E064017002A3E060079003A67404801D
:100E60000C9003B374A0F0A37403120F8BF0D08323
:100E7000D0822274F3121BCD90039FE064026014B1
:100E80009003BC120F36700CA3120F36700690033D
:100E9000BBE060099003A67404F0020F2E7A00797B
:100EA00001121BCB9003BAE0606F7A00F91217763B
:100EB0008A0A8B0BEA450B605890039F7404F090EC
:100EC00003BAE09003A0F0750800850A82850B83C1
:100ED000A3A3A3A3E493F8E508C398504AA8087411
:100EE000A128F8E43403F9E8FEE9FF8E828F83E459
:100EF000F07A0079041216E78A828B83A3A3A3E415
:100F000093F88E828F83E06870E7120CE00508800A
:100F1000B99003A67404F0800E9003A0F090039F94
:100F20007403F0F91216677A007902121BCB7F0660
:100F3000021D6C9003BAE0F8A3E0F9E8492274F6C8
:100F4000121BCD90039FE0640470199003B8E06415
:100F5000817011120F33700C9003BEE064017002B7
:100F6000A3E060079003A67404801A9003BCE024F9
:100F7000A1F508A3E03403F5099003B3E508F0A355
:100F8000E509120F8BF07F03021D6CF0A3E4F0A3C0
:100F900004120F9522F0A3E4F09003A6042274F744
:100FA000121BCD90039FE0640470649003B8E0646A
:100FB00001705C9003BE120F3670549003BAE0FBD0
:100FC0009003BCE0FA9003A0E0F91217AE8A088BF8
:100FD00009AE08AF09EE4F60369003BCE0FA790322
:100FE000121BCB9003BAE0C0E09003BCE024A1F850
:100FF000A3E03403F988828983D0E0F0EEFAEFFBB6
:10100000120CE09003BCE0FA7904121BCB8006902E
:1010100003A67404F07F02021D6CC082C0838003AB
:10102000121A31A2E840F9A823E854046009782391
:10103000E654FBF612140EA823E854106009782336
:10104000E654EFF612142FA823E8A2E05005782307
:1010500054FCF690620EE0FA7404F0906214E0A280
:10106000E05039A9A8C2AF906216E0F8A3E0E8FB0F
:10107000E9A2E792AF8017906228E0C0E090039366
:10108000E0F812111CD0E0F0900393E004F0EBFDC7
:1010900074FF2DFB0470E0906214E4F0EA90620E9D
:1010A000F0E0FC7404F0906211E0A2E040319003A3
:1010B00095E0F8900394E06860257A4090039412DC
:1010C000115FE0906228F0900394E004F008900330
:1010D00095E06860041AEA70E39062117401F0EC24
:1010E00090620EF0D083D0822274F8121BCDE9FEFC
:1010F0007900801212111CE08A828B83F090039297
:10110000E00412115409900392E0F8900393E06810
:101110006005E9C39E40DD7F01021D6C748528F5E2
:1011200082E43404F58322C082C083E9FC80188AFB
:10113000828B83E0C0E090039512115FD0E0121122
:1011400054900395E004F0ECF874FF28FC0470DF81
:1011500079018090F08A828B83A3AA82AB8322E0FC
:10116000F8748528F582E43405F58322C082C083B3
:10117000900395E0F8900394E068600479018002A0
:1011800079000210E402101A74FB121EB67E009061
:1011900006857808121F6C794A1213BD9006857473
:1011A00001F0A3F0A37469F0A374A5F09003D778BD
:1011B00008121EE170047E0180159003DB7808128E
:1011C0001EE16008E59D541864107003022000EED3
:1011D000F9121334C280D291EEA2E050030212E75A
:1011E000AA18AB19120291E970030212E7C29185A5
:1011F0001882851983E0C3943C500EE0F8743CC318
:1012000098F50895E0F5098006750800750900E471
:10121000F50AF50B9003DF780C121F6C7808790C37
:10122000121AD1790612015112101A120176E9F838
:101230007409687007790612015180277407686085
:1012400016A2935012E8600874066860030212E761
:10125000A292400F0212E7750800750900750A0096
:10126000750B0085080C85090D850A0E850B0F90FE
:1012700003C27808121EF6E50C450D450E450F70A9
:10128000A7D2807907120151800312101A12116C33
:10129000E970F77E007F007401121F88E4F0A374E8
:1012A00026F0A3E4F0A3F07401121F887808121F3F
:1012B0006C85080C85090D850A0E850B0F9003C2FD
:1012C000780C121EF67401121F88780C121F5DE54F
:1012D000084509450A450B70CEA29250FCA29350D6
:1012E000F81213B8022000D280D291794E1213BDA9
:1012F000750800750900750A00750B007905120163
:101300005112101A120176E9F874096860EE74013E
:101310006870EE12101A9003E37808121EF690031C
:10132000E77808121DFA50EB1213B802200074057A
:10133000121E372274F8121BCDE9FE53BEFBE59D49
:10134000A2E650FA0078F8790100E824FF18E934A1
:10135000FFF9E84970F375C6807480659E70FA43A2
:10136000BE049062707408F01213ADEE700853F46E
:10137000FEC29043FE017403F5D575D4899003969F
:10138000E4F0A374C2F0A37401F0A3E4F0A3F0A30B
:10139000F0A37408F01213D37AFF7BFF1219EC53F9
:1013A000F4FED29043FE011213AD021117D2804316
:1013B000FD01C29143FE0222D280C29122781075B3
:1013C000B60FE5B4A2E750FAE5BBC39940F118E8BF
:1013D00070ED2274F7121BCD7A0079011217768A0C
:1013E000828B83A3A3A3A3A3A3A3E493A2E6900366
:1013F000B2500474018001E4F09003B1E4F0906213
:101400000F7403F0E0A2E750FB7F02021D6CC08264
:10141000C08390039F7402F0A3E4F09003A6F079D8
:1014200003121667752100752200D083D0822274C2
:10143000F6121BCD90620EE0FEE4F0906211E0FF28
:10144000A2E4501D7480F09003A67407F0E52145D6
:10145000226009852182852283121F979003A6E4CA
:10146000F0EFA2E2500B906211E4F09003A6F0803E
:10147000679003A6E0F87402687046906216E0FF79
:101480009003B3121DACEFF97A207B6212168174BF
:1014900003121E37EFF89003B612164512164F2F9F
:1014A000121657A3E0F8A3E0F9E8496004744080FD
:1014B000027448906211F0E849600302163B02167C
:1014C000177406687009852182852283121F979000
:1014D00003A6E060030215C2EFA2E0400302163B40
:1014E0007508B8750903750A007808121ECC7908CA
:1014F0007A207B621216817403121E3775210075E3
:1015000022009003B8E054E0601D24E0700302154F
:101510009D24E0607224C0604824E070030215A896
:1015200024E0606E0215B3A3E014602624FE601D63
:1015300024FE600A24FC601F24FE60208075120ACD
:10154000FE9003A6E06404707278608070120AF264
:1015500080EF120AE680EA120E7380E5120F9E8079
:10156000E0A3E0600E24FA600F24FE601024FE6009
:1015700011804012091980C9120B4480C4120E4117
:1015800080BF120F3E80BA7521B675221B121BB6A2
:1015900080AF7521B875221B121BB880A47521512C
:1015A00075221B121B51809975218175221B121BFC
:1015B00081808E9003A67404F0808E7840E890625B
:1015C00011F09003A6E0F874016870617F02900347
:1015D000B6E0F8A3E0F9C3E89420E994005007E8E6
:1015E000F5087F0A80037508209003B3121DACA98B
:1015F000087A207B621216AC7403121E37AC0812F4
:10160000164F2C121657A808A3121645EF90621118
:10161000F0E8C394205024E5214522600985218209
:10162000852283121F979003A6E4F0800E7405684C
:101630007009852182852283121F97EE90620EF039
:101640007F03021D6CC3E098F0A3E09400F02290A9
:1016500003B31216D9E922F9E43AFA9003B3E9F098
:10166000A3EAF0A3EBF022C082C083E99003A7783D
:1016700005F0A3D8FC9003AC7805F0A3D8FC0214C5
:101680002A74F8121BCDEAFCEBFDE9F87408121F6E
:10169000881216D460118C828D83E0121EA0E9247A
:1016A0000109E43AFAD8EF7F01021D6C74F8121BAD
:1016B000CDEAFCEBFDE9F87408121F881216D4601D
:1016C00011121E6D8C828D83F0E9240109E43AFA2F
:1016D000D8EF80D31216D9E822E0F9A3E0FAA3E00C
:1016E000FB22D083D08222C082C083E9FCEAFD7A4B
:1016F000007B00800312173290039DE0F8A3E0F90D
:1017000090047BE0687003A3E069602490039EE08E
:10171000F5838882A3E493F8EC68700D90039DE054
:10172000FAA3E0FB1217328007ED6870C8ED60C5C0
:1017300080B090039DE0F8A3E0F5838882E493F8FD
:1017400090039DE028F8A3E03400F990039DE8F0B1
:10175000A3E9F022C082C0831217657A00790112D2
:1017600016E70216E2900479E0F8A3E0F990039DF1
:10177000E8F0A3E9F02274F7121BCDE9FFEAFE12AC
:1017800017657A0079021216E7EA4B601CEF6010C9
:101790008A828B83A3A3A3A3A3E4936F70E480093D
:1017A000EEF874FF28FE0470D97F02021D6C74F5F8
:1017B000121BCDEAFF8B087A001217767A027904A1
:1017C0001216E7EA4B60188A828B83A3A3E4936F17
:1017D00070EA8A828B83A3A3A3E493650870DD7FFC
:1017E00004021D6C74F7121BCD74F0121EB6E97A58
:1017F000007B00600C146010146014146018021850
:10180000D47AF37B030218D47AF77B030218D47AD4
:101810001B7B040218D490043FE060030218D090B0
:1018200003EB7408121F377408121DD9750808F5E8
:10183000097808121ED07402121F377AE87B0779E4
:101840007F1218EB7402121E377808121ED0740A29
:10185000121F377402121F2F121C907402121E37AF
:101860008B09EA450970197509007808121ED07CA9
:101870000C7D787402121F2F121D267402121E375F
:101880007C287D00EDF8851882851983E58228F58E
:1018900082E43583F583E0FFECF8743F28F8E43404
:1018A00004F9EF1218DC88828983F0EFC41218DC87
:1018B000C0E0E824FEF582E934FFF583D0E0F00DC6
:1018C00074FC2CFCEDC3940840BA90043F742AF0D9
:1018D0007A3F7B047410121E370217A9540FFA7452
:1018E000692AF582E43404F583E02274F6121BCDF4
:1018F000890A740F550AF508750900740B780812E7
:101900001F1CEA2400F8EB3480F9E82400E93509CB
:10191000F985C709A2AFE433F508C2AFE50AC4549C
:101920000FFAE5C754F84AF5C7740A121F88E0FA9F
:10193000A3E0FB801C88828983E08C828D83F08801
:10194000828983A3A882A9838C828D83A3AC82AD74
:1019500083EAFEEBFFEE24FF1AEF34FFFBEE4F703D
:10196000D48509C7E508A2E092AF7F03021D6C741D
:10197000F7121BCDED900389F0ECA3F0A37462F095
:10198000A37473F0A3E0541FF07409121F88E0F5EC
:1019900008A3E0F509E508333354FC90038EF07496
:1019A000067808121F4EE50890038DF090038F749F
:1019B00012F0A37442F075D1FE75D601EA906271FF
:1019C000F0EBA3F0906270E0D2E1F0E0A2E740FB20
:1019D0007F02021D6CC082C083E9C333906272F043
:1019E000906270E0D2E0F0D083D0822274F7121BB4
:1019F000CD7523007524007525008A268B27EA9073
:101A0000620BF08A088B0974047808121F4EE508EF
:101A1000906207F08A088B0974097808121F4EE556
:101A200008543E906209F0758B00C2E87F02021DE7
:101A30006C74F7121BCDE59DA2E650FA906206E0A9
:101A4000F9A2E25034AA26EA90620BF0F508852745
:101A50000974047808121F4EE508906207F08A089E
:101A600085270974097808121F4EE508543E9062D4
:101A700009F0906201E0D2E0F0E9782346F6906246
:101A800002E0F50875090074047808121F1C782319
:101A9000E50846F608E50946F6906204E0F50875A3
:101AA000090074097808121F1C7824E50946F6E934
:101AB000A2E050037525017406596003752500E501
:101AC0008BA2E55006758BDF752500121BCC021A20
:101AD00027080808EAC0E0EBC0E086F0E7A4FA189F
:101AE0000986F0E7A42AFA180986F0E7A42AFA186A
:101AF0000986F0E7A42AFA1986F0E7A4FBE5F02AA4
:101B0000FA190886F0E7A42BFBE5F03AFA190886E3
:101B1000F0E7A42BFBE5F03AFA18180986F0E7A4E1
:101B2000C5F02BFBE43AFA1908E7C5F0C6A426F67F
:101B3000E5F03BFBE43AFA1886F0E7A4F6E5F00896
:101B400026F6E43B08F6E43A08F6D0E0FBD0E0FAEB
:101B500022C082C0839003B9E0F8742268700890B4
:101B600003A6E0701A80117420689003A6700DE03F
:101B7000700D121BA89003A6740280027404F080FA
:101B800043C082C0839003B9E064219003A6701320
:101B9000E07013121BA8A37407F0A3E4F09003A64F
:101BA0000480027404F0801C9003B37496F0A37454
:101BB00003F0A3E4F02280028000C082C08390037F
:101BC000A67404F0D083D0822280EF22222518C58B
:101BD00082C0E0E51934FFC583C0E0E518C39582F3
:101BE00024F910AF08858319858218800885831928
:101BF000858218D2AFCEF0A3E520F0A37808E608DE
:101C0000F0A3DEFAEFF0A3E58124FBF8E608F0A3E9
:101C1000E608F0A30808E608F0A3E608F0A315819B
:101C20001581D0E0FED0E0F815811581E8C0E0EE26
:101C3000C0E02212010002020000205104A816098F
:101C40000001020301090243000201008019090496
:101C50000000010202010005240010010424020218
:101C60000524060001052401000107058203400048
:101C70004009040100020A00000007058402400038
:101C800000070504024000004E1C0000711C00000B
:101C900074F8121BCD7408121F88E0FEA3E08015B3
:101CA000A3AA82AB838C828D83A3AC82AD83EE2406
:101CB000FF1EEF34FFFFEE4F60198C828D83E0F83A
:101CC0008A828B83E0F9E86960D6E9C398FA95E0E7
:101CD000FB80047A007B007F01021D6CE47921788F
:101CE00007B800028004F709D8FCE490030278C129
:101CF00079018002F0A3D8FCD9FA7AC27B03900064
:101D00008E78C479018015E493A3AD82AE838A8274
:101D10008B83F0A3AA82AB838D828E83D8E9D9E727
:101D2000121188121F9274F7121BCDEAF8EBF974A6
:101D300009121F88E0FEA3E0FF80188C828D83E0EB
:101D400088828983F0A3A882A9838C828D83A3AC27
:101D500082AD838E088F09E50824FF1EE50934FF54
:101D6000FFE508450970D47F02021D6C8519838543
:101D70001882E0A3FEE0A3F5207808E0A3F608DFD0
:101D8000FAE0A3FFE0A3C0E0E0A3C0E0E0A3C0E06E
:101D9000E0A3C0E010AF088582188583198008850C
:101DA0008218858319D2AFD083D082227403800039
:101DB000CCC0E0EDC0E0E518C39CCCAD1950011DCE
:101DC00010AF068C188D1980068C188D19D2AF12A1
:101DD0001DD9D0E0FDD0E0FC22CAC0E0E0A3C5825E
:101DE000CCC582C583CDC583F0A3C582CCC582C5D1
:101DF00083CDC583DAE6D0E0CA22C008C3E096F5F9
:101E00000808A3E096420808A3E096420808A3E069
:101E10009645087001D3D00822C5822518C582C511
:101E200083351910AF07F5198582188007F51985D4
:101E30008218D2AFC5832200C0D0251810AF08F594
:101E400018500C05198008F51850020519D2AFD0AA
:101E5000D0222518F58210AF08F518400C1519800E
:101E600008F51840021519D2AF85198322BB01026B
:101E7000E722C082C08389828A83BB0003E080029C
:101E8000E493D083D082226016080808C6C313C624
:101E900018C613C618C613C618C613C6D5E0EA225C
:101EA000BB000EC082C0838A838982F0D083D08237
:101EB00022BB0101F722251810AF08F518400C15B8
:101EC000198008F51840021519D2AF227403800456
:101ED00074028000C0E0F404121E52D0E0121F7B96
:101EE00022E066701008A3E066700A08A3E066703E
:101EF0000408A3E06622E026F608A3E036F608A36D
:101F0000E036F608A3E036F622E627F60809E637BB
:101F1000F60809E637F60809E637F622700422606B
:101F20000D18C6C333C608C633C6D5E0F41822253B
:101F300018FAE43519FB222518FCE43519FD227541
:101F4000D00075813F751802751903021CDC600C06
:101F500008C6C313C618C613C6D5E0F422E6F008B7
:101F6000A3E6F008A3E6F008A3E6F022E0F608A353
:101F7000E0F608A3E0F608A3E0F622CAC0E0E6F027
:101F8000A308DAFAD0E0FA222518F582E43519F52B
:101F9000832200000080FBE473FFFFFFFFFFFFFFD1
:101FA000FFFFFFFFFFFFFFFFFFFFFFFFFFFFFFFF41
:101FB000FFFFFFFFFFFFFFFFFFFFFFFFFFFFFFFF31
:101FC000FFFFFFFFFFFFFFFFFFFFFFFFFFFFFFFF21
:101FD000FFFFFFFFFFFFFFFFFFFFFFFFFFFFFFFF11
:101FE000FFFFFFFFFFFFFFFFFFFFFFFFFFFFFFFF01
:0A1FF600850609433886000000004C
:020000040003F7
:01FFF000F020
:020000040000FA
:10200000022D5F02222DFFFFFFFFFFFFFFFFFFFFFB
:10201000FFFFFFFFFFFFFFFFFFFFFFFFFFFFFFFFD0
:10202000FFFFFFFFFFFFFFFFFFFFFF022B39FFFF57
:10203000FFFFFF02224FFFFFFFFFFFFFFFFFFFFF3A
:10204000FFFFFFFFFFFFFFFFFFFFFFFFFFFFFFFFA0
:10205000FFFFFF02216DFFFFFFFFFFFFFFFFFFFFFD
:10206000FFFFFFFFFFFFFFFFFFFFFF022A02FFFF4F
:10207000FFFFFFFFFFFFFFFFFFFFFF022889FFFFBA
:10208000FFFFFF0221C1FFFFFFFFFFFFFFFFFFFF79
:1020900010201020010020FD00020000603100002F
:1020A0000000FA30E4313031A23100002431000068
:1020B0000000000000000000000000000000000020
:1020C00000000000000006FFFFFF00035F005F004C
:1020D0003000580000000000000000000000000078
:1020E00000000000000000000000000000000000F0
:1020F00000000000AB260027002700270027082744
:1021000001010400CD18000000E8030000FFFF48B3
:102110001903E803000064006400B801A0BB0D00CF
:10212000A0BB0D0002020008000005020704010523
:102130001E02051E020A0A01080803B80B02803EAF
:102140000102FEFFE8030A050001FFFF0A1401E097
:10215000010105030101FF0F10FEFF014E00000009
:1021600000734C00000000FF000000FF00C0E0749E
:10217000F212264CA2AFE433F508D2AFAFA7AEA15E
:10218000EE5F54106006122E9075A1EFEE5F5408BA
:102190006008122E9675A1F78023EEA2E092F0EF70
:1021A000A2E082F05017906198E0F890037BE0C3C2
:1021B00098A2D265D0335002E8F075A1FEE5088000
:1021C00063C0E074F212264CA2AFE433FED2AF90AB
:1021D00061A4E0F8759B00E591585408600875917A
:1021E000F7122EDE8023E59158541060087591EFA8
:1021F000122EE48014E591A2E092F0E8A2E082F0D1
:102200005007E0C2E0F012302E9061A3E0F8E5E95B
:10221000585404600E12300475E9FB906193E0A2FB
:10222000E640F2EEA2E092AF7F01022708C0E07420
:10223000F212264CA2AFE433FED2AF9061A5E0F8D3
:10224000E5BF585404600675BFFB12304680D4C009
:10225000E074F112264CE59DA2E650FA906206E089
:10226000F9A2E25034AA2CEA90620BF0F508852D11
:102270000974047808122D7EE508906207F08A0838
:10228000852D0974097808122D7EE508543E906268
:1022900009F0906201E0D2E0F0E9782946F6906218
:1022A00002E0F50875090074047808122CAC78294E
:1022B000E50846F608E50946F6906204E0F508757B
:1022C000090074097808122CAC782AE50946F6E969
:1022D000A2E05003752B017406596003752B00E5CD
:1022E0008BA2E55006758BDF752B00123562758B5E
:1022F00000C2E87F02022708C3E498F8E499F912C3
:1023000023398026C3E49AFAE49BFBE920E7E9122B
:102310002339E498F8E499F922C3E498F8E499F9A8
:10232000122339E498F8E499F9C3E49AFAE49BFBA0
:1023300022EB20E7CFE920E7E0B90010BB0008E876
:102340008AF084F8AAF022E4FBC8FA22EB70227B20
:1023500010C833C8C933C9335007C39AC3DBF280EE
:10236000069A50012ADBEAC833F4C8C933F4C9FA23
:102370002275F008E4C833C8C933C933C99AC99B68
:102380005004C92AC93BD5F0ECFBC833F4C8E4C9F2
:10239000FA2274F512258374FA122BB675080475A7
:1023A00009007808122B0B7404122B967AF87B071D
:1023B00079031248E87402122B1E90811F780812CC
:1023C0002D6F7402122DF07808122C0D70487508CC
:1023D000027509007808122B0B7402122B967AF6FC
:1023E0007B0779031248E87402122B1E8518828538
:1023F0001983E0F47003A3E0F4601B85188285194B
:1024000083E0F8A3E08882F5837402F0A3F0A3745C
:1024100069F0A374A5F0C2AF75D69F0200007406E0
:10242000122B1E7F040228CC080808EAC0E0EBC08B
:10243000E086F0E7A4FA180986F0E7A42AFA18095A
:1024400086F0E7A42AFA180986F0E7A42AFA198682
:10245000F0E7A4FBE5F02AFA190886F0E7A42BFBC5
:10246000E5F03AFA190886F0E7A42BFBE5F03AFA12
:1024700018180986F0E7A4C5F02BFBE43AFA19080E
:10248000E7C5F0C6A426F6E5F03BFBE43AFA188669
:10249000F0E7A4F6E5F00826F6E43B08F6E43A088F
:1024A000F6D0E0FBD0E0FA22E4CFC0E0E4CEC0E01A
:1024B000E4CDC0E0E4CCC0E075F020E626F608E606
:1024C00033F608E633F608E633F6181818EC33FC52
:1024D000ED33FDEE33FEEF33FFC3EC9709ED9709C3
:1024E000EE9709EF97191919400FFFEC97FC09EDCA
:1024F00097FD09EE97FE191906D5F0BFECF709ED27
:10250000F709EEF709EFF7191919D0E0FCD0E0FD53
:10251000D0E0FED0E0FF222518C582C0E0E51934E6
:10252000FFC583C0E0E518C3958224F810AF088585
:1025300083198582188008858319858218D2AFCEC9
:10254000F0A3E520F0A37808E608F0A3DEFAEFF0A8
:10255000A3E58124FAF8E608F0A3E608F0A3E6086C
:10256000F0A30808E608F0A3E608F0A3158115819A
:10257000D0E0FED0E0F8158115811581E8C0E0EECD
:10258000C0E0222518C582C0E0E51934FFC583C02C
:10259000E0E518C3958224F910AF08858319858278
:1025A000188008858319858218D2AFCEF0A3E52064
:1025B000F0A37808E608F0A3DEFAEFF0A3E58124A3
:1025C000FBF8E608F0A3E608F0A30808E608F0A385
:1025D000E608F0A315811581D0E0FED0E0F8158162
:1025E0001581E8C0E0EEC0E022122DE5B90003023B
:1025F0002636E47921780DB800028004F709D8FC6A
:10260000E49003017827791A8002F0A3D8FCD9FA64
:102610007A277B1C90209478DA79018015E493A3C3
:10262000AD82AE838A828B83F0A3AA82AB838D8234
:102630008E83D8E9D9E77582AE7583AD7406122A08
:10264000CA75826E75834A7400122ACAC0D02518D2
:10265000C582C0E0E51934FFC583C0E0E518C39525
:102660008224F310AF08858319858218800885833A
:1026700019858218D2AFC8F0A3E9F0A3EAF0A3EB62
:10268000F0A37908E709F0A3D8FAECF0A3EDF0A3E2
:10269000EEF0A3EFF0A3D0E0F0A3D0E0F0A3D0E001
:1026A000F0A3E520F0A3E5F0F0A32212010002025E
:1026B0000000205104A81609000102030109024389
:1026C0000002010080190904000001020201000556
:1026D000240010010424020205240600010524013F
:1026E00000010705820340004009040100020A00BE
:1026F00000000705840240000007050402400000B6
:10270000C6260000E9260000851983851882E0C0EE
:10271000E0A3E0F9A3E0FAA3E0FBA37808E0F60861
:10272000A3DFFAE0FCA3E0FDA3E0FEA3E0FFA3E04B
:10273000C0E0A3E0C0E0A3E0F5D0A3E0F520A3E073
:10274000A3F5F010AF08858319858218800885836A
:1027500019858218D2AFD082D083D0E0F8D0E03291
:1027600075F0108E218F228582268583258518821B
:10277000851983E0CEA3E0CF852682852583EBC92A
:10278000EAC8EDCBECCAC3E833C8E933C9EA33CAB7
:10279000EB33CBC3EA9EF524EB9FF523B35004AB98
:1027A00023AA24EC33CCED33CDD5F0DAAE21AF2221
:1027B00022D083D082ECC0E0EDC0E0E493A3FCE43F
:1027C00093A3FDED4C600D12290CEC24FFFCED34BD
:1027D000FFFD80EFE493A3FCE493A3FDED4C600DBB
:1027E0001229ADEC24FFFCED34FFFD80EFD0E0FDBD
:1027F000D0E0FCE493A3C0E0E493C0E02285198319
:10280000851882E0A3FEE0A3F5207808E0A3F6088F
:10281000DFFAE0A3FFE0A3C0E0E0A3C0E0E0A3C0D4
:10282000E0E0A3C0E0E0A3C0E010AF088582188517
:1028300083198008858218858319D2AFD083D0820E
:10284000022AD0D083D082E9C0E0E493A3C386F00B
:10285000C5F095F0F908E493A386F0C5F095F07003
:102860000BE493A3C3994005E9048002A3E475F047
:1028700002A42582F582E5F03583F583D0E0F9E402
:1028800093A3C0E0E493C0E022C0E074F212264CAF
:10289000A2AFE433FED2AFE58AA2E2500790033E36
:1028A000E0D2E0F0E58AA2E3500790033EE0D2E1F7
:1028B000F0758A00C2EB7A107B0090033AE0F912BF
:1028C0003310EEA2E092AF7F0102270885198385BD
:1028D0001882E0A3FEE0A3F5207808E0A3F608DF65
:1028E000FAE0A3FFE0A3C0E0E0A3C0E0E0A3C0E003
:1028F000E0A3C0E010AF08858218858319800885A1
:102900008218858319D2AFD083D08222C0E0C3E47D
:102910009396087401939618400FE4936670080824
:10292000740193661870007019A3A3C3E49396080A
:102930007401939618A3A3400DD0E0D0E0D0E0023C
:1029400027EDA3A3A3A3A3A3D0E02274048008745B
:1029500003800474028000CCC0E0EDC0E0E518C341
:102960009CCCAD1950011D10AF068C188D19800636
:102970008C188D19D2AF122A4CD0E0FDD0E0FC2289
:1029800074028000CCC0E0EDC0E0E518C39CCCAD83
:102990001950011D10AF068C188D1980068C188DEA
:1029A00019D2AF122A2AD0E0FDD0E0FC22C0E0C04C
:1029B000F088F0E49366700808740193661870005C
:1029C000A8F0A3A3700BD0F0D0E0D0E0D0E00227B5
:1029D000EDA3A3D0F0D0E022D083D082CCC0E0E43D
:1029E00093A36006122A6D1470FAE493A360061292
:1029F0002BE21470FAD0E0FCE493A3C0E0E493C0AF
:102A0000E022C0E074F212264C758900C2C590190C
:102A1000F5E0700E7A007B10900411E0F91233108B
:102A20008003123BF27F01022708CAC0E0E493A3AF
:102A3000C582CCC582C583CDC583F0A3C582CCC574
:102A400082C583CDC583DAE5D0E0CA22CAC0E0E002
:102A5000A3C582CCC582C583CDC583F0A3C582CC76
:102A6000C582C583CDC583DAE6D0E0CA22C0E0E4E2
:102A700093A3D39C5010E493A3C39C400AD0E0D00E
:102A8000E0D0E00229F5A3A3A3D0E022C008C3E070
:102A900096F50808A3E096420808A3E096420808C5
:102AA000A3E09645087001D3D008227009080808F1
:102AB000226016181818C6C333C608C633C608C61F
:102AC00033C608C633C6D5E0EA22C09FF59FE4733B
:102AD000D09F22D083D082C09FE493C0E074019342
:102AE000C0E0740293F59F222518F58210AF08F517
:102AF00018400C15198008F51840021519D2AF8539
:102B00001983227404800A7403800674028002749C
:102B100001C0E0F404122AE8D0E0122D9C2200C08B
:102B2000D0251810AF08F518500C05198008F518B5
:102B300050020519D2AFD0D022C0E0C0D0E8C0E02A
:102B4000A8A8D2AFC2C7E8A2E792AFD0E0F8D0D031
:102B5000D0E032BB0102E722C082C08389828A832F
:102B6000BB0003E08002E493D083D0822260160889
:102B70000808C6C313C618C613C618C613C618C697
:102B800013C6D5E0EA222518F8E43519F9222518EC
:102B9000FAE43519FB222518FCE43519FD22C3E0BF
:102BA000C696F608A3E0C696F608A3E0C696F60811
:102BB000A3E0C696F622251810AF08F518400C15AC
:102BC000198008F51840021519D2AF22BB000EC0BB
:102BD00082C0838A838982F0D083D08222BB0101A4
:102BE000F722C0E0E493A36C7009D0E0D0E0D0E01D
:102BF0000229F5A3A3D0E022E76670100809E76672
:102C0000700A0809E76670040809E76622E0667042
:102C10001008A3E066700A08A3E066700408A3E049
:102C20006622C3E09608A3E09608A3E09608A3E016
:102C300096A2D265D03322C3E096F008A3E096F0C6
:102C400008A3E096F008A3E096F022C3E697F60802
:102C500009E697F60809E697F60809E697F622C30B
:102C6000E49396087401939608740293960874038B
:102C7000939622E627F60809E637F60809E637F6BE
:102C80000809E637F622E026F008A3E036F008A3AC
:102C9000E036F008A3E036F022E647F60809E647FA
:102CA000F60809E647F60809E647F62270042260AE
:102CB0000D18C6C333C608C633C6D5E0F41822E4DF
:102CC00093F608740193F608740293F6087403935C
:102CD000F622E026F608A3E036F608A3E036F6086A
:102CE000A3E036F622E657F60809E657F60809E6A5
:102CF00057F60809E657F622E056F608A3E056F61E
:102D000008A3E056F608A3E056F622E056F008A322
:102D1000E056F008A3E056F008A3E056F022E4C322
:102D200096F608E496F608E496F608E496F622C6C7
:102D3000F4C608C6F4C608C6F4C608C6F4C622C35C
:102D4000E09608A3E09608A3E09608A3E09622C3C5
:102D5000E7960809E7960809E7960809E7962275B5
:102D6000D00075813F751801751903000225E9E04F
:102D7000F608A3E0F608A3E0F608A3E0F622600C4C
:102D800008C6C313C618C613C6D5E0F422E6F00879
:102D9000A3E6F008A3E6F008A3E6F022CAC0E0E646
:102DA000F0A308DAFAD0E0FA22ECF0A3EDF0A3EEFB
:102DB000F0A3EFF022E0FCA3E0FDA3E0FEA3E0FF20
:102DC00022E0FAA3E0FBA3E0FCA3E0FD22E0F8A3ED
:102DD000E0F9A3E0FAA3E0FB22E8F0A3E9F0A3EA1C
:102DE000F0A3EBF022E5C754F84401F5C7790122BE
:102DF0002518F582E43519F58322122AD36AA20632
:102E0000122AD3B1A206122AD374A306122AD39C83
:102E1000A306122AD3C2A306122AD3D6A306122AC5
:102E2000D3EBA306122AD3F4A306122AD3A17A0065
:102E3000122AD3CD7A00122AD34F7D00122AD3A6AC
:102E40007D00122AD3E67D00122AD3FA7D00122AD1
:102E5000D3137E00122AD3047F00122AD3B57F0039
:102E6000122AD3C97F00122AD3A8B206122AD3CCC1
:102E7000B206122AD3E5B206122AD317B306122AD3
:102E8000D347B306122AD374B306122AD3D6B30695
:102E9000122AD3E5B306122AD3EFB306122AD3FCC3
:102EA000B306122AD335A406122AD355A406122A31
:102EB000D394A406122AD3AFA406122AD3CEA40612
:102EC000122AD334A506122AD33DA506122AD39A74
:102ED000A506122AD3BEA506122AD37FA606122A59
:102EE000D38CA606122AD39DA606122AD3FEBD06AF
:102EF000122AD316BE06122AD342BE06122AD3E6DF
:102F00008406122AD3408606122AD34E8606122A37
:102F1000D3618606122AD3768606122AD38B8606BA
:102F2000122AD39E8606122AD3128706122AD37734
:102F30008706122AD3198806122AD3DD8806122A98
:102F4000D3ED8806122AD3FC8806122AD397BA0634
:102F5000122AD3BBBA06122AD3E3BA06122AD30B1B
:102F6000BB06122AD3CBA606122AD3F2A606122A31
:102F7000D311A706122AD379A706122AD3BD9E061B
:102F8000122AD3D69E06122AD3E29E06122AD3F61E
:102F90009E06122AD3149F06122AD31E9F06122AB7
:102FA000D3289F06122AD33B9F06122AD3C89F0616
:102FB000122AD337A006122AD366A006122AD3B447
:102FC000A006122AD303A106122AD31EA106122A92
:102FD000D328A106122AD339A106122AD37CA1062E
:102FE000122AD3A4FF05122AD3C3D005122AD3ED87
:102FF000D005122AD30AD105122AD31DD105122ACF
:10300000D333D105122AD391D105122AD3C4D105C5
:10301000122AD3B5D505122AD315D705122AD348BB
:10302000D705122AD392D705122AD3E5D805122A3A
:10303000D30DD905122AD322D905122AD332D905A4
:10304000122AD376D905122AD3D1D905122AD3E16F
:10305000D905122AD3B4FE03122AD3CEFE03122AB4
:10306000D3F6FE03122AD30FFF03122AD333FF0332
:10307000122AD351FF03122AD368FF03122AD396D0
:10308000FF03122AD3B1FF03122AD3BAFF01122A77
:10309000D323FC02122AD333FC02122AD338FD02B6
:1030A000122AD36AFD02122AD390FD02122AD3B348
:1030B000FD02122AD3CAFD02122AD304FE02122AEA
:1030C000D36DFE02122AD3AFFE02122AD3EEFE0205
:1030D000122AD31FFF02122AD356FF02122AD3311B
:1030E0009106122AD3969106122AD33C9206122AEE
:1030F000D3739206122AD3A49305122AD33B9405C4
:10310000122AD3689605122AD3539905122AD3E1BD
:103110009A05122AD34D9B05122AD39C9E05122A8A
:10312000D3E79F05122AD361B506122AD3ACB506A0
:10313000122AD39FF903122AD345FC03122AD3EA99
:10314000FC03122AD316FD03122AD344FD03122ACC
:10315000D379FD03122AD3A1FD03122AD301FE0362
:10316000122AD302BB05122AD36ABF05122AD352F0
:10317000C105122AD37BC205122AD35BC305122ACA
:10318000D3FEC405122AD3CAC505122AD31EC6050A
:10319000122AD37EAB06122AD388AB06122AD3A9F1
:1031A000AB06122AD3ADF104122AD3ADF604122ACB
:1031B000D31BF804122AD3D7F904122AD352FA04E3
:1031C000122AD3F1FA04122AD3EAFB04122AD31CDE
:1031D000FD04122AD334FE04122AD314FF04122A47
:1031E000D325BA04122AD35DBA04122AD361C404C7
:1031F000122AD342C504122AD38EC604122AD3D768
:10320000C704122AD38DC804122AD361C904122A12
:10321000D348CA04122AD330CB04122AD3D2CB0407
:10322000122AD3FCCB04122AD3ACCD04122AD31C0D
:10323000CE04122AD335CE04122AD38CCF04122AFC
:10324000D33DD004122AD3BFD004122AD36BD104A9
:10325000122AD3DBD104122AD377D204122AD3F351
:10326000D204122AD311D304122AD313D404122A5B
:10327000D3C9D404122AD36FD504122AD33AB10683
:10328000122AD364B106122AD378B206122AD37B4B
:10329000B206122AD3CFBB06122AD311BC06122AB9
:1032A000D353BC06122AD363BC06122AD3CFF0052F
:1032B000122AD30DF105122AD376F105122AD393DF
:1032C000F105122AD3ACF105122AD35EF205122AB7
:1032D000D367F205122AD3ACF205122AD3E2F20523
:1032E000122AD3F9F205122AD36BF305122AD3F866
:1032F000F305122AD32EF405122AD385F405122AD7
:10330000D3E9F405122AD30CF505122AD370F5057A
:10331000122AD3CCF505122AD307F605122AD33C7C
:10332000F605122AD34EF605122AD360F605122AA4
:10333000D398F605122AD3E4F605122AD322F7050C
:10334000122AD34EF705122AD38EF805122AD3B1CA
:10335000F805122AD3C2F805122AD3B7FA05122AA1
:10336000D3D7FA05122AD33DA906122AD373A90688
:10337000122AD3BBA906122AD317AB06122AD300EE
:103380008005122AD3318105122AD36B8105122AB6
:10339000D32A8305122AD3548305122AD3E1850543
:1033A000122AD3218605122AD3B88705122AD34BB5
:1033B0008805122AD3A38805122AD3468905122A22
:1033C000D37E8905122AD3C08905122AD32F8B05F3
:1033D000122AD3818C05122AD3A48E05122AD3D2A5
:1033E0008E05122AD3F98E05122AD3028F05122ACE
:1033F000D3528F05122AD3E48F05122AD3D4920513
:10340000122AD3579305122AD384BD06122AD39ABF
:10341000BD06122AD3A4BD06122AD3358906122A64
:10342000D34B8906122AD3F08906122AD32F8A0693
:10343000122AD34C8A06122AD37D8A06122AD3CAAC
:103440008A06122AD3FD8A06122AD3388B06122A3C
:10345000D3248D06122AD395B706122AD3EAB706CB
:10346000122AD335B806122AD382B606122AD3F40A
:10347000B606122AD332B706122AD373B706122A17
:10348000D3D7F701122AD3DDF701122AD31DF80191
:10349000122AD30FFA01122AD33FFA01122AD3AE0D
:1034A000FA01122AD37CFB01122AD3BDFB01122A96
:1034B000D3EBFB01122AD375FC01122AD38CFC0139
:1034C000122AD399FC01122AD3A3FC01122AD33F5A
:1034D000FE01122AD334FF01122AD37DFF01122AE2
:1034E000D311DA05122AD327DA05122AD3BADA055C
:1034F000122AD3E6DB05122AD3DBDC05122AD378A5
:10350000DD05122AD3B8DD05122AD336DE05122ACC
:10351000D393DE05122AD3A3DE05122AD3CADE0511
:10352000122AD31DDF05122AD38EE005122AD39367
:10353000E005122AD3B3E005122AD304BD06122AED
:10354000D332BD06122AD367BD06122AD369BD063F
:10355000122AD36BBD06122AD37CBD06122AD37E53
:10356000BD06122AD381BD06122AD3ABAF06122A9A
:10357000D319B006122AD33BB006122AD373B00671
:10358000122AD3A9B006122AD3A59B06122AD3EC7D
:103590009B06122AD30F9C06122AD3429E06122A99
:1035A000D35C9E06122AD3879E06122AD3AEFF0250
:1035B000122AD381E205122AD35AE305122AD340F4
:1035C000E405122AD351E405122AD362E405122A33
:1035D000D3AEE405122AD3A2E605122AD3F6E705F4
:1035E000122AD326E805122AD3EDE805122AD34B76
:1035F000E905122AD3FFDA02122AD35ADB02122A71
:10360000D301DC02122AD376DD02122AD350DE0265
:10361000122AD30DDF02122AD324DF02122AD37317
:10362000DF02122AD3D7DF02122AD327E002122A9E
:10363000D33AE002122AD39BE002122AD3F4E0022A
:10364000122AD30CE102122AD3A0E302122AD3A435
:10365000E402122AD3DFE402122AD333E502122A4B
:10366000D3D0E702122AD316E802122AD389E8023D
:10367000122AD3D3E802122AD3A7E902122AD3EAE4
:10368000E902122AD304EA02122AD34BEA02122ACE
:10369000D36BEA02122AD310EB02122AD3F4EB0204
:1036A000122AD3FFEB02122AD34DEC02122AD3A224
:1036B000EC02122AD3E9EC02122AD34DEE02122AAE
:1036C000D371EE02122AD3F6F002122AD32DF102A0
:1036D000122AD335F202122AD359F202122AD3C87F
:1036E000F202122AD38BF302122AD3C6F302122A51
:1036F000D32CF402122AD341F502122AD389F502FF
:10370000122AD393F502122AD396F502122AD3A0D5
:10371000F502122AD3B3F502122AD33CF602122A7A
:10372000D365F602122AD378F602122AD3A4F6023F
:10373000122AD3CBF602122AD3EFF602122AD3684A
:10374000F702122AD3DAF702122AD311F802122A48
:10375000D31BF802122AD34AF802122AD360F802C5
:10376000122AD37BF802122AD3A9F802122AD3C94B
:10377000F802122AD312F902122AD34DF902122AA0
:10378000D354FA02122AD3B2FB02122AD3C8FB0284
:10379000122AD3DFFB02122AD3F1FB02122AD3A58D
:1037A000B906122AD3B6B906122AD33FBA06122A8C
:1037B000D3FC7F00122AD3C4E905122AD313EA05E9
:1037C000122AD3B3EB05122AD387ED05122AD3C9E7
:1037D000ED05122AD394EE05122AD39CEF05122A86
:1037E000D3BEEF05122AD31AF005122AD39BF00597
:1037F000122AD35B5000122AD37D5000122AD3D54F
:103800005100122AD31E5200122AD3945200122AB7
:10381000D3125300122AD3775300122AD3B953007C
:10382000122AD3285400122AD3D35400122AD34B7D
:103830005500122AD3905500122AD39F5900122AFC
:10384000D3A65B00122AD3D95B00122AD32B5C00CB
:10385000122AD32E5F00122AD3AA5F00122AD3584D
:103860006100122AD38A6200122AD3A26300122AAC
:10387000D3246400122AD3046500122AD36F650092
:10388000122AD3836500122AD3656600122AD395C3
:103890006700122AD3B06900122AD3A96B00122A3A
:1038A000D38C6C00122AD3226F00122AD3C36F006C
:1038B000122AD3C37000122AD3257400122AD335DA
:1038C0007400122AD37B7500122AD3187600122AAC
:1038D000D3427700122AD3D37700122AD30079007B
:1038E000122AD3457900122AD3D97900122AD31685
:1038F000D604122AD3B6D604122AD320D704122A09
:10390000D339D704122AD3C8D704122AD30CD80427
:10391000122AD32BD904122AD367D904122AD3DA54
:10392000D904122AD325DA04122AD384DA04122AFB
:10393000D32EDB04122AD317DE04122AD334DF0479
:10394000122AD3B1DF04122AD372E104122AD3124D
:10395000E204122AD3B1E204122AD314E304122A95
:10396000D389E304122AD398E404122AD379E50414
:10397000122AD3AFE504122AD3E2E504122AD39621
:10398000E604122AD3C2E604122AD33DE704122A1F
:10399000D3C0E804122AD33BEA04122AD390EB04E2
:1039A000122AD303ED04122AD30FEE04122AD3B63F
:1039B000EE04122AD324EF04122AD33CF004122A74
:1039C000D3ACDA03122AD317DB03122AD35FDB034B
:1039D000122AD3A3DB03122AD30DDC03122AD356F7
:1039E000DC03122AD391DC03122AD32BDD03122A23
:1039F000D385DD03122AD3DFDE03122AD368DF0367
:103A0000122AD392DF03122AD397E003122AD3A6F5
:103A1000E103122AD3D8E103122AD3C8E203122AFF
:103A2000D3D9E203122AD3F1E203122AD3F1E3033A
:103A3000122AD30EE403122AD3D3E403122AD3FDAD
:103A4000E403122AD314E503122AD33AE503122A17
:103A5000D371E503122AD391E503122AD3B8E50303
:103A6000122AD3D0E503122AD3AAE603122AD302DC
:103A7000E703122AD378E803122AD307E903122AAC
:103A8000D32BE903122AD342E903122AD30DEA0306
:103A9000122AD3B0EA03122AD3D6EA03122AD30693
:103AA000EC03122AD325EC03122AD3A6EC03122A24
:103AB000D313ED03122AD357ED03122AD3E5ED03F6
:103AC000122AD350EE03122AD302EF03122AD3F2A2
:103AD000F003122AD3CAF103122AD31CF203122ACA
:103AE000D316F303122AD323F403122AD334F50393
:103AF000122AD342F503122AD312F603122AD3B2A2
:103B0000F603122AD3F6F603122AD30BF703122A6E
:103B1000D30BF803122AD3AEF803122AD306F90303
:103B2000122AD31A9506122AD3539606122AD319AB
:103B30009706122AD37D9706122AD3F19706122AE6
:103B4000D3318D06122AD34F8D06122AD3938D06B8
:103B5000122AD3B98D06122AD3DF8D06122AD3F783
:103B60008D06122AD330BB06122AD3278E06122ABC
:103B7000D3928E06122AD3D48E06122AD3E98E0649
:103B8000122AD3F08F06122AD30B9006122AD314CE
:103B90009006122AD31D9006122AD3269006122AC6
:103BA000D3309006122AD3AD9006122AD300800695
:103BB000122AD31C8406122AD3388406122AD33D33
:103BC0008406122AD32AAE06122AD3859806122A10
:103BD000D331A206122AD30D9A06122AD3379A0697
:103BE000122AD37D9A06122AD3769B06122AD3066E
:103BF000B406122AD389BE06122AD3B5BE06122AEB
:103C0000D3008002122AD3578002122AD3C3800223
:103C1000122AD34F8102122AD3058202122AD34DCF
:103C20008202122AD3668202122AD3898202122ABF
:103C3000D3AB8202122AD3E98202122AD33883023A
:103C4000122AD3638302122AD3C18302122AD368B1
:103C50008402122AD3108502122AD38C8502122ADA
:103C6000D3598602122AD3A08602122AD3EC8602E6
:103C7000122AD3748702122AD3AD8702122AD303E1
:103C80008802122AD31F8802122AD34E8802122ACF
:103C9000D35A8A02122AD3888B02122AD3B48B02F7
:103CA000122AD3E88B02122AD3098C02122AD318C3
:103CB0008C02122AD3238C02122AD3D28C02122A0B
:103CC000D3428D02122AD3CD8D02122AD3D58D0272
:103CD000122AD3428E02122AD37E8E02122AD34493
:103CE0008F02122AD3179002122AD36C9002122A42
:103CF000D30B9102122AD3659102122AD3AA910200
:103D0000122AD3439402122AD3869502122AD37020
:103D10009802122AD3549902122AD3389A02122AEC
:103D2000D35D9A02122AD36E9A02122AD3E09A0223
:103D3000122AD3779B02122AD3EB9B02122AD3DBDF
:103D40009C02122AD3009D02122AD3189E02122A24
:103D5000D3369E02122AD3529E02122AD3C59E0245
:103D6000122AD3D49E02122AD35C9F02122AD3595C
:103D7000A002122AD366A002122AD36FA002122A2E
:103D8000D351A202122AD37DA302122AD38DA302F9
:103D9000122AD3C8A402122AD347A502122AD37822
:103DA000A602122AD3B4A602122AD38EA802122A7D
:103DB000D34BAC02122AD35FAC02122AD369AC02F5
:103DC000122AD373AC02122AD37DAC02122AD387F3
:103DD000AC02122AD3A0AC02122AD3AAAC02122A35
:103DE000D321AD02122AD32CAD02122AD35BAD022D
:103DF000122AD383AD02122AD38EAD02122AD3F334
:103E0000AD02122AD3FDAD02122AD308AE02122A45
:103E1000D32CAE02122AD350AE02122AD3C2AE0263
:103E2000122AD30BAF02122AD327AF02122AD39839
:103E3000AF02122AD3E4AF02122AD32DB002122A03
:103E4000D36BB002122AD3ECB002122AD393B10280
:103E5000122AD358B302122AD3BDB302122AD3EBCB
:103E6000B402122AD311B502122AD359B602122A69
:103E7000D393B902122AD391BB02122AD35CBD029A
:103E8000122AD3F5BD02122AD3F6BF02122AD3ABEF
:103E9000C002122AD3E4C002122AD354C102122A49
:103EA000D35EC102122AD387C302122AD38AC40264
:103EB000122AD3C7C502122AD31EC602122AD3C998
:103EC000C602122AD379C802122AD3C6C902122AFC
:103ED000D3E6C902122AD33BCA02122AD33CCB0230
:103EE000122AD364CB02122AD3C3CB02122AD3BB29
:103EF000CC02122AD332CD02122AD345CE02122A84
:103F0000D3B3CE02122AD3B2CF02122AD30CD202DA
:103F1000122AD335D202122AD39BD302122AD31DDE
:103F2000D502122AD374D502122AD322D602122A1B
:103F3000D3C7D602122AD32AD702122AD3E8D7022D
:103F4000122AD37AD802122AD3D9D802122AD31B22
:103F5000D902122AD34CD902122AD3A3DA02122A86
:103F6000D3008003122AD3328003122AD36B80033A
:103F7000122AD3348203122AD3788203122AD34E10
:103F80008303122AD3AD8303122AD3C38403122AD4
:103F9000D30F8503122AD39D8703122AD3818A0364
:103FA000122AD3C88B03122AD3608C03122AD36C33
:103FB0008C03122AD3B58C03122AD3F78D03122A4D
:103FC000D3ED8E03122AD3178F03122AD36D8F03DA
:103FD000122AD3C68F03122AD3399003122AD36F21
:103FE0009203122AD3F19303122AD3DC9403122AE8
:103FF000D3269603122AD35E9803122AD35B9B031F
:10400000122AD36A9B03122AD3FE9B03122AD3A936
:104010009C03122AD3EC9C03122AD3359D03122A47
:10402000D3859D03122AD3E99D03122AD35B9E03F5
:10403000122AD3779E03122AD3A69E03122AD3E50F
:104040009E03122AD3E09F03122AD38FA003122AC1
:10405000D30CA303122AD33EA403122AD316A5031A
:10406000122AD398A503122AD3CDA903122AD3FC6E
:10407000A903122AD357AA03122AD38AAA03122AFF
:10408000D302AB03122AD335AB03122AD396AB0368
:10409000122AD3E6AB03122AD3B3AC03122AD36C91
:1040A000AD03122AD330AE03122AD3AAB003122AC8
:1040B000D30CB203122AD35DB303122AD381B40303
:1040C000122AD384B403122AD3B3B403122AD3AB73
:1040D000B603122AD36AB703122AD399B703122A56
:1040E000D3B7B803122AD37FB903122AD340BB0334
:1040F000122AD3B0BB03122AD3E2BB03122AD30283
:10410000BC03122AD371BC03122AD36ABD03122A3C
:10411000D38EBD03122AD301BE03122AD32AC003B1
:10412000122AD389C003122AD3DDC003122AD30C6A
:10413000C303122AD3EFC303122AD377C403122A6C
:10414000D35BC503122AD3E5C503122AD3F9C503ED
:10415000122AD30DC603122AD321C603122AD3353D
:10416000C603122AD362C603122AD392C603122AA6
:10417000D34DC803122AD323C903122AD3C7C903B4
:10418000122AD31CCA03122AD37FCA03122AD3C805
:10419000CA03122AD3EFCA03122AD3B7CB03122AB7
:1041A000D35DCC03122AD3E3CD03122AD36ECE0300
:1041B000122AD3B5CE03122AD327CF03122AD37CD7
:1041C000D003122AD325D103122AD359D103122A9C
:1041D000D371D103122AD314D203122AD390D40359
:1041E000122AD338D603122AD356D603122AD374EE
:1041F000D603122AD340D703122AD38EDA03122A07
:10420000D3948101122AD3D68101122AD343870184
:10421000122AD38F8701122AD3D58701122AD326D7
:104220008901122AD38B8901122AD3CF8901122A3C
:10423000D3358B01122AD3908E01122AD3C38F015A
:10424000122AD3529B01122AD3E29B01122AD3CC09
:104250009E01122AD331A001122AD394A001122A5E
:10426000D3B0A101122AD31AA301122AD3F9A301B0
:10427000122AD367A601122AD3F9A701122AD38AD8
:10428000A801122AD3A9A901122AD336AA01122AF7
:10429000D340AA01122AD368AA01122AD30BAB0178
:1042A000122AD3F6AB01122AD3BEAC01122AD34B89
:1042B000AD01122AD361AD01122AD37EAD01122ABB
:1042C000D3A7AD01122AD3D4AD01122AD318B0015D
:1042D000122AD3EBB001122AD32FB101122AD3B183
:1042E000B101122AD352B201122AD384B201122A86
:1042F000D3CBB201122AD3FEB201122AD342B301A8
:10430000122AD391B301122AD396B301122AD3F2FF
:10431000B301122AD336B401122AD320B501122ACE
:10432000D385B501122AD3E3B501122AD362B601AF
:10433000122AD3DAB901122AD3DDBA01122AD373B1
:10434000BC01122AD3B6BF01122AD358C001122AC7
:10435000D3A1C201122AD35CC301122AD39BC30189
:10436000122AD35FC501122AD37CC501122AD38534
:10437000C501122AD38EC501122AD399C501122A6A
:10438000D3B8C501122AD3DCC701122AD339C80118
:10439000122AD343C801122AD34DC801122AD3B01E
:1043A000C801122AD30CC901122AD319CA01122A30
:1043B000D37ACA01122AD38BCB01122AD3D4CB01D0
:1043C000122AD39ECC01122AD3B5CD01122AD37959
:1043D000CE01122AD3C5CF01122AD3C9D001122A85
:1043E000D3C2D101122AD3DAD101122AD311D201B8
:1043F000122AD31BD201122AD325D201122AD3307A
:10440000D201122AD34ED201122AD396D201122AF5
:10441000D3F4D201122AD31BD301122AD32DD301F4
:10442000122AD3D6D301122AD30FD401122AD34091
:10443000D501122AD39DD501122AD38ED601122A74
:10444000D3C4D601122AD334D701122AD3B0D7014C
:10445000122AD331D901122AD358DA01122AD31AD7
:10446000DB01122AD3E8DB01122AD36DDC01122A08
:10447000D31CDD01122AD304DE01122AD39DDE01F2
:10448000122AD379DF01122AD3E1DF01122AD3A045
:10449000E001122AD3FCE001122AD360E101122AC2
:1044A000D326E201122AD349E201122AD303E301FF
:1044B000122AD325E301122AD386E301122AD3B6A6
:1044C000E501122AD3AFE601122AD35BE701122AD3
:1044D000D378E901122AD3C1E901122AD30CEA01E7
:1044E000122AD368EA01122AD3C6EA01122AD3EAB1
:1044F000EA01122AD30EEB01122AD343EB01122A4E
:10450000D36BEB01122AD3B0EB01122AD30EEC01CC
:10451000122AD367EC01122AD361ED01122AD30DBE
:10452000EF01122AD352EF01122AD37BEF01122A94
:10453000D304F001122AD377F001122AD385F001B7
:10454000122AD3A9F001122AD3FFF001122AD31A9A
:10455000F101122AD3D5F101122AD301F201122A54
:10456000D344F201122AD3A7F201122AD3B7F401DD
:10457000122AD3E3F401122AD39EF501122AD38220
:10458000F601122AD316F701122AD343C605122ABE
:10459000D37BC605122AD39CC605122AD3DEC605D4
:1045A000122AD342C705122AD34CC705122AD35C5C
:1045B000C705122AD393C705122AD33CCB05122A6A
:1045C000D304CD05122AD3E8CE05122AD38ACF050B
:1045D000122AD314D005122AD3508004122AD3F9F8
:1045E0008004122AD3D88104122AD3E48204122A26
:1045F000D3048304122AD3268404122AD3D6850432
:10460000122AD3438604122AD3148704122AD31AF7
:104610008804122AD3928804122AD3CD8804122A3D
:10462000D3268904122AD3618904122AD3AA8904C1
:10463000122AD33E8A04122AD3D48A04122AD3A976
:104640008B04122AD37C8C04122AD30A8D04122ADA
:10465000D3308D04122AD35D8D04122AD38E8D049B
:10466000122AD35B8E04122AD36B8E04122AD3BE75
:104670008E04122AD3CB8E04122AD3D88E04122A87
:10468000D3E18E04122AD3458F04122AD3A38F04B8
:10469000122AD3EE8F04122AD3099004122AD3309F
:1046A0009004122AD34D9004122AD3599004122A4E
:1046B000D3EA9104122AD3039204122AD37F9204DC
:1046C000122AD3929204122AD3A29204122AD34617
:1046D0009304122AD3B29404122AD3C59504122A41
:1046E000D3659604122AD36F9604122AD3EE960449
:1046F000122AD3FF9604122AD33E9704122AD36CAF
:104700009704122AD3399804122AD3909804122AB3
:10471000D3C99804122AD31F9904122AD33D9904AD
:10472000122AD38B9904122AD3569A04122AD3A49C
:104730009A04122AD3F19A04122AD3749B04122ADF
:10474000D39E9B04122AD3D49B04122AD3E39B0446
:10475000122AD3429C04122AD3BA9C04122AD3FBF5
:104760009C04122AD34B9D04122AD3769D04122A4C
:10477000D3909D04122AD3AA9D04122AD37F9E04AB
:10478000122AD3899E04122AD3C49E04122AD3D497
:104790009E04122AD3DD9E04122AD32E9F04122ACD
:1047A000D3429F04122AD364A004122AD377A00410
:1047B000122AD38CA004122AD31FA104122AD39345
:1047C000A104122AD338A204122AD343A204122A23
:1047D000D3A6A304122AD3C2A304122AD30EA4047C
:1047E000122AD37CA404122AD3AEA404122AD3C85A
:1047F000A404122AD328A504122AD3C7A504122A76
:10480000D312A604122AD365A804122AD3FDA80441
:10481000122AD374A904122AD3D1AB04122AD3E9E1
:10482000AB04122AD3ECAB04122AD3F8AB04122A3D
:10483000D30CAC04122AD314AC04122AD34BAC040C
:10484000122AD33FAD04122AD3C9AD04122AD34B86
:10485000AE04122AD3CBAE04122AD3A2AF04122A7A
:10486000D3C4AF04122AD35DB004122AD3BAB00461
:10487000122AD3BDB004122AD32CB104122AD37841
:10488000B204122AD38BB304122AD316B404122A08
:10489000D329B504122AD3F0B504122AD321B604C1
:1048A000122AD347B604122AD350B604122AD37F51
:1048B000B604122AD32FB704122AD3DFB704122A60
:1048C000D352B804122AD3F5B804122AD368B90413
:1048D000122AD3A7B904122AD3F0B904122AD38C0E
:1048E000B906122AD326B906122AD3A3B806122A69
:1048F000D3FABC06122AD392BC06122AD37DBC0678
:10490000122AD36DBC06122AD3E4FF03122AD3F96C
:10491000FF02122AD3E47F00122AD3DD7F00122A7D
:10492000D342AD05122AD38FAC05122AD3C3AB05EF
:10493000122AD31FAA05122AD3E8A905122AD3BA2C
:10494000A905122AD367A905122AD3BEA805122ADF
:10495000D326A805122AD300A805122AD3B5A70585
:10496000122AD389A705122AD3FDA605122AD39CA1
:10497000A605122AD357A605122AD387A106122A02
:10498000D372A505122AD345BE06122AD337FF05D6
:10499000122AD378FD05122AD3A4FC05122AD32BA0
:1049A000FC05122AD31DFC05122AD3BCBB06122A11
:1049B000D390A405122AD338A405122AD3A8A3059C
:1049C000122AD36CBB06122AD363A305122AD3473B
:1049D000A305122AD3F5A105122AD3B7A105122ADD
:1049E000D39B9806122AD391A105122AD333BB0672
:1049F000122AD315A105122AD3CBBA05122AD384C1
:104A0000BA05122AD323BA05122AD3F6B905122AF7
:104A1000D3CCB905122AD398B905122AD370B90597
:104A2000122AD310B905122AD3FAB805122AD3BF15
:104A3000B805122AD336B805122AD37DB405122A36
:104A4000D33BB205122AD300B005122AD382AF0598
:104A5000122AD323AE05122AD333AF05122AD3C0AC
:104A6000AE05122AD381AE05122AD30F8E0600009E
:104A70000080FBE4738F000100E91987000100E862
:104A80001935000400A51C25000200A91C260002FF
:104A900000AB1C27000200AD1C28000100B71C2938
:104AA000000100B81C84000400B91C86000100BD90
:104AB0001C2A000100BE1C2B000100BF1C2C0001A1
:104AC00000C31C2D000800CA192E000100C41C2FB1
:104AD000000100C51C30000100C61C31000100C7E8
:104AE0001C32000100D21933000100D31934000137
:104AF00000C81C36000100D41938000100C91C3957
:104B0000000100C21C83000200DD1C63000100E5FF
:104B10001964000100C01C65000100C11C6D00018A
:104B200000E61971000800C21966000100DC1C4390
:104B3000000100CD1C44000200CE1C45000100D045
:104B40001C46000200D11C47000800DD1948000186
:104B500000D31C4B000100D41C04000100DF1CA189
:104B6000000100E21C37000100E11C88000100E0A8
:104B70001C3C000100D5193D000100CA1C4900027F
:104B800000D51C67000100E7194D000200D71C4E3C
:104B9000000100D91C4F000200DA1C3E000100DCBD
:104BA0001951000100D61952000100CB1C5300011D
:104BB00000CC1C54000100D71900000000000000C8
:104BC0000136360101000102010001030100010468
:104BD00001060605020000070100340801000F0964
:104BE0000401010D0100FF0E08000017020000196A
:104BF0000100FF1A0100011B0100FE1C0100081D3D
:104C00000200001F01000120010001210200002319
:104C100001000F24020000260100012701000828DE
:104C20000200FF2A0100072B0102402C0100002D89
:104C30000100012E0100012F0100FF30010B1D3189
:104C40000800003A0100083B01000F3C0100013D53
:104C50000100FF3E04000042040000460400004A38
:104C60000400004E04000052040000560400005AE4
:104C700004000001037103010301030103010301A7
:104C800003220302030103100300030003000300D7
:104C90000300030003000342030003240306030090
:104CA0000300030403120325032303250323030442
:104CB0000304030003000300034403000300032371
:104CC000030003650321003503810300030503008E
:104CD0000300030003000325032303010171010105
:104CE00001010111010101310101010101800110E6
:104CF0000161013B00140063017301720162014311
:104D0000010001130106013D0135000401120100FB
:104D10000100010001000104010401330133013CE1
:104D20000144013201360000010001650100013536
:104D3000008101000105018201830100010302716C
:104D400002300160021102700201020202020280BE
:104D500002100261023A00410063027302720262B1
:104D60000243020002130238000002000204021291
:104D700002000200020002000204020402370037AF
:104D8000003C0244020002390000020002650200F9
:104D90000235028102000205028202830200020340
:104DA000047104020460041104700402040204018A
:104DB0000402041004610400041404630473047204
:104DC0000462044304000413040604000400040401
:104DD00004120400040004000400045104640000F0
:104DE00004000400044404000400040004000465FA
:104DF00004000435048104640005040004830400F5
:104E000004030071003001600011007000310220C5
:104E10000350048000100061000000140063007360
:104E20000072006200430000001300060000000052
:104E30000004001200000000000000000004000454
:104E400000370037003C0244000000000000000072
:104E500000650000003500810000000500000083AF
:104E600000000036000100060000000F00000000F6
:104E700000000000000000000003FFFF000004032A
:104E8000FFFF0000FFFF0FF4010005C40403200032
:104E90000100000B000000000000000003010F00F3
:104EA0000000000000000000000000000000000002
:104EB00000000000000000000000000000000000F2
:104EC0000000002E3913008C381F0092381F809884
:104ED0003801002E390200143803001A380400206B
:104EE0003805002638060032383000503831004A84
:104EF0003832005C38330062383500683834006E70
:104F00003836007438110080381400863815004493
:104F100038FFFF00000A000000020000000400004B
:104F20000008000000100000002000000040000009
:104F300000800000000001000000020000000400EA
:104F400000000800000010000000200000004000E9
:104F500000014642067C420876420B944210103F04
:104F60000AA642024C42056A420752420C2E420DEA
:104F70003A4264E83CFF000007ECFDFDFDECDCDCA0
:104F8000CCBCACAC9C9C8C7C7C6C6C5C5C5C4C4C01
:104F90003C3C2C2C1C1C03EAF5E5D5D5C5B5A595E4
:104FA00095858575756565555545453535252515B1
:104FB000150500160F00000B150B020002220F331F
:104FC00000000E5A6967426565416C6C69616E63E9
:104FD00065303901030507090B0D0F0002040608AF
:104FE0000A0C0D000119161816161823030030308C
:104FF00017181921301B1D1F3030301618192023A7
:105000001A1C1E3000393D3F373C3C362C442D00E5
:10501000034A49434E181A2505020C0E020B040BD5
:105020000A0708000F020402010101010902E80356
:10503000000000BE040A0000E8030E0000007F002C
:105040001E1E050303000404100A0C01080C2800AE
:1050500009042D03013014202D08FFC082C0839065
:105060001940E4F0A3F07C197D1A7AAD7B18123454
:1050700078123D18123F5E123D1E02657C74F512D7
:10508000251774F5122BB6E9FF8A08EBFE8C09E9A7
:10509000705B74026A703E7908123784750A007872
:1050A0000A122B0FE509F50A780A122B0FEEF50A02
:1050B000780A122B0F9018C912294B901CBDE0F9E9
:1050C0007CDD7D19901CDD126420123D42740712B4
:1050D0002B1E0251A474016A60030251A9790812BF
:1050E00037847B00EEFAF9123D840251A474016FFB
:1050F000600874026F60030251A9EA600574036AD4
:1051000070477902123784901CBDE0F99018C912DB
:105110002DC1123D30E9F89018D8E0A2E34010E923
:10512000700D901944E004F0640470031251C374CC
:105130000365087071901945E0F9740129F0E9C31D
:10514000940540621251C3805D74016A705B740102
:105150006F790A702E1237847401122DF0E4F07406
:1051600002122DF07403F004122DF0E4F0A3F0A36A
:10517000F0A3F07408122DF0E4F0AA18AB19124253
:10518000588036123784901CB312294B7A007B204A
:10519000125B75122B1E901CBDE0F99018C9122DE0
:1051A000C1123D66E9F8E8601090811712294B7A28
:1051B000017B00125B75122B1E740B122B1E7F03DA
:1051C0000227FD9018C9E4F0A374F8F0A374FFF06F
:1051D000A37407F02274F6122517E9FFEAFE7AD1CC
:1051E000F91232EC8A828B83E5824583702A7A0237
:1051F0007B001232CEEA4B700E7A107B009018CDF5
:10520000E0F912331080148A828B8374D1F0EFA3FB
:10521000F0EEF91232DA8003EFA3F002542374F7B0
:105220001225178908900301127723FF901CA0E034
:10523000F47003A3E0F47031900411E0901CA0F02E
:10524000A3E4F080248E828F83A3126284600F8E89
:10525000828F83A3A3126281FAA9081237FC8E827F
:105260008F8312614AE8FEE9FFEE4F70D8901CA0D0
:10527000E0F47003A3E0F4600A901CA0E0FAA9082F
:105280001237FC1243669018971259991243607FA7
:10529000010227FD74F0122517890B8C0C7509008B
:1052A0007508007410122DF012614A7412122DF05C
:1052B000126994FD804712535EF50EA3E0F50FAE20
:1052C00008EE2EFEE433FFEA2EF582EB12662B6524
:1052D0000E7004A3E0650F7019AE09EE2EFEE433E4
:1052E000FFEC2EF582ED3FF583E50EF0A3E50FF020
:1052F0000509050AE50AC3950C40BB0508E508C386
:10530000950B5005750A0080EBA90980007F080203
:1053100027FD74F4122517890B7D00740C122DF0F3
:1053200012614A80010DEDC3950B502E750A008065
:1053300002050AE50AC39C50ECED25E0FEE433FFCC
:10534000EA2EF582EB3F126B8D12535E65087004F6
:10535000A3E0650970DB7901800279008014AE0A50
:10536000EE2EFEE433FFE82EF582E9125B5F221297
:105370002B1E7F040227FD74F612251712540D70A0
:1053800003A3E06D70177508D67509187808122BFD
:105390000BEEFA1239347402122B1E801A750802B1
:1053A0007509807808122B0B8A0889097808122B56
:1053B0000B1253FB122B1E806A74F612251712541F
:1053C0000D7003A3E06D70177508E3750918780870
:1053D000122B0BEEFA12393A7402122B1E801A7538
:1053E00008037509807808122B0B8A088909780848
:1053F000122B0B1253FB122B1E8028EE240E125B75
:105400005CFD7C80126633123958740422EAFEEB8C
:10541000FF12664AFCE439FD901897E06C22740292
:10542000122B1E7F020227FD74F612251774FE123E
:105430002BB6EAFEEBFF851882851983E41254CC63
:10544000126785FBECFA88828983A3A3E0F97509CA
:1054500000750800600574FF697005750882803E5C
:10546000901897E06A7003A3E06B701BAA18AB1941
:10547000124A20E9FA85188285198312699F700300
:105480007508838A0980179019E8E0600464017048
:10549000057508818008E06402700375088085182E
:1054A00082851983126994FDA908EEFAEFFB12397F
:1054B00040E509601485188285198312699F600987
:1054C000851882851983126FBC02541EF0A3F01256
:1054D00075FC2274F2122517EAFEEBFF75080075C1
:1054E0000900126646F50AE439F50B124366EA65CF
:1054F0000A7003EB650B7012124A0EE914F5087975
:10550000017A0C7B19124A088003750980EE240E7B
:10551000126628F50C780C122B0F750C0C750D19F2
:10552000780C122B0B7808122B0F780A122B0BE534
:1055300009F5087808122B0F12640F126628F97A01
:10554000057B80123946740702786174F6122517BC
:10555000E9FF7E0080328A828B83E0F508A3E0F8C1
:10556000E4C8F9E50828E439F509EE25E0F8E43364
:10557000F9EC28F582ED39F583E508F0A3E509F0AB
:10558000EA2402FA50010B0EEEC39F40C9025423D5
:1055900074E812251774FC122BB68A168B17751136
:1055A000007402122DF0E4F0A312678D1254CC3572
:1055B00017125B6DF50B850A82F5831279C7FEE43D
:1055C00039FF850A82850B83A3A3E0FA850A8285C9
:1055D0000B83A3A3A3E0F9EAF508E439F509EEFA91
:1055E000EFFB124402E964016016EEFAEFFB12448D
:1055F00002E97038901897E06E7003A3E06F602C9A
:10560000127363122B0FE4F508F5097808122B0BBF
:105610007808122B0F901897122953750880780874
:10562000122B0F125967122B1E025946850A8285CA
:105630000B83A3A3A3A3E0F510E50A2405F50A5004
:1056400002050BE51060281278D87402122DF012B2
:1056500059997402122DF012699F60137402122D71
:10566000F012595DA91012382C8A0A8B0B80037531
:105670001000850A82850B8312787260241278D814
:10568000851882851983EAF0A3EB1269A5E84960C1
:105690001085188285198312595DA90F12382C8044
:1056A00003750F009003018052850A82850B83A346
:1056B000A3A3A3A3A3A3A3E4F0A3F0AA0AAB0B851F
:1056C0001482851583A3A3E0F8126281F91232DAFD
:1056D000851282851383E0C0E0A811740C28F5823E
:1056E000E43419F583D0E0F00511A2005007AA12A6
:1056F000AB13123376851482851583E0F514A3E08D
:10570000F515E514451570030258C38514828515F7
:1057100083A312628460DE851482851583A3A3A30C
:10572000A3A3A3A3A3E0A2E050CB85148285158395
:10573000A3A3A3A312699F851482851583A3A360E5
:105740001E126285FA7901851482851583A3A3A3AD
:10575000A3125950124A738A128B13D200800F126F
:105760005950A3A3A3E0F512A3E0F513C200E5127C
:10577000451370030256EA851282851383A3E06500
:10578000087004A3E06509600F74FF650870047475
:10579000FF650960030256EA851282851383A3A37D
:1057A000A3A3A3A3A3122953851282851383A3A3C2
:1057B000A3A3A3A3E0FC7404122DF0126420A9108B
:1057C00012380E7402122B1EE9703C85128285136A
:1057D00083A3A3A3A3A3A3A3A3A3A31229538512C3
:1057E00082851383A3A3A3A3A3A3A3A3A3E0FC7411
:1057F00002122DF0126420A90F12380E7402122B1F
:105800001EE970030256EAE50F2510C333240AFA95
:105810007B001232CE8A0A8B0BEA4B70030256D001
:105820008A828B8374D2126B978A828B83A3A3E8BC
:10583000F0A3E9127841A3E5101279D1E50FF0E564
:1058400010602CEA240AFAE4350BFB850A82850BEA
:10585000831259947402122DF0125987122B07AC3F
:1058600010EC2CFCE433FD127095122B1E800D8A77
:10587000828B83A3A3A3A3A3E4F0A3F0E50F70039B
:105880000256A9A810E828F8E433F9E50A28F8E553
:105890000B39F9E8240AFAE439FB850A82850B837F
:1058A000A3A3A312599485188285198312598712CC
:1058B0002B07AC0FEC2CFCE433FD127095122B1E61
:1058C0000256BBE5116025127363122B0F75080C8D
:1058D0007509197808122B0BE511F5087808122BB9
:1058E0000F9018971229537508008029EEFAEFFBE4
:1058F000124402E9702A127363122B0F75080C759B
:1059000009197808122B0B7508007808122B0F90D4
:1059100018971229537808122B0F125967122B1E51
:105920007402122DF012699F60087402122DF01299
:105930006FBC85188285198312699F60098518825A
:10594000851983126FBC7404122B1E7F100227FD71
:1059500012595422E0F8A3E0F583888222E0FCA3E8
:10596000E0FDAA0AAB0B22E5162402FCE43517FD84
:10597000E516240FF582E43517F583E0F97A067B06
:1059800080123946740722E0F50CA3E0F50D750E80
:1059900000780C22A3A3A3A3A3EAF0A3EBF0227444
:1059A000F112251774F4122BB68A088B09ECFEED60
:1059B000FF740B122DF07403F0122B8E1234781238
:1059C00064F87403122B8E123472E9600A125B645D
:1059D0006010E06401600B8518828519837484026D
:1059E0005B108E828F83A3A3A3A3A3A3A3A3E060D2
:1059F00013F46010125B647016EE241412662860B3
:105A000003F4700B8518828519837482025B10126F
:105A100076E7E064217002A3E06003025AE785188C
:105A200082851983748CF0125B646003025AD1740E
:105A300001122B96EE240BFAE43FFB12408AE96038
:105A400003025AD11237728A0A8B0BEA4B70030297
:105A50005B118E0C8F0D750E00780C122B077C15C8
:105A60007D00127095122B1E850882850983A3A3E1
:105A7000E50A2415FCE4350BFD7409122A4C127357
:105A800018C0E0E50A241E125B49D0E0125FA1C0F5
:105A9000E0E50A241F125B49D0E0F0E50A24201259
:105AA0005B497405F0EE240BFE50010FFAEFFB1278
:105AB00049487D007C007900EEFAEFFB1238FE9039
:105AC000811712294B7A007B10125B75122B1E80F6
