:020000040000FA
:06000000020B260201F3D1
:03002B000207C009
:030043000206555D
:0300530002012D7A
:03006B000207E9A0
:1000830002018401010105030101FF0F10FEFF7B43
:100093002D00000000B12C00000000FF000000FF55
:1000A300000196511800020000041D0000B61C74E4
:1000B3001C941DD41C4C1DB01CA41C00000000008B
:1000C300000000000000000000000000000000002D
:1000D30000000006FFFFFF00081001010400561B8B
:1000E300000000E8030000FFFF251C03E8030000F5
:1000F30064006400B801A0BB0D00A0BB0D000202A8
:10010300000800000502070401051E02051E020A7D
:100113000A01080803B80B02803E0102FEFFE80350
:100123000A050001FFFF0A1401E0C0E074F21204A3
:1001330072A2AFE433F508D2AFAFA7AEA1EE5F541E
:100143001060061219E675A1EFEE5F5408600812FD
:1001530019EC75A1F78023EEA2E092F0EFA2E08202
:10016300F05017906198E0F8900B52E0C398A2D238
:1001730065D0335002E8F075A1FE751A00E50880DA
:1001830066C0E074F2120472A2AFE433FED2AF9001
:1001930061A4E0F8759B00E59158540860087591D7
:1001A300F7121A348023E59158541060087591EFC3
:1001B300121A3A8014E591A2E092F0E8A2E082F0EC
:1001C3005007E0C2E0F0121BA29061A3E0F8E5E95A
:1001D300585404600E121B7875E9FB906193E0A2FA
:1001E300E640F2751A00EEA2E092AF7F010204D15D
:1001F300C0E074F2120472A2AFE433FED2AF906196
:10020300A5E0F8E5BF585404600675BFFB121BBA9E
:1002130080D1C3E498F8E499F91202568026C3E426
:100223009AFAE49BFBE920E7E9120256E498F8E422
:1002330099F922C3E498F8E499F9120256E498F87C
:10024300E499F9C3E49AFAE49BFB22EB20E7CFE9B4
:1002530020E7E0B90010BB0008E88AF084F8AAF0B0
:1002630022E4FBC8FA22EB70227B10C833C8C933DF
:10027300C9335007C39AC3DBF280069A50012ADBC5
:10028300EAC833F4C8C933F4C9FA2275F008E4C8DC
:1002930033C8C933C933C99AC99B5004C92AC93B56
:1002A300D5F0ECFBC833F4C8E4C9FA22080808EA1D
:1002B300C0E0EBC0E086F0E7A4FA180986F0E7A4F3
:1002C3002AFA180986F0E7A42AFA180986F0E7A49F
:1002D3002AFA1986F0E7A4FBE5F02AFA190886F052
:1002E300E7A42BFBE5F03AFA190886F0E7A42BFB09
:1002F300E5F03AFA18180986F0E7A4C5F02BFBE4F9
:100303003AFA1908E7C5F0C6A426F6E5F03BFBE484
:100313003AFA1886F0E7A4F6E5F00826F6E43B0877
:10032300F6E43A08F6D0E0FBD0E0FA22E4CFC0E0EE
:10033300E4CEC0E0E4CDC0E0E4CCC0E075F020E65C
:1003430026F608E633F608E633F608E633F6181819
:1003530018EC33FCED33FDEE33FEEF33FFC3EC97C4
:1003630009ED9709EE9709EF97191919400FFFEC5B
:1003730097FC09ED97FD09EE97FE191906D5F0BF15
:10038300ECF709EDF709EEF709EFF7191919D0E0C2
:10039300FCD0E0FDD0E0FED0E0FF222518C582C0EE
:1003A300E0E51934FFC583C0E0E518C3958224F85E
:1003B30010AF088583198582188008858319858283
:1003C30018D2AFCEF0A3E520F0A37808E608F0A397
:1003D300DEFAEFF0A3E58124FAF8E608F0A3E608D5
:1003E300F0A3E608F0A30808E608F0A3E608F0A3E4
:1003F30015811581D0E0FED0E0F8158115811581B6
:10040300E8C0E0EEC0E022120BB8B9000302045CBE
:10041300E49004D1780A791A8002F0A3D8FCD9FABF
:10042300781A9000867A01BA00028007E493A3F653
:1004330008DAF97ADA7B1D90008778A779018015AD
:10044300E493A3AD82AE838A828B83F0A3AA82ABAB
:10045300838D828E83D8E9D9E77582407583CD7405
:10046300061208B17582AE75832A74001208B1C0F2
:10047300D02518C582C0E0E51934FFC583C0E0E587
:1004830018C3958224F310AF0885831985821880D9
:1004930008858319858218D2AFC8F0A3E9F0A3EACF
:1004A300F0A3EBF0A37908E709F0A3D8FAECF0A3E3
:1004B300EDF0A3EEF0A3EFF0A3D0E0F0A3D0E0F0D3
:1004C300A3D0E0F0A3E520F0A3E5F0F0A322851983
:1004D30083851882E0C0E0A3E0F9A3E0FAA3E0FB80
:1004E300A37808E0F608A3DFFAE0FCA3E0FDA3E0AD
:1004F300FEA3E0FFA3E0C0E0A3E0C0E0A3E0F5D0EB
:10050300A3E0F520A3E0A3F5F010AF0885831985D8
:1005130082188008858319858218D2AFD082D08350
:10052300D0E0F8D0E032E4730375F0108E218F220F
:10053300858226858325851882851983E0CEA3E0ED
:10054300CF852682852583EBC9EAC8EDCBECCAC3E8
:10055300E833C8E933C9EA33CAEB33CBC3EA9EF5C0
:1005630024EB9FF523B35004AB23AA24EC33CCED47
:1005730033CDD5F0DAAE21AF2222D083D082ECC0C6
:10058300E0EDC0E0E493A3FCE493A3FDED4C600D28
:10059300120698EC24FFFCED34FFFD80EFE493A3F7
:1005A300FCE493A3FDED4C600D12076BEC24FFFC00
:1005B300ED34FFFD80EFD0E0FDD0E0FCE493A3C079
:1005C300E0E493C0E022D083D082E9C0E0E493A3C7
:1005D300C386F0C5F095F0F908E493A386F0C5F05F
:1005E30095F0700BE493A3C3994005E9048002A33B
:1005F300E475F002A42582F582E5F03583F583D016
:10060300E0F9E493A3C0E0E493C0E0228519838575
:100613001882E0A3FEE0A3F5207808E0A3F608DF44
:10062300FAE0A3FFE0A3C0E0E0A3C0E0E0A3C0E0E2
:10063300E0A3C0E0E0A3C0E010AF08858218858383
:10064300198008858218858319D2AFD083D082029E
:1006530008B7C0E074F2120472A2AFE433FED2AF63
:10066300C2C0901CD2E0700BE5D1A2E4501D121958
:10067300448018E5D1A2E3500675D1F712191AE5A3
:10068300D1A2E4500675D1EF121920EEA2E092AF89
:100693007F010204D1C0E0C3E493960874019396EA
:1006A30018400FE49366700808740193661870008D
:1006B3007019A3A3C3E49396087401939618A3A394
:1006C300400DD0E0D0E0D0E00205B9A3A3A3A3A3DB
:1006D300A3D0E022D083D082C5F0E493A3C5F0C3B6
:1006E30095F0F5F0E493A3C395F04005E5F004809D
:1006F30001E475F002A42582F582E5F03583F583E4
:10070300E493A3C0E0E493C0E02274048004740281
:100713008000CCC0E0EDC0E0E518C39CCCAD19501F
:10072300011D10AF068C188D1980068C188D19D2F7
:10073300AF120833D0E0FDD0E0FC2274028000CC7D
:10074300C0E0EDC0E0E518C39CCCAD1950011D100D
:10075300AF068C188D1980068C188D19D2AF12082C
:1007630011D0E0FDD0E0FC22C0E0C0F088F0E493BB
:100773006670080874019366187000A8F0A3A3704C
:100783000BD0F0D0E0D0E0D0E00205B9A3A3D0F0C5
:10079300D0E022D083D082CCC0E0E493A3600612E1
:1007A30008541470FAE493A360061209831470FAD0
:1007B300D0E0FCE493A3C0E0E493C0E022C0E0C037
:1007C300D0E8C0E0E9C0E0A9A8D2AFC2C7751A005B
:1007D300E9A2E7E433F8E9A2E792AFD0E0F9D0E089
:1007E300F8D0D0D0E032C0E074F212047275890000
:1007F300C2C5901CD2E0700E7A007B10900BEEE025
:10080300F9121ECC80031229107F010204D1CAC041
:10081300E0E493A3C582CCC582C583CDC583F0A391
:10082300C582CCC582C583CDC583DAE5D0E0CA22B3
:10083300CAC0E0E0A3C582CCC582C583CDC583F021
:10084300A3C582CCC582C583CDC583DAE6D0E0CA11
:1008530022C0E0E493A3D39C5010E493A3C39C4031
:100863000AD0E0D0E0D0E00207B3A3A3A3D0E022F4
:10087300C008C3E096F50808A3E096420808A3E081
:1008830096420808A3E09645087001D3D008227069
:1008930009080808226016181818C6C333C608C604
:1008A30033C608C633C608C633C6D5E0EA22C09F9E
:1008B300F59FE473D09F22D083D082C09FE493C07E
:1008C300E0740193C0E0740293F59F2200C0D02529
:1008D3001810AF08F518500C05198008F5185002C8
:1008E3000519D2AFD0D0222518F58210AF08F5181C
:1008F300400C15198008F51840021519D2AF851957
:1009030083227404800A74038006740280027401D3
:10091300C0E0F4041208EAD0E0120B6322BB010228
:10092300E722C082C08389828A83BB0003E08002FE
:10093300E493D083D082226016080808C6C313C686
:1009430018C613C618C613C618C613C6D5E0EA22BE
:100953002518F8E43519F9222518FAE43519FB228C
:100963002518FCE43519FD22C3E0C696F608A3E07A
:10097300C696F608A3E0C696F608A3E0C696F62246
:10098300C0E0E493A36C7009D0E0D0E0D0E00207AC
:10099300B3A3A3D0E022251810AF08F518400C1517
:1009A300198008F51840021519D2AF22E0667010BD
:1009B30008A3E066700A08A3E066700408A3E06673
:1009C30022C3E09608A3E09608A3E09608A3E09666
:1009D300A2D265D03322E76670100809E766700A71
:1009E3000809E76670040809E76622C3E697F60874
:1009F30009E697F60809E697F60809E697F622C38B
:100A0300E49396087401939608740293960874030A
:100A1300939622C3E096F008A3E096F008A3E0962D
:100A2300F008A3E096F022E657F60809E657F60821
:100A330009E657F60809E657F622E026F608A3E08A
:100A430036F608A3E036F608A3E036F622E493F67A
:100A530008740193F608740293F608740393F6225C
:100A6300E056F608A3E056F608A3E056F608A3E01E
:100A730056F622E056F008A3E056F008A3E056F03D
:100A830008A3E056F022E647F60809E647F6080908
:100A9300E647F60809E647F622700422600D18C6F9
:100AA300C333C608C633C6D5E0F41822E627F608D2
:100AB30009E637F60809E637F60809E637F622E0CD
:100AC30026F008A3E036F008A3E036F008A3E036EA
:100AD300F022E4C396F608E496F608E496F608E4F2
:100AE30096F622600D08C6A2E713C618C613C6D52C
:100AF300E0F322C6F4C608C6F4C608C6F4C608C6A0
:100B0300F4C622C3E7960809E7960809E796080999
:100B1300E79622C3E09608A3E09608A3E09608A30D
:100B2300E0962275D00075813F7518D175190400C0
:100B330002040AE6F008A3E6F008A3E6F008A3E639
:100B4300F022600C08C6C313C618C613C6D5E0F45A
:100B530022E0F608A3E0F608A3E0F608A3E0F622F5
:100B6300CAC0E0E6F0A308DAFAD0E0FA22E8F0A37C
:100B7300E9F0A3EAF0A3EBF022E0F8A3E0F9A3E0A5
:100B8300FAA3E0FB22ECF0A3EDF0A3EEF0A3EFF069
:100B930022E0FCA3E0FDA3E0FEA3E0FF22EAF0A332
:100BA300EBF0A3ECF0A3EDF022E0FAA3E0FBA3E06B
:100BB300FCA3E0FD22E5C754F84401F5C7790122FF
:100BC3002518F582E43519F58322C2AF75D69F0245
:100BD3000000221208BA7EA0031208BA8BA00312E7
:100BE30008BA94A0031208BA76A2031208BAA2A301
:100BF300031208BAB2A3031208BAEDA4031208BA87
:100C030061A5031208BA9BA5031208BACCA6031266
:100C130008BA2DA7031208BA69A7031208BA43A991
:100C2300031208BA00AD031208BA14AD031208BACE
:100C33001EAD031208BA28AD031208BA32AD03126F
:100C430008BA3CAD031208BA55AD031208BA5FAD3A
:100C5300031208BAD6AD031208BAE1AD031208BAFB
:100C630010AE031208BA38AE031208BA43AE031229
:100C730008BAA8AE031208BAB2AE031208BABDAEE0
:100C8300031208BAE1AE031208BA05AF031208BA99
:100C930077AF031208BAC0AF031208BADCAF03126E
:100CA30008BA4DB0031208BA99B0031208BAE2B0F9
:100CB300031208BA20B1031208BAA1B1031208BA89
:100CC30048B2031208BA0DB4031208BA72B403127D
:100CD30008BAA0B5031208BAC6B5031208BA0EB70C
:100CE300031208BA48BA031208BA46BC031208BA78
:100CF30011BE031208BAAABE031208BAABC003128C
:100D030008BA60C1031208BA99C1031208BA09C22A
:100D1300031208BA13C2031208BA3CC4031208BA76
:100D23003FC5031208BA7CC6031208BAD3C603121E
:100D330008BA7EC7031208BA2EC9031208BA7BCABF
:100D4300031208BA9BCA031208BAF0CA031208BAFC
:100D5300F1CB031208BA19CC031208BA78CC0312E8
:100D630008BA70CD031208BAE7CD031208BAFACE57
:100D7300031208BA68CF031208BA67D0031208BA7D
:100D8300C1D2031208BAEAD2031208BA50D403122A
:100D930008BAD2D5031208BA29D6031208BAD7D68D
:100DA300031208BA7CD7031208BADFD7031208BAB2
:100DB3009DD8031208BA2FD9031208BA8ED9031289
:100DC30008BAD0D9031208BA01DA031208BA58DBF9
:100DD300031208BA0080021208BA3280021208BA5B
:100DE3006B80021208BA3482021208BA78820212A5
:100DF30008BA4E83021208BAAD83021208BAC3843A
:100E0300021208BA0F85021208BA9D87021208BAA5
:100E1300818A021208BAC88B021208BA608C0212C5
:100E230008BA6C8C021208BAB58C021208BAF78D94
:100E3300021208BAED8E021208BA178F021208BA0C
:100E43006D8F021208BAC68F021208BA39900212C5
:100E530008BA6F92021208BAF193021208BADC942C
:100E6300021208BA2696021208BA5E98021208BA4B
:100E73005B9B021208BA6A9B021208BAFE9B02121B
:100E830008BAA99C021208BAEC9C021208BA359D52
:100E9300021208BA859D021208BAE99D021208BA25
:100EA3005B9E021208BA779E021208BAA69E02122D
:100EB30008BAE59E021208BAE09F021208BA8FA090
:100EC300021208BA0CA3021208BA3EA4021208BA0C
:100ED30016A5021208BA98A5021208BACDA90212E1
:100EE30008BAFCA9021208BA57AA021208BA8AAAB7
:100EF300021208BA02AB021208BA35AB021208BAE0
:100F030096AB021208BAE6AB021208BAB3AC0212ED
:100F130008BA6CAD021208BA30AE021208BAAAB00F
:100F2300021208BA0CB2021208BA5DB3021208BA6E
:100F330081B4021208BA84B4021208BAB3B402121A
:100F430008BAABB6021208BA6AB7021208BA99B75E
:100F5300021208BAB7B8021208BA7FB9021208BA65
:100F630040BB021208BAB0BB021208BAE2BB0212BB
:100F730008BA02BC021208BA71BC021208BA6ABDEE
:100F8300021208BA8EBD021208BA01BE021208BAD2
:100F93002AC0021208BA89C0021208BADDC00212BE
:100FA30008BA0CC3021208BAEFC3021208BA77C414
:100FB300021208BA5BC5021208BAE5C5021208BAE2
:100FC300F9C5021208BA0DC6021208BA21C60212E6
:100FD30008BA35C6021208BA62C6021208BA92C625
:100FE300021208BA4DC8021208BA23C9021208BA7B
:100FF300C7C9021208BA1CCA021208BA7FCA02126F
:1010030008BAC8CA021208BAE3CA021208BA34CB31
:10101300021208BAFCCB021208BAA2CC021208BA16
:1010230028CE021208BAB3CE021208BAF6CE0212C2
:1010330008BA8FD0021208BAD6D0021208BA48D121
:10104300021208BA9DD2021208BA46D3021208BA93
:101053007AD3021208BA92D3021208BA35D4021212
:1010630008BAB1D6021208BA59D8021208BA77D808
:10107300021208BA95D8021208BA61D9021208BA44
:10108300AFDC021208BACB81011208BA0D82011239
:1010930008BA7A87011208BAC687011208BA0C88FF
:1010A300011208BA5D89011208BAC289011208BA8D
:1010B300068A011208BA6C8B011208BAC78E011294
:1010C30008BAFA8F011208BA899B011208BA199C4F
:1010D300011208BA039F011208BA68A0011208BAE4
:1010E300CBA0011208BAE7A1011208BA51A3011259
:1010F30008BA30A4011208BA9EA6011208BA30A891
:10110300011208BAC1A8011208BAE0A9011208BA6B
:101113006DAA011208BA77AA011208BA9FAA01128E
:1011230008BA42AB011208BA2DAC011208BAF5ACE9
:10113300011208BA82AD011208BA98AD011208BAB9
:10114300B5AD011208BADEAD011208BA0BAE011239
:1011530008BA4FB0011208BA22B1011208BA66B137
:10116300011208BAE8B1011208BA89B2011208BA29
:10117300BBB2011208BA02B3011208BA35B30112A5
:1011830008BA79B3011208BAC8B3011208BACDB3C9
:10119300011208BA29B4011208BA6DB4011208BACF
:1011A30052B5011208BA9CB5011208BA01B6011270
:1011B30008BA5FB6011208BADEB6011208BA56BA07
:1011C300011208BA59BB011208BAEFBC011208BADE
:1011D30032C0011208BAD4C0011208BA1DC30112E9
:1011E30008BAD8C3011208BA17C4011208BADBC57A
:1011F300011208BAF8C5011208BA01C6011208BAE9
:101203000AC6011208BA15C6011208BA34C6011279
:1012130008BA58C8011208BAB5C8011208BABFC83B
:10122300011208BAC9C8011208BA2CC9011208BAB6
:1012330088C9011208BA95CA011208BAF6CA01127E
:1012430008BA07CC011208BA50CC011208BA1ACD59
:10125300011208BA31CE011208BAF5CE011208BA4A
:1012630041D0011208BA45D1011208BA3ED2011287
:1012730008BA56D2011208BA8DD2011208BA97D20F
:10128300011208BAA1D2011208BAACD2011208BAEB
:10129300CAD2011208BA12D3011208BA70D30112CA
:1012A30008BA97D3011208BAA9D3011208BA52D4C3
:1012B300011208BA8BD4011208BABCD5011208BABC
:1012C30019D6011208BA0AD7011208BA40D7011277
:1012D30008BAB0D7011208BA2CD8011208BAADD98E
:1012E300011208BAD4DA011208BA96DB011208BA5D
:1012F30064DC011208BAE9DC011208BA98DD0112B4
:1013030008BA80DE011208BA19DF011208BAF5DF44
:10131300011208BA5DE0011208BA1CE1011208BA11
:1013230078E1011208BADCE1011208BAA2E2011263
:1013330008BAC5E2011208BA7FE3011208BAA1E3B1
:10134300011208BA02E4011208BA32E6011208BA1D
:101353002BE7011208BAD7E7011208BAF4E9011220
:1013630008BA3DEA011208BA88EA011208BAE4EAA7
:10137300011208BA42EB011208BA66EB011208BA6D
:101383008AEB011208BABFEB011208BAE7EB0112AC
:1013930008BA2CEC011208BA8AEC011208BAE3EC81
:1013A300011208BADDED011208BA89EF011208BA79
:1013B300CEEF011208BAF7EF011208BA80F001125A
:1013C30008BAF3F0011208BA01F1011208BA25F1C3
:1013D300011208BA7BF1011208BA96F1011208BA98
:1013E30051F2011208BA7DF2011208BAC0F20112D9
:1013F30008BA23F3011208BA33F5011208BA5FF5EC
:10140300011208BA1AF6011208BAFEF6011208BA56
:1014130092F7011208BA78E6051208BAB0E6051287
:1014230008BAD1E6051208BA13E7051208BA77E736
:10143300051208BA81E7051208BA91E7051208BA3E
:10144300C8E7051208BA71EB051208BA39ED05129F
:1014530008BA1DEF051208BABFEF051208BA49F022
:10146300051208BA6931001208BA1232001208BA1A
:10147300F132001208BAFD33001208BA1D3400120B
:1014830008BA3F35001208BAEF36001208BA5C37C3
:10149300001208BA2D38001208BA3339001208BAFC
:1014A300AB39001208BAE639001208BA3F3A001203
:1014B30008BA7A3A001208BAC33A001208BA573B7C
:1014C300001208BAED3B001208BAC23C001208BA77
:1014D300953D001208BA233E001208BA493E001295
:1014E30008BA763E001208BAA73E001208BA743F43
:1014F300001208BA843F001208BAD73F001208BA94
:10150300E43F001208BAF13F001208BAFA3F001292
:1015130008BA5E40001208BABC40001208BA07417C
:10152300001208BA2241001208BA4941001208BA4F
:101533006641001208BA7241001208BA034300124E
:1015430008BA1C43001208BA9843001208BAAB4306
:10155300001208BABB43001208BA5F44001208BA6B
:10156300CB45001208BADE46001208BA7E470012C5
:1015730008BA8847001208BA0748001208BA184880
:10158300001208BA5748001208BA8548001208BA70
:101593005249001208BAA949001208BAE2490012D6
:1015A30008BA384A001208BA564A001208BAA44ABE
:1015B300001208BA6F4B001208BABD4B001208BAEA
:1015C3000A4C001208BA8D4C001208BAB74C00122C
:1015D30008BAED4C001208BAFC4C001208BA5B4D75
:1015E300001208BAD34D001208BA144E001208BAFA
:1015F300644E001208BA8F4E001208BAA94E0012A8
:1016030008BAC34E001208BA984F001208BAA24F84
:10161300001208BADD4F001208BAED4F001208BAE3
:10162300F64F001208BA4750001208BA5B50001276
:1016330008BA7D51001208BA9051001208BAA75196
:10164300001208BABC51001208BA4F52001208BA6D
:10165300C352001208BA6853001208BA7353001237
:1016630008BAD654001208BAF254001208BA3E550A
:10167300001208BAAC55001208BADE55001208BAB7
:10168300F855001208BA5856001208BAF756001255
:1016930008BA4257001208BA9559001208BA2D5ACF
:1016A300001208BAA45A001208BA015D001208BA5F
:1016B300195D001208BA1C5D001208BA285D0012F9
:1016C30008BA3C5D001208BA445D001208BA7B5D9B
:1016D300001208BA6F5E001208BAF95E001208BA67
:1016E3007B5F001208BAFB5F001208BAD2600012D7
:1016F30008BAF460001208BA8D61001208BAEA61F0
:10170300001208BAED61001208BA1A62001208BA90
:101713002F62001208BA9E62001208BAEA6300122E
:1017230008BAFD64001208BA8865001208BA9B66FD
:10173300001208BA6267001208BA9367001208BA67
:10174300B967001208BAC267001208BAF16700123B
:1017530008BAA168001208BA5169001208BAC4692C
:10176300001208BA676A001208BADA6A001208BAE5
:10177300196B001208BA626B001208BA976B001259
:1017830008BAFCF1041208BA7DF2041208BAC4F2D2
:10179300041208BA3AF3041208BA9EF3041208BA00
:1017A30052F4041208BA96F6041208BAC7F80412DF
:1017B30008BA9CFC041208BA1CFD041208BA57FDAF
:1017C300041208BA75FD041208BAD5FD041208BA4A
:1017D300FDFD041208BA2DFE041208BA5EFE0412BF
:1017E30008BA8BFE041208BAE8FE041208BA33FFE3
:1017F300041208BA4ACD051208BAC6CD051208BAB2
:10180300F2CD051208BA24CE051208BA86CF051206
:1018130008BAA2CF051208BAE0CF051208BA6DD0F4
:10182300051208BAC9D0051208BA8FD1051208BA31
:101833004ED2051208BA93D2051208BAF4D2051291
:1018430008BA69D3051208BAA3D3051208BAFBD3A1
:10185300051208BA1DD4051208BAB5D4051208BA80
:101863005CD5051208BAA9D5051208BAD2D5051256
:1018730008BA13D6051208BAC0D7051208BAA4D8F5
:10188300051208BA55D9051208BAACEF061208BA00
:10189300BDEF061208BA5BF0061208BAEF7F00121A
:1018A30008BAC5FF031208BA75F0061208BA85F024
:1018B300061208BA9AF0061208BA2BF1061208BAF1
:1018C300E2EC061208BA66ED061208BACCED06126F
:1018D30008BAF27F001208BAE1FF011208BAF1FF59
:1018E300011208BAF4FF011208BAF7FF011208BA8D
:1018F300F87F001208BAD8E1061208BAFAE1061214
:1019030008BA65E3061208BAE9E3061208BAB8FF93
:10191300011208BAC1FF011208BACAFF011208BABC
:10192300D8FF011208BAF89D061208BA659E06127E
:1019330008BA2D9F061208BA24A0061208BA1DA2DF
:10194300061208BA84A2061208BADCA2061208BA62
:10195300EDA2061208BAFDA2061208BA70A3061277
:1019630008BA86A3061208BA91A3061208BA9FA35F
:10197300061208BAB1A3061208BAC4A3061208BA1B
:10198300F0A3061208BA96A6061208BAEDA6061226
:1019930008BA29A7061208BA3DA7061208BA56A71D
:1019A300061208BA47A8061208BA23A9061208BAEB
:1019B30037A9061208BAECE3061208BA10E40612B5
:1019C30008BA29E4061208BA67E4061208BA9DE4C5
:1019D300061208BAD0E4061208BADAE4061208BA04
:1019E30046E5061208BA49E5061208BA53E5061297
:1019F30008BA60E5061208BA297D001208BA4C7DC0
:101A0300001208BA977D001208BAB57D001208BA11
:101A1300D07D001208BA367E001208BA427E001248
:101A230008BA9F7E001208BAC37E001208BA897FE3
:101A3300001208BA967F001208BAA77F001208BAEC
:101A43006AFF041208BA82FF041208BAAEFF041236
:101A530008BA93FA051208BAE9FA051208BA47FC5C
:101A6300051208BA55FC051208BA69FC051208BA32
:101A730086FC051208BA5D9A031208BAAEFC051279
:101A830008BA30FD051208BA95FD051208BA1DFE05
:101A9300051208BA95FE051208BA6EFF051208BAB8
:101AA3007EFF051208BA8DFF051208BA52F306121B
:101AB30008BA76F3061208BA9EF3061208BAC6F3FA
:101AC300061208BAC9DA061208BAF0DA061208BA18
:101AD3000FDB061208BA84DB061208BAC2D7061255
:101AE30008BA819F031208BAF2D7061208BAFBD7C5
:101AF300061208BA19D8061208BA23D8061208BA69
:101B03002DD8061208BA40D8061208BAD1D8061240
:101B130008BA40D9061208BA6ED9061208BAC2D951
:101B2300061208BA0EDA061208BA29DA061208BA39
:101B330033DA061208BA59DA061208BABEDA0612FE
:101B430008BAD2EE061208BAF4EE061208BA82EF09
:101B5300061208BAD57F001208BAF8F0051208BABF
:101B630024F1051208BA47F1051208BA5AF1051211
:101B730008BA75F1051208BAD5F1051208BA03F2CD
:101B8300051208BA0BF6051208BA48F7051208BA87
:101B93007AF7051208BAE1F7051208BA84F90512B3
:101BA30008BAACF9051208BAC1F9051208BAD1F995
:101BB300051208BA11FA051208BA53FA051208BA3F
:101BC30063FA051208BA33E8061208BA43E80612A4
:101BD30008BA67E8061208BA90E8061208BABAE823
:101BE300061208BADEE8061208BAF5E8061208BAC1
:101BF30023E9061208BA46E9061208BA3BF10612AF
:101C030008BA81F1061208BAF0D0061208BA00D158
:101C1300061208BA1ED2061208BA52D2061208BA1F
:101C230074D2061208BA9CD2061208BAB5D20612AA
:101C330008BAF1D2061208BA57D3061208BA9CD3CF
:101C4300061208BAE1D3061208BA0ED4061208BA6D
:101C530046D4061208BA5FBD061208BAC1BD061201
:101C630008BA6EBE061208BAA5BE061208BA3EBF6F
:101C7300051208BAEDBF051208BA1FC2051208BA49
:101C8300F0C4051208BA80C6051208BAB9C605120F
:101C930008BA44C7051208BAC4CA051208BA0CCC5C
:101CA300051208BAADEA061208BAF8EA061208BA2B
:101CB30028FF021208BA6197061208BA339A06126D
:101CC30008BA459B061208BA459C061208BAFE9C40
:101CD300061208BA73AE061208BA32B1061208BA6F
:101CE300CFB1061208BAFBB1061208BA29B206121E
:101CF30008BA5EB2061208BA86B2061208BAE6B28B
:101D0300061208BA42DA051208BA36DE051208BA14
:101D1300CDDF051208BAFBE0051208BAD7E10512B8
:101D230008BA85E3051208BA3AE5051208BA06E6C9
:101D3300051208BA5AE6051208BA55DD061208BAA2
:101D430060DD061208BA81DD061208BA026C0012C1
:101D530008BA0672001208BA6B73001208BA477504
:101D6300001208BA2576001208BA1C77001208BAC6
:101D73005978001208BAA279001208BABA7A001286
:101D830008BACC7B001208BA987C001208BAD5D2E4
:101D9300041208BA0DD3041208BAECDD041208BA0F
:101DA300E5DE041208BA34E0041208BA95E104121D
:101DB30008BA6EE2041208BA40E3041208BAA5E4B2
:101DC300041208BA83E5041208BA88E6041208BAB2
:101DD3003AE7041208BA6AE7041208BA23E90412BC
:101DE30008BA99E9041208BAB2E9041208BA13EB63
:101DF300041208BAD1EB041208BA70EC041208BA40
:101E030011ED041208BA76ED041208BA14EE0412A6
:101E130008BA97EE041208BAB5EE041208BACCEF6A
:101E2300041208BA9AF0041208BA49F1041208BA63
:101E33006AE5061208BA94E5061208BAA8E606127D
:101E430008BAABE6061208BAEFF1061208BA42F274
:101E5300061208BA84F2061208BA94F2061208BAF5
:101E63007F90061208BAB790061208BAFF900612BE
:101E730008BA6891061208BA8991061208BAA291A3
:101E8300061208BA5492061208BA5D92061208BAEC
:101E9300AE92061208BAE492061208BAFB92061230
:101EA30008BA6893061208BAF893061208BA2E9471
:101EB300061208BA7794061208BAD894061208BA1A
:101EC3001295061208BA7A95061208BACD9506122B
:101ED30008BA1096061208BA4D96061208BA5F960B
:101EE300061208BA7196061208BAAB96061208BA19
:101EF300F796061208BA3597061208BA9AB306126D
:101F030008BAE0B4061208BA09B5061208BA1AB537
:101F1300061208BA32B7061208BA52B7061208BA3E
:101F230096DF061208BACADF061208BA19E00612CB
:101F330008BA75E1061208BA429C051208BA809DD8
:101F4300051208BABC9D051208BA8B9F051208BA80
:101F5300B59F051208BA4CA2051208BA8CA2051245
:101F630008BA22A4051208BAB7A4051208BA15A51F
:101F7300051208BA9BA5051208BAD3A5051208BA1B
:101F830015A6051208BA86A7051208BA0AA90512EA
:101F930008BA33AB051208BA61AB051208BA8DABA8
:101FA300051208BA96AB051208BAECAB051208BACB
:101FB3007CAC051208BA7FAF051208BA01B005124E
:101FC30008BA9EF2061208BAB4F2061208BABEF2B2
:101FD300061208BA1AF3061208BA67FB031208BA04
:101FE30080FB031208BA25FC031208BA65FC03122E
:101FF30008BA7EFC031208BAB1FC031208BAFEFC4D
:10200300031208BA32FD031208BA74FD031208BAA8
:102013004DFF031208BAB8FF031208BA7EE906128D
:1020230008BAD8E9061208BA32EA061208BACFEBA0
:10203300061208BA41EC061208BA7FEC061208BA77
:10204300C0EC061208BA7C88061208BA8288061207
:1020530008BAC988061208BAD58A061208BA058BC7
:10206300061208BA6F8B061208BA2A8C061208BA2F
:102073006D8C061208BA9E8C061208BA288D0612B9
:1020830008BA3F8D061208BA4C8D061208BA568D4F
:10209300061208BAF68E061208BAE88F061208BAB4
:1020A3004690061208BA0080061208BA1680061275
:1020B30008BAC880061208BAF281061208BAE78283
:1020C300061208BA8483061208BABF83061208BA36
:1020D3003184061208BA8F84061208BA9F84061246
:1020E30008BAC684061208BA1885061208BA80868A
:1020F300061208BA8586061208BAA786061208BA17
:102103005EB0051208BA68B0051208BAFBB0051232
:1021130008BA3DB1051208BAF5B1051208BA6CB296
:10212300051208BAE1B2051208BA65B3051208BA76
:10213300ABB3051208BAB7B5051208BA56B60512FD
:1021430008BAB7BB051208BAB3BC051208BA43BD37
:10215300051208BA68BD051208BA36BE051208BAD8
:10216300BCBE051208BADBBE051208BA05BF0512CC
:1021730008BA69AB041208BA93AB041208BAAEAB3F
:10218300041208BACCAB041208BAFEAB041208BAA4
:1021930080AC041208BAD4AC041208BA96AD041287
:1021A30008BAD8AD041208BA17AE041208BA4CAE76
:1021B300041208BA15AF041208BAC9B0041208BA57
:1021C30006B3041208BAE8B4041208BAC5B5041277
:1021D30008BA29B7041208BAC2B7041208BA11B868
:1021E300041208BA56B8041208BA54B9041208BA49
:1021F300E2B9041208BA49BA041208BAF8BA0412C6
:1022030008BA8CBB041208BADABB041208BA06BCBB
:10221300041208BA29BC041208BAB3BC041208BADF
:102223008BBD041208BA7CBE041208BA5ABF04124A
:1022330008BA5CC0041208BAA9C1041208BAF9C1E9
:10224300041208BA2CC2041208BA6AC2041208BAE9
:10225300C0C3041208BA9DC4041208BAC0C504124C
:1022630008BA99C6041208BAA2C7041208BA40C928
:10227300041208BA20CA041208BA74CA041208BAAB
:1022830034CB041208BA4FCD041208BA63CE041239
:1022930008BA4BCF041208BA5BCF041208BA60D055
:1022A300041208BACCD0041208BAD6D1041208BA60
:1022B300CDDC021208BA25DD021208BAC5DD02120E
:1022C30008BA42DF021208BA2EE0021208BAEBE0A3
:1022D300021208BA02E1021208BA53E1021208BA62
:1022E300C7E1021208BA22E2021208BA35E2021268
:1022F30008BA99E2021208BA08E3021208BAB7E56B
:10230300021208BABCE6021208BA17E7021208BAA8
:102313006BE7021208BA1FEA021208BA6FEA021246
:1023230008BAF0EA021208BA32EB021208BA0CEC4D
:10233300021208BA45EC021208BA64EC021208BA97
:10234300AFEC021208BAC5EC021208BA80ED021211
:1023530008BA67EE021208BA72EE021208BAC0EEA9
:10236300021208BA15EF021208BA61EF021208BA94
:10237300BCF0021208BAE6F0021208BA7EF30212A7
:1023830008BAA8F3021208BAB3F4021208BAE2F4C4
:10239300021208BA5AF5021208BA35F6021208BA3E
:1023A30077F6021208BAEBF6021208BA05F802121F
:1023B30008BA52F8021208BA65F8021208BA68F8A5
:1023C300021208BA71F8021208BA8CF8021208BA9B
:1023D30004F9021208BA3DF9021208BA59F90212B5
:1023E30008BA86F9021208BAADF9021208BAD1F98D
:1023F300021208BA4AFA021208BABDFA021208BA5D
:1024030000FB021208BA0AFB021208BA39FB0212D5
:1024130008BA4FFB021208BA6BFB021208BA9AFB06
:10242300021208BABAFB021208BA03FC021208BA73
:102433003EFC021208BA4AFD021208BAADFE0212AD
:1024430008BACCFE021208BAE3FE021208BAF5FE7D
:10245300021208BAE5ED061208BAF6ED061208BA3A
:1024630081EE061208BA4BA9061208BA89A9061208
:1024730008BA22AA061208BA2DAB061208BA75AD1D
:10248300061208BAF2AD061208BA53F8011208BAD6
:10249300A2F8011208BA60FA011208BA34FC011258
:1024A30008BA72FC011208BA53FD011208BA5DFEA4
:1024B300011208BA7FFE011208BADBFE011208BA44
:1024C3005CFF011208BA0080041208BA22800412C9
:1024D30008BA9181041208BADA81041208BA4C824C
:1024E300041208BACE82041208BA4383041208BA4B
:1024F3009483041208BAFB83041208BAA684041254
:1025030008BA1B85041208BA5A85041208BA9589B9
:10251300041208BAB08B041208BAE98B041208BA81
:10252300288C041208BA3C8F041208BACC8F041208
:1025330008BA5D91041208BAA292041208BAB293BF
:10254300041208BA2194041208BAF894041208BABF
:102553007C95041208BA9095041208BA5C9604128A
:1025630008BA9197041208BAB199041208BABC9B2D
:10257300041208BA9C9C041208BA199F041208BAE0
:10258300EF9F041208BAFBA0041208BA4DA4041268
:1025930008BA5DA4041208BA04A6041208BA94A6E1
:1025A300041208BAC5A7041208BA3BA8041208BA51
:1025B300BFA9041208BAFEA9041208BAA5AA0412F4
:1025C30008BA0080051208BA9B80051208BA0E816A
:1025D300051208BA2881051208BAC781051208BA7C
:1025E3000F82051208BA4A83051208BA89830512B5
:1025F30008BA0084051208BA5184051208BAB084D7
:10260300051208BA5C85051208BA3188051208BAA2
:102613003789051208BAAC89051208BA878B0512E7
:1026230008BA2A8C051208BAE38C051208BA488D39
:10263300051208BAB78D051208BADA8E051208BA60
:10264300CF8F051208BA0A90051208BA2190051215
:1026530008BAE490051208BA2391051208BA9E91AC
:10266300051208BA1593051208BACF94051208BAD1
:102673002296051208BA9097051208BABC9805125B
:1026830008BA4999051208BAB999051208BACB9A3A
:10269300051208BAB4DB031208BA1DDC031208BA28
:1026A30065DC031208BAA9DC031208BA1CDD0312A5
:1026B30008BA76DD031208BAB1DD031208BA4BDE9D
:1026C300031208BAA5DE031208BA11E0031208BA0E
:1026D3008AE0031208BAB4E0031208BAC8E103128D
:1026E30008BADCE2031208BA04E3031208BA02E4EC
:1026F300031208BA13E4031208BA2BE4031208BA4C
:1027030031E5031208BA54E5031208BA23E60312AB
:1027130008BA4DE6031208BA64E6031208BA8AE659
:10272300031208BAC9E6031208BAE9E6031208BAA3
:1027330010E7031208BA28E7031208BA0BE80312DA
:1027430008BA65E8031208BACCE9031208BA4AEAE0
:10275300031208BA6EEA031208BA85EA031208BA2A
:1027630059EB031208BAF2EB031208BA18EC03127E
:1027730008BA68ED031208BA87ED031208BA06EE29
:10278300031208BA3DEE031208BA7BEE031208BA2D
:1027930011EF031208BA86EF031208BA6AF00312A4
:1027A30008BA48F2031208BA1DF3031208BA69F310
:1027B300031208BA74F4031208BA92F5031208BAA2
:1027C300B0F6031208BABEF6031208BABAF7031238
:1027D30008BA5CF8031208BAA2F8031208BAB7F8E9
:1027E300031208BAC9F9031208BA6AFA031208BA3B
:1027F300C6FA031208BA4EC9061208BA09CB061262
:1028030008BAD1CB061208BA26CC061208BAACCC49
:10281300061208BA58C1061208BA7DC1061208BAD0
:10282300C1C1061208BAE7C1061208BA0EC20612DF
:1028330008BA26C2061208BA3EC2061208BA56C21F
:10284300061208BA00C3061208BA42C3061208BA2F
:1028530057C3061208BA5EC4061208BA79C4061230
:1028630008BA82C4061208BA8BC4061208BA94C402
:10287300061208BA9EC4061208BA1BC5061208BA85
:10288300A6B8061208BAD2BC061208BAEEBC0612E3
:1028930008BAF3BC061208BAC1CD061208BA3BCF78
:1028A300061208BA53C5061208BA69C5061208BA51
:1028B30030C7061208BA7BC7061208BAE7C7061262
:1028C30008BAEEC8061208BA1DC9061208BA2FC9FB
:1028D300061208BAD8E6061208BA9AD4061208BA3B
:1028E300F7D4061208BA37D5061208BA39D6061233
:1028F30008BA51D6061208BA63D6061208BA8FD69A
:10290300061208BAC6D6061208BAD6D6061208BAEE
:10291300ECD6061208BA11D7061208BA9FD70612C8
:1029230008BA8CFF011208BA7999031208BA95986C
:10293300031208BAAB95031208BA6894031208BAD3
:10294300CF91031208BA8A91031208BA3091031285
:1029530008BA9190031208BA3C90031208BA698F1F
:10296300031208BAA38E031208BA678E031208BAB9
:10297300FA8D031208BAF28D031208BA678D031297
:1029830008BAF78C031208BA488C031208BA3D8CB4
:10299300031208BA2E8C031208BA0D8C031208BA5C
:1029A300D98B031208BAAD8B031208BA7F8A0312BC
:1029B30008BA7388031208BAF99E031208BA448846
:1029C300031208BAEA9E031208BA779E031208BAE2
:1029D3005B9E031208BA3D9E031208BA259D03129B
:1029E30008BA009D031208BA109C031208BA9C9BF4
:1029F300031208BA2888031208BAD287031208BA46
:102A03009987031208BA1187031208BA059B0312A8
:102A130008BAC586031208BA7E86031208BAB185BE
:102A2300031208BA3585031208BA939A031208BA37
:102A33008D84031208BADBD7061208BAE6830312A1
:102A430008BA8883031208BA5D83031208BA0E8397
:102A5300031208BAD082031208BAAE82031208BA6C
:102A63008B82031208BA7282031208BA4D820312D0
:102A730008BA0582031208BA4F81031208BAC38049
:102A8300031208BA5780031208BA0080031208BA67
:102A9300DCFF031208BA829A031208BADAFF0312A0
:102AA30008BAD8FF031208BA9BFC0500000080FB9C
:102AB3008F000100C61C87000100C51C35000400FF
:102AC300421E25000200461E26000200481E270063
:102AD30002004A1E28000100541E29000100551E51
:102AE30084000400561E860001005A1E2A000100BD
:102AF3005B1E2B0001005C1E2C000100601E2D00DC
:102B03000800A71C2E000100611E2F000100621E99
:102B130030000100631E31000100641E3200010019
:102B2300AF1C33000100B01C34000100651E3600E9
:102B33000100B11C38000100661E390001005F1E50
:102B4300830002007A1E63000100C21C64000100BE
:102B53005D1E650001005E1E6D000100C31C710057
:102B630008009F1C66000100791E430001006A1ED5
:102B7300440002006B1E450001006D1E460002006A
:102B83006E1E47000800BA1C48000100701E4B006F
:102B93000100711E040001007C1EA10001007F1EC4
:102BA300370001007E1E880001007D1E3C000100ED
:102BB300B21C3D000100671E49000200721E67003F
:102BC3000100C41C4D000200741E4E000100761E5D
:102BD3004F000200771E3E000100B91C51000100A6
:102BE300B31C52000100681E53000100691E54000B
:102BF3000100B41C00000000000000013636010192
:102C0300000102010001030100010401060605029F
:102C13000000070100340801000F090401010D0140
:102C230000FF0E08000017020000190100FF1A013F
:102C330000011B0100FE1C0100081D0200001F0112
:102C4300000120010001210200002301000F2402E2
:102C530000002601000127010008280200FF2A01C5
:102C630000072B0102402C0100002D0100012E0161
:102C730000012F0100FF30010B1D310800003A0154
:102C830000083B01000F3C0100013D0100FF3E0431
:102C9300000042040000460400004A0400004E0401
:102CA300000052040000560400005A04000001030F
:102CB300710301030103010301030103220302035F
:102CC30001031003000300030003000300030003D8
:102CD3000003420300032403060300030003040369
:102CE300120325032303250323030403040300031F
:102CF30000030003440300030003230300036503ED
:102D030021003503810300030503000300030003CF
:102D13000003250323030304710402046004110464
:102D23007004020402040104020410046104000498
:102D3300140463047304720462044304000413045C
:102D43000604000400040404120400040004000444
:102D5300000451046400000400040004440400045B
:102D630000040004000465040004350481046400C5
:102D730005040004830400040300710030016000B3
:102D83001100700031022003500480001000610024
:102D9300000014006300730072006200430000002F
:102DA30013000600000000000400120000000000F1
:102DB3000000000004000400370037003C02440018
:102DC30000000000000000006500000035008100E5
:102DD30000000500000083000000010171010101F2
:102DE3000101110101013101010101018001100102
:102DF30061013B001400630173017201620143012D
:102E03000001130106013D01350004011201000117
:102E130000010001000104010401330133013C01FD
:102E23004401320136000001000165010001350053
:102E33008101000105018201830100010302710286
:102E430030016002110270020102020202028002DA
:102E5300100261023A0041006302730272026202CD
:102E630043020002130238000002000204021202AD
:102E730000020002000200020402040237003700CD
:102E83003C02440200023900000200026502000213
:102E9300350281020002050282028302000236002B
:102EA3000100060000000F00000000000000000009
:102EB3000000000003FFFF00000403FFFF0000FF0A
:102EC300FF0FF4010005C4040320000100000B0000
:102ED3000000000000000003010F000000000000DC
:102EE30000000000000000000000000000000000DF
:102EF30000000000000000000000000000000000CF
:102F030000000000000000000000000000000000BE
:102F130000000000000000000000000000000000AE
:102F230000000000000000006C21122100000000DE
:102F3300000000000000000000000000000000008E
:102F4300000000000000000000000000000000007E
:102F530000000000000000000000042613006225AA
:102F63001F0068251F806E25010004260200EA2445
:102F73000300F0240400F6240500FC2406000825C1
:102F83003000262531002025320032253300382534
:102F930035003E253400442536004A2511005625C8
:102FA30014005C2515001A25FFFF00000A0000002D
:102FB30002000000040000000800000010000000F0
:102FC300200000004000000080000000000100001D
:102FD30000020000000400000008000000100000D0
:102FE300002000000040000001CE1006041108FE7E
:102FF300100B1C1110860D0A2E1102D41005F210AD
:1030030007DA100CB6100DC210645229FF00000736
:10301300ECFDFDFDECDCDCCCBCACAC9C9C8C7C7C8A
:103023006C6C5C5C5C4C4C3C3C2C2C1C1C00160FEC
:1030330000000B150B020002220F3300000E6B0081
:103043006A00690016001500300016001E005A6958
:1030530067426565416C6C69616E63653039010374
:103063000507090B0D0F00020406080A0C0D140ACC
:10307300E5D5C5B5A5A595858575650A0901070536
:103083000001ED3001ED30303016181920231A1CE1
:103093001E3000011916181616182303000C0E0211
:1030A3000B040B0A0708000F303017181921301BC7
:1030B3001D1F3000393D3F373C3C362C442D000367
:1030C3004A49434E181A250502020402010101016F
:1030D3000902000800003101141B0A061B7E3000A0
:1030E300E803000000BE040A12300008FA060E00CE
:1030F3007130000000007F00E8031509000400039D
:10310300FF1E1E0A050C100404081000FF0C2809FA
:1031130003010C050808E004123999A2E792AF22D3
:10312300E4F0A3F0A3F022A3123123A3F0227F0C37
:1031330002060FE0F508E4F509F50AF50B22740120
:10314300F0900B6AE0640F2274091208CF7F040227
:10315300060FA3A3E024F5C3941322900B8A125CF9
:10316300BC7A147B0022C082C0839005E374C4F050
:10317300A37414F0A374D6F0A37414F09005E77449
:10318300ACF0A37414F0A374A6F0A37414F0A374A6
:10319300E2F0A37414F0A374E8F0A37414F0A3741E
:1031A300DCF0A37414F0A37494F0A37414F09005EA
:1031B300F374B8F0A37414F0A374BEF0A37414F002
:1031C300A374B2F0A37414F0A374EEF0A37414F018
:1031D30090060412524960061254B3121F3290062D
:1031E300011249427408F0A3E4F0A3F09006A4F09E
:1031F300900606F07C0BFDF97A077B06121E727CA3
:103203000B7D0079007A127B06121E7202494B7401
:10321300F712039E74F7120999EAFEEBFF1247694E
:1032230074051232DF7403F0EE2402FAE43F123223
:10323300B9242DFCE43FFD8C828D831233F71232C7
:10324300C86008123B4174FFF0A3F0EE242BE43F67
:103253001C1CFD8C828D83A3E0C0E08A828B8312C9
:10326300477AD0E01232C888828983124F722403CE
:10327300125A861220407408120BC37403F0900B89
:103283007F12071174021209637903EEFAEFFB123E
:10329300169274021208CFE9F5087007EEFAEFFBF5
:1032A300121566A9087409023B51F582E43FF583C0
:1032B300126733124F67FB8A828B831232D7E8F08F
:1032C300A3E9F0EE22125CDA1232D7E8F0A3E91296
:1032D3006298E0221233C28A828B8322F0A3E4F045
:1032E3001232E722EE240DF582E43FF5832274F1D6
:1032F30012039EEAFEEBFF8C088D09890A1233CC78
:103303008A828B831233C2740F120BC31233E5E824
:1033130024FF18E934FFF988828983E50A1233D739
:10332300900B841233D4900B831233D47411120B89
:10333300C31233E5EE2404FCE43FFD880B8A828B41
:1033430083E0F50C8C828D83E0250CC3950B125C16
:10335300D6E8F0A3E91246D6A3A3A3A3A3A3A3A3EA
:10336300E064037008124A32F0A3E480031236D8F3
:103373001232E27409F0750C07750D06750E0078AC
:103383000C1209091236CC121E6074031208CF7591
:103393000CFF750DFF780C12090DAC08AD0979030C
:1033A300EEFAEFFB12169274021208CFE9F50870D9
:1033B30007EEFAEFFB121566A9087F0702060FE076
:1033C30024FFF8A3E034FFF922EE2402FAE43FFBE2
:1033D300221233F71233DB22F0E824FF18E934FF1B
:1033E300F922E0F50CA31233F71233DB88828983C9
:1033F300E50CF022E08882898322C082C083900694
:1034030023E0C39408400474078001E08A828B831D
:10341300F033333354F8F902494B74F012039EEA44
:10342300FEEBFF890C8C0E8D0F750A00A2AFE433FF
:10343300F50BC2AF90061D803F123505503712358C
:103443001664037030EE24F9FEEF34FFFF85088223
:10345300850983A3A3E02405FCA3E03400FDEEFA71
:10346300EFFB122040EE24FF1EEF34FFFF74102504
:103473000AF50A150C1246A312672FE50C6006E540
:1034830008450970B4E50BA2E092AFA2AFE433F5AF
:103493000BC2AF90061D802C2402FAE43509FB8A87
:1034A300828B83125CC52406F582E438F5831235DA
:1034B300238A828B8312350BA3A3123523050A15A6
:1034C3000C1246A31246B86022123516640270F13C
:1034D300123505E50840C1123806A2E550E3850E12
:1034E30082850F837401F0E50C70D6E50BA2E092A0
:1034F300AF8E828F83E50AF0EE24FFFAEF34FFFBF1
:103503008035123811A2E62212350F221260BAA3B7
:10351300A3A3228508828509831260B41256EE2282
:10352300E08E828F83F0EE24FF1EEF34FFFF221222
:10353300176A74041208CF7F0802060F74EC120393
:103543009E74F512099989138A128B0F8518828547
:103553001983E4F00412095B121476E9F8900B69FD
:10356300E0292434F508FA7B00121E8A8A0A8B0BA1
:10357300AE0AAF0BEE4F70030236C0EE2402F50A1B
:10358300E43FF50BA808EE28F8E43FF9850A8285A5
:103593000B831232C12404F510E43FF51185108228
:1035A300F583E4F0900B69E0FCF8C3E498F895E048
:1035B300F9850A82850B83E028F508A3E039F5092C
:1035C300900B6712597E750E00780C1209097D0065
:1035D300AA08AB09121E6074031208CFAC18AD1908
:1035E3007401120BC3E0F9E50824FFFAE50934FF7F
:1035F300FB12147C8A828B83E4F0EA24FFF508EB48
:1036030034FFF509E50FC454F0F99006A5E0C4337F
:103613003354C0F8900B63E0A2E0E433131348493A
:10362300440F1236E0E512C454F045138508828531
:103633000983F0A808850A82850B83E0FA85108246
:10364300851183E02AC398F0850A82850B83E8F00D
:10365300A3E509F01236D81232E2E4F0740A120B31
:10366300C3E4F0750812750906F50A78081209090A
:103673001236CC121E6074031208CF851882851986
:1036830083E06009EE240E1247FF4408F012167A15
:10369300E9F9E4F508F509780812090D740412092B
:1036A30063EEFAEFFB12169274021208CFE970066A
:1036B300EEFAEFFB800BEEFAEFFB121E907A007B23
:1036C30000740B1208CF0231317C0B7D00EE2418FD
:1036D300FAE43FFB2212476DE4F0A322E08508825F
:1036E3008509831236EA22F01259522274F3120327
:1036F3009E8A0A8B0BA2AFE433F50CC2AF750800A8
:1037030075090090061D802C12392D5024850A82DC
:10371300850B83A3A3126B5C8E828F83A3A31254A6
:10372300B6121680E9600A123753C2E6F08E088F8C
:1037330009123922123BDB70CFE5084509600612F6
:10374300380DD2E6F0E50CA2E092AF7F0502060F3A
:103753001237572212596BE02274F012039EEAFECD
:10376300EBFF8C0C8D0D750E00A2AFE433F50FC289
:10377300AF75080075090090061D8020850A08852D
:103783000B0912380DD2E4F0E508123806D2E7F03F
:10379300E50A24FBF582E50B34FFF583E0F50AA384
:1037A300E0F50BE50A450B6043E50A12458E350B40
:1037B300F583E0A2E750D9850A82850B83A3A31280
:1037C3000711AC0CAD0DEEFAEFFB12168674021264
:1037D30008CFE960BBE508450960A1E508240D129F
:1037E300381964017006123822D2E4F0E50FA2E022
:1037F30092AFE50845096006121560750E01A90E22
:1038030002353A1245B812381C2212381122E50843
:10381300241112381922F582E43509F583E0228553
:1038230008828509831260B4E02274F212039E7445
:10383300FE120999750C00750D0085188285198390
:10384300E4F0A3F0A2AF33F50AC2AF90061DE0FE89
:10385300A3E0FF8035EE24FBF582EF34FF12672DE2
:10386300780C12090DEEFCEFFD7A1D7B06121EC0CB
:1038730074021208CFEEFCEFFDAA18AB19121EAEAC
:10388300AE08AF09900623E014F0EE4F602712391B
:103893002D501DEE240BF8E43FF988828983E02440
:1038A300FFF0A3E034FFF08882898312524960A5B8
:1038B30012391E8099E50AA2E092AF900623E060D8
:1038C30031900B6AE0640F60069006A4E070237ADF
:1038D300FB7B0512177690818212070D7AFB7B051D
:1038E30012176A74041208CF800874F0124B69121D
:1038F3001554AA18AB19121EB48A0A8B0BAE0AAF61
:103903000BEE4F6013121488123753A2E28E828F8C
:1039130083A350D674E980D4023BE38E0C8F0DEE63
:1039230024FBF582EF34FFF58322123757A2E722F7
:1039330074F712039EEAFEEBFF1214881247771204
:103943000529E96401900B86700AE02401F8A3E0DD
:1039530034008004E0F8A3E0F9124DC512517790CA
:103963000623E07021900B6AE0640F70197AFB7BE9
:103973000512177690818212070D7AFB7B051217C9
:103983006A74041208CFA9A8C2AF900623E00412F8
:103993003999A2E7800DF0E9A2E7E433F8E922E5DB
:1039A30008A2E092AF024C0574F712039EEAFEEB05
:1039B300FF1239E0F0121488EEFCEFFD7A1D7B064E
:1039C300121EBAA9A8C2AF900623123119900B6A2E
:1039D300E0640F70057908121626024C051237575A
:1039E300C2E42274F712039E74EA120999EAFEEB09
:1039F300FF900B63E060408518828519837401F0A2
:103A0300120BC3E4123AB8120BC3AA82AB8312207F
:103A1300408E828F83123828C0E0740A120BC3D001
:103A2300E0125CEB740B120BC3AA82AB831216AACF
:103A3300AA18AB191228807416023B5174F71203AB
:103A43009EEAFEEBFF12146AE9F974DC69601E74E6
:103A5300DD69601974E469601474F369600F74DEDE
:103A630069600A74DF69600574DB697007EEFAEF59
:103A7300FB12162C024C0574F712039E74EB120909
:103A830099EAFEEBFF8518828519837406123AB80A
:103A9300120BC3AA82AB83122040125CF0740A1289
:103AA3000BC3AA82AB831216AAAA18AB19122880D9
:103AB3007415023B51F0EE2413FCE43FFD74022223
:103AC30074F712039E74F7120999EAFEEBFFEE24D2
:103AD3002D1247FF6065124390AA18AB19122040BC
:103AE3007408120BC37403F0900B7F120711123B7F
:103AF30041120711900B92E0F97404120963EEFA74
:103B0300EFFB12147074041208CFE9F974DC6960D6
:103B13002374DD69601E74E469601974F3696014C9
:103B230074DE69600F74DF69600A74E869600574A4
:103B3300DB697007EEFAEFFB12162C0232A8EE12C5
:103B43003B4622242BF582E43FF5832274031208BB
:103B5300CF024C0574F212039E8A088B09750C0080
:103B6300750D00750AE7A2AFE433F50BC2AF9006FB
:103B73001D800312391E123BDB603512392D50F3C1
:103B83001247FC640170ECEE242FF582E43F123DF2
:103B93008AE06870DE780C12090DEEFCEFFD7A1DE9
:103BA3007B06121EC074021208CF900623E014F0A5
:103BB300E50BA2E092AFEE4F6013EEFAEFFB1214A7
:103BC3008879F0EEFAEFFB12162C750A00A90AAAFF
:103BD30008AB0912162C800DE0FEA3E0FFEE4F2286
:103BE30074021208CF7F0602060F74F412039E7448
:103BF300F7120999EAFEEBFF8E828F83A3E064F349
:103C03007003023C978E828F83A3E064DF7003020C
:103C13003C978E828F83A3E064E860788E828F83E3
:103C2300A3E064DB606E1214CAE9F508705EEE244B
:103C33000E1247FF6056123CA1121512EA4B604C5C
:103C43007408120BC3123CAB1207117508FF7509F8
:103C5300FF780812090D8E828F83A3A3A3A3A3A3C6
:103C6300A3A3E0F974041209631214707404120814
:103C7300CFE9F50874F36508601274DF6508600C1A
:103C830074E86508600674DB6508700F8E828F83A5
:103C9300A3E508F0EEFAEFFB1214D602314BEE2443
:103CA3000FFAE43FFB79092274021264F574FFF002
:103CB300A3123CB822123CBC22124F7BA3A3227452
:103CC300F512039E8A088B097E008A828B83A3A345
:103CD300A3A3A3A312315540027EE88A828B83A358
:103CE300A3A3A3A3A3A3A3A3A3E0C3941040047E0D
:103CF300E880138A828B83A3A3A3A3A3A3A3A3A371
:103D0300A3E0640F600A900681E0540870027EE825
:103D1300EA240BF582E43509123D8AA3A3A3A3A3E6
:103D2300A3A3A3E0C398500CEA240B123819640F21
:103D330060027EE8900B83E0F47003A3E0F470026A
:103D43007EEC7A237B00121F2C9006041254C6903B
:103D530006041252496029850882850983A3A3A911
:103D630082AA8389088A09750A0078081209097CDE
:103D7300237D001254B3121E6074031208CF800215
:103D83007E1AEEF9026696F583E0F88A828B83A3A6
:103D9300A32274F512039EEAFEEBFF8E828F83A3A8
:103DA300A3A3A3A3A3A3A3E0900B6A1263D8900BCE
:103DB300851263BE900B651263DD9006A5F0F912C0
:103DC3001AEE9006A5E06018EE2404FAE43FFB79AE
:103DD30050121AD6EE2406FAE43FFB79E1121AD602
:103DE3009006A412314160047401800274009006AD
:103DF300061263C41209097C0B7D007A077B061245
:103E03001E6074031208CFEE2418F508E43FF50989
:103E130078081209097C0B7D007A127B0602668EF4
:103E230074F712039EEAFEEBFF8E828F83A3E0708A
:103E3300061254B31214D08E828F83742C124B69E2
:103E4300121644024C0574F712039EEAFEEBFF9030
:103E53000604125249600D1254B3900604E4F0A311
:103E6300F0121F328E828F837408124B69122880DE
:103E7300024C0574F612039E9006A4E060139006AC
:103E830006E0700D123E97121482EA4B600312157E
:103E930066025FF6900B65E0FB900B85E0FA900BF2
:103EA3006AE0F92274F412039E74E7120999EAFE98
:103EB300EBFF750B018E828F83A3A3A3A3A3A3A3FD
:103EC300E0A2E25068EE242BF582E43F126B5A1213
:103ED3003F6512148EE97055908100E0640170050E
:103EE300750B008048123F6D1209097C0B7D00742D
:103EF3001112095B121E6074031208CF12167AE9BD
:103F0300FA740E12095388088909780812090D7585
:103F13000830750900780812090D123B4112071188
:103F2300125C8C790112169874061208CF851882D8
:103F33008519837410123AB8120BC3AA82AB831289
:103F43002034123B41125CB8740B120BC31251772D
:103F5300740D120BC3E50B1249DC1228807419028D
:103F6300314DEE2413FAE43FFB22EE24081263CC16
:103F730022C082C0839006A5E060031216EC0249BA
:103F83004BC082C08390069C74E3F0A37405F0A336
:103F930074E7F0A37405F0A374F3F0A37405F09031
:103FA3001DED7419F0A3742DF09006867464F0A3CC
:103FB3007414F0900628749AF0A37414F090062AEF
:103FC30074A0F0A37414F0900681E044028001E42D
:103FD300F002494BC082C083EAFCEBFD7903024F38
:103FE300E7C082C083EAFCEBFD7905024FE7C0829C
:103FF300C0837908026187C082C08374FE12099965
:10400300900630744EF0A37415F09006327448F0A5
:10401300A37415F0800D7A1D7B06121EB41249D2CB
:1040230012166890061D12524970EB90061F125229
:1040330049600F7A1F7B06121EB41249D21216680A
:1040430080E990061DE4F0A3F09006231231247456
:1040530002800274111208CF02494B74F612039EB8
:10406300E9FF74B629F582E43430F583E493FEFA6C
:104073007B00121E8AEA4B6011EA2E12516D8A826E
:104083008B83A3A3A3A3E4F0802C7A027B00121EEC
:104093008AEA4B601D74AB2FF582E43430F583E478
:1040A300938A828B83F0A3741AF090067CE0F91252
:1040B3001E967A007B00025FF6E9FC740629F8EA93
:1040C300A2E0501EE875F00A84E5F0F96014740A62
:1040D30028C399F8E9C394054004740A28F8740BBB
:1040E30028F8ECC3941340047A1480027A06EA2871
:1040F30079002409F85001097A0A7B0012024EE87C
:10410300F90208B7C082C083900681E05402600AB6
:10411300122886E9600479018002790002494BC0C4
:1041230082C083900681E054026016900623E070FB
:104133000C125246600BE0C81246B050047901805D
:1041430002790002494BC082C0839080FDE0F89061
:104153000625E0C3985005121E8A80047A007B006E
:1041630002494BC082C083121668790002494B741E
:10417300F712039E74FE120999851882851983EA42
:10418300F0A3EB1242E1A3A3A3A3A3E0600A14608C
:104193006024FE6069024262900B6AE0640F60185B
:1041A30012163EE970128518828519831254B6904F
:1041B300062C12477A120529900B92E0C0E085186D
:1041C30082851983124F45D0E01242E174141264C0
:1041D300F1126B5C7A1F7B06121EAEA8A8C2AF90C9
:1041E3000625E0041254CC79201216267402023BF1
:1041F300518518828519831260BC741580D0851887
:10420300828519831242C4A3A3E060538518828573
:104213001983E02402F8A3E03400F9888289831229
:10422300692FE0C0E0851882851983E0FCA3E0CC08
:104233002406F582E43CF583D0E0125CF888828999
:10424300831254C68518828519831245AC8518825A
:1042530085198360131242C960051242D14043AAF3
:1042630018AB1912166880841242C960F21242D147
:10427300501C1246C0FA8518828519831242CBF866
:1042830074CB1251683430F583E4936A6014851853
:10429300828519831242C9640870C41246C0640837
:1042A30070BD1246C0141242E9240AC0E085188288
:1042B30085198312477AD0E01242E9040241D1E022
:1042C300F8A3124F9222E0F8A3E01242F0228518DD
:1042D30082851983125CC91242F1C3940A221242E5
:1042E300FBF5838882221242FB1242F022C8240685
:1042F300F582E438F583E0221264F5E0F8A3E022C6
:10430300C082C08390063412524960081260BD1205
:1043130005298002790002494B74F712039EEAFED5
:10432300EBFF1232E77401F0EE2430F582E43FF53F
:1043330083125A261232C124321247FFC0E0EE2400
:1043430013F582E43FF583D0E0F0EE24331247FF08
:10435300C0E0EE2414F582E43FF583D0E0F0EE24D0
:104363002CF582E43FF583120711124390EE242EBD
:104373001247FFF912169274021208CFE9F508707A
:1043830007EEFAEFFB121566A908024C05EE24238B
:10439300FCE43FFD22C082C08312163EE96004792B
:1043A300208002790102494BC082C083EA12458E04
:1043B30012444FD2E0023FD3C082C0831244496407
:1043C300017011124454400C8A828B83A3E0F912CA
:1043D300162C806FEA241012444CA2E650128A82F3
:1043E3008B83A3E0F990062E12477A120529805396
:1043F3001244496401700D12445450088A828B831D
:10440300743080368A828B83A3E0641B8A828B8319
:10441300700474228024A3E0700D124449F8748A56
:104423001251683430800B124449F874AB1251684E
:104433003430F583E4938A828B83F090067CE0F931
:10444300121E9602494BEA240DF582E43BF583E004
:1044530022EA1245B83BF583E0A2E32274F7120384
:104463009EE9FE1252467003024585EE6011741BED
:104473006E7013E0C812458864057003024550123C
:1044830060ACE402455474E96E70621245A4700B8B
:1044930012288CE960051245BE606279EE121A4C4F
:1044A3009006261245A1900626603B1245C1900650
:1044B30026700B1245A114F0121C260245851245E5
:1044C300ACC2E71246CC1245886403700C125CC27E
:1044D30012458E1242F6D2E2F079ED121A4C1245D1
:1044E3009412052980751260AF74E9806474E16EDB
:1044F300703E12288CE960551245BE7050900B8CAB
:10450300E0C0E0125CC22412F582E438F583D0E007
:10451300F0900B7BE0C0E09006261242C21242C22A
:10452300D0E0F0900B7BE004F07901121C0E805276
:10453300741C6E70189006261254B69006361247F5
:104543007A120529900626E4F0A3F080351260ACB8
:10455300EEF09006261254B6121554125CC2125C89
:1045630094E054806010900B92E0F9121B12900BB0
:1045730091E0F9121B06900626E4F0A3F0791012DD
:104583001626024C05240D1242F3222411F582E46F
:10459300229006261254BA90062A1260B622E0F838
:1045A300A3E0C824121242F322E0F8A3E0C81245A4
:1045B300B81242F6222410F582E422900626125CF9
:1045C300C9125C98E054042274F412039E750A0025
:1045D300750B00A2AFE433FFC2AF12524660030271
:1045E3004688124777120529E94410F890061D8082
:1045F3000985080A85090B1246A31246B8700302FF
:10460300468812380D586870E8780A12090DAC080C
:10461300AD097A1D7B06121EC074021208CF9006E4
:1046230026E508F0A3E5091246CC1246B0405D909A
:104633000624E014F0EFA2E092AF900626E0240EE9
:10464300F8A3E03400F9880889098882F5831254B5
:10465300B69006261246C6F9121518E9900621F0FF
:104663001246D4E054809006266026125CC52413BB
:104673001242F3F9121B12125CC224141242F3F910
:10468300121B068018EFA2E092AF801190062380E0
:10469300A11245ACA2E1B3E433F9121C0E0231506E
:1046A300E50824FBF582E50934FFF5832224111282
:1046B30042F3A2E722126733E508450922851882EF
:1046C30085198312350FA3E022F0900626125CC9E8
:1046D30022A3E4F08508828509832274F712039EDE
:1046E300EAFEEBFF121662EE24101247FFA2E3402C
:1046F3000C1247FC640170059080FB80039080FCE2
:10470300E0F9EEFCEFFD7A1D7B06121EC6E960465A
:10471300EEFAEFFB90063012477A120529EE240ECB
:104723001247FF54047020A8A8C2AF900624E004E7
:104733001254ACFAE8A2E792AF124769A3E054011E
:104743007021121560801CEEFAEFFB9006281247C9
:104753007A120529800D8E828F83A374F1124B691F
:10476300121554024C0512476D22EE240EF582E415
:104773003FF583229006321260B622C082C08312B4
:10478300156002494B74F712039EEAFEEBFF7900B2
:10479300900681E05402700CEE24301247FF54045B
:1047A300600279E8900681E05460700CEE243012C8
:1047B30047FF5402600279E88E828F83A3A3A3A3E9
:1047C300E0F8908101E0C398500279E8EE242E12BC
:1047D30047FF700CEE242B1247FF700479F5800B12
:1047E300E97005121542E9F9E96007EEFAEFFB12E9
:1047F300162C024C0534FFF509EE240DF582E43F37
:10480300F583E022C082C0838A828B83740DF01209
:10481300288002494BC082C0838A828B83E4F0A341
:10482300F0EA243012444C54049080FB7012E0F8F8
:10483300900624E0C398401279F112162C02494BDA
:10484300E0F8900623E0C39850EE90067CE0F9125E
:104853001E9680E974F612039EE9FE244CFAE434B2
:1048630000FB121E8AEA4B6012EE8A828B83A3A39B
:10487300A3A3F0EA244C12516D80047A007B00025A
:104883005FF6C082C08390063874AEF0A37415F04F
:10489300A374DEF0A37415F0A374B4F0A37415F03D
:1048A300A374BAF0A37415F0A374D8F0A37415F02D
:1048B300A374CCF0A37415F0A374C6F0A37415F01D
:1048C300A374E4F0A37415F0A374EAF0A37415F0D1
:1048D300A374F0F0A37415F0A374FCF0A37415F0A3
:1048E300A374C0F0A37415F0A374A8F0A37415F017
:1048F300A374A2F0A37415F090065474D2F0A374B9
:1049030015F0A374F6F0A37415F0A3742EF0A3743A
:1049130017F0A37402F0A37416F0A37408F0A37441
:1049230016F0900678E4F090067BF0900664124946
:10493300427402F090066D1249427401023FD3742F
:1049430026F0A37416F0A322D083D0820208B77492
:10495300F512039E74F112099985188285198374DF
:1049630002F07401120BC3E9F060047AFF7BFF7459
:1049730002120BC31254C6750870750906750A0036
:1049830078081209097C0B7D007407120BC3AA82F5
:10499300AB83121E6074031208CFAA18AB19122836
:1049A30080740F02669374F712039E74FD120999C3
:1049B300851882851983740AF07401120BC3E9F018
:1049C3007402120BC3EA1249DC122880023B4F85A2
:1049D3001882851983EAF0A3EBF0AA18AB192274A5
:1049E300F612039E74F7120999EAFEEBFF124A329C
:1049F3001232DF7402124B5AAA18AB19122034EE8A
:104A0300242E1232AD2430125A9312090D7402125D
:104A1300096379831A1AEFFB12169274021208CFF4
:104A2300E9F5087007EEFAEFFB121566025FEF1265
:104A3300476D74012274F012039E12657C120B54AD
:104A43007808790C1202AF78081209057A677B0699
:104A530002353274F412039E74C6120999900B6ADC
:104A6300E0640F6010851882851983742E1249DC67
:104A730012164480277A5E7B0612177612315E1275
:104A8300025688088909E4F50AF50B780812090526
:104A93007A5E7B0612176A74041208CF743A0231E5
:104AA3004D74F512039EEAFEEBFF8E828F83A3E023
:104AB300F86003024B43EE242D1247FF64026007A4
:104AC300E06403600278E8EE2423F582E43FF58393
:104AD300123157400478E8806AE87064EE2423FAC0
:104AE300E43FFB79E1121AD6EE242EFAE43FFB7978
:104AF30050121AD6EE242D1247FF6402700E125C78
:104B030082125CB8900B791251778012900B7974F2
:104B1300FEF0A304124B5A7A707B0B122040EE2452
:104B230018123F701209097C0B7D007A707B061204
:104B33001E6074031208CFEEFAEFFB12159CE9F81E
:104B4300E86011E88E828F83A3125EE47417124B20
:104B530069121644026696F0EE2425FCE43FFD221A
:104B63008E828F837429F0EEFAEFFB2274F6120320
:104B73009E74F712099990067BE0703B7401F0F97B
:104B8300121BD2AA18AB1912167475087075090690
:104B9300780812090D750801750900780812090DC6
:104BA300900B7F12071174061209637A03790512B9
:104BB300169874061208CF025FF174F712039EEA87
:104BC300FEEBFF7901121BD88E828F83E064207085
:104BD30004A374EBF090067BE0A2E25003C2E2F080
:104BE300E0A2E15008124E07121596800C8E828FB8
:104BF30083742A124B691216448007EEFAEFFB12F4
:104C030016E07F0102060F74F412039E74FE12096C
:104C130099EAFEEBFF7901121BD87A5E7B06121725
:104C2300767A677B06121776124F5185188285199B
:104C330083124F85E0F50B700FAA18AB1979531245
:104C43001AD6126723121AD6123F6D1209097C0B6A
:104C53007D007A707B06121E6074031208CF8518DC
:104C6300828519831254B6A90B12159090067BE026
:104C7300A2E1500C7A008E828F83A3E0F91215967D
:104C830090067BE4F0740202314D74F712039EEA3E
:104C9300FEEBFF8E828F83A374EBF090067BE0A282
:104CA300E150077A0079EB121596EEFAEFFB121535
:104CB300CC024C0574F712039EEAFEEBFF79011256
:104CC3001BD87A5E7B061217767A677B06121776F5
:104CD300900678E4F090067BF07AFF7BFF8E828F5C
:104CE30083A3E0F9121590024C0574F712039EEAB0
:104CF300FEEBFF1215C6024BFE74F712039EEAFE8B
:104D0300EBFF7901121BD88E828F83A3A3A3A3E0A9
:104D130060047400800274EB124D4E5003C2E2F043
:104D2300E0A2E15008124E501215968014A2E050F2
:104D3300108E828F83742AF0A374EB124B691216C0
:104D430044EEFAEFFB121578024C058E828F83A393
:104D5300F090067BE0A2E22274F612039EEAFEEBD9
:104D6300FF90067BE0D2E1F07901121BD28E828F95
:104D730083A3E0703C12167AE9FAEE240DF508E4F9
:104D83003FF509780812090D7508017509007808BF
:104D930012090D124DC5120711EE2402FCE43FFD6A
:104DA300790512169874061208CFE98E828F83A3B1
:104DB300F08E828F83A3E060067A00F912159602C3
:104DC3005FF6124DC922EE240BF582E43FF58322F0
:104DD30074F712039EEAFEEBFF7901121BD88E8251
:104DE3008F83E064207004A374EBF090067BE0A251
:104DF300E25003C2E2F0E0A2E15006124E071215A0
:104E030096024C05C2E1F07A008E828F83A3E0F90B
:104E13002274F712039EEAFEEBFF7901121BD87A84
:104E23005E7B061217768E828F83A3A3A3A3E06013
:104E3300047400800274EB124D4E5003C2E2F0E0A2
:104E4300A2E15006124E50121596024D44C2E112D1
:104E53003CB8A3E0A2E4E433FA8E828F83A3E0F9A3
:104E63002274F712039EEAFEEBFF7901121BD88E20
:104E7300828F83A374EB124D535003C2E2F0E0A27E
:104E8300E15006124E07121596024C0574F71203F1
:104E93009EEAFEEBFF7A5E7B06121776EEFAEFFBD5
:104EA3001215F0024BFE74F712039EEAFEEBFF7A33
:104EB3005E7B06121776EEFAEFFB1215F0024C0535
:104EC30074F712039E74EF120999EAFEEBFF125C6A
:104ED3008C7A707B0B12202EE9606285188285190B
:104EE300837409F07401120BC374EFF0124F51F87D
:104EF3007402120BC3E8124F85A3A3E0C0E074044D
:104F0300120BC3D0E0124F72640870158E828F8328
:104F1300A3A3124F45E0C0E07405120BC3D0E08099
:104F2300067405120BC3E4125CEB7406120BC3AADE
:104F330082AB831216AAAA18AB1912288074110225
:104F43003B51125CC92407F582E438F58322124FE2
:104F530067FB8A828B83125CBC88828983E0FCA313
:104F6300E0F9EC22EE2402F8E43FF9E8FAE9221230
:104F73004F7622124F7BE022F08E828F83A3A3A36E
:104F8300A322F0A3E9125CDA124F8F22E0F8A312F6
:104F930060BDA3A322C082C0831216EC02494BC09A
:104FA30082C0839006987438F0A37406F0A37454F7
:104FB300F0A37406F0901DE774DDF0A3742DF0A345
:104FC300743FF0A3742EF0900684748AF0A37415D2
:104FD300F0900681E04401023FD3C082C083EAFC23
:104FE300EBFD790212165002494BC082C083790649
:104FF30002618774F612039E74FE12099990067D6E
:1050030012524960077A7D7B06121668900683E484
:10501300F0901AF812524960268007AA18AB1912A9
:10502300166890067CE0F9121EA28A088B09A8086C
:10503300A909851882851983125177E84970DC74B0
:1050430002025FF374F712039EE9FA7B0090067C79
:10505300E0F9121ECC024C0574F712039E74F01291
:105063000999EAFCEBFDE9FE8C828D83E0F874A0DC
:105073001251683430F583E493C0E07401120BC31A
:10508300D0E0F0640B700DEE8C828D83A3F01216CA
:10509300CE02515BE0700302515B640C600302516A
:1050A3004C741A6E700B7404120BC3E4F0A3025118
:1050B3004B7404120BC3ECF0A3EDF0EC242F12514C
:1050C30060C0E07403120BC3D0E012628F120B7C3A
:1050D3007406120BC3120B708C828D83125CAF7437
:1050E3000A120BC3125177EC240E12516054106054
:1050F30009851882851983E48013EC241212516008
:10510300F8900B8CE0C398851882851983F0E0C072
:10511300E0740C120BC3D0E0F0EC2415125160C004
:10512300E0740D120BC3D0E0F0EC2416125160C0F2
:10513300E0740E120BC3D0E0F0EC2417125160C0E0
:10514300E0740F120BC3D0E0F07402120BC3EEF045
:10515300740112095B1228807410023B51F582E43A
:105163003DF583E02228F582E422F8E43BF98A82C4
:105173008B83A3A3E8F0A3E9F022C082C083900647
:1051830083E0700479018002790002494BC082C038
:1051930083900683E06004640270047901800279DD
:1051A3000002494BC082C083900683E0640370040D
:1051B30079018002790002494B74F712039E90062D
:1051C30083E0125233126B5A8A828B83E0C2E7F078
:1051D30025E0F8EC1251683DF583A3E493FE1252E7
:1051E30033F5831252496005EE900683F08A828B71
:1051F30083E012523FEC28F582ED39F583E493FC0A
:10520300C4540F25E0F874921251683406F58312E2
:10521300524970051216BC8014EC540F25E0FCE8CB
:105223002CF582E439F58312477A120529024C05DD
:1052330012523F74E528F582741D392225E0F8E403
:1052430033F922900626125CBCE8492274F112035A
:105253009E74FE120999890AEAFEEBFF12534BFA78
:105263007B00121E8A8A088B09EA450960388A8204
:105273008B83E50AF0A3E4F08E0C8F0DF50E780C0A
:10528300120909A80A125358EA2402FAE43509FB61
:10529300121E6074031208CFAA08AB0990067CE0C3
:1052A300F9121E968012851882851983E50AF07912
:1052B3001AAA18AB1912162C74021208CF0233BDA6
:1052C30074F212039E74FE120999890B8A088B09E2
:1052D30012534BF50AFA7B00121E8A8A0C8B0DAE11
:1052E3000CAF0DEE4F604A8E828F83E50BF0A3E483
:1052F300F0A80AEE28F8E43FF98E828F83125175E5
:105303008E828F83A3A3A3A3E4F0F50A780812097E
:1053130009A80B1253581236D0121E6074031208D8
:10532300CFEEFAEFFB90067CE0F9121E967900802F
:1053330014851882851983E50BF0791AAA18AB191D
:1053430012162C791A023BE374C129F582E4343036
:10535300F583E49322749528F582E43430F583E4ED
:1053630093FC7D0022C082C083E990067C023FD378
:1053730074F612039E74FE120999EAFEEBFFEE54D3
:105383002070378040A8A8C2AF900625E0141254BD
:10539300ACF508E8A2E792AF8A828B831254A390FC
:1053A300067F1254C6121644851882851983E06459
:1053B3001560077A7F7B061216687A1F7B06121E1A
:1053C300B4EA4B70C0EF54807012801C90067F12B9
:1053D30054C61216447A7F7B0612166890067CE048
:1053E300F9121EA2EA4B70E4EE5410600E85188287
:1053F300851983742D1249DC121644EEA2E0500E77
:1054030085188285198374241249DC121644EE54DC
:1054130002600E85188285198374251249DC1216E1
:1054230044EE5404600E851882851983742612494C
:10543300DC121644EE5408600E85188285198374B5
:10544300281249DC121644EE544060107401120B0A
:10545300C31264F0742C1249DC121644EE548060BB
:10546300107401120BC31264F0742F1249DC12166C
:105473004490067D1252496020A8A8C2AF90067DD1
:105483001254B690067DE4F0A31254CC1254C51204
:1054930016447A7F7B061216687A007B000250421C
:1054A300E0851882851983F022F0E8A2E7E433222D
:1054B3009006041254BA22E0FAA3E0FB22A3A3A3AA
:1054C300A3A3A3EAF0A3EBF0221254ACFEE8A2E7F5
:1054D30092AF22C082C08390067F125CB8EA6870E4
:1054E30002EB69700790067FE4F0A3F002494B7466
:1054F300F712039EEAFEEBFFEE4F700312189CA215
:10550300AFE433F508C2AF8E828F8312524960280D
:10551300E824FBFAE934FFFB90067F126B5CE86C2E
:105523007002E96D700790067FE4F0A3F08E828F1E
:1055330083E4F0A3F0121F320239A2C082C0839029
:1055430006A674B0F0A37416F0A374C2F0A3741685
:10555300F0A374C8F0A37416F0A37472F0A37415C7
:10556300F0A374CEF0A37416F0A3746CF0A37415B7
:10557300F0A37478F0A37415F09006B474FEF0A34E
:105583007416F0A374D4F0A37416F0A374DAF0A322
:105593007416F0A374E6F0A37416F0A374E0F0A3FA
:1055A3007416F09006A5023FD2C082C083900B7997
:1055B300E064FE7003A3E0F470097C707D0B12209D
:1055C3003480158A828B83A3A3A3A3A3A3A3A37469
:1055D30002F012572E12517702494BC082C08390BA
:1055E3000B83C3E094FEA3E094FF4004790380029D
:1055F300790202494BC082C0831257398C828D8352
:105603001256EE687039740268701C8A828B83129A
:105613005647E06870298A828B83A3125647A3E01A
:1056230068701C7901801A7403687013EC2405FCFC
:1056330050010DEA2405FA50010B12203A80027939
:105643000002494BA3A3A3A3A3E0F88C828D83A3F9
:10565300A3A3A3A32274F612039E7E00740A120B63
:10566300C3E01256E2FF8A828B83A3A3A3A3A3A35F
:10567300A3A3E06F706474026F704E8A828B83C041
:1056830082C08388828983A3A3A3A3A3E0F50888A8
:10569300828983A3A3A3A3A3A3E0FBAA08D083D0F7
:1056A30082E06A7003A3E06B703088828983A3A3CE
:1056B300A3E0FA88828983A3A3A3A3E0F9EA6C7029
:1056C30002E96D70157E01801174036F700CE8247C
:1056D30005FCE439FD12203AE9FEEEF9025FF6F823
:1056E300A3E0F9888289831256EE22A3E0131354B0
:1056F3003F540322C082C0838A828B83A3A3A3A3C4
:10570300A3A3A3A3E06402701412572EE0687003EE
:10571300A3E06970047901800F7900800BEAFCEB48
:10572300FD7A707B0B12202E02494B900B79125C91
:10573300BC8A828B83228A828B831256EEF8227470
:10574300EC12039EEAFEEBFF8C128D13750A008C9C
:10575300828D83A3A3A3A3A3A3A3A3E0F510E9A22C
:10576300E75008750CFF750DFF8006900B7F1259EB
:105773007EE9C2E7F511EE240E1247FF54206007BD
:1057830012595F7408800412595FE4125986540455
:105793006007125967748080051259677410125993
:1057A3008654106006125937E4800B900B8CE0C0CE
:1057B300E0125937D0E0125986A2E05003750A204F
:1057C300540860067410450AF50A8E828F83A3A3DA
:1057D300E024FFF508A3E01247F8C39402E0400B6E
:1057E300640B6005E0141236E07403450AF50A758C
:1057F3000B00900B9FE0640170118E828F83A3A333
:10580300A3A3E0C394674003750B1085110E750FB6
:1058130000740E780E120A9CE50F450BF50B7414F9
:10582300120BC3E0F50EA3E0F50F74026511700EC1
:10583300900B841236DF900B831259758013740317
:10584300651170121259417C937D0BAA08FB12203B
:105853004012594E8004E5116028E5106014E50EEE
:10586300650C7004E50F650D70087440450AF50A70
:105873008010850882850983E50D12598CE50C1289
:1058830036E685100C750D00740A780C120A9CE537
:105893000D450BF50B740265107015851282851387
:1058A30083A31236DF851282851383125975801301
:1058B300740365107012125941AC12AD13AA08FBA0
:1058C30012204012594E8004E5106010850882852D
:1058D3000983E50F12598CE50E1236E6A808A909CB
:1058E300E824FFF508E91247F87005900B6F800371
:1058F300900B7BE0FA04F0EA888289831246D6E5AE
:105903000B12598CE50AF0EE2404F8E43FF9123344
:10591300CCAC088A828B83E0F50A88828983E025F0
:105923000AC39C125CD6ECF0A3E509125E52E4F0C4
:10593300F9023131EE2412F582E43FF58322E508C2
:1059430024F9F508E50934FFF5092212595222E535
:105953000824FFF508E50934FFF50922EE1245B8DE
:105963003FF5832212596B22EE2411F582E43FF5B1
:105973008322E0850882850983F022E0F50CA3E009
:10598300F50D22F012476DE0221236EA850882F502
:10599300832274EE12039E890A8A0B8C108D117573
:1059A3000C1A7416120BC312672FAA08FB121512D6
:1059B3008A0E8B0FAE0EAF0FEE4F60607414120B96
:1059C300C3125A26E8F0A3E91232E2E50AF0850889
:1059D3000C85090D750E00780C1209091236CC12CC
:1059E3001E6074031208CF7412120BC3120711AC9A
:1059F30010AD11A90BEEFAEFFB1216927402120806
:105A0300CFE9F50C7016E50A24F960031470061249
:105A13003753D2E5F0EEFAEFFB121566A90C7F0AB5
:105A230002060F1260CB12476E2274F612039E74A5
:105A3300F7120999EAFEEBFF7801EE242F1247FFD4
:105A430060027805124769E81232DF7404125A863D
:105A5300122034EE242C1232AD242E125A93120942
:105A63000D740212096379031A1AEFFB121692746A
:105A7300021208CFE9F5087007EEFAEFFB1215667C
:105A8300025FEFF0EE2423FCE43FFDAA18AB1922DA
:105A9300F582E43FF5831233F7124F7604F078086A
:105AA3002274F212039E8A088B09ECFEEDFF8A82B0
:105AB3008B837405F0EE24321247FF8A828B83A313
:105AC300A3F0EA2403F50AE43509F50B850A82F508
:105AD3008312597E125C82120B7CE50C12458E35C3
:105AE3000DF583120B70125C8CAA0CAB0D122034D3
:105AF300850A82850B831260C3FAA3E0FB8882893F
:105B030083A3A3A31254C0EE242F1247FFC0E012B5
:105B13005CA1D0E0125CE02415F582E438F583E45F
:105B2300125CE0125C94E4125CEB850A82850B83C1
:105B3300E02416FAA3E03400FB1216AA8E828F83A8
