:020000040000FA
:100000000212FF022003FFFFFFFFFF02200BFFFF92
:10001000FFFFFF020E61FFFFFFFFFF02201BFFFF3C
:10002000FFFFFF022023FFFFFFFFFF02202BFFFF48
:10003000FFFFFF022033FFFFFFFFFF020EA4FFFFC1
:10004000FFFFFF022043FFFFFFFFFF02204BFFFFE8
:10005000FFFFFF022053FFFFFFFFFF02205BFFFFB8
:10006000FFFFFF022063FFFFFFFFFF02206BFFFF88
:10007000FFFFFF022073FFFFFFFFFF02207BFFFF58
:10008000FFFFFF022083FFFFFFFFFF02208BFFFF28
:10009000FFFF70DFFFFF040000000002000000C847
:1000A0000300030369A5020269A501000000000026
:1000B00004003273000074F8121046900393E0605D
:1000C0001590030274FEF0900304744DF0A37405C0
:1000D000F07A011206857F0102116374F71210464F
:1000E00074FF12126B7E00801F851882851983E0D1
:1000F00064FE70069003877401F085188285198369
:10010000E0F8900384E068F07C017D00AA18AB1948
:10011000120E1C8B09EA450970030201F38518824F
:10012000851983E064EF70027E07E0C0E0900387EA
:10013000E0FA900385E0F8EA28F8E43400F9740264
:1001400028F582740339F583D0E0F0900387E060EE
:100150009814600E14602C14603C14605214606893
:100160008098900384E4F0851882851983E09003D9
:1001700086F0C394809003874004E40200F974027F
:100180000200F9851882851983E0900382F09003BC
:100190008774030200F9851882851983E090038330
:1001A000F0900386E0601990038774040200F990D0
:1001B0000385E004F0F8900386E06860030200FA2B
:1001C00090038774050200F9900385E4F09003879B
:1001D000F0900384E0F8851882851983E068600355
:1001E0000200FA900382E0644D60030200FA1203F9
:1001F000288002EEF974011212377F020211637433
:10020000F712104674FB12126BEAFEEBFF7508043E
:1002100075090078081212CF74021212E87A907BE6
:10022000007904120EC574021212371206771213E7
:1002300039E0687003A3E06970128518828519831C
:10024000E0F47003A3E0F4600302030874041212E4
:10025000E01206DD8A088B09A808A90974021213A6
:1002600039E8F0A3E9F07404121339E06008790169
:100270001200B6020321851882851983E068700395
:10028000A3E0697076851882851983E0F47003A372
:10029000E0F4701974021213397410F0A37420F092
:1002A0008518828519837410F0A37420F0750801F5
:1002B00075090078081212CF74021212E87A247BB2
:1002C00008120F49740212123775080478081212C6
:1002D000CF74021212E87A907B007904120EC57472
:1002E00002121237120677121339E0687003A3E086
:1002F000697004790280067904800279031200B6DD
:100300008E828F83741E80058E828F83E4F01206A6
:1003100077121339E0687003A3E0697004790180F3
:1003200002790074050201F774ED12104674F81298
:10033000126B900307E0FD900306E0FCFAEDF8E491
:10034000C8F9EA28FEE93408FF751001750B00753D
:100350000A068E088F0974027808121296C395084F
:10036000F8E49509F9740228F50E740339F50F8E37
:10037000088F09740978081212F0E508F511EE24C7
:1003800010F508E43FF509EEF50CEF5401F50D907A
:100390000383E014605914700302046414700302B0
:1003A00004DF14601024FE700302059A1470030227
:1003B000064A02065A750A03794E120C5B9003072F
:1003C00012066D7402F0A3744012066B74081206D4
:1003D0006BF0A3F07418C3940704F510AA10A90BCE
:1003E000120685A90A74081212377F0C0211637570
:1003F0000A04794E120C5BEE450D7005A911120F1F
:10040000AFC3EE9425EF9408503CC3E5089424E56F
:100410000994084031E50E2496F8E50F3420F98858
:10042000828983E0701BA3AA82AB83E070139003E0
:10043000887401F08882898374A5F08A828B838016
:1004400004900388E4F0750810750900780812120A
:10045000CF7C087D03EEFAEFFB120F4974021212F3
:10046000370203DC750A05E511C394794006750B64
:10047000010203DC75124075130078121212CF7C52
:10048000097D037402780C121296AA0CAB0DA91107
:10049000120EC57402121237900307E0A3F0900306
:1004A00006E0A3F0751043C3EE9425EF94084003D3
:1004B0000203DCC3E5089424E50994085003020311
:1004C000DC900388E070030203DCE50E2497F8E576
:1004D0000F3420F988828983E4F0A3F00203DC75ED
:1004E000080475090078081212CF74021212E87A13
:1004F000907B007904120EC5740212123774021236
:100500001339E0F8A3E0F9851882851983E0687053
:1005100003A3E069851882851983700BE0F47003EA
:10052000A3E0F470578009E0F47003A3E0F4700DC9
:100530008518828519837410F0A37420F012067751
:10054000121339E8F0A3E9F075080178081212CF08
:1005500074021212E87A247B08120F4974021212F4
:100560003775080478081212CF74021212E87A90D4
:100570007B007904120EC57402121237120677122C
:100580001339E0687003A3E0697006750A0102037D
:10059000DC750A02750B070203DC900391E060072B
:1005A000640260030203DCEDFF7A01790012068524
:1005B000E0600302063E8003120D1C120D26E97056
:1005C000F7740412133912065F7404121339780891
:1005D00012131D85080C85090D850A0E850B0F90D9
:1005E00005A2780C1212BC7404121339780C121381
:1005F0000EE5084509450A450B70CE8EC2E5C55487
:10060000E04FF5C5740412133912065F7404121317
:1006100039780812131D85080C85090D850A0E8589
:100620000B0F9005A2780C1212BC740412133978C7
:100630000C12130EE5084509450A450B70CE7A01E8
:10064000790012068579080203E5EC900393F070B7
:10065000030203DC750A090203DC79060203E5E400
:10066000F0A37426F0A3E4F0A3F022F0A3E4F0A337
:10067000F0A3F0A3F0A322851882851983E0F8A3E4
:10068000E0F974022274F8121046EAFE900305E0C5
:10069000D2E7F0E9A3F0EE900303F08E0874042A89
:1006A000FE7C028004E062080CECFA3395E0FB74F7
:1006B000022AF58274033BF583EEF8C3EA98EB94C3
:1006C00000A2D265D03340DDE508F074012A0C3376
:1006D00095E0FD7A027B03120E4C0200D674E912FB
:1006E00010467582007583FE1211FE8A168B1775EF
:1006F00014007515008A828B83E4F0900391E070FA
:1007000006D2AAD2AF80046402700579001200B646
:10071000750C00750D20750E00750F00900391E0AB
:10072000600464027015120D1C1200DBE9F87409F4
:1007300068600302080D79001200B675080075099B
:100740000278081212CF74021212E8850C08850D87
:1007500009AA08E5095407FB850E0A850F0B740BDF
:100760007808121252A908120EC574021212377EAE
:10077000007F009005AAC0828E10EFF5113395E03E
:10078000F512F513850C08850D09850E0A850F0BEA
:10079000780879101212A99005A678081212BC7573
:1007A0008305D08278081211DF501D8518828519C3
:1007B00083E5822EF582E5833FF583E0F9AA14AB49
:1007C0001512083C8A148B150EEE70010FC3EF94BE
:1007D0000240A09005AE780C1212BC9005B2780CC5
:1007E0001211DF400302071C7900AA14AB1512088E
:1007F0003C790012083C8B15900391E07004C2AF65
:10080000C2AAEA451570277AA57BA58021E8700366
:1008100002073B740668700302073B7407687003A5
:1008200002073B8516828517837401F080BA7582B2
:10083000007583021211FE7F10021163C008C00907
:100840007C088A088B09740F78081212F0E508F802
:10085000EA25E0FAEB33FBE9A2E7500474014AFA17
:10086000E8A2E0500874216AFA74106BFBE9C33304
:10087000F91CEC70CDD009D0082274F8121046781B
:10088000007900802274942EF582E43403F583E02D
:100890008A828B83F09004141209FA4005900414A4
:1008A000E4F008E8700109900414E0FEA3E06E6033
:1008B00007C3E89CE99D40CDE8FAE9FB7F010211FE
:1008C0006374F7121046900498E0F509A3E0F50868
:1008D000F8E509C398F895E0F9E508C39509E850EB
:1008E0000B120ADC701178007900801B247F500104
:1008F00009C39CE99D50EF7A007B008041E004F041
:10090000D2E908E8700109C3E89CE99D502C8A826D
:100910008B83E0C0E0900499E0FE74182EF582E429
:100920003404F583D0E0120ACC90049AE4F09004E9
:1009300099E0C3947F40C6E480C5E8FAE9FB7F02F2
:10094000021163C082C083C2E9900498E0F8A3E07A
:10095000686017741828F582E43404F583E0F5C163
:10096000900498120AF34002E4F0020D3A74F8126F
:1009700010467800790090051DE07055A3E0705195
:1009800075F900C28FC284A28340FCA28F4004A2EA
:100990008350F8AEF9C28FA2835004D2848032EE25
:1009A000C0E0E0FE1209EFD0E0F090051E120AF35D
:1009B00040D9E4F080D51209EFE08A828B83F09071
:1009C000051D1209FA400590051DE4F008E87001C4
:1009D0000990051DE0FEA3E06E6007C3E89CE99D59
:1009E00040D4E8497006E4F090051DF00208B874A0
:1009F0009D2EF582E43404F58322E004120AD0C36C
:100A000094802274F81210469005A0E0FEF890053C
:100A10009FE0FFEEC39FE0500DC398F895E0F912F8
:100A20000ADB70188012C398F895E0F9E8247F502B
:100A30000109C39CE99D4004EC4D70077A007B00DE
:100A4000020AC98A828B83E0F5F9A3AA82AB837874
:100A50000179008008E004F008E8700109C3E89C0F
:100A6000E99D50278A828B83E0C0E09005A0E0FEDC
:100A7000741F2EF582E43405F583D0E0120ACC9081
:100A800005A0E0C3947F40CDE480CCC28FA2834018
:100A9000FCC284A28F4004A28350F890059F120AE2
:100AA000E6E0F5F9C28F90059FE0FAA3E06A9005B1
:100AB0009F7005120AE68005120AF34002E4F0A2D4
:100AC0008350D0D284E8FAE9FB0208BC120AD02293
:100AD000F08A828B83A3AA82AB8322E824FF18E9E1
:100AE00034FFF9E84922E0FA741F2AF582E434055C
:100AF000F58322E004F0C394802274FB12126B7E13
:100B0000009005CA780812131D9005CA7401F0A35D
:100B1000F0A37469F0A374A5F09005B678081212DA
:100B20008170047E0180159005BA780812128160E8
:100B300008E59D541864107003022000120C81EE29
:100B4000A2E05003020BFEAA18AB191201FFE970D4
:100B500003020BFE851882851983E0C3943C500C78
:100B6000E0F8743CC398FA95E0FB80047A007B00BF
:100B7000120D3FE97003020BFE900391E0640170D7
:100B80000C75F800C2AB539AF7D2EA805E7907126F
:100B900000B68003120D1C120D26E970F7740112C5
:100BA0001339E4F0A37426F0A3E4F0A3F074011267
:100BB0001339780812131D85080C85090D850A0E56
:100BC000850B0F9005A2780C1212BC740112133918
:100BD000780C12130EE5084509450A450B70CE75D1
:100BE0008600C2AAC28B539AFBC2E990000174CD61
:100BF000F0022000C2AF75C9AB75C95B80FE7508F5
:100C000000750900750A00750B00900391E0701BD8
:100C1000D2AAD2AF79051200B6E07003120D1C12F1
:100C200000DBE9F8740968700980E9794E120C5B01
:100C300080ED74016870E2E07017120D1C9005BE23
:100C400078081212BC9005C278081211DF50EBC26E
:100C5000AAC2AF75C9AB75C95B80FEC082C083787C
:100C6000109005A1E0C399501575B60FE5B4A2E741
:100C700050FAE5BBC39940F118E870EDE9F0020DB8
:100C80003AC082C08353BEFBE59DA2E650FA0078CD
:100C9000F8790100120ADB70FA75C6807480659ECF
:100CA00070FA43BE049062707408F0794A120C5BCB
:100CB00090000174F5F07403F5D575D489A2A0E411
:100CC00033900391F0A2E05029D28453F3F753F309
:100CD000EF53FDF743FD10538FF753F7DF43FC202D
:100CE00043F10253F5DF75F82043F4F0D2FED2ABA6
:100CF000802853FF3F85FFFF53F1FE43F30C53F26F
:100D0000F375868075C48090049BE4F0A3F075C2EF
:100D1000D875C50B75C402438640801E8003120936
:100D200043A2E940F922C082C083900498E0F8A36E
:100D3000E0686004790180027900D083D082227457
:100D4000F112104674FF12126B7E00900391E06462
:100D500001706CC2849003927401F07508388E099A
:100D60008E0A8E0B7C017D00AA18AB19120E1C8B0B
:100D70000DEA450D6018851882851983E0641060BE
:100D80002DE064EF70088E088E098E0A8E0B8508A0
:100D90000C85090D850A0E850B0F9005A2780812A7
:100DA00012BCE50C450D450E450F70347E019003D5
:100DB00091E064017056D284900392E4F08051D2A5
:100DC000AAD2AF8A088B09E4F50AF50B9005C6781C
:100DD0000C12131D7808790C120FC679061200B692
:100DE000900391E06003020D64120D1C1200DBE918
:100DF000F8740968700779061200B6809174076864
:100E00006084E8608974066870A48082C2AFC2AA58
:100E1000EEF974011212377F08021163C082C08399
:100E2000900391E0700512087A801E900392E060B2
:100E300015A28F500BE5F98A828B83F07A0180022C
:100E40007A007B00800312096D020D3AC082C083D4
:100E5000900391E070051208C18003120A03020D8D
:100E60003AC0E074F21210AC900001E064CD70055D
:100E7000122013802AE064F57024E5C1C28BC0E023
:100E8000900415E0F8749428F582E43403F583D0D7
:100E9000E0F0900415120AF34005E4F08001007FB1
:100EA0000102110BC0E074F21210AC900001E0647A
:100EB000CD700512203B800BE064F57005120943EC
:100EC00080010080DA74F6121046890A740F550A00
:100ED000F508750900740B7808121296EA2400F8D8
:100EE000EB3480F9E82400E93509F985C709A2AF98
:100EF000E433F508C2AFE50AC4540FFAE5C754F865
:100F00004AF5C7740A121339E0FAA3E0FB801C8883
:100F1000828983E08C828D83F088828983A3A88272
:100F2000A9838C828D83A3AC82AD83EAFEEBFFEEB6
:100F300024FF1AEF34FFFBEE4F70D48509C7E50894
:100F4000A2E092AF7F0302116374F7121046ED9096
:100F50000389F0ECA3F0A37462F0A37473F0A3E030
:100F6000541FF07409121339E0F508A3E0F509E500
:100F700008333354FC90038EF0740678081212F094
:100F8000E50890038DF090038F7412F0A37442F083
:100F900075D1FE75D601EA906271F0EBA3F0906214
:100FA00070E0D2E1F0E0A2E740FB7F02021163C0F3
:100FB00082C083E9C333906272F0906270E0D2E045
:100FC000F0D083D08222080808EAC0E0EBC0E086B7
:100FD000F0E7A4FA180986F0E7A42AFA180986F0BF
:100FE000E7A42AFA180986F0E7A42AFA1986F0E796
:100FF000A4FBE5F02AFA190886F0E7A42BFBE5F03C
:101000003AFA190886F0E7A42BFBE5F03AFA18182B
:101010000986F0E7A4C5F02BFBE43AFA1908E7C506
:10102000F0C6A426F6E5F03BFBE43AFA1886F0E7B2
:10103000A4F6E5F00826F6E43B08F6E43A08F6D014
:10104000E0FBD0E0FA222518C582C0E0E51934FFA4
:10105000C583C0E0E518C3958224F910AF088583E5
:10106000198582188008858319858218D2AFCEF041
:10107000A3E520F0A37808E608F0A3DEFAEFF0A3DA
:10108000E58124FBF8E608F0A3E608F0A30808E6EB
:1010900008F0A3E608F0A315811581D0E0FED0E0AA
:1010A000F815811581E8C0E0EEC0E022C0D0251817
:1010B000C582C0E0E51934FFC583C0E0E518C395DB
:1010C0008224F310AF0885831985821880088583F0
:1010D00019858218D2AFC8F0A3E9F0A3EAF0A3EB18
:1010E000F0A37908E709F0A3D8FAECF0A3EDF0A398
:1010F000EEF0A3EFF0A3D0E0F0A3D0E0F0A3D0E0B7
:10110000F0A3E520F0A3E5F0F0A32285198385186C
:1011100082E0C0E0A3E0F9A3E0FAA3E0FBA3780833
:10112000E0F608A3DFFAE0FCA3E0FDA3E0FEA3E005
:10113000FFA3E0C0E0A3E0C0E0A3E0F5D0A3E0F5AA
:1011400020A3E0A3F5F010AF0885831985821880ED
:1011500008858319858218D2AFD082D083D0E0F879
:10116000D0E032851983851882E0A3FEE0A3F52044
:101170007808E0A3F608DFFAE0A3FFE0A3C0E0E010
:10118000A3C0E0E0A3C0E0E0A3C0E010AF08858208
:10119000188583198008858218858319D2AFD0837A
:1011A000D08222E490030278A179038002F0A3D8D0
:1011B000FCD9FA7AA27B0590008E782979018015F6
:1011C000E493A3AD82AE838A828B83F0A3AA82AB21
:1011D000838D828E83D8E9D9E7120AFA121343C0AD
:1011E00008C3E096F50808A3E096420808A3E09635
:1011F000420808A3E09645087001D3D00822C582B2
:101200002518C582C583351910AF07F519858218D1
:101210008007F519858218D2AFC583222518F5827B
:1012200010AF08F518400C15198008F51840021584
:1012300019D2AF8519832200C0D0251810AF08F548
:1012400018500C05198008F51850020519D2AFD0B6
:10125000D0226016080808C6C313C618C613C618DD
:10126000C613C618C613C6D5E0EA22251810AF0863
:10127000F518400C15198008F51840021519D2AF61
:1012800022E066701008A3E066700A08A3E06670AA
:101290000408A3E06622700422600D18C6C333C69A
:1012A00008C633C6D5E0F41822E627F60809E63763
:1012B000F60809E637F60809E637F622E026F608CA
:1012C000A3E036F608A3E036F608A3E036F622746B
:1012D000028000C0E0F40412121CD0E012132C2291
:1012E0002518FAE43519FB222518FCE43519FD22EE
:1012F000600C08C6C313C618C613C6D5E0F4227521
:10130000D00075813F7518027519030211A3E6F02C
:1013100008A3E6F008A3E6F008A3E6F022E0F6084A
:10132000A3E0F608A3E0F608A3E0F622CAC0E0E6D0
:10133000F0A308DAFAD0E0FA222518F582E435198C
:10134000F5832200000080FBFFFFFFFFFFFFFFFF90
:10135000FFFFFFFFFFFFFFFFFFFFFFFFFFFFFFFF9D
:10136000FFFFFFFFFFFFFFFFFFFFFFFFFFFFFFFF8D
:10137000FFFFFFFFFFFFFFFFFFFFFFFFFFFFFFFF7D
:10138000FFFFFFFFFFFFFFFFFFFFFFFFFFFFFFFF6D
:0A1FF600CA05094338860000000008
:020000040003F7
:01FFF000F020
:020000040000FA
:10200000022C3F0221F7FFFFFFFFFFFFFFFFFFFF53
:10201000FFFFFFFFFFFFFFFFFFFFFFFFFFFFFFFFD0
:10202000FFFFFFFFFFFFFFFFFFFFFF022914FFFF7E
:10203000FFFFFFFFFFFFFFFFFFFFFFFFFFFFFFFFB0
:10204000FFFFFF022741FFFFFFFFFFFFFFFFFFFF33
:10205000FFFFFF022137FFFFFFFFFFFFFFFFFFFF33
:10206000FFFFFFFFFFFFFFFFFFFFFF0228ECFFFF67
:10207000FFFFFFFFFFFFFFFFFFFFFFFFFFFFFFFF70
:10208000FFFFFF02218BFFFFFFFFFFFFFFFFFFFFAF
:1020900010201020010105030101FF0F10FEFFEDCC
:1020A0004B00000000234B00000000FF000000FF79
:1020B000000196511800020000483D00000000E2B7
:1020C0003CC63D183D903D00000C3D000000000066
:1020D0000000000000000000000000000000000000
:1020E00000000006FFFFFF01010400D41B000000F8
:1020F000E8030000FFFFA31C03E803000064006482
:1021000000B801A0BB0D00A0BB0D0002020008003A
:10211000000502070401051E02051E020A0A010845
:102120000803B80B02803E0102FEFFE8030A050027
:1021300001FFFF0A1401E0C0E074F212250BA2AF08
:10214000E433F508D2AFAFA7AEA1EE5F541060063E
:10215000123A6C75A1EFEE5F54086008123A72757E
:10216000A1F78023EEA2E092F0EFA2E082F05017F8
:10217000906198E0F890094FE0C398A2D265D033FF
:102180005002E8F075A1FEE5088063C0E074F21229
:10219000250BA2AFE433FED2AF9061A4E0F8759BAB
:1021A00000E59158540860087591F7123ABA8023F7
:1021B000E59158541060087591EF123AC08014E50B
:1021C00091A2E092F0E8A2E082F05007E0C2E0F0D5
:1021D000123C169061A3E0F8E5E9585404600E1231
:1021E0003BEC75E9FB906193E0A2E640F2EEA2E0E1
:1021F00092AF7F0102256AC0E074F212250BA2AFF4
:10220000E433FED2AF9061A5E0F8E5BF5854046016
:102210000675BFFB123C2E80D4C3E498F8E499F90C
:1022200012225A8026C3E49AFAE49BFBE920E7E9EC
:1022300012225AE498F8E499F922C3E498F8E49950
:10224000F912225AE498F8E499F9C3E49AFAE49B63
:10225000FB22EB20E7CFE920E7E0B90010BB000844
:10226000E88AF084F8AAF022E4FBC8FA22EB702294
:102270007B10C833C8C933C9335007C39AC3DBF2D4
:1022800080069A50012ADBEAC833F4C8C933F4C97E
:10229000FA2275F008E4C833C8C933C933C99AC9EA
:1022A0009B5004C92AC93BD5F0ECFBC833F4C8E401
:1022B000C9FA2274F51224A574FA122AC275080408
:1022C0007509007808122A1B7404122AA47AF87B74
:1022D0000779031239707402122A2E9080BF780891
:1022E000122C4F7402122CDC7808122AD87049750F
:1022F00008027509007808122A1B7402122AA47AAF
:10230000F67B0779031239707402122A2E8518821F
:10231000851983E0F47003A3E0F4601C85188285BE
:102320001983E0F8A3E0F9888289837402F0A3F0AE
:10233000A37469F0A374A5F0C2AF75D69F02000024
:102340007406122A2E7F04022784080808EAC0E0D7
:10235000EBC0E086F0E7A4FA180986F0E7A42AFAB1
:10236000180986F0E7A42AFA180986F0E7A42AFAE1
:102370001986F0E7A4FBE5F02AFA190886F0E7A42D
:102380002BFBE5F03AFA190886F0E7A42BFBE5F001
:102390003AFA18180986F0E7A4C5F02BFBE43AFADC
:1023A0001908E7C5F0C6A426F6E5F03BFBE43AFAC7
:1023B0001886F0E7A4F6E5F00826F6E43B08F6E414
:1023C0003A08F6D0E0FBD0E0FA22E4CFC0E0E4CE59
:1023D000C0E0E4CDC0E0E4CCC0E075F020E626F635
:1023E00008E633F608E633F608E633F6181818EC74
:1023F00033FCED33FDEE33FEEF33FFC3EC9709ED15
:102400009709EE9709EF97191919400FFFEC97FC00
:1024100009ED97FD09EE97FE191906D5F0BFECF707
:1024200009EDF709EEF709EFF7191919D0E0FCD01B
:10243000E0FDD0E0FED0E0FF222518C582C0E0E537
:102440001934FFC583C0E0E518C3958224F810AFA6
:10245000088583198582188008858319858218D29A
:10246000AFCEF0A3E520F0A37808E608F0A3DEFAEB
:10247000EFF0A3E58124FAF8E608F0A3E608F0A35C
:10248000E608F0A30808E608F0A3E608F0A3158123
:102490001581D0E0FED0E0F8158115811581E8C0E6
:1024A000E0EEC0E0222518C582C0E0E51934FFC582
:1024B00083C0E0E518C3958224F910AF088583191D
:1024C0008582188008858319858218D2AFCEF0A343
:1024D000E520F0A37808E608F0A3DEFAEFF0A3E524
:1024E0008124FBF8E608F0A3E608F0A30808E60854
:1024F000F0A3E608F0A315811581D0E0FED0E0F846
:1025000015811581E8C0E0EEC0E022C0D02518C5D5
:1025100082C0E0E51934FFC583C0E0E518C39582A9
:1025200024F310AF088583198582188008858319E4
:10253000858218D2AFC8F0A3E9F0A3EAF0A3EBF0CC
:10254000A37908E709F0A3D8FAECF0A3EDF0A3EE25
:10255000F0A3EFF0A3D0E0F0A3D0E0F0A3D0E0F040
:10256000A3E520F0A3E5F0F0A32285198385188266
:10257000E0C0E0A3E0F9A3E0FAA3E0FBA37808E061
:10258000F608A3DFFAE0FCA3E0FDA3E0FEA3E0FF72
:10259000A3E0C0E0A3E0C0E0A3E0F5D0A3E0F52015
:1025A000A3E0A3F5F010AF08858319858218800891
:1025B000858319858218D2AFD082D083D0E0F8D03D
:1025C000E032122CD1B90003022601E49004D17844
:1025D00087791A8002F0A3D8FCD9FA7A577B1E902B
:1025E000209478A479018015E493A3AD82AE838A08
:1025F000828B83F0A3AA82AB838D828E83D8E9D9A4
:10260000E77582BA7583AF74061229DA75821E7572
:10261000834974001229DA0C75F0108E1A8F1B850D
:10262000821F85831E851882851983E0CEA3E0CFA3
:10263000851F82851E83EBC9EAC8EDCBECCAC3E8CF
:1026400033C8E933C9EA33CAEB33CBC3EA9EF51D7D
:10265000EB9FF51CB35004AB1CAA1DEC33CCED333F
:10266000CDD5F0DAAE1AAF1B22D083D082ECC0E019
:10267000EDC0E0E493A3FCE493A3FDED4C600D12E8
:1026800027C4EC24FFFCED34FFFD80EFE493A3FCB2
:10269000E493A3FDED4C600D122897EC24FFFCEDB4
:1026A00034FFFD80EFD0E0FDD0E0FCE493A3C0E078
:1026B000E493C0E022851983851882E0A3FEE0A39D
:1026C000F5207808E0A3F608DFFAE0A3FFE0A3C056
:1026D000E0E0A3C0E0E0A3C0E0E0A3C0E0E0A3C06E
:1026E000E010AF08858218858319800885821885D7
:1026F0008319D2AFD083D0820229E0D083D082E97F
:10270000C0E0E493A3C386F0C5F095F0F908E49324
:10271000A386F0C5F095F0700BE493A3C399400530
:10272000E9048002A3E475F002A42582F582E5F0B5
:102730003583F583D0E0F9E493A3C0E0E493C0E0EF
:1027400022C0E074F212250BA2AFE433FED2AFC276
:10275000C0901D50E0700BE5D1A2E4501D1239D697
:102760008018E5D1A2E3500675D1F71239A6E5D15C
:10277000A2E4500675D1EF1239ACEEA2E092AF7F21
:102780000102256A851983851882E0A3FEE0A3F57E
:10279000207808E0A3F608DFFAE0A3FFE0A3C0E09A
:1027A000E0A3C0E0E0A3C0E0E0A3C0E010AF088574
:1027B00082188583198008858218858319D2AFD045
:1027C00083D08222C0E0C3E49396087401939618E4
:1027D000400FE493667008087401936618700070E7
:1027E00019A3A3C3E49396087401939618A3A34076
:1027F0000DD0E0D0E0D0E00226A5A3A3A3A3A3A31D
:10280000D0E022D083D082C5F0E493A3C5F0C39575
:10281000F0F5F0E493A3C395F04005E5F0048001E2
:10282000E475F002A42582F582E5F03583F583E4B2
:1028300093A3C0E0E493C0E0227404800474028097
:1028400000CCC0E0EDC0E0E518C39CCCAD19500150
:102850001D10AF068C188D1980068C188D19D2AFFB
:1028600012295CD0E0FDD0E0FC2274028000CCC0D4
:10287000E0EDC0E0E518C39CCCAD1950011D10AFD0
:10288000068C188D1980068C188D19D2AF12293A32
:10289000D0E0FDD0E0FC22C0E0C0F088F0E4936618
:1028A00070080874019366187000A8F0A3A3700B59
:1028B000D0F0D0E0D0E0D0E00226A5A3A3D0F0D0A5
:1028C000E022D083D082CCC0E0E493A3600612293A
:1028D000BB1470FAE493A36006122AAC1470FAD009
:1028E000E0FCE493A3C0E0E493C0E022C0E074F213
:1028F00012250B758900C2C5901D50E0700E7A003C
:102900007B109009E7E0F9123EF8800312477A7FC6
:102910000102256AC0E0C0D0E8C0E0E9C0E0A9A893
:10292000D2AFC2C7E9A2E7E433F8E9A2E792AFD099
:10293000E0F9D0E0F8D0D0D0E032CAC0E0E493A310
:10294000C582CCC582C583CDC583F0A3C582CCC565
:1029500082C583CDC583DAE5D0E0CA22CAC0E0E0F3
:10296000A3C582CCC582C583CDC583F0A3C582CC67
:10297000C582C583CDC583DAE6D0E0CA22700908D6
:102980000808226016181818C6C333C608C633C60E
:1029900008C633C608C633C6D5E0EA22C008C3E07D
:1029A00096F50808A3E096420808A3E096420808B6
:1029B000A3E09645087001D3D00822C0E0E493A3B9
:1029C000D39C5010E493A3C39C400AD0E0D0E0D045
:1029D000E00228DFA3A3A3D0E022C09FF59FE47309
:1029E000D09F22D083D082C09FE493C0E074019333
:1029F000C0E0740293F59F222518F58210AF08F508
:102A000018400C15198008F51840021519D2AF8529
:102A10001983227404800A7403800674028002748D
:102A200001C0E0F4041229F8D0E0122C7C2200C08E
:102A3000D0251810AF08F518500C05198008F518A6
:102A400050020519D2AFD0D022BB0102E722C082CA
:102A5000C08389828A83BB0003E08002E493D08331
:102A6000D082226016080808C6C313C618C613C64B
:102A700018C613C618C613C6D5E0EA22C3E0C69628
:102A8000F608A3E0C696F608A3E0C696F608A3E00B
:102A9000C696F6222518F8E43519F9222518FAE425
:102AA0003519FB222518FCE43519FD22C0E0E4931A
:102AB000A36C7009D0E0D0E0D0E00228DFA3A3D05F
:102AC000E022251810AF08F518400C15198008F5FC
:102AD0001840021519D2AF22E066701008A3E06614
:102AE000700A08A3E066700408A3E06622C3E096BB
:102AF00008A3E09608A3E09608A3E096A2D265D0CA
:102B00003322E76670100809E766700A0809E7666D
:102B100070040809E76622C3E096F008A3E096F087
:102B200008A3E096F008A3E096F022C3E697F60823
:102B300009E697F60809E697F60809E697F622C32C
:102B4000E4939608740193960874029396087403AC
:102B5000939622E493F608740193F608740293F6B0
:102B600008740393F622E647F60809E647F60809D3
:102B7000E647F60809E647F622E026F008A3E03625
:102B8000F008A3E036F008A3E036F022E627F608C6
:102B900009E637F60809E637F60809E637F622E6C9
:102BA00057F60809E657F60809E657F60809E65702
:102BB000F622E056F608A3E056F608A3E056F6081B
:102BC000A3E056F622E026F608A3E036F608A3E0D6
:102BD00036F608A3E036F622E056F008A3E056F0F9
:102BE00008A3E056F008A3E056F022700422600D1E
:102BF00018C6C333C608C633C6D5E0F41822E4C3EA
:102C000096F608E496F608E496F608E496F622C6E8
:102C1000F4C608C6F4C608C6F4C608C6F4C622C37D
:102C2000E7960809E7960809E7960809E79622C398
:102C3000E09608A3E09608A3E09608A3E096227524
:102C4000D00075813F7518D1751904000225C2E0C6
:102C5000F608A3E0F608A3E0F608A3E0F622600C6D
:102C600008C6C313C618C613C6D5E0F422E6F0089A
:102C7000A3E6F008A3E6F008A3E6F022CAC0E0E667
:102C8000F0A308DAFAD0E0FA22E0F8A3E0F9A3E032
:102C9000FAA3E0FB22E0FCA3E0FDA3E0FEA3E0FF3B
:102CA00022EAF0A3EBF0A3ECF0A3EDF022E0FAA30C
:102CB000E0FBA3E0FCA3E0FD22ECF0A3EDF0A3EE2B
:102CC000F0A3EFF022E8F0A3E9F0A3EAF0A3EBF021
:102CD00022E5C754F84401F5C77901222518F58289
:102CE000E43519F583221229E38DA3021229E3C8E2
:102CF000A4021229E347A5021229E378A6021229A9
:102D0000E3B4A6021229E38EA8021229E34BAC0217
:102D10001229E35FAC021229E369AC021229E373C2
:102D2000AC021229E37DAC021229E387AC0212291E
:102D3000E3A0AC021229E3AAAC021229E321AD02FE
:102D40001229E32CAD021229E35BAD021229E383C1
:102D5000AD021229E38EAD021229E3F3AD0212296E
:102D6000E3FDAD021229E308AE021229E32CAE0204
:102D70001229E350AE021229E3C2AE021229E30B7C
:102D8000AF021229E327AF021229E398AF021229FA
:102D9000E3E4AF021229E32DB0021229E36BB00283
:102DA0001229E3ECB0021229E393B1021229E3588D
:102DB000B3021229E3BDB3021229E3EBB4021229D4
:102DC000E311B5021229E359B6021229E393B902BD
:102DD0001229E391BB021229E35CBD021229E3F53B
:102DE000BD021229E3F6BF021229E3ABC002122989
:102DF000E3E4C0021229E354C1021229E35EC102D6
:102E00001229E387C3021229E38AC4021229E3C705
:102E1000C5021229E31EC6021229E3C9C6021229FD
:102E2000E379C8021229E3C6C9021229E3E6C902FE
:102E30001229E33BCA021229E33CCB021229E364C4
:102E4000CB021229E3C3CB021229E3BBCC02122925
:102E5000E332CD021229E345CE021229E3B3CE02BA
:102E60001229E3B2CF021229E30CD2021229E33570
:102E7000D2021229E39BD3021229E31DD5021229A3
:102E8000E374D5021229E322D6021229E3C7D6023F
:102E90001229E32AD7021229E3E8D7021229E37A9A
:102EA000D8021229E3D9D8021229E31BD902122928
:102EB000E34CD9021229E3A3DA021229E3008003CA
:102EC0001229E33280031229E36B80031229E334D1
:102ED00082031229E37882031229E34E8303122925
:102EE000E3AD83031229E3C384031229E30F8503AF
:102EF0001229E39D87031229E3818A031229E3C87B
:102F00008B031229E3608C031229E36C8C031229D2
:102F1000E3B58C031229E3F78D031229E3ED8E0349
:102F20001229E3178F031229E36D8F031229E3C6D9
:102F30008F031229E33990031229E36F92031229B8
:102F4000E3F193031229E3DC94031229E3269603A9
:102F50001229E35E98031229E35B9B031229E36ABB
:102F60009B031229E3FE9B031229E3A99C03122968
:102F7000E3EC9C031229E3359D031229E3859D03AD
:102F80001229E3E99D031229E35B9E031229E377EB
:102F90009E031229E3A69E031229E3E59E0312294C
:102FA000E3E09F031229E38FA0031229E30CA3039C
:102FB0001229E33EA4031229E316A5031229E3987C
:102FC000A5031229E3CDA9031229E3FCA9031229C1
:102FD000E357AA031229E38AAA031229E302AB03E7
:102FE0001229E335AB031229E396AB031229E3E67A
:102FF000AB031229E3B3AC031229E36CAD0312292E
:10300000E330AE031229E3AAB0031229E30CB203A2
:103010001229E35DB3031229E381B4031229E38487
:10302000B4031229E3B3B4031229E3ABB6031229A4
:10303000E36AB7031229E399B7031229E3B7B80388
:103040001229E37FB9031229E340BB031229E3B03D
:10305000BB031229E3E2BB031229E302BC031229DA
:10306000E371BC031229E36ABD031229E38EBD0399
:103070001229E301BE031229E32AC0031229E389BE
:10308000C0031229E3DDC0031229E30CC303122994
:10309000E3EFC3031229E377C4031229E35BC503FB
:1030A0001229E3E5C5031229E3F9C5031229E30D4B
:1030B000C6031229E321C6031229E335C6031229E8
:1030C000E362C6031229E392C6031229E34DC80343
:1030D0001229E323C9031229E3C7C9031229E31CF8
:1030E000CA031229E37FCA031229E3C8CA031229BB
:1030F000E3EFCA031229E3B7CB031229E35DCC0344
:103100001229E3E3CD031229E36ECE031229E3B5BE
:10311000CE031229E327CF031229E37CD00312291F
:10312000E325D1031229E359D1031229E371D10315
:103130001229E314D2031229E390D4031229E338AD
:10314000D6031229E356D6031229E374D6031229B3
:10315000E340D7031229E38EDA031229E334810115
:103160001229E37681011229E3E386011229E32F74
:1031700087011229E37587011229E3C68801122904
:10318000E32B89011229E36F89011229E3D58A0112
:103190001229E3308E011229E3638F011229E3F231
:1031A0009A011229E3829B011229E36C9E011229E4
:1031B000E3D19F011229E334A0011229E350A101B8
:1031C0001229E3BAA2011229E399A3011229E30704
:1031D000A6011229E399A7011229E32AA8011229BD
:1031E000E349A9011229E3D6A9011229E3E0A901C3
:1031F0001229E308AA011229E3ABAA011229E396D6
:10320000AB011229E35EAC011229E3EBAC011229F8
:10321000E301AD011229E31EAD011229E347AD011F
:103220001229E374AD011229E3B8AF011229E38B2F
:10323000B0011229E3CFB0011229E351B1011229E3
:10324000E3F2B1011229E324B2011229E36BB201C6
:103250001229E39EB2011229E3E2B2011229E331FD
:10326000B3011229E336B3011229E392B301122903
:10327000E3D6B3011229E3C0B4011229E325B50155
:103280001229E383B5011229E302B6011229E37A78
:10329000B9011229E37DBA011229E313BC011229F5
:1032A000E356BF011229E3F8BF011229E341C2012D
:1032B0001229E3FCC2011229E33BC3011229E3FFF7
:1032C000C4011229E31CC5011229E325C5011229F5
:1032D000E32EC5011229E339C5011229E358C501BE
:1032E0001229E37CC7011229E3D9C7011229E3E3BC
:1032F000C7011229E3EDC7011229E350C8011229C1
:10330000E3ACC8011229E3B9C9011229E31ACA01C1
:103310001229E32BCB011229E374CB011229E33EDE
:10332000CC011229E355CD011229E319CE0112294E
:10333000E365CF011229E369D0011229E362D101CB
:103340001229E37AD1011229E3B1D1011229E3BB99
:10335000D1011229E3C5D1011229E3D0D1011229EB
:10336000E3EED1011229E336D2011229E394D2010E
:103370001229E3BBD2011229E3CDD2011229E3764F
:10338000D3011229E3AFD3011229E3E0D4011229BA
:10339000E33DD5011229E32ED6011229E364D601BB
:1033A0001229E3D4D6011229E350D7011229E3D11F
:1033B000D8011229E3F8D9011229E3BADA01122956
:1033C000E388DB011229E30DDC011229E3BCDC01F7
:1033D0001229E3A4DD011229E33DDE011229E319DC
:1033E000DF011229E381DF011229E340E001122904
:1033F000E39CE0011229E300E1011229E3C6E101A7
:103400001229E3E9E1011229E3A3E2011229E3C54C
:10341000E2011229E326E3011229E356E50112290C
:10342000E34FE6011229E3FBE6011229E318E90163
:103430001229E361E9011229E3ACE9011229E30849
:10344000EA011229E366EA011229E38AEA01122954
:10345000E3AEEA011229E3E3EA011229E30BEB01EF
:103460001229E350EB011229E3AEEB011229E30725
:10347000EC011229E301ED011229E3ADEE0112295D
:10348000E3F2EE011229E31BEF011229E3A4EF019D
:103490001229E317F0011229E325F0011229E3496B
:1034A000F0011229E39FF0011229E3BAF001122979
:1034B000E375F1011229E3A1F1011229E3E4F1011D
:1034C0001229E347F2011229E357F4011229E38399
:1034D000F4011229E33EF5011229E322F601122933
:1034E000E3B6F6011229E340C8051229E378C805BE
:1034F0001229E399C8051229E3DBC8051229E33F25
:10350000C9051229E349C9051229E359C905122938
:10351000E390C9051229E339CD051229E301CF054E
:103520001229E3E5D0051229E387D1051229E31119
:10353000D2051229E35080041229E3F980041229EC
:10354000E3D881041229E3E482041229E30483040A
:103550001229E32684041229E3D685041229E343C1
:1035600086041229E31487041229E31A8804122915
:10357000E39288041229E3CD88041229E326890402
:103580001229E36189041229E3AA89041229E33E7E
:103590008A041229E3D48A041229E3A98B0412298C
:1035A000E37C8C041229E30A8D041229E3308D0494
:1035B0001229E35D8D041229E38E8D041229E35B49
:1035C0008E041229E36B8E041229E3BE8E041229A5
:1035D000E3CB8E041229E3D88E041229E3E18E0492
:1035E0001229E3458F041229E3A38F041229E3EE85
:1035F0008F041229E30990041229E3309004122960
:10360000E34D90041229E35990041229E3EA91044E
:103610001229E30392041229E37F92041229E39210
:1036200092041229E3A292041229E3469304122978
:10363000E3B294041229E3C595041229E3659604C4
:103640001229E36F96041229E3EE96041229E3FF90
:1036500096041229E33E97041229E36C9704122979
:10366000E33998041229E39098041229E3C99804D5
:103670001229E31F99041229E33D99041229E38BCF
:1036800099041229E3569A041229E3A49A041229F0
:10369000E3F19A041229E3749B041229E39E9B042C
:1036A0001229E3D49B041229E3E39B041229E34289
:1036B0009C041229E3BA9C041229E3FB9C041229FE
:1036C000E34B9D041229E3769D041229E3909D04A7
:1036D0001229E3AA9D041229E37F9E041229E3899B
:1036E0009E041229E3C49E041229E3D49E041229E5
:1036F000E3DD9E041229E32E9F041229E3429F0476
:103700001229E364A0041229E377A0041229E38CB0
:10371000A0041229E31FA1041229E393A104122992
:10372000E338A2041229E343A2041229E3A6A30466
:103730001229E3C2A3041229E30EA4041229E37C94
:10374000A4041229E3AEA4041229E3C8A404122994
:10375000E328A5041229E3C7A5041229E312A6044D
:103760001229E365A8041229E3FDA8041229E374D1
:10377000A9041229E3D1AB041229E3E9AB0412290D
:10378000E3ECAB041229E3F8AB041229E30CAC041C
:103790001229E314AC041229E34BAC041229E33FD1
:1037A000AD041229E3C9AD041229E34BAE0412297A
:1037B000E3CBAE041229E3A2AF041229E3C4AF04A1
:1037C0001229E35DB0041229E3BAB0041229E3BD63
:1037D000B0041229E32CB1041229E378B2041229AF
:1037E000E38BB3041229E316B4041229E329B504C8
:1037F0001229E3F0B5041229E321B6041229E347A4
:10380000B6041229E350B6041229E37FB604122944
:10381000E32FB7041229E3DFB7041229E352B804F7
:103820001229E3F5B8041229E368B9041229E3A7C1
:10383000B9041229E3F0B9041229E337A1051229CA
:10384000E3A4A1051229E3EBA1051229E361A20576
:103850001229E3B3A2051229E339A3051229E37D56
:10386000A5051229E3ACA7051229E389AB051229A6
:10387000E309AC051229E344AC051229E362AC0567
:103880001229E3C2AC051229E3EAAC051229E31AB6
:10389000AD051229E34BAD051229E378AD051229D8
:1038A000E3D1AD051229E31CAE051229E353AE05A1
:1038B0001229E3CFAE051229E3FBAE051229E32D51
:1038C000AF051229E38FB0051229E3ABB005122929
:1038D000E3E9B0051229E376B1051229E3D2B10577
:1038E0001229E398B2051229E357B3051229E39C84
:1038F000B3051229E3FDB3051229E372B4051229B9
:10390000E3ACB4051229E304B5051229E326B50595
:103910001229E3BEB5051229E365B6051229E3B203
:10392000B6051229E3DBB6051229E31CB7051229F7
:10393000E3C9B8051229E3ADB9051229E35EBA055A
:103940001229E3B2FF041229E3B9FF041229E3F1BB
:10395000FF011229E309BF061229E383FF0512299B
:10396000E393FF051229E3A5FF051229E3E9FF050B
:103970001229E39CBA061229E320BB061229E3862A
:10398000BB061229E3F4FF011229E31CBF0612292A
:10399000E32CBF061229E390FF041229E3D5FF03AD
:1039A0001229E3DEFF031229E3E7FF031229E3F5FF
:1039B000FF031229E35FFA031229E3CCFA03122969
:1039C000E394FB031229E301FC031229E309FD033D
:1039D0001229E381FE031229E3D9FE031229E33100
:1039E000FF031229E342FF031229E351FF031229C7
:1039F000E364FF031229E37AFF031229E385FF033F
:103A00001229E396FF031229E3187A001229E344EE
:103A10007A001229E3EA7C001229E3417D00122991
:103A2000E37D7D001229E3917D001229E3AA7D0048
:103A30001229E39B7E001229E3DB9C021229E38B0F
:103A40007F001229E3B2B1061229E3D6B10612298A
:103A5000E3EFB1061229E32DB2061229E363B206A1
:103A60001229E396B2061229E302B3061229E305EE
:103A7000B3061229E30FB3061229E31CB306122979
:103A8000E352FD021229E375FD021229E3C0FD0293
:103A90001229E3DEFD021229E37DA3021229E35F6E
:103AA000FE021229E36BFE021229E3C8FE0212296C
:103AB000E3ECFE021229E3B2FF021229E3BFFF0288
:103AC0001229E3D0FF021229E384BE061229E39CE7
:103AD000BE061229E3C8BE061229E31E8A06122971
:103AE000E37C8B061229E38A8B061229E39E8B0660
:103AF0001229E3BB8B061229E3D08B061229E3E3DC
:103B00008B061229E3658C061229E3CB8C06122959
:103B1000E3628D061229E33B8E061229E34B8E06E3
:103B20001229E35A8E061229E3EBBD061229E30F90
:103B3000BE061229E337BE061229E35FBE0612292C
:103B4000E31CA6061229E343A6061229E362A60691
:103B50001229E3D7A6061229E37CFC051229E39576
:103B6000FC051229E3ACFC051229E3B5FC0512297A
:103B7000E3D3FC051229E3DDFC051229E3E7FC058C
:103B80001229E3FAFC051229E38BFD051229E3FA59
:103B9000FD051229E328FE051229E37CFE05122902
:103BA000E3C8FE051229E3E3FE051229E3EDFE0555
:103BB0001229E313FF051229E378FF051229E39286
:103BC000BC061229E3B4BC061229E3E57F001229E2
:103BD000E3C0D2051229E3ECD2051229E30FD30585
:103BE0001229E322D3051229E33DD3051229E3A1CB
:103BF000D3051229E3CFD3051229E3E0D705122913
:103C0000E322D9051229E354D9051229E3BFD905C6
:103C10001229E35CDB051229E384DB051229E39911
:103C2000DB051229E3A9DB051229E3E9DB051229EB
:103C3000E32BDC051229E33BDC051229E3EFB50693
:103C40001229E3FFB5061229E323B6061229E34C35
:103C5000B6061229E376B6061229E39AB6061229A9
:103C6000E3B1B6061229E3DFB6061229E302B7066E
:103C70001229E39F7F001229E372A2061229E38230
:103C8000A2061229E3A0A3061229E3D4A30612294F
:103C9000E3F6A3061229E31EA4061229E337A406BD
:103CA0001229E373A4061229E3D9A4061229E31EFC
:103CB000A5061229E363A5061229E390A506122999
:103CC000E3C8A5061229E3CA96061229E32C970633
:103CD0001229E3D397061229E30B98061229E3125F
:103CE00094051229E3C194051229E3F596051229DA
:103CF000E3C899051229E3489B051229E3AA9B050D
:103D00001229E3B59E051229E3F99F051229E33A2A
:103D1000B7061229E385B7061229E355F7051229DC
:103D2000E314FA051229E3B1FA051229E3DDFA05D5
:103D30001229E30BFB051229E340FB051229E36876
:103D4000FB051229E3C8FB051229E323F20412291B
:103D5000E30AF7041229E301F9041229E32FFA0414
:103D60001229E30BFB041229E3B6FC041229E351E8
:103D7000FE041229E31EFF041229E372FF04122934
:103D8000E329AB061229E334AB061229E355AB064F
:103D90001229E34BBB051229E372C0051229E3A1E6
:103DA000C1051229E37DC3051229E376C405122952
:103DB000E3ADC5051229E3BAC6051229E39FC7057D
:103DC0001229E325BA041229E35DBA041229E3BAE1
:103DD000C4041229E3A4C5041229E3F4C604122979
:103DE000E33FC8041229E3EAC8041229E3BDC90469
:103DF0001229E354CA041229E338CB041229E33B05
:103E0000CC041229E3FDCC041229E32BCD041229A2
:103E1000E3A3CE041229E32CCF041229E345CF04F7
:103E20001229E39FD0041229E351D1041229E3E0BF
:103E3000D1041229E38FD2041229E3F2D204122909
:103E4000E38ED3041229E307D4041229E325D40412
:103E50001229E3F2D4041229E3C1D5041229E3772D
:103E6000D6041229E326B3061229E350B306122919
:103E7000E364B4061229E367B4061229E342BD06DF
:103E80001229E388BD061229E3CABD061229E3DA26
:103E9000BD061229E3A7EB051229E3EEEB05122973
:103EA000E357EC051229E378EC051229E391EC05C0
:103EB0001229E341ED051229E34AED051229E39B9E
:103EC000ED051229E3D1ED051229E3E8ED051229EC
:103ED000E355EE051229E3E5EE051229E31BEF0594
:103EE0001229E364EF051229E3C5EF051229E3FF68
:103EF000EF051229E367F0051229E3BAF00512294C
:103F0000E3FDF0051229E33AF1051229E34CF1052E
:103F10001229E35EF1051229E398F1051229E3D88D
:103F2000F1051229E301F2051229E30080061229A6
:103F3000E34681061229E36F81061229E380810698
:103F40001229E39883061229E3B883061229E3763F
:103F5000AD061229E3ACAD061229E3FBAD0612292A
:103F6000E357AF061229E30080051229E33E8105DD
:103F70001229E37A81051229E33F83051229E369B7
:103F800083051229E3EF85051229E32F86051229FF
:103F9000E3C587051229E35A88051229E3B8880585
:103FA0001229E33E89051229E37689051229E3B82F
:103FB00089051229E3258B051229E3A98C0512290D
:103FC000E3E38E051229E3118F051229E33D8F05E6
:103FD0001229E3468F051229E39C8F051229E32C51
:103FE00090051229E33393051229E3B593051229AD
:103FF000E3D3FF041229E3E9FF041229E3C2920686
:104000001229E3DB92061229E38093061229E3C00A
:1040100093061229E3D993061229E30C9406122978
:10402000E35994061229E38D94061229E3CF9406EE
:104030001229E3B896061229E36EB8061229E3C3E3
:10404000B8061229E30EB9061229E389B906122926
:10405000E3FBB9061229E339BA061229E37ABA0654
:104060001229E36BDC051229E371DC051229E3B8A0
:10407000DC051229E3C4DE051229E3F4DE0512296A
:10408000E35EDF051229E319E0051229E35CE00590
:104090001229E38DE0051229E317E1051229E32E29
:1040A000E1051229E33BE1051229E345E105122967
:1040B000E3E5E2051229E3D7E3051229E335E40538
:1040C0001229E377F7011229E38DF7011229E33F63
:1040D000F8011229E369F9011229E35EFA011229B4
:1040E000E3F5FA011229E330FB011229E3A2FB01F7
:1040F0001229E300FC011229E310FC011229E33725
:10410000FC011229E389FC011229E3F5FD011229C2
:10411000E3FAFD011229E31CFE011229E3FFDA0292
:104120001229E357DB021229E3F7DB021229E374B9
:10413000DD021229E360DE021229E31DDF021229EB
:10414000E334DF021229E383DF021229E3F7DF02FF
:104150001229E34DE0021229E360E0021229E3C4D0
:10416000E0021229E333E1021229E3E2E302122919
:10417000E3E7E4021229E342E5021229E396E502AD
:104180001229E340E8021229E390E8021229E31120
:10419000E9021229E353E9021229E32DEA02122966
:1041A000E366EA021229E385EA021229E3D0EA0271
:1041B0001229E3E6EA021229E3A1EB021229E388BD
:1041C000EC021229E393EC021229E3E1EC0212293A
:1041D000E336ED021229E382ED021229E3DDEE025D
:1041E0001229E307EF021229E39FF1021229E3C922
:1041F000F1021229E3D4F2021229E303F302122995
:10420000E37BF3021229E356F4021229E398F40245
:104210001229E30CF5021229E326F6021229E373B0
:10422000F6021229E386F6021229E389F602122920
:10423000E392F6021229E3ADF6021229E325F70212
:104240001229E35EF7021229E37AF7021229E3A6A4
:10425000F7021229E3CDF7021229E3F1F70212293E
:10426000E36AF8021229E3DDF8021229E320F902D9
:104270001229E32AF9021229E359F9021229E36FFC
:10428000F9021229E38BF9021229E3BAF902122981
:10429000E3DAF9021229E323FA021229E35EFA02B1
:1042A0001229E36AFB021229E3CDFC021229E3EC96
:1042B000FC021229E303FD021229E315FD02122973
:1042C000E39FBB061229E3B0BB061229E339BC0603
:1042D0001229E32DF2051229E36BF2051229E304FA
:1042E000F3051229E30FF4051229E357F605122905
:1042F000E3D4F6051229E36EE4051229E3BDE405D3
:104300001229E37BE6051229E34FE8051229E38D24
:10431000E8051229E36EE9051229E378EA05122976
:10432000E39AEA051229E3F6EA051229E377EB0599
:104330001229E3034F001229E3254F001229E394C9
:1043400050001229E3DD50001229E34E51001229DA
:10435000E3D151001229E34852001229E38F5200A1
:104360001229E30653001229E3AA53001229E31F7E
:1043700054001229E35C54001229E3A458001229C6
:10438000E3C75A001229E3005B001229E33F5B00F8
:104390001229E33B5E001229E3CB5E001229E37F82
:1043A00060001229E3B961001229E3D962001229E1
:1043B000E34A63001229E32B64001229E3AE640090
:1043C0001229E3C264001229E39165001229E3C8AF
:1043D00066001229E3F768001229E3066B00122930
:1043E000E3F26B001229E3896E001229E35E6F008D
:1043F0001229E39D70001229E3CD73001229E3DD39
:1044000073001229E31375001229E3AC7500122919
:10441000E3DD76001229E34B77001229E38478006C
:104420001229E3BF78001229E36879001229E33CDE
:10443000D7041229E3DED7041229E34AD80412294B
:10444000E364D8041229E3E6D8041229E320D9044E
:104450001229E322DA041229E364DA041229E3D6EA
:10446000DA041229E326DB041229E385DB0412298E
:10447000E331DC041229E31BDF041229E3E2DF0449
:104480001229E348E0041229E3F0E1041229E38948
:10449000E2041229E322E3041229E385E30412294A
:1044A000E3FBE3041229E3FCE4041229E3EDE50451
:1044B0001229E328E6041229E33FE6041229E31D4A
:1044C000E7041229E35BE7041229E3E3E704122976
:1044D000E330E9041229E3F4EA041229E332EC049C
:1044E0001229E365ED041229E379EE041229E310A1
:1044F000EF041229E37FEF041229E38CF004122960
:10450000E3ACDA031229E315DB031229E35DDB03D5
:104510001229E3A1DB031229E314DC031229E36E61
:10452000DC031229E3A9DC031229E343DD0312298A
:10453000E39DDD031229E309DF031229E382DF0390
:104540001229E3ACDF031229E3C0E0031229E3D40C
:10455000E1031229E3FCE1031229E3FAE203122941
:10456000E30BE3031229E323E3031229E329E40322
:104570001229E34CE4031229E31BE5031229E34566
:10458000E5031229E35CE5031229E382E50312291E
:10459000E3C1E5031229E3E1E5031229E308E60399
:1045A0001229E320E6031229E303E7031229E35D5E
:1045B000E7031229E3C4E8031229E342E9031229BD
:1045C000E366E9031229E37DE9031229E351EA03D3
:1045D0001229E3EAEA031229E310EB031229E3604C
:1045E000EC031229E37FEC031229E3FEEC0312290A
:1045F000E335ED031229E373ED031229E309EE031A
:104600001229E37EEE031229E362EF031229E3404D
:10461000F1031229E315F2031229E361F2031229CF
:10462000E36CF3031229E38AF4031229E3A8F503E8
:104630001229E3B6F5031229E3B2F6031229E35473
:10464000F7031229E39AF7031229E3AFF7031229BC
:10465000E3C1F8031229E362F9031229E3BEF90367
:104660001229E3C59A061229E3809C061229E34821
:104670009D061229E39D9D061229E3239E06122919
:10468000E38B8E061229E3A98E061229E3ED8E062E
:104690001229E3138F061229E33A8F061229E352F7
:1046A0008F061229E36A8F061229E3828F061229E8
:1046B000E32890061229E36A90061229E37F900608
:1046C0001229E38691061229E3A191061229E3AA91
:1046D00091061229E3B391061229E3BC910612292F
:1046E000E3C691061229E3E791061229E3649206D4
:1046F0001229E30C85061229E34E89061229E36A82
:1047000089061229E36F89061229E338B0061229B7
:10471000E3B79E061229E3CD9E061229E358A006B0
:104720001229E3A3A0061229E30FA1061229E3121E
:10473000A2061229E341A2061229E353A206122976
:10474000E394B4061229E3A1A8061229E3FDA80602
:104750001229E33DA9061229E3AAA9061229E3C2F8
:10476000A9061229E3D4A9061229E300AA061229F0
:10477000E320AA061229E330AA061229E346AA0674
:104780001229E371AA061229E3FFAA061229E3A956
:10479000FF031229E3EB9B021229E3779B02122904
:1047A000E3E09A021229E36E9A021229E35D9A026B
:1047B0001229E3389A021229E35499021229E3706C
:1047C00098021229E38695021229E34394021229E2
:1047D000E3AA91021229E36591021229E30B9102E7
:1047E0001229E36C90021229E31790021229E34484
:1047F0008F021229E37E8E021229E3428E021229D1
:10480000E3D58D021229E3CD8D021229E3428D02F8
:104810001229E3D28C021229E3238C021229E31815
:104820008C021229E351A2021229E3098C021229F7
:10483000E36FA0021229E366A0021229E359A00245
:104840001229E35C9F021229E3D49E021229E3C5D8
:104850009E021229E3529E021229E3369E02122979
:10486000E3E88B021229E3B48B021229E3888B025E
:104870001229E3189E021229E35A8A021229E34EF2
:1048800088021229E31F88021229E30388021229F1
:10489000E3F9FD021229E3AD87021229E3009D022C
:1048A0001229E37487021229E3EC86021229E3A09D
:1048B00086021229E35986021229E38C8502122905
:1048C000E31085021229E36884021229E3C18302FE
:1048D0001229E36383021229E33883021229E3E9F0
:1048E00082021229E3AB82021229E3898202122991
:1048F000E36682021229E34D82021229E305820255
:104900001229E34F81021229E30080021229E3C336
:1049100080021229E35780021229E3777F0000000A
:104920000080FBE4738F000100441D8700010043F9
:104930001D35000400BC1E25000200C01E2600021A
:1049400000C21E27000200C41E28000100CE1E293E
:10495000000100CF1E84000400D01E86000100D498
:104960001E2A000100D51E2B000100D61E2C0001BE
:1049700000DA1E2D000800251D2E000100DB1E2F71
:10498000000100DC1E30000100DD1E31000100DEF0
:104990001E320001002D1D330001002E1D340001C8
:1049A00000DF1E360001002F1D38000100E01E3917
:1049B000000100D91E83000200F41E6300010040C4
:1049C0001D64000100D71E65000100D81E6D0001A6
:1049D00000411D710008001D1D66000100F31E430B
:1049E000000100E41E44000200E51E45000100E74E
:1049F0001E46000200E81E47000800381D4800015E
:104A000000EA1E4B000100EB1E04000100F61EA18F
:104A1000000100F91E37000100F81E88000100F7B0
:104A20001E3C000100301D3D000100E11E49000256
:104A300000EC1E67000100421D4D000200EE1E4EFC
:104A4000000100F01E4F000200F11E3E0001003781
:104A50001D51000100311D52000100E21E530001F2
:104A600000E31E54000100321D00000000000000A1
:104A700001363601010001020100010301000104B9
:104A800001060605020000070100340801000F09B5
:104A90000401010D0100FF0E0800001702000019BB
:104AA0000100FF1A0100011B0100FE1C0100081D8E
:104AB0000200001F0100012001000121020000236B
:104AC00001000F2402000026010001270100082830
:104AD0000200FF2A0100072B0102402C0100002DDB
:104AE0000100012E0100012F0100FF30010B1D31DB
:104AF0000800003A0100083B01000F3C0100013DA5
:104B00000100FF3E04000042040000460400004A89
:104B10000400004E04000052040000560400005A35
:104B200004000001037103010301030103010301F8
:104B30000322030203010310030003000300030028
:104B400003000300030003420300032403060300E1
:104B50000300030403120325032303250323030493
:104B600003040300030003000344030003000323C2
:104B700003000365032100350381030003050300DF
:104B8000030003000300032503230303047104024D
:104B900004600411047004020402040104020410FD
:104BA0000461040004140463047304720462044383
:104BB00004000413040604000400040404120400A6
:104BC0000400040004000451046400000400040014
:104BD00004440400040004000400046504000435D7
:104BE00004810464000504000483040004030071CC
:104BF0000030016000110070003102200350048079
:104C00000010006100000014006300730072006275
:104C10000043000000130006000000000004001222
:104C2000000000000000000000040004003700370E
:104C3000003C02440000000000000000006500008D
:104C40000035008100000005000000830000000323
:104C500002710230016002110270020102020202BE
:104C6000028002100261023A004100630273027284
:104C70000262024302000213023800000200020432
:104C800002120200020002000200020402040237C3
:104C90000037003C024402000239000002000265B5
:104CA0000200023502810200020502820283020034
:104CB0000201017101010101011101010131010133
:104CC0000101018001100161013B001400630173C7
:104CD000017201620143010001130106013D01352A
:104CE000000401120100010001000100010401049F
:104CF00001330133013C014401320136000001005F
:104D00000165010001350081010001050182018377
:104D100001000136000100060000000F0000000045
:104D200000000000000000000003FFFF000004037B
:104D3000FFFF0000FFFF0FF4010005C40403200083
:104D40000100000B000000000000000003010F0044
:104D50000000000000000000000000000000000053
:104D60000000000000000000000000000000000043
:104D70000000006E441300CC431F00D2431F80D8B4
:104D80004301006E440200544303005A4304006090
:104D90004305006643060072433000904331008AA9
:104DA0004332009C433300A2433500A8433400AE95
:104DB000433600B4431100C0431400C643150084B9
:104DC00043FFFF00000A0000000200000004000092
:104DD000000800000010000000200000004000005B
:104DE000008000000000010000000200000004003C
:104DF000000008000000100000002000000040003B
:104E00000001A23106D83108D2310BF031106C2EDE
:104E10000A023202A83105C63107AE310C8A310DC3
:104E2000963164E047FF000007ECFDFDFDECDCDCA3
:104E3000CCBCACAC9C9C8C7C7C6C6C5C5C5C4C4C52
:104E40003C3C2C2C1C1C00160F00000B150B020008
:104E500002220F3300000E01030507090B0D0F009E
:104E6000020406080A0C0D5A6967426565416C6CBC
:104E700069616E63653039140AE5D5C5B5A5A59598
:104E800085857565303016181920231A1C1E3000D0
:104E9000034A49434E181A2505020001191618162F
:104EA00016182303000C0E020B040B0A0708000F50
:104EB00000393D3F373C3C362C442D303017181913
:104EC00021301B1D1F3002040201010101090200F3
:104ED000BE040AE8030000284EFA067F00E803003B
:104EE00000774E0E000000080A0C28030308090092
:104EF00004002DFF1E1E03050130040414102010B1
:104F000000FF0AC082C083901C9BE4F0A3F07CEDFC
:104F10007D047AB47B1B12405A1247B0122EBA128B
:104F200047AA0264BB74F312243974F5122AC289A9
:104F3000098A088B0A8C0BE9705F74026508703F60
:104F400079081242A6750C00780C122A1FE50BF5A1
:104F50000C780C122A1FE50AF50C780C122A1F9007
:104F60001BD0122839901ED4E0F97C387D1D901E8C
:104F7000F4126F1312489A7407122A2E02505C74AE
:104F8000016508600302506179081242A67B00AAFD
:104F90000AA90A123A9602505C7401650960097404
:104FA0000265096003025061EA60067403650870D7
:104FB0004779021242A6901ED4E0F9901BD0122C21
:104FC000AD124798E9F9901BDFE0A2E34010E970C9
:104FD0000D901C9FE004F06404700312508274036F
:104FE0006508707A901CA0E0F8740128F0E8C3947A
:104FF00005406B125082806674016508706374010D
:105000006509790A702E1242A67401122CDCE4F0B4
:105010007402122CDC7403F004122CDCE4F0A3F014
:10502000A3F0A3F07408122CDCE4F0AA18AB191258
:1050300031B480441242A6901ECA1228397A007BED
:1050400020901BD4E0F91240127404122A2E901EF4
:10505000D4E0F9901BD0122CAD124840E9F9E96078
:10506000179080B31228397A017B00901BD4E0F9A5
:105070001240127404122A2E740B122A2E7F05027B
:1050800026B5901BD0E4F0A374F8F0A374FFF0A34E
:105090007407F02274F6122439E9FFEAFE7AD1F996
:1050A000123ED48A828B83E5824583702A7A027B02
:1050B00000123EB6EA4B700E7A107B00901BD4E0D3
:1050C000F9123EF880148A828B8374D1F0EFA3F03A
:1050D000EEF9123EC28003EFA3F002530174F712FF
:1050E000243989089006FB126426901EB7E0F470FC
:1050F00003A3E0F4702D9009E7E0901EB7F0A3E45D
:10510000F080208E828F83A31261B3600F8E828F16
:1051100083A3A31261ADFAA90812433C8E828F8348
:105120001251C4EE4F70DC901EB7E0F47003A3E0A0
:10513000F4600A901EB7E0FAA90812433C1232C28A
:10514000901B9E125AFA1232BC7F010226B574F0EF
:10515000122439890B8C0C75080075090074101223
:105160002CDC1252387412122CDC1251C4803CA870
:105170000A125228F50EA3E0F50FA80912521BF5EA
:1051800083E0650E7004A3E0650F70141251BBEE4E
:1051900028F582EF39F583E50EF0A3E50FF0050859
:1051A000050AE50AC3950C40C60509E509C3950B38
:1051B0005005750A0080EBA9088011A808E828F8B6
:1051C000E433F922126BECE8FEE9FF227F080226A5
:1051D000B574F4122439890B8C0A750800740C120A
:1051E0002CDC12523880020508E508C3950B5027C5
:1051F00075090080020509E509C3950A50E9A80868
:1052000012521B126424A8091252286E7003A3E0E4
:105210006F70E27901800279008028E828F8E43391
:10522000F9EA28F582EB3922E828F8E433F9EC288A
:10523000F582ED39F583E022126BECE8FCE9FD2202
:10524000122A2E7F040226B574F61224391252EB6C
:105250007003A3E06D70177508DD75091B780812DF
:105260002A1BEEFA1244747402122A2E801F75084B
:10527000027509807808122A1B8C088D097808129B
:105280002A1B1252D61244987404122A2E80727469
:10529000F61224391252EB7003A3E06D70177508F3
:1052A000EA75091B7808122A1BEEFA12447A740276
:1052B000122A2E801F7508037509807808122A1B90
:1052C0008C088D097808122A1B1252D61244987441
:1052D00004122A2E802B1252E43FF583E0FD7C80DD
:1052E00012656322EE240EF582E422EAFEEBFF1241
:1052F0006578FCE439FD901B9EE06C227402122A52
:105300002E7F020226B574F612243974FE122AC2C8
:10531000EAFEEBFF851882851983E4F0A3125AAAEE
:105320001264A9FCA3E0FBECFA88828983A3A3E0C2
:10533000F9750900750800600574FF697005750846
:1053400082803D901B9EE06A7003A3E06B701AAAF6
:1053500018AB1912387AE9F5098518828519831274
:1053600068EA701C7508838017901D43E060046430
:105370000170057508818008E0640270037508807B
:105380008518828519831268D3A908EEFAEFFB12FB
:105390004480E50960118518828519831268EA60E6
:1053A00006126F0D123F5E0252FC74F2122439EAAB
:1053B000FEEBFF750800750900126574F50AE43903
:1053C000F50B1232C2EA650A7003EB650B7012121C
:1053D000388CE914F50879017A677B1C12389280C1
:1053E000037509801268D9F50C780C122A1F750C08
:1053F00067750D1C780C122A1B7808122A1F780A70
:10540000122A1BE509F5087808122A1F12633F12B9
:1054100068DCF97A057B8012448674070276A974E9
:10542000F6122439890975080080278A828B83E067
:10543000FE12786CEE28E439FF1251BBEC28F5829D
:10544000ED39F583EEF0A3EFF0EA2402FA50010BF8
:105450000508E508C3950940D202530174E81224F7
:105460003974FB122AC28A168B1785188285198314
:10547000E4F07403122CDCE4F0A3F004122CDCE45E
:10548000F0A3F012586D3517125A7CF50B850A827D
:10549000F583127958FEE439FF850A82850B83A3D0
:1054A000A3E0FA850A82850B83A3A3A3E0F9EAF5BA
:1054B00008E439F509E50A2404F50A5002050BEE63
:1054C000FAEFFB12335EE964016016EEFAEFFB12AD
:1054D000335EE9703D901B9EE06E7003A3E06F6049
:1054E000311266B9122A1FE4F508F5097808122A64
:1054F0001B7808122A1F901B9E12283D7508807881
:1055000008122A1F1258541244867407122A2E02B7
:10551000584A1258878810602B1274F7123F58743B
:1055200003122CDC125AFA7403122CDC1268EA60A3
:10553000137403122CDC12587FA91012436C8A0AD0
:105540008B0B8003751000125887880F6027127428
:10555000F7123F587401122CDC125AFA7401122C03
:10556000DC1268EA600F7401122CDC12587FA90F5C
:1055700012436C8003750F009006FB805C850A82E5
:10558000850B83A3A3A3A3A3A3A3A3E4F0A3F0AADF
:105590000AAB0B851482851583A3A3E0F81261ADD5
:1055A000F9123EC2851282851383E0C0E08518821D
:1055B000851983E0F8746728F582E4341CF583D0FC
:1055C000E01268EE04F0E511A2E05007AA12AB1356
:1055D000123F5E851482851583E0F514A3E0F5156E
:1055E000E514451570030257B7851482851583A30A
:1055F0001261B360DE851482851583A3A3A3A3A3E0
:10560000A3A3A3E0A2E050CB851482851583A3A3B6
:10561000A3A31268EA851482851583A3A3601F12D1
:1056200061B4FA7901851482851583A3A3A3A3121B
:1056300058721249238A128B137511018010125867
:1056400072A3A3A3E0F512A3E0F513751100E51210
:10565000451370030255C6851282851383A3E06546
:10566000087004A3E06509600F74FF650870047496
:10567000FF650960030255C6851282851383A3A3C3
:10568000A3A3A3A3A312283D851282851383A3A3FA
:10569000A3A3A3A3E0FC7405122CDC126F13A910C2
:1056A00012434E7402122A2EE9703C851282851331
:1056B00083A3A3A3A3A3A3A3A3A3A312283D8512FB
:1056C00082851383A3A3A3A3A3A3A3A3A3E0FC7432
:1056D00003122CDC126F13A90F12434E7402122A0C
:1056E0002EE970030255C6E50F2510C333240AFACC
:1056F0007B00123EB68A0A8B0BEA450B70030255FB
:10570000A48A828B8374D2126AF98A828B83A3A3C0
:10571000E8F0A3E91277D2A3E510127960E50FF063
:10572000E510603CEA2405FAE4350BFBE50A240A9F
:10573000F8E4350BF98A828B831260797403122C9A
:10574000DC125897122A17AC10EC2CFCE433FD8ABB
:10575000828B83126F13123E927403122A2E800DD5
:105760008A828B83A3A3A3A3A3E4F0A3F0E50F7025
:105770000302557DA8101251BDE50A28F8E50B3942
:10578000F9E8240AFAE439FB850A82850B83A3A38E
:10579000A3A3A3A3A3A3125AFA7401122CDC1258D8
:1057A00097122A17AC0FEC2CFCE433FD123E9274D6
:1057B00003122A2E02558F851882851983E06027EF
:1057C0001266B9122A1F75086775091C7808122A13
:1057D0001B7403122CDC1266C2122A1F901B9E122D
:1057E000283D7508008029EEFAEFFB12335EE97060
:1057F0002F1266B9122A1F75086775091C780812DE
:105800002A1B7508007808122A1F901B9E12283D3B
:105810007808122A1F1258541244867407122A2E2E
:105820007403122CDC1268EA600B7403122CDC1275
:105830006F13123F5E7401122CDC1268EA600B7465
:1058400001122CDC126F13123F5E7405122A2E7F98
:10585000100226B5E5162402FCE43517FDE5161204
:1058600062D33517F583E0F97A067B8022EA126469
:10587000A02212587622E0F8A3E0F5838882221253
:1058800068D3AA0AAB0B22850A82850B83E0F8A3B2
:1058900085820A85830B22E0F50CA3E0F50D750ED9
:1058A00000780C2274F112243974F4122AC28A0886
:1058B0008B09ECFEEDFF740B122CDC7403F0122A42
:1058C0009C12405A1232BC8A0A8B0BAC0AAD0B7484
:1058D00003122A9C124054E9600A125A766010E0C2
:1058E0006401600B8518828519837484025A248EA2
:1058F000828F83A3A3A3A3A3A3A3A3E06013F46055
:1059000010125A767016EE24141268DC6003F470DC
:105910000B8518828519837482025A2412767AE0E4
:1059200064217002A3E060030259FB851882851987
:1059300083748C125AAA640360030259E57401123D
:105940002AA412605E122FE6E960030259E51242B2
:10595000948A0A8B0BEA450B7003025A258E0C8F32
:105960000D750E00780C122A177C157D00123E92E0
:105970007403122A2E850882850983A3A3E50A24CD
:1059800015FCE4350BFD740912295C127306C0E0A6
:10599000E50A241E125A64D0E0125EC5C0E0E50A92
:1059A000241F125A64D0E0F0E50A2420125A6474CD
:1059B00005F0EE240BFE50010FFAEFFB1239107DBB
:1059C000007C007900EEFAEFFB12443E9080B312A7
:1059D00028397A007B10901BD4E0F912401274042D
:1059E000122A2E8078125A6C122A1F125A84122FF1
:1059F000C87401122A2EE9702C8014125A6C122AD3
:105A00001F125A84122FCE7401122A2EE9700D85AE
:105A10001882851983E4F012426480098518828512
:105A200019837488F0127306F50A780A122A1F7413
:105A300001122A94880A890B780A122A1BE5082485
:105A40000CF582E43509125A7C4480F50B780A1271
:105A50002A1B12640F1244327405122A2E740C127F
:105A60002A2E805EF582E4350BF58322EE12606B00
:105A7000E0F50A780A22125AAF640322F583E0F5B2
:105A80000AA3E022EE240BFCE43FFD8E828F83A369
:105A9000A3A3A3A3A3A3A3A3126F508E828F83A358
:105AA000A3A3A3A3A3A3A3E0F922F0125AAF221247
:105AB0005AB322EE2413F582E43FF583E022EEFA96
:105AC000EFFB7F070226B5C082C08374F3122AC29F
:105AD000851882851983E4F004122CDC125AFA74BA
:105AE00003122CDCAA82AB831248F4AA18AB191259
:105AF00048B8740D122A2E0264BBEAF0A3EBF02220
:105B000074F6122439126493FAA3E0F9EAF8901BB0
:105B1000E5E058F508A3E059F509E5084509601CDA
:105B20007808122A1B901B9E12283D1268D9FD7C12
:105B30000012655F1244927404122A2E02530174FB
:105B4000EA12243974DB122AC28A148B15751200EA
:105B500075130012586D3515F5831261B4F50EAC4E
:105B600018AD197A007B00799C122CF27A04790026
:105B7000124882EAF50C851882851983E02AF0F82C
:105B8000E50EC3984003025D63E0C3950EF509C3BB
:105B900094044003750903E50975F01AA4FAABF003
:105BA000123F588A128B13EA45137003025D667523
:105BB0000D00AE12AF13850E08025C407C087D001C
:105BC00079FF125DE2123E9E850A82850B83A3A3B4
:105BD000A3A3E0702D850A82850B831268EA700CFE
:105BE00012705CF0EE241812705F8010125DEAF003
:105BF00090055FE014C0E0125DC6D0E0125E15E4CF
:105C0000803490055FE004C0E0125DC6D0E0125E13
:105C10000DC39403EE4003025CC812606774021265
:105C20005E0D64017003025CD5EE2415125DEDF08B
:105C3000EE2416125DEDF0EE241AFE50010F050D54
:105C4000E50DC395094003025D00E508C3950C40CE
:105C500003025CDEAA087B001247F88A0A8B0B0558
:105C60000890054C125DF612405A850A82850B8316
:105C7000126BE8125DD4E8F0A3E9125E27850A8270
:105C8000850B83A3A3A3A3A3A3A3A3A3A3E0C0E023
:105C9000125DBCD0E0F07401122CDCE41278261204
:105CA0006BE87402122CDC1260797401122A9C12C7
:105CB00048CAE964016003025BBC7404122CDC1264
:105CC0005DDE12405A025BC8125DEB125E0D64038A
:105CD0006003025C29EE241512705F025C2FE50C54
:105CE000C3950E4005750800801DE50EC3950CF5A3
:105CF000088014125DEAF0EE241AFE50010F050D23
:105D0000E50DC39509505F740E122AA4AA087B0002
:105D10007987122CF205087418122CDC125DF61229
:105D2000405A7410122CDC125DDE12405AEE24121E
:105D3000F8E43FF9740E122CDC126F138882898309
:105D4000EAF0A3EB125E157403125E27741D122C89
:105D5000DCE0C0E0125DBCD0E0126E827095127083
:105D60005C8093750900750A00780A122A1F781260
:105D7000122A1B7809122A1FE50EF5097809122A42
:105D80001F7405122CDCE0FD7C00E5141262CA359C
:105D900015FBE5141262CF3515F583E0F91244CEF8
:105DA0007405122A2EE51245136007AA12AB1312CE
:105DB0003F5E7425122A2E7F0E0226B5EE2419F5B9
:105DC00082E43FF58322125DCA22EE2418F582E4B4
:105DD0003FF58322EE2412F582E43FF58322AC8264
:105DE000AD83EE240AFAE43FFB22EE2414F582E4AC
:105DF0003FF583740122126BEC8E828F83E8F0A34F
:105E0000E9F07C607D05EE1262CA3FFB2212782128
:105E1000A3A3A3E022F0EE1270537402F0EE241656
:105E2000F582E43FF58322F0EE2417F582E43FF596
:105E3000837402F0125DCA74FFF02274F6122439E2
:105E400074F9122AC2125EBA1279E2123EAAEAF874
:105E5000EBF9ECFAEDFB851882851983122CC5EE5F
:105E60002404FE50010F8E828F83E0C0E074041280
:105E70002CDCD0E0126E59F87405122CDC7401F0A1
:105E80007406122CDC7401F0901BA8F0901BB10476
:105E900012783EA3126F13901BA9125AFAE8901BB6
:105EA000B2125EC5901BA7F0AA18AB19124792E96F
:105EB0006003123A3674070252FE8A088B09EA120E
:105EC00064A0350922F012779EE02274F212243980
:105ED00074FF122AC27508007E007F001231E48A26
:105EE0000A8B0B1231E48A0C8B0DA80CA90D8005CE
:105EF0000508126BE2E84970F7901D43E060076403
:105F0000016003025FD61231E48A0C8B0DA80CA944
:105F10000D8003126BE2E849603688828983126F34
:105F20001390054CE06A7003A3E06B600D12607281
:105F300039F583126F13EA4B70D988828983126B0B
:105F4000E890054CE0687003A3E0697003025FD637
:105F50007A167B00123F588A0C8B0DAE0CAF0DEEFB
:105F60004F607390054C126BE88E828F83126079BC
:105F7000900541E08E828F83A3A3F0123346E98E11
:105F8000828F83A3A3A3A3A3F0901ED5127815F04C
:105F90007C607D0512605E12405AAA18AB197941E7
:105FA00012468A851882851983E06008901B9E122C
:105FB0006BE8800478FE79FF8E828F83A3A3A3A36E
:105FC000A3A3A3126079126066E50AF0A3E50BF0C3
:105FD0008E0A8F0B0508901BB2E0F8E508C39850B5
:105FE0000479008027E508C398F9C3940640027934
:105FF000057800800DE50A126073350B125A7CF5A6
:106000000B08901BB2E0FAE8C39A40E975090078E2
:1060100009122A1F780A122A1BE9F5097809122A9F
:106020001F901BB2E0F5097809122A1FAD087C0009
:106030007AA97B1B901BA7E0F91244C87405122AA9
:106040002E901D43E060046401700BEE4F6007EE7C
:10605000FAEFFB123F5E123A3674010276A9EE2483
:106060000BFAE43FFB22EE12606B221260733FF5E5
:106070008322E82414F582E422E8F0A3E9F02274F4
:10608000F012243974FF122AC28A0A8B0B7E008E0A
:106090000E8E0F12586D125A671261B4FFAC18AD14
:1060A000197A007B00799D122CF28518828519835C
:1060B000E0F8EFC3984003026158E0C39FFEC39429
:1060C0000B40027E0AEE75F007A4FAABF0123F58BF
:1060D0008A088B098A0E8B0FEA450F6079750C00D0
:1060E000801A850882850983A3A3A3A3A37403F060
:1060F000E5082407F50850020509050CE50CC39EC8
:106100005056AC08AD09E50C2FFAE43400FB798B4E
:10611000122CF2850882850983A3A3A3A3A3E0140C
:10612000600814601314601F80B885088285098395
:10613000A3A3A3A3A3E480B7850882850983A3A3AF
:10614000A3A3A3740180A8850882850983A3A3A3C0
:10615000A3A3740280997E007508007808122A1F94
:10616000780E122A1BEEF5087808122A1FEFF508A0
:106170007808122A1F7405122CDCE0FD7C00E50A69
:106180001262CA350BFBE50A1262CF125A67E0F9B8
:106190001244D47405122A2EE50E450F6007AA0E8C
:1061A000AB0F123F5E7401122A2E0251CCA3E0F510
:1061B000838882A3125876E02274EE12243974FE8A
:1061C000122AC28A0C8B0D75100075110012586DC1
:1061D000350DF5831261B4F50AAC18AD197A007B60
:1061E0000079A3122FD4126F0DC3E50A9AE49B50D5
:1061F00076851882851983A80AE0C398FEA3E094E7
:1062000000FFC3EE9404EF940040067E037F0080FD
:1062100004EE4F6052EEFAEFFBEA75F015A4FAA80F
:10622000F075F015EBA428FB123F588A088B098AF9
:10623000108B11EA4511602F750B00750E00C3E538
:106240000E9EE49F5026AC08AD09A80AE50E28FA78
:10625000E43400FB79A2122FD4E5082415F5085088
:10626000020509050E80D7750B8B7E007508007836
:1062700008122A1F7810122A1BEEF5087808122A35
:106280001FE50AF5087808122A1F7405122CDCE0B5
:10629000FDAC0BE50C1262CA350DFBE50C1262CFAA
:1062A000350DF583E0F91244DA7405122A2EE51053
:1062B00045116007AA10AB11123F5E7402122A2E1C
:1062C0007F0A0226B5FCEFFDE5082402FAE422125B
:1062D00062D322240FF582E42274F612243974FF6B
:1062E000122AC2EAFEEBFFEE12586E3F1276CEA3E0
:1062F000A3A3A3A3A3A3A3E0F912484CE9851882A2
:10630000851983F07508007808122A1F7401122A73
:1063100094880889097808122A1B75083575098040
:106320007808122A1B1263351244327405122A2E81
:1063300074010252FE790112633FFAE43FFB22EE40
:106340002402FCE43FFDEE240F2274F4122439747D
:10635000FA122AC2125EBA126424EEFAEFFB124855
:10636000EEE960171232BC8A0A8B0BAC0AAD0BEE59
:10637000FAEFFB124054E96401700A7401122CDC3C
:10638000E4F0A380097401122CDCEEF0A3EF127884
:106390005AA3A3A3A3A3E0F8A2E650087403122C07
:1063A000DC7401F0E8A2E750087404122CDC7401DC
:1063B000F07405122CDCE4F004122A9C122CE6E99D
:1063C000851882851983F09080B7122CAD1232E0C7
:1063D0007A007B001232EC7A007B001232E6750AFA
:1063E00000780A122A1F7401122A94880A890B78ED
:1063F0000A122A1B750A34750B80780A122A1B129E
:10640000640F1244327405122A2E74060252407927
:1064100001E5082402FCE43509FDE508240FFAE44F
:106420003509FB22F5831276D8FF2274F61224393F
:1064300074FF122AC2126493F509A3E0F508A909B2
:10644000124870E9851882851983F0901D43E07029
:106450000B740165087005A909124594EE240B120E
:1064600068DC702C7508007808122A1F7401122A43
:1064700094880889097808122A1B750836750980DE
:106480007808122A1B1263351244327405122A2E20
:10649000026330EAFEEBFF12649F3F1264A622EE15
:1064A0002413F582E422F583E0126588E022C0829D
:1064B000C083901D43E0700312459AD083D08202BE
:1064C00029E074F412243974EF122AC2EAFEEBFFB9
:1064D000126574F508E439F509901B9EE0650870B3
:1064E00004A3E065097052A818A919880A890B78D5
:1064F0000A122A1B750A11750B00780A122A1B7CD6
:10650000007D007A817B00123FE27404122A2EE99A
:106510007027750A00780A122A1F7401122A9488BB
:106520000A890B780A122A1BAC08AD0912655F12A2
:10653000448C7403122A2E8021750A11750B807801
:106540000A122A1B7808122A1B1268D9FD7C8412B1
:10655000655F1244987404122A2E7411025240127C
:10656000656322EE2402FAE43FFBEE1262D33FF5AC
:1065700083E0F92212657822125AB31265881277E5
:1065800089F8E4C8F9EA2822F8A3E0F98882898327
:106590002274F112243974EB122AC2126493FCA300
:1065A000E0FAE4CAFBEC2AF508E43BF509901B9EEF
:1065B000E065087004A3E0650960030266608882F4
:1065C0008983A3A3E09410500F88828983A3A3E05A
:1065D000851882851983800885188285198374102F
:1065E000F0E0C0E07404122CDCD0E01276BAA3A371
:1065F000A982AA83890C8A0D750E00780C122A17BD
:106600007407122CDCE0FC7D007408122CDCAA82DA
:10661000AB83123E927403122A2E7404122A9488B9
:106620000A890B780A122A1B750A11750B00780A61
:10663000122A1B7C007D007A817B00123FDC7404EF
:10664000122A2E7404122CDCE0901BDD6005E0D2CF
:10665000E48003E0C2E4F0851882851983E48008B1
:106660008518828519837484F0E0C0E07401122CCF
:10667000DCD0E0F07402122CDCE508F07403122C7C
:10668000DCE508F01252E43F1266C0122A1F7402C1
:10669000122A94880889097808122A1B750814752B
:1066A00009807808122A1B79031263371244327466
:1066B00005122A2E7415025A5FE5161252E5351797
:1066C000F583E0F50878082274F612243974E01294
:1066D0002AC2EAFEEBFF90054EE064086008E06421
:1066E0000460030268CEAC18AD1912441A901D4321
:1066F000E06402702F1232BC7402122CDCAC82AD4A
:1067000083124054E9601D1232C28A088B09A8081E
:10671000A909851882851983E0687003A3E0697070
:10672000030268CE1234907402122CDCAC82AD836A
