:020000040000FA
:100000000212FF022003FFFFFFFFFF02200BFFFF92
:10001000FFFFFF020E61FFFFFFFFFF02201BFFFF3C
:10002000FFFFFF022023FFFFFFFFFF02202BFFFF48
:10003000FFFFFF022033FFFFFFFFFF020EA4FFFFC1
:10004000FFFFFF022043FFFFFFFFFF02204BFFFFE8
:10005000FFFFFF022053FFFFFFFFFF02205BFFFFB8
:10006000FFFFFF022063FFFFFFFFFF02206BFFFF88
:10007000FFFFFF022073FFFFFFFFFF02207BFFFF58
:10008000FFFFFF022083FFFFFFFFFF02208BFFFF28
:10009000FFFF70DFFFFF040000000002000000C847
:1000A0000300030369A5020269A501000000000026
:1000B00004003273000074F8121046900393E0605D
:1000C0001590030274FEF0900304744DF0A37405C0
:1000D000F07A011206857F0102116374F71210464F
:1000E00074FF12126B7E00801F851882851983E0D1
:1000F00064FE70069003877401F085188285198369
:10010000E0F8900384E068F07C017D00AA18AB1948
:10011000120E1C8B09EA450970030201F38518824F
:10012000851983E064EF70027E07E0C0E0900387EA
:10013000E0FA900385E0F8EA28F8E43400F9740264
:1001400028F582740339F583D0E0F0900387E060EE
:100150009814600E14602C14603C14605214606893
:100160008098900384E4F0851882851983E09003D9
:1001700086F0C394809003874004E40200F974027F
:100180000200F9851882851983E0900382F09003BC
:100190008774030200F9851882851983E090038330
:1001A000F0900386E0601990038774040200F990D0
:1001B0000385E004F0F8900386E06860030200FA2B
:1001C00090038774050200F9900385E4F09003879B
:1001D000F0900384E0F8851882851983E068600355
:1001E0000200FA900382E0644D60030200FA1203F9
:1001F000288002EEF974011212377F020211637433
:10020000F712104674FB12126BEAFEEBFF7508043E
:1002100075090078081212CF74021212E87A907BE6
:10022000007904120EC574021212371206771213E7
:1002300039E0687003A3E06970128518828519831C
:10024000E0F47003A3E0F4600302030874041212E4
:10025000E01206DD8A088B09A808A90974021213A6
:1002600039E8F0A3E9F07404121339E06008790169
:100270001200B6020321851882851983E068700395
:10028000A3E0697076851882851983E0F47003A372
:10029000E0F4701974021213397410F0A37420F092
:1002A0008518828519837410F0A37420F0750801F5
:1002B00075090078081212CF74021212E87A247BB2
:1002C00008120F49740212123775080478081212C6
:1002D000CF74021212E87A907B007904120EC57472
:1002E00002121237120677121339E0687003A3E086
:1002F000697004790280067904800279031200B6DD
:100300008E828F83741E80058E828F83E4F01206A6
:1003100077121339E0687003A3E0697004790180F3
:1003200002790074050201F774ED12104674F81298
:10033000126B900307E0FD900306E0FCFAEDF8E491
:10034000C8F9EA28FEE93408FF751001750B00753D
:100350000A068E088F0974027808121296C395084F
:10036000F8E49509F9740228F50E740339F50F8E37
:10037000088F09740978081212F0E508F511EE24C7
:1003800010F508E43FF509EEF50CEF5401F50D907A
:100390000383E014605914700302046414700302B0
:1003A00004DF14601024FE700302059A1470030227
:1003B000064A02065A750A03794E120C5B9003072F
:1003C00012066D7402F0A3744012066B74081206D4
:1003D0006BF0A3F07418C3940704F510AA10A90BCE
:1003E000120685A90A74081212377F0C0211637570
:1003F0000A04794E120C5BEE450D7005A911120F1F
:10040000AFC3EE9425EF9408503CC3E5089424E56F
:100410000994084031E50E2496F8E50F3420F98858
:10042000828983E0701BA3AA82AB83E070139003E0
:10043000887401F08882898374A5F08A828B838016
:1004400004900388E4F0750810750900780812120A
:10045000CF7C087D03EEFAEFFB120F4974021212F3
:10046000370203DC750A05E511C394794006750B64
:10047000010203DC75124075130078121212CF7C52
:10048000097D037402780C121296AA0CAB0DA91107
:10049000120EC57402121237900307E0A3F0900306
:1004A00006E0A3F0751043C3EE9425EF94084003D3
:1004B0000203DCC3E5089424E50994085003020311
:1004C000DC900388E070030203DCE50E2497F8E576
:1004D0000F3420F988828983E4F0A3F00203DC75ED
:1004E000080475090078081212CF74021212E87A13
:1004F000907B007904120EC5740212123774021236
:100500001339E0F8A3E0F9851882851983E0687053
:1005100003A3E069851882851983700BE0F47003EA
:10052000A3E0F470578009E0F47003A3E0F4700DC9
:100530008518828519837410F0A37420F012067751
:10054000121339E8F0A3E9F075080178081212CF08
:1005500074021212E87A247B08120F4974021212F4
:100560003775080478081212CF74021212E87A90D4
:100570007B007904120EC57402121237120677122C
:100580001339E0687003A3E0697006750A0102037D
:10059000DC750A02750B070203DC900391E060072B
:1005A000640260030203DCEDFF7A01790012068524
:1005B000E0600302063E8003120D1C120D26E97056
:1005C000F7740412133912065F7404121339780891
:1005D00012131D85080C85090D850A0E850B0F90D9
:1005E00005A2780C1212BC7404121339780C121381
:1005F0000EE5084509450A450B70CE8EC2E5C55487
:10060000E04FF5C5740412133912065F7404121317
:1006100039780812131D85080C85090D850A0E8589
:100620000B0F9005A2780C1212BC740412133978C7
:100630000C12130EE5084509450A450B70CE7A01E8
:10064000790012068579080203E5EC900393F070B7
:10065000030203DC750A090203DC79060203E5E400
:10066000F0A37426F0A3E4F0A3F022F0A3E4F0A337
:10067000F0A3F0A3F0A322851882851983E0F8A3E4
:10068000E0F974022274F8121046EAFE900305E0C5
:10069000D2E7F0E9A3F0EE900303F08E0874042A89
:1006A000FE7C028004E062080CECFA3395E0FB74F7
:1006B000022AF58274033BF583EEF8C3EA98EB94C3
:1006C00000A2D265D03340DDE508F074012A0C3376
:1006D00095E0FD7A027B03120E4C0200D674E912FB
:1006E00010467582007583FE1211FE8A168B1775EF
:1006F00014007515008A828B83E4F0900391E070FA
:1007000006D2AAD2AF80046402700579001200B646
:10071000750C00750D20750E00750F00900391E0AB
:10072000600464027015120D1C1200DBE9F87409F4
:1007300068600302080D79001200B675080075099B
:100740000278081212CF74021212E8850C08850D87
:1007500009AA08E5095407FB850E0A850F0B740BDF
:100760007808121252A908120EC574021212377EAE
:10077000007F009005AAC0828E10EFF5113395E03E
:10078000F512F513850C08850D09850E0A850F0BEA
:10079000780879101212A99005A678081212BC7573
:1007A0008305D08278081211DF501D8518828519C3
:1007B00083E5822EF582E5833FF583E0F9AA14AB49
:1007C0001512083C8A148B150EEE70010FC3EF94BE
:1007D0000240A09005AE780C1212BC9005B2780CC5
:1007E0001211DF400302071C7900AA14AB1512088E
:1007F0003C790012083C8B15900391E07004C2AF65
:10080000C2AAEA451570277AA57BA58021E8700366
:1008100002073B740668700302073B7407687003A5
:1008200002073B8516828517837401F080BA7582B2
:10083000007583021211FE7F10021163C008C00907
:100840007C088A088B09740F78081212F0E508F802
:10085000EA25E0FAEB33FBE9A2E7500474014AFA17
:10086000E8A2E0500874216AFA74106BFBE9C33304
:10087000F91CEC70CDD009D0082274F8121046781B
:10088000007900802274942EF582E43403F583E02D
:100890008A828B83F09004141209FA4005900414A4
:1008A000E4F008E8700109900414E0FEA3E06E6033
:1008B00007C3E89CE99D40CDE8FAE9FB7F010211FE
:1008C0006374F7121046900498E0F509A3E0F50868
:1008D000F8E509C398F895E0F9E508C39509E850EB
:1008E0000B120ADC701178007900801B247F500104
:1008F00009C39CE99D50EF7A007B008041E004F041
:10090000D2E908E8700109C3E89CE99D502C8A826D
:100910008B83E0C0E0900499E0FE74182EF582E429
:100920003404F583D0E0120ACC90049AE4F09004E9
:1009300099E0C3947F40C6E480C5E8FAE9FB7F02F2
:10094000021163C082C083C2E9900498E0F8A3E07A
:10095000686017741828F582E43404F583E0F5C163
:10096000900498120AF34002E4F0020D3A74F8126F
:1009700010467800790090051DE07055A3E0705195
:1009800075F900C28FC284A28340FCA28F4004A2EA
:100990008350F8AEF9C28FA2835004D2848032EE25
:1009A000C0E0E0FE1209EFD0E0F090051E120AF35D
:1009B00040D9E4F080D51209EFE08A828B83F09071
:1009C000051D1209FA400590051DE4F008E87001C4
:1009D0000990051DE0FEA3E06E6007C3E89CE99D59
:1009E00040D4E8497006E4F090051DF00208B874A0
:1009F0009D2EF582E43404F58322E004120AD0C36C
:100A000094802274F81210469005A0E0FEF890053C
:100A10009FE0FFEEC39FE0500DC398F895E0F912F8
:100A20000ADB70188012C398F895E0F9E8247F502B
:100A30000109C39CE99D4004EC4D70077A007B00DE
:100A4000020AC98A828B83E0F5F9A3AA82AB837874
:100A50000179008008E004F008E8700109C3E89C0F
:100A6000E99D50278A828B83E0C0E09005A0E0FEDC
:100A7000741F2EF582E43405F583D0E0120ACC9081
:100A800005A0E0C3947F40CDE480CCC28FA2834018
:100A9000FCC284A28F4004A28350F890059F120AE2
:100AA000E6E0F5F9C28F90059FE0FAA3E06A9005B1
:100AB0009F7005120AE68005120AF34002E4F0A2D4
:100AC0008350D0D284E8FAE9FB0208BC120AD02293
:100AD000F08A828B83A3AA82AB8322E824FF18E9E1
:100AE00034FFF9E84922E0FA741F2AF582E434055C
:100AF000F58322E004F0C394802274FB12126B7E13
:100B0000009005CA780812131D9005CA7401F0A35D
:100B1000F0A37469F0A374A5F09005B678081212DA
:100B20008170047E0180159005BA780812128160E8
:100B300008E59D541864107003022000120C81EE29
:100B4000A2E05003020BFEAA18AB191201FFE970D4
:100B500003020BFE851882851983E0C3943C500C78
:100B6000E0F8743CC398FA95E0FB80047A007B00BF
:100B7000120D3FE97003020BFE900391E0640170D7
:100B80000C75F800C2AB539AF7D2EA805E7907126F
:100B900000B68003120D1C120D26E970F7740112C5
:100BA0001339E4F0A37426F0A3E4F0A3F074011267
:100BB0001339780812131D85080C85090D850A0E56
:100BC000850B0F9005A2780C1212BC740112133918
:100BD000780C12130EE5084509450A450B70CE75D1
:100BE0008600C2AAC28B539AFBC2E990000174CD61
:100BF000F0022000C2AF75C9AB75C95B80FE7508F5
:100C000000750900750A00750B00900391E0701BD8
:100C1000D2AAD2AF79051200B6E07003120D1C12F1
:100C200000DBE9F8740968700980E9794E120C5B01
:100C300080ED74016870E2E07017120D1C9005BE23
:100C400078081212BC9005C278081211DF50EBC26E
:100C5000AAC2AF75C9AB75C95B80FEC082C083787C
:100C6000109005A1E0C399501575B60FE5B4A2E741
:100C700050FAE5BBC39940F118E870EDE9F0020DB8
:100C80003AC082C08353BEFBE59DA2E650FA0078CD
:100C9000F8790100120ADB70FA75C6807480659ECF
:100CA00070FA43BE049062707408F0794A120C5BCB
:100CB00090000174F5F07403F5D575D489A2A0E411
:100CC00033900391F0A2E05029D28453F3F753F309
:100CD000EF53FDF743FD10538FF753F7DF43FC202D
:100CE00043F10253F5DF75F82043F4F0D2FED2ABA6
:100CF000802853FF3F85FFFF53F1FE43F30C53F26F
:100D0000F375868075C48090049BE4F0A3F075C2EF
:100D1000D875C50B75C402438640801E8003120936
:100D200043A2E940F922C082C083900498E0F8A36E
:100D3000E0686004790180027900D083D082227457
:100D4000F112104674FF12126B7E00900391E06462
:100D500001706CC2849003927401F07508388E099A
:100D60008E0A8E0B7C017D00AA18AB19120E1C8B0B
:100D70000DEA450D6018851882851983E0641060BE
:100D80002DE064EF70088E088E098E0A8E0B8508A0
:100D90000C85090D850A0E850B0F9005A2780812A7
:100DA00012BCE50C450D450E450F70347E019003D5
:100DB00091E064017056D284900392E4F08051D2A5
:100DC000AAD2AF8A088B09E4F50AF50B9005C6781C
:100DD0000C12131D7808790C120FC679061200B692
:100DE000900391E06003020D64120D1C1200DBE918
:100DF000F8740968700779061200B6809174076864
:100E00006084E8608974066870A48082C2AFC2AA58
:100E1000EEF974011212377F08021163C082C08399
:100E2000900391E0700512087A801E900392E060B2
:100E300015A28F500BE5F98A828B83F07A0180022C
:100E40007A007B00800312096D020D3AC082C083D4
:100E5000900391E070051208C18003120A03020D8D
:100E60003AC0E074F21210AC900001E064CD70055D
:100E7000122013802AE064F57024E5C1C28BC0E023
:100E8000900415E0F8749428F582E43403F583D0D7
:100E9000E0F0900415120AF34005E4F08001007FB1
:100EA0000102110BC0E074F21210AC900001E0647A
:100EB000CD700512203B800BE064F57005120943EC
:100EC00080010080DA74F6121046890A740F550A00
:100ED000F508750900740B7808121296EA2400F8D8
:100EE000EB3480F9E82400E93509F985C709A2AF98
:100EF000E433F508C2AFE50AC4540FFAE5C754F865
:100F00004AF5C7740A121339E0FAA3E0FB801C8883
:100F1000828983E08C828D83F088828983A3A88272
:100F2000A9838C828D83A3AC82AD83EAFEEBFFEEB6
:100F300024FF1AEF34FFFBEE4F70D48509C7E50894
:100F4000A2E092AF7F0302116374F7121046ED9096
:100F50000389F0ECA3F0A37462F0A37473F0A3E030
:100F6000541FF07409121339E0F508A3E0F509E500
:100F700008333354FC90038EF0740678081212F094
:100F8000E50890038DF090038F7412F0A37442F083
:100F900075D1FE75D601EA906271F0EBA3F0906214
:100FA00070E0D2E1F0E0A2E740FB7F02021163C0F3
:100FB00082C083E9C333906272F0906270E0D2E045
:100FC000F0D083D08222080808EAC0E0EBC0E086B7
:100FD000F0E7A4FA180986F0E7A42AFA180986F0BF
:100FE000E7A42AFA180986F0E7A42AFA1986F0E796
:100FF000A4FBE5F02AFA190886F0E7A42BFBE5F03C
:101000003AFA190886F0E7A42BFBE5F03AFA18182B
:101010000986F0E7A4C5F02BFBE43AFA1908E7C506
:10102000F0C6A426F6E5F03BFBE43AFA1886F0E7B2
:10103000A4F6E5F00826F6E43B08F6E43A08F6D014
:10104000E0FBD0E0FA222518C582C0E0E51934FFA4
:10105000C583C0E0E518C3958224F910AF088583E5
:10106000198582188008858319858218D2AFCEF041
:10107000A3E520F0A37808E608F0A3DEFAEFF0A3DA
:10108000E58124FBF8E608F0A3E608F0A30808E6EB
:1010900008F0A3E608F0A315811581D0E0FED0E0AA
:1010A000F815811581E8C0E0EEC0E022C0D0251817
:1010B000C582C0E0E51934FFC583C0E0E518C395DB
:1010C0008224F310AF0885831985821880088583F0
:1010D00019858218D2AFC8F0A3E9F0A3EAF0A3EB18
:1010E000F0A37908E709F0A3D8FAECF0A3EDF0A398
:1010F000EEF0A3EFF0A3D0E0F0A3D0E0F0A3D0E0B7
:10110000F0A3E520F0A3E5F0F0A32285198385186C
:1011100082E0C0E0A3E0F9A3E0FAA3E0FBA3780833
:10112000E0F608A3DFFAE0FCA3E0FDA3E0FEA3E005
:10113000FFA3E0C0E0A3E0C0E0A3E0F5D0A3E0F5AA
:1011400020A3E0A3F5F010AF0885831985821880ED
:1011500008858319858218D2AFD082D083D0E0F879
:10116000D0E032851983851882E0A3FEE0A3F52044
:101170007808E0A3F608DFFAE0A3FFE0A3C0E0E010
:10118000A3C0E0E0A3C0E0E0A3C0E010AF08858208
:10119000188583198008858218858319D2AFD0837A
:1011A000D08222E490030278A179038002F0A3D8D0
:1011B000FCD9FA7AA27B0590008E782979018015F6
:1011C000E493A3AD82AE838A828B83F0A3AA82AB21
:1011D000838D828E83D8E9D9E7120AFA121343C0AD
:1011E00008C3E096F50808A3E096420808A3E09635
:1011F000420808A3E09645087001D3D00822C582B2
:101200002518C582C583351910AF07F519858218D1
:101210008007F519858218D2AFC583222518F5827B
:1012200010AF08F518400C15198008F51840021584
:1012300019D2AF8519832200C0D0251810AF08F548
:1012400018500C05198008F51850020519D2AFD0B6
:10125000D0226016080808C6C313C618C613C618DD
:10126000C613C618C613C6D5E0EA22251810AF0863
:10127000F518400C15198008F51840021519D2AF61
:1012800022E066701008A3E066700A08A3E06670AA
:101290000408A3E06622700422600D18C6C333C69A
:1012A00008C633C6D5E0F41822E627F60809E63763
:1012B000F60809E637F60809E637F622E026F608CA
:1012C000A3E036F608A3E036F608A3E036F622746B
:1012D000028000C0E0F40412121CD0E012132C2291
:1012E0002518FAE43519FB222518FCE43519FD22EE
:1012F000600C08C6C313C618C613C6D5E0F4227521
:10130000D00075813F7518027519030211A3E6F02C
:1013100008A3E6F008A3E6F008A3E6F022E0F6084A
:10132000A3E0F608A3E0F608A3E0F622CAC0E0E6D0
:10133000F0A308DAFAD0E0FA222518F582E435198C
:10134000F5832200000080FBFFFFFFFFFFFFFFFF90
:10135000FFFFFFFFFFFFFFFFFFFFFFFFFFFFFFFF9D
:10136000FFFFFFFFFFFFFFFFFFFFFFFFFFFFFFFF8D
:10137000FFFFFFFFFFFFFFFFFFFFFFFFFFFFFFFF7D
:10138000FFFFFFFFFFFFFFFFFFFFFFFFFFFFFFFF6D
:0A1FF600CA05094338860000000008
:020000040003F7
:01FFF000F020
:020000040000FA
:10200000022C3F0221F7FFFFFFFFFFFFFFFFFFFF53
:10201000FFFFFFFFFFFFFFFFFFFFFFFFFFFFFFFFD0
:10202000FFFFFFFFFFFFFFFFFFFFFF022914FFFF7E
:10203000FFFFFF0228ECFFFFFFFFFFFFFFFFFFFF97
:10204000FFFFFF022741FFFFFFFFFFFFFFFFFFFF33
:10205000FFFFFF022137FFFFFFFFFFFFFFFFFFFF33
:10206000FFFFFFFFFFFFFFFFFFFFFFFFFFFFFFFF80
:10207000FFFFFFFFFFFFFFFFFFFFFFFFFFFFFFFF70
:10208000FFFFFF02218BFFFFFFFFFFFFFFFFFFFFAF
:1020900010201020010105030101FF0F10FEFFDBDE
:1020A0004B00000000114B00000000FF000000FF8B
:1020B0000001965118000200003C3D00000000D6CF
:1020C0003CBA3D0C3D843D0000003D000000000096
:1020D0000000000000000000000000000000000000
:1020E00000000006FFFFFF01010400D21B000000FA
:1020F000E8030000FFFFA11C03E803000064006484
:1021000000B801A0BB0D00A0BB0D0002020008003A
:10211000000502070401051E02051E020A0A010845
:102120000803B80B02803E0102FEFFE8030A050027
:1021300001FFFF0A1401E0C0E074F212250BA2AF08
:10214000E433F508D2AFAFA7AEA1EE5F541060063E
:10215000123A6C75A1EFEE5F54086008123A72757E
:10216000A1F78023EEA2E092F0EFA2E082F05017F8
:10217000906198E0F890094FE0C398A2D265D033FF
:102180005002E8F075A1FEE5088063C0E074F21229
:10219000250BA2AFE433FED2AF9061A4E0F8759BAB
:1021A00000E59158540860087591F7123ABA8023F7
:1021B000E59158541060087591EF123AC08014E50B
:1021C00091A2E092F0E8A2E082F05007E0C2E0F0D5
:1021D000123C0A9061A3E0F8E5E9585404600E123D
:1021E0003BE075E9FB906193E0A2E640F2EEA2E0ED
:1021F00092AF7F0102256AC0E074F212250BA2AFF4
:10220000E433FED2AF9061A5E0F8E5BF5854046016
:102210000675BFFB123C2280D4C3E498F8E499F918
:1022200012225A8026C3E49AFAE49BFBE920E7E9EC
:1022300012225AE498F8E499F922C3E498F8E49950
:10224000F912225AE498F8E499F9C3E49AFAE49B63
:10225000FB22EB20E7CFE920E7E0B90010BB000844
:10226000E88AF084F8AAF022E4FBC8FA22EB702294
:102270007B10C833C8C933C9335007C39AC3DBF2D4
:1022800080069A50012ADBEAC833F4C8C933F4C97E
:10229000FA2275F008E4C833C8C933C933C99AC9EA
:1022A0009B5004C92AC93BD5F0ECFBC833F4C8E401
:1022B000C9FA2274F51224A574FA122AC275080408
:1022C0007509007808122A1B7404122AA47AF87B74
:1022D0000779031239707402122A2E9080BF780891
:1022E000122C4F7402122CDC7808122AD87049750F
:1022F00008027509007808122A1B7402122AA47AAF
:10230000F67B0779031239707402122A2E8518821F
:10231000851983E0F47003A3E0F4601C85188285BE
:102320001983E0F8A3E0F9888289837402F0A3F0AE
:10233000A37469F0A374A5F0C2AF75D69F02000024
:102340007406122A2E7F04022784080808EAC0E0D7
:10235000EBC0E086F0E7A4FA180986F0E7A42AFAB1
:10236000180986F0E7A42AFA180986F0E7A42AFAE1
:102370001986F0E7A4FBE5F02AFA190886F0E7A42D
:102380002BFBE5F03AFA190886F0E7A42BFBE5F001
:102390003AFA18180986F0E7A4C5F02BFBE43AFADC
:1023A0001908E7C5F0C6A426F6E5F03BFBE43AFAC7
:1023B0001886F0E7A4F6E5F00826F6E43B08F6E414
:1023C0003A08F6D0E0FBD0E0FA22E4CFC0E0E4CE59
:1023D000C0E0E4CDC0E0E4CCC0E075F020E626F635
:1023E00008E633F608E633F608E633F6181818EC74
:1023F00033FCED33FDEE33FEEF33FFC3EC9709ED15
:102400009709EE9709EF97191919400FFFEC97FC00
:1024100009ED97FD09EE97FE191906D5F0BFECF707
:1024200009EDF709EEF709EFF7191919D0E0FCD01B
:10243000E0FDD0E0FED0E0FF222518C582C0E0E537
:102440001934FFC583C0E0E518C3958224F810AFA6
:10245000088583198582188008858319858218D29A
:10246000AFCEF0A3E520F0A37808E608F0A3DEFAEB
:10247000EFF0A3E58124FAF8E608F0A3E608F0A35C
:10248000E608F0A30808E608F0A3E608F0A3158123
:102490001581D0E0FED0E0F8158115811581E8C0E6
:1024A000E0EEC0E0222518C582C0E0E51934FFC582
:1024B00083C0E0E518C3958224F910AF088583191D
:1024C0008582188008858319858218D2AFCEF0A343
:1024D000E520F0A37808E608F0A3DEFAEFF0A3E524
:1024E0008124FBF8E608F0A3E608F0A30808E60854
:1024F000F0A3E608F0A315811581D0E0FED0E0F846
:1025000015811581E8C0E0EEC0E022C0D02518C5D5
:1025100082C0E0E51934FFC583C0E0E518C39582A9
:1025200024F310AF088583198582188008858319E4
:10253000858218D2AFC8F0A3E9F0A3EAF0A3EBF0CC
:10254000A37908E709F0A3D8FAECF0A3EDF0A3EE25
:10255000F0A3EFF0A3D0E0F0A3D0E0F0A3D0E0F040
:10256000A3E520F0A3E5F0F0A32285198385188266
:10257000E0C0E0A3E0F9A3E0FAA3E0FBA37808E061
:10258000F608A3DFFAE0FCA3E0FDA3E0FEA3E0FF72
:10259000A3E0C0E0A3E0C0E0A3E0F5D0A3E0F52015
:1025A000A3E0A3F5F010AF08858319858218800891
:1025B000858319858218D2AFD082D083D0E0F8D03D
:1025C000E032122CD1B90003022601E49004D17844
:1025D00085791A8002F0A3D8FCD9FA7A557B1E902F
:1025E000209478A479018015E493A3AD82AE838A08
:1025F000828B83F0A3AA82AB838D828E83D8E9D9A4
:10260000E775828B7583AF74061229DA75820C75B3
:10261000834974001229DA0A75F0108E1A8F1B850F
:10262000821F85831E851882851983E0CEA3E0CFA3
:10263000851F82851E83EBC9EAC8EDCBECCAC3E8CF
:1026400033C8E933C9EA33CAEB33CBC3EA9EF51D7D
:10265000EB9FF51CB35004AB1CAA1DEC33CCED333F
:10266000CDD5F0DAAE1AAF1B22D083D082ECC0E019
:10267000EDC0E0E493A3FCE493A3FDED4C600D12E8
:1026800027C4EC24FFFCED34FFFD80EFE493A3FCB2
:10269000E493A3FDED4C600D122897EC24FFFCEDB4
:1026A00034FFFD80EFD0E0FDD0E0FCE493A3C0E078
:1026B000E493C0E022851983851882E0A3FEE0A39D
:1026C000F5207808E0A3F608DFFAE0A3FFE0A3C056
:1026D000E0E0A3C0E0E0A3C0E0E0A3C0E0E0A3C06E
:1026E000E010AF08858218858319800885821885D7
:1026F0008319D2AFD083D0820229E0D083D082E97F
:10270000C0E0E493A3C386F0C5F095F0F908E49324
:10271000A386F0C5F095F0700BE493A3C399400530
:10272000E9048002A3E475F002A42582F582E5F0B5
:102730003583F583D0E0F9E493A3C0E0E493C0E0EF
:1027400022C0E074F212250BA2AFE433FED2AFC276
:10275000C0901D4EE0700BE5D1A2E4501D1239D699
:102760008018E5D1A2E3500675D1F71239A6E5D15C
:10277000A2E4500675D1EF1239ACEEA2E092AF7F21
:102780000102256A851983851882E0A3FEE0A3F57E
:10279000207808E0A3F608DFFAE0A3FFE0A3C0E09A
:1027A000E0A3C0E0E0A3C0E0E0A3C0E010AF088574
:1027B00082188583198008858218858319D2AFD045
:1027C00083D08222C0E0C3E49396087401939618E4
:1027D000400FE493667008087401936618700070E7
:1027E00019A3A3C3E49396087401939618A3A34076
:1027F0000DD0E0D0E0D0E00226A5A3A3A3A3A3A31D
:10280000D0E022D083D082C5F0E493A3C5F0C39575
:10281000F0F5F0E493A3C395F04005E5F0048001E2
:10282000E475F002A42582F582E5F03583F583E4B2
:1028300093A3C0E0E493C0E0227404800474028097
:1028400000CCC0E0EDC0E0E518C39CCCAD19500150
:102850001D10AF068C188D1980068C188D19D2AFFB
:1028600012295CD0E0FDD0E0FC2274028000CCC0D4
:10287000E0EDC0E0E518C39CCCAD1950011D10AFD0
:10288000068C188D1980068C188D19D2AF12293A32
:10289000D0E0FDD0E0FC22C0E0C0F088F0E4936618
:1028A00070080874019366187000A8F0A3A3700B59
:1028B000D0F0D0E0D0E0D0E00226A5A3A3D0F0D0A5
:1028C000E022D083D082CCC0E0E493A3600612293A
:1028D000BB1470FAE493A36006122AAC1470FAD009
:1028E000E0FCE493A3C0E0E493C0E022C0E074F213
:1028F00012250B758B00C2E8901D4EE0700E7A0019
:102900007B109009E5E0F9123EEC80031247687FE6
:102910000102256AC0E0C0D0E8C0E0E9C0E0A9A893
:10292000D2AFC2C7E9A2E7E433F8E9A2E792AFD099
:10293000E0F9D0E0F8D0D0D0E032CAC0E0E493A310
:10294000C582CCC582C583CDC583F0A3C582CCC565
:1029500082C583CDC583DAE5D0E0CA22CAC0E0E0F3
:10296000A3C582CCC582C583CDC583F0A3C582CC67
:10297000C582C583CDC583DAE6D0E0CA22700908D6
:102980000808226016181818C6C333C608C633C60E
:1029900008C633C608C633C6D5E0EA22C008C3E07D
:1029A00096F50808A3E096420808A3E096420808B6
:1029B000A3E09645087001D3D00822C0E0E493A3B9
:1029C000D39C5010E493A3C39C400AD0E0D0E0D045
:1029D000E00228DFA3A3A3D0E022C09FF59FE47309
:1029E000D09F22D083D082C09FE493C0E074019333
:1029F000C0E0740293F59F222518F58210AF08F508
:102A000018400C15198008F51840021519D2AF8529
:102A10001983227404800A7403800674028002748D
:102A200001C0E0F4041229F8D0E0122C7C2200C08E
:102A3000D0251810AF08F518500C05198008F518A6
:102A400050020519D2AFD0D022BB0102E722C082CA
:102A5000C08389828A83BB0003E08002E493D08331
:102A6000D082226016080808C6C313C618C613C64B
:102A700018C613C618C613C6D5E0EA22C3E0C69628
:102A8000F608A3E0C696F608A3E0C696F608A3E00B
:102A9000C696F6222518F8E43519F9222518FAE425
:102AA0003519FB222518FCE43519FD22C0E0E4931A
:102AB000A36C7009D0E0D0E0D0E00228DFA3A3D05F
:102AC000E022251810AF08F518400C15198008F5FC
:102AD0001840021519D2AF22E066701008A3E06614
:102AE000700A08A3E066700408A3E06622C3E096BB
:102AF00008A3E09608A3E09608A3E096A2D265D0CA
:102B00003322E76670100809E766700A0809E7666D
:102B100070040809E76622C3E096F008A3E096F087
:102B200008A3E096F008A3E096F022C3E697F60823
:102B300009E697F60809E697F60809E697F622C32C
:102B4000E4939608740193960874029396087403AC
:102B5000939622E493F608740193F608740293F6B0
:102B600008740393F622E647F60809E647F60809D3
:102B7000E647F60809E647F622E026F008A3E03625
:102B8000F008A3E036F008A3E036F022E627F608C6
:102B900009E637F60809E637F60809E637F622E6C9
:102BA00057F60809E657F60809E657F60809E65702
:102BB000F622E056F608A3E056F608A3E056F6081B
:102BC000A3E056F622E026F608A3E036F608A3E0D6
:102BD00036F608A3E036F622E056F008A3E056F0F9
:102BE00008A3E056F008A3E056F022700422600D1E
:102BF00018C6C333C608C633C6D5E0F41822E4C3EA
:102C000096F608E496F608E496F608E496F622C6E8
:102C1000F4C608C6F4C608C6F4C608C6F4C622C37D
:102C2000E7960809E7960809E7960809E79622C398
:102C3000E09608A3E09608A3E09608A3E096227524
:102C4000D00075813F7518D1751904000225C2E0C6
:102C5000F608A3E0F608A3E0F608A3E0F622600C6D
:102C600008C6C313C618C613C6D5E0F422E6F0089A
:102C7000A3E6F008A3E6F008A3E6F022CAC0E0E667
:102C8000F0A308DAFAD0E0FA22E0F8A3E0F9A3E032
:102C9000FAA3E0FB22E0FCA3E0FDA3E0FEA3E0FF3B
:102CA00022EAF0A3EBF0A3ECF0A3EDF022E0FAA30C
:102CB000E0FBA3E0FCA3E0FD22ECF0A3EDF0A3EE2B
:102CC000F0A3EFF022E8F0A3E9F0A3EAF0A3EBF021
:102CD00022E5C754F84401F5C77901222518F58289
:102CE000E43519F583221229E38DA3021229E3C8E2
:102CF000A4021229E347A5021229E378A6021229A9
:102D0000E3B4A6021229E38EA8021229E34BAC0217
:102D10001229E35FAC021229E369AC021229E373C2
:102D2000AC021229E37DAC021229E387AC0212291E
:102D3000E3A0AC021229E3AAAC021229E321AD02FE
:102D40001229E32CAD021229E35BAD021229E383C1
:102D5000AD021229E38EAD021229E3F3AD0212296E
:102D6000E3FDAD021229E308AE021229E32CAE0204
:102D70001229E350AE021229E3C2AE021229E30B7C
:102D8000AF021229E327AF021229E398AF021229FA
:102D9000E3E4AF021229E32DB0021229E36BB00283
:102DA0001229E3ECB0021229E393B1021229E3588D
:102DB000B3021229E3BDB3021229E3EBB4021229D4
:102DC000E311B5021229E359B6021229E393B902BD
:102DD0001229E391BB021229E35CBD021229E3F53B
:102DE000BD021229E3F6BF021229E3ABC002122989
:102DF000E3E4C0021229E354C1021229E35EC102D6
:102E00001229E387C3021229E38AC4021229E3C705
:102E1000C5021229E31EC6021229E3C9C6021229FD
:102E2000E379C8021229E3C6C9021229E3E6C902FE
:102E30001229E33BCA021229E33CCB021229E364C4
:102E4000CB021229E3C3CB021229E3BBCC02122925
:102E5000E332CD021229E345CE021229E3B3CE02BA
:102E60001229E3B2CF021229E30CD2021229E33570
:102E7000D2021229E39BD3021229E31DD5021229A3
:102E8000E374D5021229E322D6021229E3C7D6023F
:102E90001229E32AD7021229E3E8D7021229E37A9A
:102EA000D8021229E3D9D8021229E31BD902122928
:102EB000E34CD9021229E3A3DA021229E3008003CA
:102EC0001229E33280031229E36B80031229E334D1
:102ED00082031229E37882031229E34E8303122925
:102EE000E3AD83031229E3C384031229E30F8503AF
:102EF0001229E39D87031229E3818A031229E3C87B
:102F00008B031229E3608C031229E36C8C031229D2
:102F1000E3B58C031229E3F78D031229E3ED8E0349
:102F20001229E3178F031229E36D8F031229E3C6D9
:102F30008F031229E33990031229E36F92031229B8
:102F4000E3F193031229E3DC94031229E3269603A9
:102F50001229E35E98031229E35B9B031229E36ABB
:102F60009B031229E3FE9B031229E3A99C03122968
:102F7000E3EC9C031229E3359D031229E3859D03AD
:102F80001229E3E99D031229E35B9E031229E377EB
:102F90009E031229E3A69E031229E3E59E0312294C
:102FA000E3E09F031229E38FA0031229E30CA3039C
:102FB0001229E33EA4031229E316A5031229E3987C
:102FC000A5031229E3CDA9031229E3FCA9031229C1
:102FD000E357AA031229E38AAA031229E302AB03E7
:102FE0001229E335AB031229E396AB031229E3E67A
:102FF000AB031229E3B3AC031229E36CAD0312292E
:10300000E330AE031229E3AAB0031229E30CB203A2
:103010001229E35DB3031229E381B4031229E38487
:10302000B4031229E3B3B4031229E3ABB6031229A4
:10303000E36AB7031229E399B7031229E3B7B80388
:103040001229E37FB9031229E340BB031229E3B03D
:10305000BB031229E3E2BB031229E302BC031229DA
:10306000E371BC031229E36ABD031229E38EBD0399
:103070001229E301BE031229E32AC0031229E389BE
:10308000C0031229E3DDC0031229E30CC303122994
:10309000E3EFC3031229E377C4031229E35BC503FB
:1030A0001229E3E5C5031229E3F9C5031229E30D4B
:1030B000C6031229E321C6031229E335C6031229E8
:1030C000E362C6031229E392C6031229E34DC80343
:1030D0001229E323C9031229E3C7C9031229E31CF8
:1030E000CA031229E37FCA031229E3C8CA031229BB
:1030F000E3EFCA031229E3B7CB031229E35DCC0344
:103100001229E3E3CD031229E36ECE031229E3B5BE
:10311000CE031229E327CF031229E37CD00312291F
:10312000E325D1031229E359D1031229E371D10315
:103130001229E314D2031229E390D4031229E338AD
:10314000D6031229E356D6031229E374D6031229B3
:10315000E340D7031229E38EDA031229E334810115
:103160001229E37681011229E3E386011229E32F74
:1031700087011229E37587011229E3C68801122904
:10318000E32B89011229E36F89011229E3D58A0112
:103190001229E3308E011229E3638F011229E3F231
:1031A0009A011229E3829B011229E36C9E011229E4
:1031B000E3D19F011229E334A0011229E350A101B8
:1031C0001229E3BAA2011229E399A3011229E30704
:1031D000A6011229E399A7011229E32AA8011229BD
:1031E000E349A9011229E3D6A9011229E3E0A901C3
:1031F0001229E308AA011229E3ABAA011229E396D6
:10320000AB011229E35EAC011229E3EBAC011229F8
:10321000E301AD011229E31EAD011229E347AD011F
:103220001229E374AD011229E3B8AF011229E38B2F
:10323000B0011229E3CFB0011229E351B1011229E3
:10324000E3F2B1011229E324B2011229E36BB201C6
:103250001229E39EB2011229E3E2B2011229E331FD
:10326000B3011229E336B3011229E392B301122903
:10327000E3D6B3011229E3C0B4011229E325B50155
:103280001229E383B5011229E302B6011229E37A78
:10329000B9011229E37DBA011229E313BC011229F5
:1032A000E356BF011229E3F8BF011229E341C2012D
:1032B0001229E3FCC2011229E33BC3011229E3FFF7
:1032C000C4011229E31CC5011229E325C5011229F5
:1032D000E32EC5011229E339C5011229E358C501BE
:1032E0001229E37CC7011229E3D9C7011229E3E3BC
:1032F000C7011229E3EDC7011229E350C8011229C1
:10330000E3ACC8011229E3B9C9011229E31ACA01C1
:103310001229E32BCB011229E374CB011229E33EDE
:10332000CC011229E355CD011229E319CE0112294E
:10333000E365CF011229E369D0011229E362D101CB
:103340001229E37AD1011229E3B1D1011229E3BB99
:10335000D1011229E3C5D1011229E3D0D1011229EB
:10336000E3EED1011229E336D2011229E394D2010E
:103370001229E3BBD2011229E3CDD2011229E3764F
:10338000D3011229E3AFD3011229E3E0D4011229BA
:10339000E33DD5011229E32ED6011229E364D601BB
:1033A0001229E3D4D6011229E350D7011229E3D11F
:1033B000D8011229E3F8D9011229E3BADA01122956
:1033C000E388DB011229E30DDC011229E3BCDC01F7
:1033D0001229E3A4DD011229E33DDE011229E319DC
:1033E000DF011229E381DF011229E340E001122904
:1033F000E39CE0011229E300E1011229E3C6E101A7
:103400001229E3E9E1011229E3A3E2011229E3C54C
:10341000E2011229E326E3011229E356E50112290C
:10342000E34FE6011229E3FBE6011229E318E90163
:103430001229E361E9011229E3ACE9011229E30849
:10344000EA011229E366EA011229E38AEA01122954
:10345000E3AEEA011229E3E3EA011229E30BEB01EF
:103460001229E350EB011229E3AEEB011229E30725
:10347000EC011229E301ED011229E3ADEE0112295D
:10348000E3F2EE011229E31BEF011229E3A4EF019D
:103490001229E317F0011229E325F0011229E3496B
:1034A000F0011229E39FF0011229E3BAF001122979
:1034B000E375F1011229E3A1F1011229E3E4F1011D
:1034C0001229E347F2011229E357F4011229E38399
:1034D000F4011229E33EF5011229E322F601122933
:1034E000E3B6F6011229E340C8051229E378C805BE
:1034F0001229E399C8051229E3DBC8051229E33F25
:10350000C9051229E349C9051229E359C905122938
:10351000E390C9051229E339CD051229E301CF054E
:103520001229E3E5D0051229E387D1051229E31119
:10353000D2051229E35080041229E3F980041229EC
:10354000E3D881041229E3E482041229E30483040A
:103550001229E32684041229E3D685041229E343C1
:1035600086041229E31487041229E31A8804122915
:10357000E39288041229E3CD88041229E326890402
:103580001229E36189041229E3AA89041229E33E7E
:103590008A041229E3D48A041229E3A98B0412298C
:1035A000E37C8C041229E30A8D041229E3308D0494
:1035B0001229E35D8D041229E38E8D041229E35B49
:1035C0008E041229E36B8E041229E3BE8E041229A5
:1035D000E3CB8E041229E3D88E041229E3E18E0492
:1035E0001229E3458F041229E3A38F041229E3EE85
:1035F0008F041229E30990041229E3309004122960
:10360000E34D90041229E35990041229E3EA91044E
:103610001229E30392041229E37F92041229E39210
:1036200092041229E3A292041229E3469304122978
:10363000E3B294041229E3C595041229E3659604C4
:103640001229E36F96041229E3EE96041229E3FF90
:1036500096041229E33E97041229E36C9704122979
:10366000E33998041229E39098041229E3C99804D5
:103670001229E31F99041229E33D99041229E38BCF
:1036800099041229E3569A041229E3A49A041229F0
:10369000E3F19A041229E3749B041229E39E9B042C
:1036A0001229E3D49B041229E3E39B041229E34289
:1036B0009C041229E3BA9C041229E3FB9C041229FE
:1036C000E34B9D041229E3769D041229E3909D04A7
:1036D0001229E3AA9D041229E37F9E041229E3899B
:1036E0009E041229E3C49E041229E3D49E041229E5
:1036F000E3DD9E041229E32E9F041229E3429F0476
:103700001229E364A0041229E377A0041229E38CB0
:10371000A0041229E31FA1041229E393A104122992
:10372000E338A2041229E343A2041229E3A6A30466
:103730001229E3C2A3041229E30EA4041229E37C94
:10374000A4041229E3AEA4041229E3C8A404122994
:10375000E328A5041229E3C7A5041229E312A6044D
:103760001229E365A8041229E3FDA8041229E374D1
:10377000A9041229E3D1AB041229E3E9AB0412290D
:10378000E3ECAB041229E3F8AB041229E30CAC041C
:103790001229E314AC041229E34BAC041229E33FD1
:1037A000AD041229E3C9AD041229E34BAE0412297A
:1037B000E3CBAE041229E3A2AF041229E3C4AF04A1
:1037C0001229E35DB0041229E3BAB0041229E3BD63
:1037D000B0041229E32CB1041229E378B2041229AF
:1037E000E38BB3041229E316B4041229E329B504C8
:1037F0001229E3F0B5041229E321B6041229E347A4
:10380000B6041229E350B6041229E37FB604122944
:10381000E32FB7041229E3DFB7041229E352B804F7
:103820001229E3F5B8041229E368B9041229E3A7C1
:10383000B9041229E3F0B9041229E337A1051229CA
:10384000E3A4A1051229E3EBA1051229E361A20576
:103850001229E3B3A2051229E339A3051229E37D56
:10386000A5051229E3ACA7051229E389AB051229A6
:10387000E309AC051229E344AC051229E362AC0567
:103880001229E3C2AC051229E3EAAC051229E31AB6
:10389000AD051229E34BAD051229E378AD051229D8
:1038A000E3D1AD051229E31CAE051229E353AE05A1
:1038B0001229E3CFAE051229E3FBAE051229E32D51
:1038C000AF051229E38FB0051229E3ABB005122929
:1038D000E3E9B0051229E376B1051229E3D2B10577
:1038E0001229E398B2051229E357B3051229E39C84
:1038F000B3051229E3FDB3051229E372B4051229B9
:10390000E3ACB4051229E304B5051229E326B50595
:103910001229E3BEB5051229E365B6051229E3B203
:10392000B6051229E3DBB6051229E31CB7051229F7
:10393000E3C9B8051229E3ADB9051229E35EBA055A
:103940001229E3EEBD061229E3F5BD061229E3FABA
:103950007F001229E3E77F001229E37CBD061229CC
:10396000E38CBD061229E39EBD061229E3E2BD06E3
:103970001229E361BA061229E3E5BA061229E34BDC
:10398000BB061229E3FD7F001229E3ECFF05122993
:10399000E3FCFF051229E3CAFF051229E3C6FF0471
:1039A0001229E3CFFF041229E3D8FF041229E3E62A
:1039B000FF041229E35FFA031229E3CCFA03122968
:1039C000E394FB031229E301FC031229E309FD033D
:1039D0001229E381FE031229E3D9FE031229E33100
:1039E000FF031229E342FF031229E351FF031229C7
:1039F000E364FF031229E37AFF031229E385FF033F
:103A00001229E396FF031229E30D7A001229E33904
:103A10007A001229E3DF7C001229E3367D001229A7
:103A2000E3727D001229E3867D001229E3DB9C020C
:103A30001229E3907E001229E36C7F001229E380B3
:103A40007F001229E377B1061229E39BB106122900
:103A5000E3B4B1061229E3F2B1061229E328B20653
:103A60001229E35BB2061229E3C7B2061229E3CAA0
:103A7000B2061229E3D4B2061229E3E1B2061229F2
:103A8000E352FD021229E375FD021229E3C0FD0293
:103A90001229E37DA3021229E3F9FD021229E35F53
:103AA000FE021229E36BFE021229E3C8FE0212296C
:103AB000E3ECFE021229E3B2FF021229E3BFFF0288
:103AC0001229E3D0FF021229E3F7BC061229E30F03
:103AD000BD061229E33BBD061229E31E8A06122900
:103AE000E3828B061229E3908B061229E3A48B064E
:103AF0001229E3C18B061229E3D68B061229E3E9CA
:103B00008B061229E36B8C061229E3D18C0612294D
:103B1000E3688D061229E3418E061229E3518E06D1
:103B20001229E3608E061229E35EBC061229E382A5
:103B3000BC061229E3AABC061229E3D2BC0612294C
:103B4000E3FCA5061229E323A6061229E342A606F2
:103B50001229E3B7A6061229E35FFC051229E378D0
:103B6000FC051229E38FFC051229E398FC051229B4
:103B7000E3B6FC051229E3C0FC051229E3CAFC05E3
:103B80001229E3DDFC051229E36AFD051229E3D9B8
:103B9000FD051229E307FE051229E358FE05122947
:103BA000E3A4FE051229E3BFFE051229E3C9FE05C1
:103BB0001229E3DAFE051229E31DFF051229E39C11
:103BC0007F001229E3C0D2051229E3ECD2051229A5
:103BD000E30FD3051229E322D3051229E33DD305D0
:103BE0001229E3A1D3051229E3CFD3051229E3DC7F
:103BF000D7051229E31ED9051229E350D905122948
:103C0000E3BBD9051229E33FDB051229E367DB0596
:103C10001229E37CDB051229E38CDB051229E3CCB6
:103C2000DB051229E30EDC051229E31EDC0512294F
:103C3000E3B4B5061229E3C4B5061229E3E8B506D4
:103C40001229E311B6061229E33BB6061229E35FF7
:103C5000B6061229E376B6061229E3A4B60612299F
:103C6000E3C7B6061229E3A9FF031229E352A2060D
:103C70001229E362A2061229E380A3061229E3B403
:103C8000A3061229E3D6A3061229E3FEA3061229EE
:103C9000E317A4061229E353A4061229E3B9A406E4
:103CA0001229E3FEA4061229E343A5061229E370B4
:103CB000A5061229E3A8A5061229E3AF9606122944
:103CC000E31197061229E3B897061229E3F0970645
:103CD0001229E31294051229E3C194051229E3F590
:103CE00096051229E3C899051229E3489B05122974
:103CF000E3AA9B051229E3B59E051229E3F99F0566
:103D00001229E3FFB6061229E34AB7061229E3385F
:103D1000F7051229E3F7F9051229E394FA051229A8
:103D2000E3C0FA051229E3EEFA051229E323FB05A5
:103D30001229E34BFB051229E3ABFB051229E32310
:103D4000F2041229E30AF7041229E301F904122903
:103D5000E32FFA041229E30BFB041229E3C0FC044D
:103D60001229E35BFE041229E328FF041229E37CF5
:103D7000FF041229E3FAAA061229E305AB06122969
:103D8000E326AB061229E34BBB051229E372C005FB
:103D90001229E3A1C1051229E37DC3051229E376A7
:103DA000C4051229E3ADC5051229E3BAC6051229D7
:103DB000E39FC7051229E325BA041229E35DBA047B
:103DC0001229E3BAC4041229E3A4C5041229E3F4B6
:103DD000C6041229E33FC8041229E3EAC8041229E1
:103DE000E3BDC9041229E354CA041229E338CB0401
:103DF0001229E33BCC041229E3FDCC041229E32B66
:103E0000CD041229E3A3CE041229E32CCF041229F6
:103E1000E345CF041229E39FD0041229E351D104D2
:103E20001229E3E0D1041229E38FD2041229E3F22C
:103E3000D2041229E38ED3041229E307D4041229F1
:103E4000E325D4041229E3F2D4041229E3C1D504F2
:103E50001229E377D6041229E3EBB2061229E315FF
:103E6000B3061229E329B4061229E32CB406122959
:103E7000E328FF051229E36EFF051229E3B0FF05D1
:103E80001229E3C0FF051229E38AEB051229E3D1C9
:103E9000EB051229E33AEC051229E35BEC05122944
:103EA000E374EC051229E324ED051229E32DED0559
:103EB0001229E37EED051229E3B4ED051229E3CBC7
:103EC000ED051229E338EE051229E3C8EE051229A3
:103ED000E3FEEE051229E347EF051229E3A8EF05FB
:103EE0001229E3E2EF051229E34AF0051229E39DC6
:103EF000F0051229E3E0F0051229E31DF10512296E
:103F0000E32FF1051229E341F1051229E37BF105C5
:103F10001229E3BBF1051229E3E4F1051229E300BC
:103F200080061229E34681061229E36F81061229D1
:103F3000E38081061229E39883061229E3B88306F9
:103F40001229E347AD061229E37DAD061229E3CC21
:103F5000AD061229E328AF061229E30080051229D5
:103F6000E33E81051229E37A81051229E33F8305A7
:103F70001229E36983051229E3EF85051229E32F4E
:103F800086051229E3C587051229E35A88051229F7
:103F9000E3B888051229E33E89051229E3768905ED
:103FA0001229E3B889051229E3258B051229E3A913
:103FB0008C051229E3E38E051229E3118F051229DE
:103FC000E33D8F051229E3468F051229E39C8F05F7
:103FD0001229E32C90051229E33393051229E3B546
:103FE00093051229E30FBE061229E325BE06122906
:103FF000E3A792061229E3C092061229E36593060D
:104000001229E3A593061229E3BE93061229E3F1D0
:1040100093061229E33E94061229E37294061229AC
:10402000E3B494061229E39D96061229E333B806F9
:104030001229E388B8061229E3D3B8061229E34E01
:10404000B9061229E3C0B9061229E3FEB9061229FE
:10405000E33FBA061229E34EDC051229E354DC05DE
:104060001229E39BDC051229E3A7DE051229E3D719
:10407000DE051229E341DF051229E3FCDF051229E1
:10408000E33FE0051229E370E0051229E3FAE005B9
:104090001229E311E1051229E31EE1051229E328A3
:1040A000E1051229E3C8E2051229E3BAE305122962
:1040B000E318E4051229E377F7011229E38DF701EC
:1040C0001229E33FF8011229E369F9011229E35E9D
:1040D000FA011229E3F5FA011229E330FB01122952
:1040E000E3A2FB011229E300FC011229E310FC0109
:1040F0001229E337FC011229E389FC011229E3F5B7
:10410000FD011229E3FAFD011229E31CFE01122927
:10411000E3FFDA021229E357DB021229E3F7DB029D
:104120001229E374DD021229E360DE021229E31D85
:10413000DF021229E334DF021229E383DF021229AE
:10414000E3F7DF021229E34DE0021229E360E00207
:104150001229E3C4E0021229E333E1021229E3E267
:10416000E3021229E3E7E4021229E342E5021229FD
:10417000E396E5021229E340E8021229E390E802FF
:104180001229E311E9021229E353E9021229E32D6E
:10419000EA021229E366EA021229E385EA021229F9
:1041A000E3D0EA021229E3E6EA021229E3A1EB02D4
:1041B0001229E388EC021229E393EC021229E3E1CD
:1041C000EC021229E336ED021229E382ED021229F4
:1041D000E3DDEE021229E307EF021229E39FF10269
:1041E0001229E3C9F1021229E3D4F2021229E303EE
:1041F000F3021229E37BF3021229E356F402122997
:10420000E398F4021229E30CF5021229E326F602E0
:104210001229E373F6021229E386F6021229E389D2
:10422000F6021229E392F6021229E3ADF6021229F0
:10423000E325F7021229E35EF7021229E37AF70277
:104240001229E3A6F7021229E3CDF7021229E3F1BE
:10425000F7021229E36AF8021229E3DDF8021229B3
:10426000E320F9021229E32AF9021229E359F9029B
:104270001229E36FF9021229E38BF9021229E3BA3A
:10428000F9021229E3DAF9021229E323FA021229C8
:10429000E35EFA021229E36AFB021229E3CDFC0273
:1042A0001229E3ECFC021229E303FD021229E315B3
:1042B000FD021229E364BB061229E375BB0612292D
:1042C000E3FEBB061229E310F2051229E34EF205C4
:1042D0001229E3E7F2051229E3F2F3051229E33A82
:1042E000F6051229E3B7F6051229E351E405122970
:1042F000E3A0E4051229E35EE6051229E332E805AE
:104300001229E370E8051229E351E9051229E35B5C
:10431000EA051229E37DEA051229E3D9EA05122903
:10432000E35AEB051229E3F84E001229E31A4F0075
:104330001229E38950001229E3D250001229E343E5
:1043400051001229E3C651001229E33D52001229FF
:10435000E38452001229E3FB52001229E39F530029
:104360001229E31454001229E35154001229E3994D
:1043700058001229E3BC5A001229E3F55A00122909
:10438000E3345B001229E3305E001229E3C05E00D3
:104390001229E37460001229E3AE61001229E3CE12
:1043A00062001229E33F63001229E320640012290E
:1043B000E3A364001229E3B764001229E3866500D1
:1043C0001229E3BD66001229E3EC68001229E3FB21
:1043D0006A001229E3E76B001229E37E6E001229BE
:1043E000E3536F001229E39270001229E3C27300B5
:1043F0001229E3D273001229E30875001229E3A100
:1044000075001229E3D276001229E34077001229C1
:10441000E37978001229E3B478001229E35D79008A
:104420001229E33CD7041229E3DED7041229E34A18
:10443000D8041229E364D8041229E3E6D804122927
:10444000E320D9041229E322DA041229E364DA040E
:104450001229E3D6DA041229E326DB041229E385C4
:10446000DB041229E331DC041229E31BDF041229E7
:10447000E3E2DF041229E348E0041229E3F0E10457
:104480001229E389E2041229E322E3041229E385D5
:10449000E3041229E3FBE3041229E3FCE4041229F8
:1044A000E3EDE5041229E328E6041229E33FE604DC
:1044B0001229E31DE7041229E35BE7041229E3E371
:1044C000E7041229E330E9041229E3F4EA0412298B
:1044D000E332EC041229E365ED041229E379EE04DA
:1044E0001229E310EF041229E37FEF041229E38C71
:1044F000F0041229E3ACDA031229E315DB031229D5
:10450000E35DDB031229E3A1DB031229E314DC03DF
:104510001229E36EDC031229E3A9DC031229E34329
:10452000DD031229E39DDD031229E309DF031229CC
:10453000E382DF031229E3ACDF031229E3C0E003C7
:104540001229E3D4E1031229E3FCE1031229E3FA7F
:10455000E2031229E30BE3031229E323E303122905
:10456000E329E4031229E34CE4031229E31BE503E6
:104570001229E345E5031229E35CE5031229E382EE
:10458000E5031229E3C1E5031229E3E1E50312295A
:10459000E308E6031229E320E6031229E303E70315
:1045A0001229E35DE7031229E3C4E8031229E34279
:1045B000E9031229E366E9031229E37DE9031229DD
:1045C000E351EA031229E3EAEA031229E310EB03B9
:1045D0001229E360EC031229E37FEC031229E3FEC6
:1045E000EC031229E335ED031229E373ED031229DD
:1045F000E309EE031229E37EEE031229E362EF03DF
:104600001229E340F1031229E315F2031229E361B1
:10461000F2031229E36CF3031229E38AF40312294B
:10462000E3A8F5031229E3B6F5031229E3B2F60372
:104630001229E354F7031229E39AF7031229E3AF8F
:10464000F7031229E3C1F8031229E362F9031229DF
:10465000E3BEF9031229E3AA9A061229E3659C0630
:104660001229E32D9D061229E3829D061229E308F3
:104670009E061229E3918E061229E3AF8E061229B7
:10468000E3F38E061229E3198F061229E3408F0601
:104690001229E3588F061229E3708F061229E38846
:1046A0008F061229E32E90061229E3709006122934
:1046B000E38590061229E38C91061229E3A791065F
:1046C0001229E3B091061229E3B991061229E3C237
:1046D00091061229E3CC91061229E3499206122988
:1046E000E30C85061229E34E89061229E36A89063E
:1046F0001229E36F89061229E3FDAF061229E39C14
:104700009E061229E3B29E061229E33DA006122955
:10471000E388A0061229E3F4A0061229E3F2A10619
:104720001229E321A2061229E333A2061229E35932
:10473000B4061229E381A8061229E3DDA80612298E
:10474000E313A9061229E380A9061229E398A90612
:104750001229E3AAA9061229E3D6A9061229E3F62B
:10476000A9061229E306AA061229E31CAA061229A1
:10477000E347AA061229E3D0AA061229E39AFF0406
:104780001229E3EB9B021229E3779B021229E3E053
:104790009A021229E36E9A021229E35D9A02122903
:1047A000E3389A021229E35499021229E37098021D
:1047B0001229E38695021229E34394021229E3AAFF
:1047C00091021229E36591021229E30B9102122949
:1047D000E36C90021229E31790021229E3448F023E
:1047E0001229E37E8E021229E3428E021229E3D5BA
:1047F0008D021229E3CD8D021229E3428D02122986
:10480000E3D28C021229E3238C021229E3188C02D2
:104810001229E351A2021229E3098C021229E36F43
:10482000A0021229E366A0021229E359A00212296C
:10483000E35C9F021229E3D49E021229E3C59E0283
:104840001229E3529E021229E3369E021229E3E85E
:104850008B021229E3B48B021229E3888B021229FE
:10486000E3189E021229E35A8A021229E34E8802B3
:104870001229E31F88021229E30388021229E3DECA
:10488000FD021229E3AD87021229E3009D021229DD
:10489000E37487021229E3EC86021229E3A0860260
:1048A0001229E35986021229E38C85021229E310AA
:1048B00085021229E36884021229E3C183021229C6
:1048C000E36383021229E33883021229E3E98202B7
:1048D0001229E3AB82021229E38982021229E366DC
:1048E00082021229E34D82021229E3058202122973
:1048F000E34F81021229E30080021229E3C3800200
:104900001229E35780021229E39F7D0000000080F6
:10491000FBE4738F000100421D87000100411D353B
:10492000000400BA1E25000200BE1E26000200C0C0
:104930001E27000200C21E28000100CC1E29000113
:1049400000CD1E84000400CE1E86000100D21E2A67
:10495000000100D31E2B000100D41E2C000100D842
:104960001E2D000800231D2E000100D91E2F00015E
:1049700000DA1E30000100DB1E31000100DC1E32B7
:104980000001002B1D330001002C1D34000100DD4F
:104990001E360001002D1D38000100DE1E39000109
:1049A00000D71E83000200F21E630001003E1D645A
:1049B000000100D51E65000100D61E6D0001003FFC
:1049C0001D710008001B1D66000100F11E4300015F
:1049D00000E21E44000200E31E45000100E51E4601
:1049E000000200E61E47000800361D48000100E8EE
:1049F0001E4B000100E91E04000100F41EA100018D
:104A000000F71E37000100F61E88000100F51E3C6D
:104A10000001002E1D3D000100DF1E49000200EADA
:104A20001E67000100401D4D000200EC1E4E0001FB
:104A300000EE1E4F000200EF1E3E000100351D512A
:104A40000001002F1D52000100E01E53000100E193
:104A50001E54000100301D0000000000000001365F
:104A600036010100010201000103010001040106F9
:104A70000605020000070100340801000F090401C7
:104A8000010D0100FF0E08000017020000190100CF
:104A9000FF1A0100011B0100FE1C0100081D02009D
:104AA000001F01000120010001210200002301007C
:104AB0000F2402000026010001270100082802003F
:104AC000FF2A0100072B0102402C0100002D0100EC
:104AD000012E0100012F0100FF30010B1D310800E4
:104AE000003A0100083B01000F3C0100013D0100BC
:104AF000FF3E04000042040000460400004A040097
:104B0000004E04000052040000560400005A040045
:104B100000010371030103010301030103010322E7
:104B2000030203010310030003000300030003005A
:104B300003000300034203000324030603000300F1
:104B4000030403120325032303250323030403049F
:104B500003000300030003440300030003230300D6
:104B600003650321003503810300030503000300EF
:104B700003000300032503230303047104020460FC
:104B8000041104700402040204010402041004610C
:104B900004000414046304730472046204430400F4
:104BA00004130406040004000404041204000400B6
:104BB00004000400045104640000040004000444E0
:104BC00004000400040004000465040004350481AA
:104BD0000464000504000483040004030071003031
:104BE00001600011007000310220035004800010A9
:104BF0000061000000140063007300720062004353
:104C00000000001300060000000000040012000075
:104C10000000000000000004000400370037003CE2
:104C200002440000000000000000006500000035A4
:104C300000810000000500000083000000010171F8
:104C40000101010101110101013101010101018095
:104C500001100161013B00140063017301720162E4
:104C60000143010001130106013D01350004011259
:104C700001000100010001000104010401330133BE
:104C8000013C0144013201360000010001650100D0
:104C9000013500810100010501820183010001034A
:104CA000027102300160021102700201020202026E
:104CB000028002100261023A004100630273027234
:104CC00002620243020002130238000002000204E2
:104CD0000212020002000200020002040204023773
:104CE0000037003C02440200023900000200026565
:104CF00002000235028102000205028202830200E4
:104D00000236000100060000000F00000000000055
:104D10000000000000000003FFFF00000403FFFF8D
:104D20000000FFFF0FF4010005C404032000010090
:104D3000000B000000000000000003010F00000055
:104D40000000000000000000000000000000000063
:104D50000000000000000000000000000000000053
:104D60000062441300C0431F00C6431F80CC4301B0
:104D70000062440200484303004E430400544305CC
:104D8000005A43060066433000844331007E4332BC
:104D90000090433300964335009C433400A24336D1
:104DA00000A8431100B4431400BA4315007843FF30
:104DB000FF00000A000000020000000400000008DC
:104DC00000000010000000200000004000000080F3
:104DD00000000000010000000200000004000000CC
:104DE000080000001000000020000000400000014A
:104DF000A23106D83108D2310BF031106C2E0A02E4
:104E00003202A83105C63107AE310C8A310D963118
:104E100064CE47FF000007ECFDFDFDECDCDCCCBC04
:104E2000ACAC9C9C8C7C7C6C6C5C5C5C4C4C3C3C72
:104E30002C2C1C1C03EAF5E5D5D5C5B5A5959585A3
:104E40008575756565555545453535252515150512
:104E500000160F00000B150B020002220F3300009A
:104E60000E5A6967426565416C6C69616E636530B5
:104E70003901030507090B0D0F00020406080A0C8F
:104E80000D00034A49434E181A2505020001191660
:104E9000181616182303000C0E020B040B0A070841
:104EA000000F303016181920231A1C1E3000393D0F
:104EB0003F373C3C362C442D303017181921301B1D
:104EC0001D1F30020402010101010902E803000074
:104ED00000BE040A000000007F00E8030E000C0A78
:104EE0000303140900080030FF1E1E2805200304D8
:104EF000042D10100401080CC082C083901C99E49A
:104F0000F0A3F07CED7D047AB27B1B12404E124779
:104F10009E122EBA1247980264B074F312243974A8
:104F2000F5122AC289098A088B0A8C0BE9705F7412
:104F3000026508703F790812429A750C00780C12CD
:104F40002A1FE50BF50C780C122A1FE50AF50C78E0
:104F50000C122A1F901BCE122839901ED2E0F97C29
:104F6000367D1D901EF2126F081248887407122AAF
:104F70002E025051740165086003025056790812E0
:104F8000429A7B00AA0AA90A123A9002505174016F
:104F900065096009740265096003025056EA6006FB
:104FA000740365087047790212429A901ED2E0F9A4
:104FB000901BCE122CAD124786E9F9901BDDE0A2C2
:104FC000E34010E9700D901C9DE004F06404700350
:104FD00012507774036508707A901C9EE0F8740193
:104FE00028F0E8C39405406B125077806674016521
:104FF00008706374016509790A702E12429A74016F
:10500000122CDCE4F07402122CDC7403F004122C79
:10501000DCE4F0A3F0A3F0A3F07408122CDCE4F0BD
:10502000AA18AB191231B4804412429A901EC812C9
:1050300028397A007B20901BD2E0F91240067404D4
:10504000122A2E901ED2E0F9901BCE122CAD1248DF
:105050002EE9F9E960179080B31228397A017B00B4
:10506000901BD2E0F91240067404122A2E740B121F
:105070002A2E7F050226B5901BCEE4F0A374F8F02B
:10508000A374FFF0A37407F02274F6122439E9FF29
:10509000EAFE7AD1F9123EC88A828B83E582458383
:1050A000702A7A027B00123EAAEA4B700E7A107BBD
:1050B00000901BD2E0F9123EEC80148A828B83743C
:1050C000D1F0EFA3F0EEF9123EB68003EFA3F002A9
:1050D00052F674F712243989089006FB12641B906B
:1050E0001EB5E0F47003A3E0F4702D9009E5E090A4
:1050F0001EB5F0A3E4F080208E828F83A31261A8F6
:10510000600F8E828F83A3A31261A2FAA9081243B3
:10511000308E828F831251B9EE4F70DC901EB5E055
:10512000F47003A3E0F4600A901EB5E0FAA9081237
:1051300043301232C2901B9C125AEF1232BC7F01D4
:105140000226B574F0122439890B8C0C7508007591
:1051500009007410122CDC12522D7412122CDC1265
:1051600051B9803CA80A12521DF50EA3E0F50FA814
:1051700009125210F583E0650E7004A3E0650F700C
:10518000141251B0EE28F582EF39F583E50EF0A345
:10519000E50FF00508050AE50AC3950C40C60509A8
:1051A000E509C3950B5005750A0080EBA90880112D
:1051B000A808E828F8E433F922126BE1E8FEE9FFD9
:1051C000227F080226B574F4122439890B8C0A75E3
:1051D0000800740C122CDC12522D80020508E50820
:1051E000C3950B502775090080020509E509C39591
:1051F0000A50E9A808125210126419A80912521D87
:105200006E7003A3E06F70E279018002790080285C
:10521000E828F8E433F9EA28F582EB3922E828F89F
:10522000E433F9EC28F582ED39F583E022126BE1E5
:10523000E8FCE9FD22122A2E7F040226B574F6123C
:1052400024391252E07003A3E06D70177508DB7506
:10525000091B7808122A1BEEFA1244687402122AFB
:105260002E801F7508027509807808122A1B8C0889
:105270008D097808122A1B1252CB12448C74041226
:105280002A2E807274F61224391252E07003A3E0C1
:105290006D70177508E875091B7808122A1BEEFA5D
:1052A00012446E7402122A2E801F7508037509803D
:1052B0007808122A1B8C088D097808122A1B1252B2
:1052C000CB12448C7404122A2E802B1252D93FF533
:1052D00083E0FD7C8012655822EE240EF582E422E4
:1052E000EAFEEBFF12656DFCE439FD901B9CE06C5F
:1052F000227402122A2E7F020226B574F612243975
:1053000074FE122AC2EAFEEBFF851882851983E437
:10531000F0A3125A9F12649EFCA3E0FBECFA888271
:105320008983A3A3E0F9750900750800600574FF7F
:10533000697005750882803D901B9CE06A7003A32C
:10534000E06B701AAA18AB1912387AE9F5098518BA
:10535000828519831268DF701C7508838017901D81
:1053600041E06004640170057508818008E0640212
:1053700070037508808518828519831268C8A9088A
:10538000EEFAEFFB124474E5096011851882851965
:10539000831268DF6006126F02123F520252F174EC
:1053A000F2122439EAFEEBFF750800750900126558
:1053B00069F50AE439F50B1232C2EA650A7003EBAB
:1053C000650B701212388CE914F50879017A657B47
:1053D0001C12389280037509801268CEF50C780C87
:1053E000122A1F750C65750D1C780C122A1B780883
:1053F000122A1F780A122A1BE509F5087808122AD2
:105400001F1263341268D1F97A057B8012447A74D2
:105410000702769E74F612243989097508008027E0
:105420008A828B83E0FE127861EE28E439FF125104
:10543000B0EC28F582ED39F583EEF0A3EFF0EA2425
:1054400002FA50010B0508E508C3950940D2025243
:10545000F674E812243974FB122AC28A168B178557
:105460001882851983E4F07403122CDCE4F0A3F0B5
:1054700004122CDCE4F0A3F01258623517125A71B2
:10548000F50B850A82F58312794DFEE439FF850A12
:1054900082850B83A3A3E0FA850A82850B83A3A3ED
:1054A000A3E0F9EAF508E439F509E50A2404F50A68
:1054B0005002050BEEFAEFFB12335EE96401601651
:1054C000EEFAEFFB12335EE9703D901B9CE06E70CC
:1054D00003A3E06F60311266AE122A1FE4F508F5EF
:1054E000097808122A1B7808122A1F901B9C122880
:1054F0003D7508807808122A1F12584912447A74A0
:1055000007122A2E02583F12587C8810602B127402
:10551000EC123F4C7403122CDC125AEF7403122C61
:10552000DC1268DF60137403122CDC125874A910AB
:105530001243608A0A8B0B800375100012587C8816
:105540000F60271274EC123F4C7401122CDC125ABB
:10555000EF7401122CDC1268DF600F7401122CDC76
:10556000125874A90F1243608003750F009006FB58
:10557000805C850A82850B83A3A3A3A3A3A3A3A313
:10558000E4F0A3F0AA0AAB0B851482851583A3A3CC
:10559000E0F81261A2F9123EB6851282851383E00B
:1055A000C0E0851882851983E0F8746528F582E4E7
:1055B000341CF583D0E01268E304F0E511A2E0505A
:1055C00007AA12AB13123F52851482851583E0F5AA
:1055D00014A3E0F515E514451570030257AC8514C6
:1055E00082851583A31261A860DE851482851583E8
:1055F000A3A3A3A3A3A3A3A3E0A2E050CB851482FB
:10560000851583A3A3A3A31268DF85148285158360
:10561000A3A3601F1261A9FA7901851482851583FD
:10562000A3A3A3A31258671249118A128B137511F1
:10563000018010125867A3A3A3E0F512A3E0F513AD
:10564000751100E512451370030255BB8512828562
:105650001383A3E065087004A3E06509600F74FF7D
:105660006508700474FF650960030255BB851282EA
:10567000851383A3A3A3A3A3A3A312283D8512820A
:10568000851383A3A3A3A3A3A3E0FC7405122CDCBE
:10569000126F08A9101243427402122A2EE9703CBC
:1056A000851282851383A3A3A3A3A3A3A3A3A3A368
:1056B00012283D851282851383A3A3A3A3A3A3A3CA
:1056C000A3A3E0FC7403122CDC126F08A90F124391
:1056D000427402122A2EE970030255BBE50F251011
:1056E000C333240AFA7B00123EAA8A0A8B0BEA45CE
:1056F0000B70030255998A828B8374D2126AEE8AE8
:10570000828B83A3A3E8F0A3E91277C7A3E5101265
:105710007955E50FF0E510603CEA2405FAE4350B15
:10572000FBE50A240AF8E4350BF98A828B831260C0
:105730006E7403122CDC12588C122A17AC10EC2C4D
:10574000FCE433FD8A828B83126F08123E86740359
:10575000122A2E800D8A828B83A3A3A3A3A3E4F035
:10576000A3F0E50F7003025572A8101251B2E50ABA
:1057700028F8E50B39F9E8240AFAE439FB850A82AE
:10578000850B83A3A3A3A3A3A3A3A3125AEF74011E
:10579000122CDC12588C122A17AC0FEC2CFCE433C0
:1057A000FD123E867403122A2E02558485188285C6
:1057B0001983E060271266AE122A1F750865750905
:1057C0001C7808122A1B7403122CDC1266B7122AEA
:1057D0001F901B9C12283D7508008029EEFAEFFBF4
:1057E00012335EE9702F1266AE122A1F75086575B6
:1057F000091C7808122A1B7508007808122A1F90C5
:105800001B9C12283D7808122A1F12584912447A0C
:105810007407122A2E7403122CDC1268DF600B74DA
:1058200003122CDC126F08123F527401122CDC128E
:1058300068DF600B7401122CDC126F08123F527487
:1058400005122A2E7F100226B5E5162402FCE43547
:1058500017FDE5161262C83517F583E0F97A067B65
:105860008022EA1264952212586B22E0F8A3E0F538
:10587000838882221268C8AA0AAB0B22850A828515
:105880000B83E0F8A385820A85830B22E0F50CA345
:10589000E0F50D750E00780C2274F112243974F4C1
:1058A000122AC28A088B09ECFEEDFF740B122CDC65
:1058B0007403F0122A9C12404E1232BC8A0A8B0BDF
:1058C000AC0AAD0B7403122A9C124048E9600A121C
:1058D0005A6B6010E06401600B851882851983742F
:1058E00084025A198E828F83A3A3A3A3A3A3A3A385
:1058F000E06013F46010125A6B7016EE24141268F4
:10590000D16003F4700B8518828519837482025A62
:105910001912766FE064217002A3E060030259F06F
:10592000851882851983748C125A9F640360030260
:1059300059DA7401122AA4126053122FE6E96003A7
:105940000259DA1242888A0A8B0BEA450B7003026D
:105950005A1A8E0C8F0D750E00780C122A177C15B2
:105960007D00123E867403122A2E850882850983E3
:10597000A3A3E50A2415FCE4350BFD740912295C88
:105980001272FBC0E0E50A241E125A59D0E0125EE2
:10599000BAC0E0E50A241F125A59D0E0F0E50A2403
:1059A00020125A597405F0EE240BFE50010FFAEF45
:1059B000FB1239107D007C007900EEFAEFFB1244F7
:1059C000329080B31228397A007B10901BD2E0F914
:1059D0001240067404122A2E8078125A61122A1F6D
:1059E000125A79122FC87401122A2EE9702C8014D1
:1059F000125A61122A1F125A79122FCE7401122ADA
:105A00002EE9700D851882851983E4F012425880C2
:105A1000098518828519837488F01272FBF50A785B
:105A20000A122A1F7401122A94880A890B780A1212
:105A30002A1BE508240CF582E43509125A714480CA
:105A4000F50B780A122A1B126404124426740512FC
:105A50002A2E740C122A2E805EF582E4350BF58313
:105A600022EE126060E0F50A780A22125AA464035A
:105A700022F583E0F50AA3E022EE240BFCE43FFDCF
:105A80008E828F83A3A3A3A3A3A3A3A3A3126F4573
:105A90008E828F83A3A3A3A3A3A3A3A3E0F922F0E1
:105AA000125AA422125AA822EE2413F582E43FF5DA
:105AB00083E022EEFAEFFB7F070226B5C082C083A7
:105AC00074F3122AC2851882851983E4F004122C1B
:105AD000DC125AEF7403122CDCAA82AB831248E268
:105AE000AA18AB191248A6740D122A2E0264B0EA45
:105AF000F0A3EBF02274F6122439126488FAA3E0C2
:105B0000F9EAF8901BE3E058F508A3E059F509E538
:105B1000084509601C7808122A1B901B9C12283D1E
:105B20001268CEFD7C001265541244867404122A59
:105B30002E0252F674EA12243974DB122AC28A1435
:105B40008B157512007513001258623515F5831206
:105B500061A9F50EAC18AD197A007B00799C122C66
:105B6000F27A047900124870EAF50C8518828519DA
:105B700083E02AF0F8E50EC3984003025D58E0C3C5
:105B8000950EF509C394044003750903E50975F002
:105B90001AA4FAABF0123F4C8A128B13EA45137029
:105BA00003025D5B750D00AE12AF13850E08025C3B
:105BB000357C087D0079FF125DD7123E92850A82FE
:105BC000850B83A3A3A3A3E0702D850A82850B8395
:105BD0001268DF700C127051F0EE241812705480AD
:105BE00010125DDFF090055FE014C0E0125DBBD0E5
:105BF000E0125E0AE4803490055FE004C0E0125DCC
:105C0000BBD0E0125E02C39403EE4003025CBD12FF
:105C1000605C7402125E0264017003025CCAEE24CE
:105C200015125DE2F0EE2416125DE2F0EE241AFE8B
:105C300050010F050DE50DC395094003025CF5E524
:105C400008C3950C4003025CD3AA087B001247E608
:105C50008A0A8B0B050890054C125DEB12404E85AD
:105C60000A82850B83126BDD125DC9E8F0A3E9128D
:105C70005E1C850A82850B83A3A3A3A3A3A3A3A36E
:105C8000A3A3E0C0E0125DB1D0E0F07401122CDCFF
:105C9000E412781B126BDD7402122CDC12606E743D
:105CA00001122A9C1248B8E964016003025BB174D6
:105CB00004122CDC125DD312404E025BBD125DE07B
:105CC000125E0264036003025C1EEE24151270541F
:105CD000025C24E50CC3950E4005750800801DE5A7
:105CE0000EC3950CF5088014125DDFF0EE241AFE49
:105CF00050010F050DE50DC39509505F740E122A72
:105D0000A4AA087B007987122CF205087418122CBB
:105D1000DC125DEB12404E7410122CDC125DD312BB
:105D2000404EEE2412F8E43FF9740E122CDC126F90
:105D30000888828983EAF0A3EB125E0A7403125E7C
:105D40001C741D122CDCE0C0E0125DB1D0E0126EBC
:105D50007770951270518093750900750A00780A62
:105D6000122A1F7812122A1B7809122A1FE50EF533
:105D7000097809122A1F7405122CDCE0FD7C00E56D
:105D8000141262BF3515FBE5141262C43515F58394
:105D9000E0F91244C27405122A2EE5124513600779
:105DA000AA12AB13123F527425122A2E7F0E02261E
:105DB000B5EE2419F582E43FF58322125DBF22EE91
:105DC0002418F582E43FF58322EE2412F582E43FA5
:105DD000F58322AC82AD83EE240AFAE43FFB22EE87
:105DE0002414F582E43FF583740122126BE18E8264
:105DF0008F83E8F0A3E9F07C607D05EE1262BF3F7F
:105E0000FB22127816A3A3A3E022F0EE12704874CE
:105E100002F0EE2416F582E43FF58322F0EE24171B
:105E2000F582E43FF5837402F0125DBF74FFF02247
:105E300074F612243974F9122AC2125EAF1279D79D
:105E4000123E9EEAF8EBF9ECFAEDFB851882851913
:105E500083122CC5EE2404FE50010F8E828F83E046
:105E6000C0E07404122CDCD0E0126E4EF8740512FF
:105E70002CDC7401F07406122CDC7401F0901BA66B
:105E8000F0901BAF04127833A3126F08901BA71277
:105E90005AEFE8901BB0125EBA901BA5F0AA18AB9F
:105EA00019124780E96003123A2A74070252F38AF2
:105EB000088B09EA126495350922F0127793E022E3
:105EC00074F212243974FF122AC27508007E007F12
:105ED000001231E48A0A8B0B1231E48A0C8B0DA874
:105EE0000CA90D80050508126BD7E84970F7901DC5
:105EF00041E0600764016003025FCB1231E48A0C69
:105F00008B0DA80CA90D8003126BD7E84960368869
:105F1000828983126F0890054CE06A7003A3E06BDE
:105F2000600D12606739F583126F08EA4B70D988EB
:105F3000828983126BDD90054CE0687003A3E069F1
:105F40007003025FCB7A167B00123F4C8A0C8B0DDC
:105F5000AE0CAF0DEE4F607390054C126BDD8E8270
:105F60008F8312606E900541E08E828F83A3A3F031
:105F7000123346E98E828F83A3A3A3A3A3F0901EBE
:105F8000D312780AF07C607D0512605312404EAA4D
:105F900018AB19794112467E851882851983E06015
:105FA00008901B9C126BDD800478FE79FF8E828F37
:105FB00083A3A3A3A3A3A3A312606E12605BE50A4D
:105FC000F0A3E50BF08E0A8F0B0508901BB0E0F8EC
:105FD000E508C398500479008027E508C398F9C301
:105FE0009406400279057800800DE50A1260683554
:105FF0000B125A71F50B08901BB0E0FAE8C39A40F7
:10600000E97509007809122A1F780A122A1BE9F596
:10601000097809122A1F901BB0E0F5097809122AA5
:106020001FAD087C007AA77B1B901BA5E0F91244EA
:10603000BC7405122A2E901D41E060046401700BAF
:10604000EE4F6007EEFAEFFB123F52123A2A74014C
:1060500002769EEE240BFAE43FFB22EE12606022F1
:106060001260683FF58322E82414F582E422E8F008
:10607000A3E9F02274F012243974FF122AC28A0AAA
:106080008B0B7E008E0E8E0F125862125A5C1261BC
:10609000A9FFAC18AD197A007B00799D122CF2850E
:1060A0001882851983E0F8EFC398400302614DE040
:1060B000C39FFEC3940B40027E0AEE75F007A4FA5C
:1060C000ABF0123F4C8A088B098A0E8B0FEA450F02
:1060D0006079750C00801A850882850983A3A3A3C3
:1060E000A3A37403F0E5082407F508500205090589
:1060F0000CE50CC39E5056AC08AD09E50C2FFAE434
:106100003400FB798B122CF2850882850983A3A3C6
:10611000A3A3A3E014600814601314601F80B88563
:106120000882850983A3A3A3A3A3E480B78508827B
:10613000850983A3A3A3A3A3740180A885088285EE
:106140000983A3A3A3A3A3740280997E007508000A
:106150007808122A1F780E122A1BEEF5087808120A
:106160002A1FEFF5087808122A1F7405122CDCE0AC
:10617000FD7C00E50A1262BF350BFBE50A1262C422
:10618000125A5CE0F91244C87405122A2EE50E4535
:106190000F6007AA0EAB0F123F527401122A2E0293
:1061A00051C1A3E0F5838882A312586BE02274EEFC
:1061B00012243974FE122AC28A0C8B0D75100075D8
:1061C0001100125862350DF5831261A9F50AAC1859
:1061D000AD197A007B0079A3122FD4126F02C3E5A8
:1061E0000A9AE49B5076851882851983A80AE0C331
:1061F00098FEA3E09400FFC3EE9404EF94004006E1
:106200007E037F008004EE4F6052EEFAEFFBEA75EA
:10621000F015A4FAA8F075F015EBA428FB123F4C7A
:106220008A088B098A108B11EA4511602F750B00C3
:10623000750E00C3E50E9EE49F5026AC08AD09A87C
:106240000AE50E28FAE43400FB79A2122FD4E508FF
:106250002415F50850020509050E80D7750B8B7EB5
:10626000007508007808122A1F7810122A1BEEF514
:10627000087808122A1FE50AF5087808122A1F7400
:1062800005122CDCE0FDAC0BE50C1262BF350DFBFA
:10629000E50C1262C4350DF583E0F91244CE7405A5
:1062A000122A2EE51045116007AA10AB11123F52B9
:1062B0007402122A2E7F0A0226B5FCEFFDE508249F
:1062C00002FAE4221262C822240FF582E42274F654
:1062D00012243974FF122AC2EAFEEBFFEE12586351
:1062E0003F1276C3A3A3A3A3A3A3A3A3E0F91248D9
:1062F0003AE9851882851983F07508007808122A12
:106300001F7401122A94880889097808122A1B75BB
:1063100008357509807808122A1B12632A12442650
:106320007405122A2E74010252F37901126334FAB1
:10633000E43FFB22EE2402FCE43FFDEE240F227436
:10634000F412243974FA122AC2125EAF126419EEE2
:10635000FAEFFB1248DCE960171232BC8A0A8B0B99
:10636000AC0AAD0BEEFAEFFB124048E96401700A8B
:106370007401122CDCE4F0A380097401122CDCEE11
:10638000F0A3EF12784FA3A3A3A3A3E0F8A2E650D3
:10639000087403122CDC7401F0E8A2E750087404BE
:1063A000122CDC7401F07405122CDCE4F004122AC7
:1063B0009C122CE6E9851882851983F09080B7122B
:1063C0002CAD1232E07A007B001232EC7A007B00B6
:1063D0001232E6750A00780A122A1F7401122A94F2
:1063E000880A890B780A122A1B750A34750B807883
:1063F0000A122A1B1264041244267405122A2E74EF
:10640000060252357901E5082402FCE43509FDE570
:1064100008240FFAE43509FB22F5831276CDFF221A
:1064200074F612243974FF122AC2126488F509A383
:10643000E0F508A90912485EE9851882851983F0FC
:10644000901D41E0700B740165087005A9091245A3
:1064500088EE240B1268D1702C7508007808122A77
:106460001F7401122A94880889097808122A1B755A
:1064700008367509807808122A1B12632A124426EE
:106480007405122A2E026325EAFEEBFF1264943F84
:1064900012649B22EE2413F582E422F583E0126558
:1064A0007DE022C082C083901D41E0700312458EC2
:1064B000D083D0820229E074F412243974EF122AB6
:1064C000C2EAFEEBFF126569F508E439F509901B95
:1064D0009CE065087004A3E065097052A818A9192A
:1064E000880A890B780A122A1B750A11750B007825
:1064F0000A122A1B7C007D007A817B00123FD67431
:1065000004122A2EE97027750A00780A122A1F74CD
:1065100001122A94880A890B780A122A1BAC08AD4A
:10652000091265541244807403122A2E8021750AC0
:1065300011750B80780A122A1B7808122A1B126820
:10654000CEFD7C8412655412448C7404122A2E747D
:106550001102523512655822EE2402FAE43FFBEE96
:106560001262C83FF583E0F92212656D22125AA823
:1065700012657D12777EF8E4C8F9EA2822F8A3E0D4
:10658000F9888289832274F112243974EB122AC2A9
:10659000126488FCA3E0FAE4CAFBEC2AF508E43BA9
:1065A000F509901B9CE065087004A3E06509600391
:1065B00002665588828983A3A3E09410500F8882D5
:1065C0008983A3A3E08518828519838008851882B2
:1065D0008519837410F0E0C0E07404122CDCD0E064
:1065E0001276AFA3A3A982AA83890C8A0D750E0027
:1065F000780C122A177407122CDCE0FC7D0074085A
:10660000122CDCAA82AB83123E867403122A2E74EB
:1066100004122A94880A890B780A122A1B750A1117
:10662000750B00780A122A1B7C007D007A817B00A2
:10663000123FD07404122A2E7404122CDCE0901B3A
:10664000DB6005E0D2E48003E0C2E4F085188285D7
:106650001983E480088518828519837484F0E0C06A
:10666000E07401122CDCD0E0F07402122CDCE5089E
:10667000F07403122CDCE508F01252D93F1266B513
:10668000122A1F7402122A94880889097808122A8B
:106690001B7508147509807808122A1B7903126388
:1066A0002C1244267405122A2E7415025A54E5162B
:1066B0001252DA3517F583E0F50878082274F612DD
:1066C000243974E0122AC2EAFEEBFF90054EE06422
:1066D000086008E0640460030268C3AC18AD1912D6
:1066E000440E901D41E06402702F1232BC740212FD
:1066F0002CDCAC82AD83124048E9601D1232C28AA4
:10670000088B09A808A909851882851983E0687093
:1067100003A3E06970030268C31234907402122C60
:10672000DCAC82AD83126F0212338EE96401700318
