:020000040000FA
:100000000212FF022003FFFFFFFFFF02200BFFFF92
:10001000FFFFFF020E61FFFFFFFFFF02201BFFFF3C
:10002000FFFFFF022023FFFFFFFFFF02202BFFFF48
:10003000FFFFFF022033FFFFFFFFFF020EA4FFFFC1
:10004000FFFFFF022043FFFFFFFFFF02204BFFFFE8
:10005000FFFFFF022053FFFFFFFFFF02205BFFFFB8
:10006000FFFFFF022063FFFFFFFFFF02206BFFFF88
:10007000FFFFFF022073FFFFFFFFFF02207BFFFF58
:10008000FFFFFF022083FFFFFFFFFF02208BFFFF28
:10009000FFFF70DFFFFF040000000002000000C847
:1000A0000300030369A5020269A501000000000026
:1000B00004003273000074F8121046900393E0605D
:1000C0001590030274FEF0900304744DF0A37405C0
:1000D000F07A011206857F0102116374F71210464F
:1000E00074FF12126B7E00801F851882851983E0D1
:1000F00064FE70069003877401F085188285198369
:10010000E0F8900384E068F07C017D00AA18AB1948
:10011000120E1C8B09EA450970030201F38518824F
:10012000851983E064EF70027E07E0C0E0900387EA
:10013000E0FA900385E0F8EA28F8E43400F9740264
:1001400028F582740339F583D0E0F0900387E060EE
:100150009814600E14602C14603C14605214606893
:100160008098900384E4F0851882851983E09003D9
:1001700086F0C394809003874004E40200F974027F
:100180000200F9851882851983E0900382F09003BC
:100190008774030200F9851882851983E090038330
:1001A000F0900386E0601990038774040200F990D0
:1001B0000385E004F0F8900386E06860030200FA2B
:1001C00090038774050200F9900385E4F09003879B
:1001D000F0900384E0F8851882851983E068600355
:1001E0000200FA900382E0644D60030200FA1203F9
:1001F000288002EEF974011212377F020211637433
:10020000F712104674FB12126BEAFEEBFF7508043E
:1002100075090078081212CF74021212E87A907BE6
:10022000007904120EC574021212371206771213E7
:1002300039E0687003A3E06970128518828519831C
:10024000E0F47003A3E0F4600302030874041212E4
:10025000E01206DD8A088B09A808A90974021213A6
:1002600039E8F0A3E9F07404121339E06008790169
:100270001200B6020321851882851983E068700395
:10028000A3E0697076851882851983E0F47003A372
:10029000E0F4701974021213397410F0A37420F092
:1002A0008518828519837410F0A37420F0750801F5
:1002B00075090078081212CF74021212E87A247BB2
:1002C00008120F49740212123775080478081212C6
:1002D000CF74021212E87A907B007904120EC57472
:1002E00002121237120677121339E0687003A3E086
:1002F000697004790280067904800279031200B6DD
:100300008E828F83741E80058E828F83E4F01206A6
:1003100077121339E0687003A3E0697004790180F3
:1003200002790074050201F774ED12104674F81298
:10033000126B900307E0FD900306E0FCFAEDF8E491
:10034000C8F9EA28FEE93408FF751001750B00753D
:100350000A068E088F0974027808121296C395084F
:10036000F8E49509F9740228F50E740339F50F8E37
:10037000088F09740978081212F0E508F511EE24C7
:1003800010F508E43FF509EEF50CEF5401F50D907A
:100390000383E014605914700302046414700302B0
:1003A00004DF14601024FE700302059A1470030227
:1003B000064A02065A750A03794E120C5B9003072F
:1003C00012066D7402F0A3744012066B74081206D4
:1003D0006BF0A3F07418C3940704F510AA10A90BCE
:1003E000120685A90A74081212377F0C0211637570
:1003F0000A04794E120C5BEE450D7005A911120F1F
:10040000AFC3EE9425EF9408503CC3E5089424E56F
:100410000994084031E50E2496F8E50F3420F98858
:10042000828983E0701BA3AA82AB83E070139003E0
:10043000887401F08882898374A5F08A828B838016
:1004400004900388E4F0750810750900780812120A
:10045000CF7C087D03EEFAEFFB120F4974021212F3
:10046000370203DC750A05E511C394794006750B64
:10047000010203DC75124075130078121212CF7C52
:10048000097D037402780C121296AA0CAB0DA91107
:10049000120EC57402121237900307E0A3F0900306
:1004A00006E0A3F0751043C3EE9425EF94084003D3
:1004B0000203DCC3E5089424E50994085003020311
:1004C000DC900388E070030203DCE50E2497F8E576
:1004D0000F3420F988828983E4F0A3F00203DC75ED
:1004E000080475090078081212CF74021212E87A13
:1004F000907B007904120EC5740212123774021236
:100500001339E0F8A3E0F9851882851983E0687053
:1005100003A3E069851882851983700BE0F47003EA
:10052000A3E0F470578009E0F47003A3E0F4700DC9
:100530008518828519837410F0A37420F012067751
:10054000121339E8F0A3E9F075080178081212CF08
:1005500074021212E87A247B08120F4974021212F4
:100560003775080478081212CF74021212E87A90D4
:100570007B007904120EC57402121237120677122C
:100580001339E0687003A3E0697006750A0102037D
:10059000DC750A02750B070203DC900391E060072B
:1005A000640260030203DCEDFF7A01790012068524
:1005B000E0600302063E8003120D1C120D26E97056
:1005C000F7740412133912065F7404121339780891
:1005D00012131D85080C85090D850A0E850B0F90D9
:1005E00005A2780C1212BC7404121339780C121381
:1005F0000EE5084509450A450B70CE8EC2E5C55487
:10060000E04FF5C5740412133912065F7404121317
:1006100039780812131D85080C85090D850A0E8589
:100620000B0F9005A2780C1212BC740412133978C7
:100630000C12130EE5084509450A450B70CE7A01E8
:10064000790012068579080203E5EC900393F070B7
:10065000030203DC750A090203DC79060203E5E400
:10066000F0A37426F0A3E4F0A3F022F0A3E4F0A337
:10067000F0A3F0A3F0A322851882851983E0F8A3E4
:10068000E0F974022274F8121046EAFE900305E0C5
:10069000D2E7F0E9A3F0EE900303F08E0874042A89
:1006A000FE7C028004E062080CECFA3395E0FB74F7
:1006B000022AF58274033BF583EEF8C3EA98EB94C3
:1006C00000A2D265D03340DDE508F074012A0C3376
:1006D00095E0FD7A027B03120E4C0200D674E912FB
:1006E00010467582007583FE1211FE8A168B1775EF
:1006F00014007515008A828B83E4F0900391E070FA
:1007000006D2AAD2AF80046402700579001200B646
:10071000750C00750D20750E00750F00900391E0AB
:10072000600464027015120D1C1200DBE9F87409F4
:1007300068600302080D79001200B675080075099B
:100740000278081212CF74021212E8850C08850D87
:1007500009AA08E5095407FB850E0A850F0B740BDF
:100760007808121252A908120EC574021212377EAE
:10077000007F009005AAC0828E10EFF5113395E03E
:10078000F512F513850C08850D09850E0A850F0BEA
:10079000780879101212A99005A678081212BC7573
:1007A0008305D08278081211DF501D8518828519C3
:1007B00083E5822EF582E5833FF583E0F9AA14AB49
:1007C0001512083C8A148B150EEE70010FC3EF94BE
:1007D0000240A09005AE780C1212BC9005B2780CC5
:1007E0001211DF400302071C7900AA14AB1512088E
:1007F0003C790012083C8B15900391E07004C2AF65
:10080000C2AAEA451570277AA57BA58021E8700366
:1008100002073B740668700302073B7407687003A5
:1008200002073B8516828517837401F080BA7582B2
:10083000007583021211FE7F10021163C008C00907
:100840007C088A088B09740F78081212F0E508F802
:10085000EA25E0FAEB33FBE9A2E7500474014AFA17
:10086000E8A2E0500874216AFA74106BFBE9C33304
:10087000F91CEC70CDD009D0082274F8121046781B
:10088000007900802274942EF582E43403F583E02D
:100890008A828B83F09004141209FA4005900414A4
:1008A000E4F008E8700109900414E0FEA3E06E6033
:1008B00007C3E89CE99D40CDE8FAE9FB7F010211FE
:1008C0006374F7121046900498E0F509A3E0F50868
:1008D000F8E509C398F895E0F9E508C39509E850EB
:1008E0000B120ADC701178007900801B247F500104
:1008F00009C39CE99D50EF7A007B008041E004F041
:10090000D2E908E8700109C3E89CE99D502C8A826D
:100910008B83E0C0E0900499E0FE74182EF582E429
:100920003404F583D0E0120ACC90049AE4F09004E9
:1009300099E0C3947F40C6E480C5E8FAE9FB7F02F2
:10094000021163C082C083C2E9900498E0F8A3E07A
:10095000686017741828F582E43404F583E0F5C163
:10096000900498120AF34002E4F0020D3A74F8126F
:1009700010467800790090051DE07055A3E0705195
:1009800075F900C28FC284A28340FCA28F4004A2EA
:100990008350F8AEF9C28FA2835004D2848032EE25
:1009A000C0E0E0FE1209EFD0E0F090051E120AF35D
:1009B00040D9E4F080D51209EFE08A828B83F09071
:1009C000051D1209FA400590051DE4F008E87001C4
:1009D0000990051DE0FEA3E06E6007C3E89CE99D59
:1009E00040D4E8497006E4F090051DF00208B874A0
:1009F0009D2EF582E43404F58322E004120AD0C36C
:100A000094802274F81210469005A0E0FEF890053C
:100A10009FE0FFEEC39FE0500DC398F895E0F912F8
:100A20000ADB70188012C398F895E0F9E8247F502B
:100A30000109C39CE99D4004EC4D70077A007B00DE
:100A4000020AC98A828B83E0F5F9A3AA82AB837874
:100A50000179008008E004F008E8700109C3E89C0F
:100A6000E99D50278A828B83E0C0E09005A0E0FEDC
:100A7000741F2EF582E43405F583D0E0120ACC9081
:100A800005A0E0C3947F40CDE480CCC28FA2834018
:100A9000FCC284A28F4004A28350F890059F120AE2
:100AA000E6E0F5F9C28F90059FE0FAA3E06A9005B1
:100AB0009F7005120AE68005120AF34002E4F0A2D4
:100AC0008350D0D284E8FAE9FB0208BC120AD02293
:100AD000F08A828B83A3AA82AB8322E824FF18E9E1
:100AE00034FFF9E84922E0FA741F2AF582E434055C
:100AF000F58322E004F0C394802274FB12126B7E13
:100B0000009005CA780812131D9005CA7401F0A35D
:100B1000F0A37469F0A374A5F09005B678081212DA
:100B20008170047E0180159005BA780812128160E8
:100B300008E59D541864107003022000120C81EE29
:100B4000A2E05003020BFEAA18AB191201FFE970D4
:100B500003020BFE851882851983E0C3943C500C78
:100B6000E0F8743CC398FA95E0FB80047A007B00BF
:100B7000120D3FE97003020BFE900391E0640170D7
:100B80000C75F800C2AB539AF7D2EA805E7907126F
:100B900000B68003120D1C120D26E970F7740112C5
:100BA0001339E4F0A37426F0A3E4F0A3F074011267
:100BB0001339780812131D85080C85090D850A0E56
:100BC000850B0F9005A2780C1212BC740112133918
:100BD000780C12130EE5084509450A450B70CE75D1
:100BE0008600C2AAC28B539AFBC2E990000174CD61
:100BF000F0022000C2AF75C9AB75C95B80FE7508F5
:100C000000750900750A00750B00900391E0701BD8
:100C1000D2AAD2AF79051200B6E07003120D1C12F1
:100C200000DBE9F8740968700980E9794E120C5B01
:100C300080ED74016870E2E07017120D1C9005BE23
:100C400078081212BC9005C278081211DF50EBC26E
:100C5000AAC2AF75C9AB75C95B80FEC082C083787C
:100C6000109005A1E0C399501575B60FE5B4A2E741
:100C700050FAE5BBC39940F118E870EDE9F0020DB8
:100C80003AC082C08353BEFBE59DA2E650FA0078CD
:100C9000F8790100120ADB70FA75C6807480659ECF
:100CA00070FA43BE049062707408F0794A120C5BCB
:100CB00090000174F5F07403F5D575D489A2A0E411
:100CC00033900391F0A2E05029D28453F3F753F309
:100CD000EF53FDF743FD10538FF753F7DF43FC202D
:100CE00043F10253F5DF75F82043F4F0D2FED2ABA6
:100CF000802853FF3F85FFFF53F1FE43F30C53F26F
:100D0000F375868075C48090049BE4F0A3F075C2EF
:100D1000D875C50B75C402438640801E8003120936
:100D200043A2E940F922C082C083900498E0F8A36E
:100D3000E0686004790180027900D083D082227457
:100D4000F112104674FF12126B7E00900391E06462
:100D500001706CC2849003927401F07508388E099A
:100D60008E0A8E0B7C017D00AA18AB19120E1C8B0B
:100D70000DEA450D6018851882851983E0641060BE
:100D80002DE064EF70088E088E098E0A8E0B8508A0
:100D90000C85090D850A0E850B0F9005A2780812A7
:100DA00012BCE50C450D450E450F70347E019003D5
:100DB00091E064017056D284900392E4F08051D2A5
:100DC000AAD2AF8A088B09E4F50AF50B9005C6781C
:100DD0000C12131D7808790C120FC679061200B692
:100DE000900391E06003020D64120D1C1200DBE918
:100DF000F8740968700779061200B6809174076864
:100E00006084E8608974066870A48082C2AFC2AA58
:100E1000EEF974011212377F08021163C082C08399
:100E2000900391E0700512087A801E900392E060B2
:100E300015A28F500BE5F98A828B83F07A0180022C
:100E40007A007B00800312096D020D3AC082C083D4
:100E5000900391E070051208C18003120A03020D8D
:100E60003AC0E074F21210AC900001E064CD70055D
:100E7000122013802AE064F57024E5C1C28BC0E023
:100E8000900415E0F8749428F582E43403F583D0D7
:100E9000E0F0900415120AF34005E4F08001007FB1
:100EA0000102110BC0E074F21210AC900001E0647A
:100EB000CD700512203B800BE064F57005120943EC
:100EC00080010080DA74F6121046890A740F550A00
:100ED000F508750900740B7808121296EA2400F8D8
:100EE000EB3480F9E82400E93509F985C709A2AF98
:100EF000E433F508C2AFE50AC4540FFAE5C754F865
:100F00004AF5C7740A121339E0FAA3E0FB801C8883
:100F1000828983E08C828D83F088828983A3A88272
:100F2000A9838C828D83A3AC82AD83EAFEEBFFEEB6
:100F300024FF1AEF34FFFBEE4F70D48509C7E50894
:100F4000A2E092AF7F0302116374F7121046ED9096
:100F50000389F0ECA3F0A37462F0A37473F0A3E030
:100F6000541FF07409121339E0F508A3E0F509E500
:100F700008333354FC90038EF0740678081212F094
:100F8000E50890038DF090038F7412F0A37442F083
:100F900075D1FE75D601EA906271F0EBA3F0906214
:100FA00070E0D2E1F0E0A2E740FB7F02021163C0F3
:100FB00082C083E9C333906272F0906270E0D2E045
:100FC000F0D083D08222080808EAC0E0EBC0E086B7
:100FD000F0E7A4FA180986F0E7A42AFA180986F0BF
:100FE000E7A42AFA180986F0E7A42AFA1986F0E796
:100FF000A4FBE5F02AFA190886F0E7A42BFBE5F03C
:101000003AFA190886F0E7A42BFBE5F03AFA18182B
:101010000986F0E7A4C5F02BFBE43AFA1908E7C506
:10102000F0C6A426F6E5F03BFBE43AFA1886F0E7B2
:10103000A4F6E5F00826F6E43B08F6E43A08F6D014
:10104000E0FBD0E0FA222518C582C0E0E51934FFA4
:10105000C583C0E0E518C3958224F910AF088583E5
:10106000198582188008858319858218D2AFCEF041
:10107000A3E520F0A37808E608F0A3DEFAEFF0A3DA
:10108000E58124FBF8E608F0A3E608F0A30808E6EB
:1010900008F0A3E608F0A315811581D0E0FED0E0AA
:1010A000F815811581E8C0E0EEC0E022C0D0251817
:1010B000C582C0E0E51934FFC583C0E0E518C395DB
:1010C0008224F310AF0885831985821880088583F0
:1010D00019858218D2AFC8F0A3E9F0A3EAF0A3EB18
:1010E000F0A37908E709F0A3D8FAECF0A3EDF0A398
:1010F000EEF0A3EFF0A3D0E0F0A3D0E0F0A3D0E0B7
:10110000F0A3E520F0A3E5F0F0A32285198385186C
:1011100082E0C0E0A3E0F9A3E0FAA3E0FBA3780833
:10112000E0F608A3DFFAE0FCA3E0FDA3E0FEA3E005
:10113000FFA3E0C0E0A3E0C0E0A3E0F5D0A3E0F5AA
:1011400020A3E0A3F5F010AF0885831985821880ED
:1011500008858319858218D2AFD082D083D0E0F879
:10116000D0E032851983851882E0A3FEE0A3F52044
:101170007808E0A3F608DFFAE0A3FFE0A3C0E0E010
:10118000A3C0E0E0A3C0E0E0A3C0E010AF08858208
:10119000188583198008858218858319D2AFD0837A
:1011A000D08222E490030278A179038002F0A3D8D0
:1011B000FCD9FA7AA27B0590008E782979018015F6
:1011C000E493A3AD82AE838A828B83F0A3AA82AB21
:1011D000838D828E83D8E9D9E7120AFA121343C0AD
:1011E00008C3E096F50808A3E096420808A3E09635
:1011F000420808A3E09645087001D3D00822C582B2
:101200002518C582C583351910AF07F519858218D1
:101210008007F519858218D2AFC583222518F5827B
:1012200010AF08F518400C15198008F51840021584
:1012300019D2AF8519832200C0D0251810AF08F548
:1012400018500C05198008F51850020519D2AFD0B6
:10125000D0226016080808C6C313C618C613C618DD
:10126000C613C618C613C6D5E0EA22251810AF0863
:10127000F518400C15198008F51840021519D2AF61
:1012800022E066701008A3E066700A08A3E06670AA
:101290000408A3E06622700422600D18C6C333C69A
:1012A00008C633C6D5E0F41822E627F60809E63763
:1012B000F60809E637F60809E637F622E026F608CA
:1012C000A3E036F608A3E036F608A3E036F622746B
:1012D000028000C0E0F40412121CD0E012132C2291
:1012E0002518FAE43519FB222518FCE43519FD22EE
:1012F000600C08C6C313C618C613C6D5E0F4227521
:10130000D00075813F7518027519030211A3E6F02C
:1013100008A3E6F008A3E6F008A3E6F022E0F6084A
:10132000A3E0F608A3E0F608A3E0F622CAC0E0E6D0
:10133000F0A308DAFAD0E0FA222518F582E435198C
:10134000F5832200000080FBFFFFFFFFFFFFFFFF90
:10135000FFFFFFFFFFFFFFFFFFFFFFFFFFFFFFFF9D
:10136000FFFFFFFFFFFFFFFFFFFFFFFFFFFFFFFF8D
:10137000FFFFFFFFFFFFFFFFFFFFFFFFFFFFFFFF7D
:10138000FFFFFFFFFFFFFFFFFFFFFFFFFFFFFFFF6D
:0A1FF600CA05094338860000000008
:020000040003F7
:01FFF000F020
:020000040000FA
:10200000022C0D0221F7FFFFFFFFFFFFFFFFFFFF85
:10201000FFFFFFFFFFFFFFFFFFFFFFFFFFFFFFFFD0
:10202000FFFFFFFFFFFFFFFFFFFFFF022A07FFFF8A
:10203000FFFFFFFFFFFFFFFFFFFFFFFFFFFFFFFFB0
:10204000FFFFFF022741FFFFFFFFFFFFFFFFFFFF33
:10205000FFFFFF022137FFFFFFFFFFFFFFFFFFFF33
:10206000FFFFFFFFFFFFFFFFFFFFFF0228B6FFFF9D
:10207000FFFFFFFFFFFFFFFFFFFFFFFFFFFFFFFF70
:10208000FFFFFF02218BFFFFFFFFFFFFFFFFFFFFAF
:10209000102010200196511800020000203000008E
:1020A0000000BA2F9E30F02F68300000E42F0000AF
:1020B0000000000000000000000000000000000020
:1020C00000000000000006FFFFFF010104000919E5
:1020D000000000E8030000FFFF841903E80300008C
:1020E00064006400B801A0BB0D00A0BB0D0002029B
:1020F000000800000502070401051E02051E020A71
:102100000A01080803B80B02803E0102FEFFE80343
:102110000A050001FFFF0A1401E0010105030101A6
:10212000FF0F10FEFF354C00000000A74A00000022
:1021300000FF000000FF00C0E074F212250AA2AF09
:10214000E433F508D2AFAFA7AEA1EE5F541060063E
:10215000122D5075A1EFEE5F54086008122D5675D0
:10216000A1F78023EEA2E092F0EFA2E082F05017F8
:10217000906198E0F8900926E0C398A2D265D03328
:102180005002E8F075A1FEE5088063C0E074F21229
:10219000250AA2AFE433FED2AF9061A4E0F8759BAC
:1021A00000E59158540860087591F7122D9E802320
:1021B000E59158541060087591EF122DA48014E534
:1021C00091A2E092F0E8A2E082F05007E0C2E0F0D5
:1021D000122EEE9061A3E0F8E5E9585404600E1267
:1021E0002EC475E9FB906193E0A2E640F2EEA2E016
:1021F00092AF7F01022569C0E074F212250AA2AFF6
:10220000E433FED2AF9061A5E0F8E5BF5854046016
:102210000675BFFB122F0680D4C3E498F8E499F941
:1022200012225A8026C3E49AFAE49BFBE920E7E9EC
:1022300012225AE498F8E499F922C3E498F8E49950
:10224000F912225AE498F8E499F9C3E49AFAE49B63
:10225000FB22EB20E7CFE920E7E0B90010BB000844
:10226000E88AF084F8AAF022E4FBC8FA22EB702294
:102270007B10C833C8C933C9335007C39AC3DBF2D4
:1022800080069A50012ADBEAC833F4C8C933F4C97E
:10229000FA2275F008E4C833C8C933C933C99AC9EA
:1022A0009B5004C92AC93BD5F0ECFBC833F4C8E401
:1022B000C9FA2274F51224A474FA122A807508044B
:1022C00075090078081229DA7404122A4A7AF87B10
:1022D0000779031239DA740212299C9080BA7808BF
:1022E000122C1D7402122C9E7808122A96704875C2
:1022F000080275090078081229DA7402122A4A7A4B
:10230000F67B0779031239DA740212299C85188248
:10231000851983E0F47003A3E0F4601B85188285BF
:102320001983E0F8A3E08882F5837402F0A3F0A398
:102330007469F0A374A5F0C2AF75D69F0200007453
:102340000612299C7F04022784080808EAC0E0EBF3
:10235000C0E086F0E7A4FA180986F0E7A42AFA1884
:102360000986F0E7A42AFA180986F0E7A42AFA19E0
:1023700086F0E7A4FBE5F02AFA190886F0E7A42B1B
:10238000FBE5F03AFA190886F0E7A42BFBE5F03AF2
:10239000FA18180986F0E7A4C5F02BFBE43AFA19FD
:1023A00008E7C5F0C6A426F6E5F03BFBE43AFA18C8
:1023B00086F0E7A4F6E5F00826F6E43B08F6E43AF2
:1023C00008F6D0E0FBD0E0FA22E4CFC0E0E4CEC0D3
:1023D000E0E4CDC0E0E4CCC0E075F020E626F608ED
:1023E000E633F608E633F608E633F6181818EC3349
:1023F000FCED33FDEE33FEEF33FFC3EC9709ED97B1
:1024000009EE9709EF97191919400FFFEC97FC098E
:10241000ED97FD09EE97FE191906D5F0BFECF70907
:10242000EDF709EEF709EFF7191919D0E0FCD0E044
:10243000FDD0E0FED0E0FF222518C582C0E0E519FE
:1024400034FFC583C0E0E518C3958224F810AF08B7
:102450008583198582188008858319858218D2AFF3
:10246000CEF0A3E520F0A37808E608F0A3DEFAEFAB
:10247000F0A3E58124FAF8E608F0A3E608F0A3E665
:1024800008F0A30808E608F0A3E608F0A3158115F4
:1024900081D0E0FED0E0F8158115811581E8C0E01B
:1024A000EEC0E0222518C582C0E0E51934FFC583DF
:1024B000C0E0E518C3958224F910AF08858319851B
:1024C00082188008858319858218D2AFCEF0A3E5E3
:1024D00020F0A37808E608F0A3DEFAEFF0A3E58188
:1024E00024FBF8E608F0A3E608F0A30808E608F0E5
:1024F000A3E608F0A315811581D0E0FED0E0F81521
:10250000811581E8C0E0EEC0E022C0D02518C58268
:10251000C0E0E51934FFC583C0E0E518C395822407
:10252000F310AF0885831985821880088583198583
:102530008218D2AFC8F0A3E9F0A3EAF0A3EBF0A3AE
:102540007908E709F0A3D8FAECF0A3EDF0A3EEF0D8
:10255000A3EFF0A3D0E0F0A3D0E0F0A3D0E0F0A38D
:10256000E520F0A3E5F0F0A322851983851882E029
:10257000C0E0A3E0F9A3E0FAA3E0FBA37808E0F64B
:1025800008A3DFFAE0FCA3E0FDA3E0FEA3E0FFA3C5
:10259000E0C0E0A3E0C0E0A3E0F5D0A3E0F520A315
:1025A000E0A3F5F010AF08858319858218800885AF
:1025B0008319858218D2AFD082D083D0E0F8D0E0E2
:1025C00032122C93B90003022600E49004D17892D1
:1025D00079198002F0A3D8FCD9FA7A627B1D902089
:1025E0009478A479018015E493A3AD82AE838A82A6
:1025F0008B83F0A3AA82AB838D828E83D8E9D9E73F
:102600007582157583A3740612297E7582A475835D
:1026100048740012297EE47375F0108E1A8F1B85A2
:10262000821F85831E851882851983E0CEA3E0CFA3
:10263000851F82851E83EBC9EAC8EDCBECCAC3E8CF
:1026400033C8E933C9EA33CAEB33CBC3EA9EF51D7D
:10265000EB9FF51CB35004AB1CAA1DEC33CCED333F
:10266000CDD5F0DAAE1AAF1B22D083D082ECC0E019
:10267000EDC0E0E493A3FCE493A3FDED4C600D12E8
:1026800027C4EC24FFFCED34FFFD80EFE493A3FCB2
:10269000E493A3FDED4C600D122861EC24FFFCEDEA
:1026A00034FFFD80EFD0E0FDD0E0FCE493A3C0E078
:1026B000E493C0E022851983851882E0A3FEE0A39D
:1026C000F5207808E0A3F608DFFAE0A3FFE0A3C056
:1026D000E0E0A3C0E0E0A3C0E0E0A3C0E0E0A3C06E
:1026E000E010AF08858218858319800885821885D7
:1026F0008319D2AFD083D082022984D083D082E9DB
:10270000C0E0E493A3C386F0C5F095F0F908E49324
:10271000A386F0C5F095F0700BE493A3C399400530
:10272000E9048002A3E475F002A42582F582E5F0B5
:102730003583F583D0E0F9E493A3C0E0E493C0E0EF
:1027400022C0E074F212250AA2AFE433FED2AFC277
:10275000C0901A31E0700BE5D1A2E4501D122CC0DC
:102760008018E5D1A2E3500675D1F71247BAE5D13A
:10277000A2E4500675D1EF1247AEEEA2E092AF7F11
:1027800001022569851983851882E0A3FEE0A3F57F
:10279000207808E0A3F608DFFAE0A3FFE0A3C0E09A
:1027A000E0A3C0E0E0A3C0E0E0A3C0E010AF088574
:1027B00082188583198008858218858319D2AFD045
:1027C00083D08222C0E0C3E49396087401939618E4
:1027D000400FE493667008087401936618700070E7
:1027E00019A3A3C3E49396087401939618A3A34076
:1027F0000DD0E0D0E0D0E00226A5A3A3A3A3A3A31D
:10280000D0E0227404800474028000CCC0E0EDC0EB
:10281000E0E518C39CCCAD1950011D10AF068C1813
:102820008D1980068C188D19D2AF122900D0E0FDC9
:10283000D0E0FC2274028000CCC0E0EDC0E0E518DE
:10284000C39CCCAD1950011D10AF068C188D19809A
:10285000068C188D19D2AF1228DED0E0FDD0E0FC36
:1028600022C0E0C0F088F0E4936670080874019319
:1028700066187000A8F0A3A3700BD0F0D0E0D0E0F1
:10288000D0E00226A5A3A3D0F0D0E022D083D0824E
:10289000CCC0E0E493A360061229401470FAE493DC
:1028A000A36006122A6A1470FAD0E0FCE493A3C075
:1028B000E0E493C0E022C0E074F212250A758900BA
:1028C000C2C5901A31E0700E7A007B109009BCE00E
:1028D000F91231CA8003123A287F01022569CAC061
:1028E000E0E493A3C582CCC582C583CDC583F0A3A4
:1028F000C582CCC582C583CDC583DAE5D0E0CA22C6
:10290000CAC0E0E0A3C582CCC582C583CDC583F033
:10291000A3C582CCC582C583CDC583DAE6D0E0CA23
:1029200022C008C3E096F50808A3E096420808A371
:10293000E096420808A3E09645087001D3D008222B
:10294000C0E0E493A3D39C5010E493A3C39C400A3B
:10295000D0E0D0E0D0E00228A9A3A3A3D0E0227069
:1029600009080808226016181818C6C333C608C616
:1029700033C608C633C608C633C6D5E0EA22C09FB0
:10298000F59FE473D09F22D083D082C09FE493C090
:10299000E0740193C0E0740293F59F2200C0D0253B
:1029A0001810AF08F518500C05198008F5185002DA
:1029B0000519D2AFD0D0222518F58210AF08F5182E
:1029C000400C15198008F51840021519D2AF851969
:1029D00083227404800A74038006740280027401E6
:1029E000C0E0F4041229B7D0E0122C4A22BB010245
:1029F000E722C082C08389828A83BB0003E0800211
:102A0000E493D083D08222C0E0C0D0E8C0E0A8A880
:102A1000D2AFC2C7E8A2E792AFD0E0F8D0D0D0E002
:102A2000326016080808C6C313C618C613C618C6EF
:102A300013C618C613C6D5E0EA222518F8E43519DE
:102A4000F9222518FAE43519FB222518FCE435197A
:102A5000FD22C3E0C696F608A3E0C696F608A3E0FA
:102A6000C696F608A3E0C696F622C0E0E493A36CEF
:102A70007009D0E0D0E0D0E00228A9A3A3D0E022E2
:102A8000251810AF08F518400C15198008F51840E6
:102A9000021519D2AF22E066701008A3E066700A32
:102AA00008A3E066700408A3E06622E766701008D9
:102AB00009E766700A0809E76670040809E76622F4
:102AC000C3E09608A3E09608A3E09608A3E096A2C8
:102AD000D265D03322C3E096F008A3E096F008A3B5
:102AE000E096F008A3E096F022C3E697F60809E620
:102AF00097F60809E697F60809E697F622C3E493E5
:102B0000960874019396087402939608740393963A
:102B100022E627F60809E637F60809E637F6080937
:102B2000E637F622E026F608A3E036F608A3E036FC
:102B3000F608A3E036F622700422600D18C6C333EF
:102B4000C608C633C6D5E0F41822E493F60874012B
:102B500093F608740293F608740393F622E657F688
:102B60000809E657F60809E657F60809E657F62277
:102B7000E056F608A3E056F608A3E056F608A3E0F0
:102B800056F622E056F008A3E056F008A3E056F00F
:102B900008A3E056F022E026F008A3E036F008A3F0
:102BA000E036F008A3E036F022E647F60809E647EB
:102BB000F60809E647F60809E647F622E4C396F662
:102BC00008E496F608E496F608E496F622C3E7963B
:102BD0000809E7960809E7960809E79622C6F4C6A9
:102BE00008C6F4C608C6F4C608C6F4C622600D08B6
:102BF000C6A2E713C618C613C6D5E0F322C3E096F3
:102C000008A3E09608A3E09608A3E0962275D000FA
:102C100075813F7518D1751904000225C1E0F608C9
:102C2000A3E0F608A3E0F608A3E0F622600C08C6CD
:102C3000C313C618C613C6D5E0F422E6F008A3E60F
:102C4000F008A3E6F008A3E6F022CAC0E0E6F0A38D
:102C500008DAFAD0E0FA22ECF0A3EDF0A3EEF0A34C
:102C6000EFF022E0FCA3E0FDA3E0FEA3E0FF22E002
:102C7000FAA3E0FBA3E0FCA3E0FD22E0F8A3E0F967
:102C8000A3E0FAA3E0FB22E8F0A3E9F0A3EAF0A3B3
:102C9000EBF022E5C754F84401F5C7790122251865
:102CA000F582E43519F5832212298785EE0512296C
:102CB000874DEF051229872EF0051229879FF10510
:102CC00012298706F20512298759F2051229876A07
:102CD000F2051229877AF205122987ECF2051229EA
:102CE0008702F30512298714F3051229879FF90338
:102CF000122987CBF9031229874DFC03122987A4D7
:102D0000FC03122987E4FC03122987F8FC0312292B
:102D10008711FD0312298702FE03122987B3FE03E0
:102D2000122987C7FE031229876FA60612298793E7
:102D3000A606122987ACA606122987DEA606122946
:102D4000870EA7061229873BA7061229879DA7068B
:102D5000122987ACA706122987B6A706122987C3AE
:102D6000A7061229871A97061229873A9706122969
:102D700087799706122987949706122987B39706B1
:102D80001229871998061229872298061229877F07
:102D90009806122987A39806122987649906122992
:102DA0008771990612298782990612298708B00629
:102DB00012298720B0061229874CB00612298742B3
:102DC00080061229879C8106122987AA810612296A
:102DD00087BD8106122987D28106122987E78106DD
:102DE000122987FA81061229876E8206122987D353
:102DF00082061229877583061229873984061229CB
:102E0000874984061229875884061229871CAF0631
:102E100012298740AF0612298768AF0612298790CA
:102E2000AF06122987349C061229875B9C0612295B
:102E3000877A9C06122987E29C061229879AFC054C
:102E4000122987B3FC05122987BFFC05122987D3F5
:102E5000FC05122987F1FC05122987FBFC051229C4
:102E60008705FD0512298718FD05122987A5FD058F
:102E700012298714FE0512298743FE05122987911E
:102E8000FE05122987E0FE05122987FBFE0512299F
:102E90008705FF0512298716FF0512298759FF05A7
:102EA000122987BDAF0612298754D1051229877EC2
:102EB000D1051229879BD105122987AED105122988
:102EC00087C4D10512298722D20512298755D20538
:102ED00012298746D605122987A6D705122987D930
:102EE000D70512298723D80512298776D9051229F3
:102EF000879ED905122987B3D905122987C3D90519
:102F000012298707DA0512298762DA0512298772E2
:102F1000DA0512298728A90612298742A90612294B
:102F2000876AA90612298783A906122987A7A906F5
:102F3000122987C5A906122987DCA9061229870A42
:102F4000AA0612298725AA061229874FB006122938
:102F5000871A90061229872A90061229872F910630
:102F6000122987619106122987879106122987AA5B
:102F70009106122987C19106122987FB9106122911
:102F800087649206122987A69206122987E592067F
:102F90001229871693061229874D930612298791C5
:102FA0008806122987F688061229879C8906122925
:102FB00087D38906122987ADF10412298744F204C8
:102FC00012298771F4041229875CF704122987EA11
:102FD000F80412298756F904122987A5FC0412293E
:102FE00087F0FD04122987DBFE0312298726FF03E1
:102FF00012298704E905122987AAEB051229874FB0
:10300000EC051229877BEC05122987A9EC0512290A
:1030100087DEEC0512298706ED0512298766ED0586
:10302000122987CCBA051229874DBE05122987358A
:10303000C0051229875EC1051229873EC2051229E3
:1030400087ECC3051229878FC5051229875BC60542
:10305000122987AFC605122987AE9E06122987B8A6
:103060009E06122987D99E06122987A49305122944
:1030700087B99805122987279A05122987E39B05A6
:10308000122987E09C05122987109E05122987289E
:103090009F0512298708A00512298725BA0412293D
:1030A000875DBA0412298761C40412298742C504C6
:1030B0001229878EC604122987D7C7041229878D43
:1030C000C80412298761C90412298748CA04122931
:1030D0008730CB04122987D2CB04122987FCCB047A
:1030E000122987ACCD041229871CCE0412298735FA
:1030F000CE041229878CCF041229873DD0041229CF
:1031000087BFD0041229876BD104122987DBD10431
:1031100012298777D204122987F3D2041229871142
:10312000D30412298713D404122987C9D40412297D
:10313000876FD50412298701A5061229872BA506BA
:103140001229873FA60612298742A60612298766FA
:10315000AE06122987B9AE06122987FBAE061229E0
:10316000870BAF0612298785E205122987C3E2057E
:103170001229872CE30512298749E3051229876262
:10318000E30512298714E4051229871DE405122995
:103190008762E40512298798E405122987AFE405C0
:1031A00012298721E505122987AEE505122987E452
:1031B000E5051229873BE6051229879FE6051229B6
:1031C00087C2E60512298726E70512298782E705C7
:1031D000122987BDE705122987F2E705122987041E
:1031E000E80512298716E8051229874EE8051229F5
:1031F000879AE805122987D8E80512298727F30559
:1032000012298767F4051229878AF4051229879BFA
:10321000F40512298790F605122987B0F6051229C0
:1032200087DEA00612298712A1061229875AA10655
:10323000122987B6A2061229870080051229873134
:1032400081051229876B81051229872A8305122996
:1032500087548305122987E1850512298721860570
:10326000122987B887051229874B8805122987A359
:1032700088051229874689051229877E8905122922
:1032800087C089051229872F8B05122987818C0514
:10329000122987A48E05122987D28E05122987F953
:1032A0008E05122987028F05122987528F05122950
:1032B00087E48F05122987D4920512298757930531
:1032C000122987E07F00122987F67F00122987EAFA
:1032D000FB0212298700FC02122987A5FC02122991
:1032E00087E4FC0212298701FD0212298732FD02C0
:1032F0001229877FFD02122987B2FD02122987ED6C
:10330000FD02122987D9FF021229876BAB06122909
:1033100087C0AB061229870BAC0612298758AA066C
:10332000122987CAAA0612298708AB0612298749DB
:10333000AB06122987A2DA05122987A8DA05122915
:1033400087E8DA05122987DADC051229870ADD0504
:1033500012298779DD0512298747DE05122987881A
:10336000DE05122987B6DE0512298740DF051229FE
:103370008757DF0512298764DF051229876EDF056D
:103380001229870AE105122987FFE10512298748DA
:10339000E20512298772F70112298788F70112299D
:1033A000871BF80112298747F9011229873CFA0186
:1033B000122987D9FA0112298719FB011229879747
:1033C000FB01122987F4FB0112298704FC01122951
:1033D000872BFC011229877EFC01122987EFFD0152
:1033E000122987F4FD0112298714FE01122987FF93
:1033F000DA0212298757DB02122987FEDB02122923
:103400008773DD021229874DDE021229870ADF0247
:1034100012298721DF0212298770DF02122987D43F
:10342000DF0212298724E00212298737E0021229DD
:103430008798E002122987F1E00212298785E302CA
:1034400012298789E402122987C4E4021229871805
:10345000E502122987B5E702122987FBE702122944
:10346000876EE802122987B8E8021229878CE902E0
:10347000122987CFE902122987E9E9021229873048
:10348000EA0212298746EA02122987EBEA02122988
:1034900087CFEB02122987DAEB0212298728EC0288
:1034A0001229877DEC02122987C4EC021229872891
:1034B000EE0212298743EE02122987C8F002122970
:1034C00087F6F002122987F5F10212298719F20214
:1034D00012298788F2021229874BF3021229878664
:1034E000F302122987ECF30212298701F50212294F
:1034F0008749F5021229875CF5021229875FF502D8
:1035000012298768F5021229877AF50212298703A2
:10351000F6021229872CF6021229873FF602122999
:10352000876BF60212298792F602122987B6F602F5
:103530001229872FF702122987A1F702122987D8AB
:10354000F702122987E2F70212298711F8021229DD
:103550008727F80212298742F80212298770F80299
:1035600012298790F802122987D9F80212298714A4
:10357000F9021229871BFA0212298779FB02122904
:10358000878FFB02122987A6FB02122987B8FB024C
:103590001229877BAD061229878CAD061229871563
:1035A000AE06122987FDFF01122987D5780012295E
:1035B00087247900122987C47A00122987987C0011
:1035C000122987DA7C00122987A57D00122987AD90
:1035D0007E00122987CF7E001229872B7F001229B7
:1035E00087AC7F001229878F4E00122987B14E00C9
:1035F000122987095000122987525000122987C8C2
:103600005000122987465100122987AB5100122918
:1036100087ED51001229875C520012298707530059
:103620001229877F5300122987C45300122987D398
:103630005700122987DA59001229870D5A001229DA
:10364000875F5A00122987625D00122987DE5D00BC
:103650001229878C5F00122987BE6000122987D645
:1036600061001229875862001229873863001229E5
:1036700087A36300122987B7630012298799640022
:10368000122987C96500122987E46700122987DD9E
:103690006900122987C06A00122987566D00122915
:1036A00087F76D00122987F76E001229875972007B
:1036B000122987697200122987AF73001229874C7B
:1036C000740012298776750012298707760012295F
:1036D000873477001229877977001229870D7800BF
:1036E00012298716D604122987B6D60412298720F4
:1036F000D70412298739D704122987C8D704122979
:10370000870CD8041229872BD90412298767D9047A
:10371000122987DAD90412298725DA041229878425
:10372000DA041229872EDB0412298717DE041229F6
:103730008734DF04122987B1DF0412298772E1047C
:1037400012298712E204122987B1E2041229871490
:10375000E30412298789E30412298798E4041229D3
:103760008779E504122987AFE504122987E2E50489
:1037700012298796E604122987C2E6041229873D9A
:10378000E704122987C0E8041229873BEA041229BA
:103790008790EB0412298703ED041229870FEE04AA
:1037A000122987B6EE0412298724EF041229873CD8
:1037B000F004122987ACDA0312298717DB031229D8
:1037C000875FDB03122987A3DB031229870DDC0344
:1037D00012298756DC0312298791DC031229872BD3
:1037E000DD0312298785DD03122987DFDE03122915
:1037F0008768DF0312298792DF0312298797E00386
:10380000122987A6E103122987D8E103122987C864
:10381000E203122987D9E203122987F1E203122970
:1038200087F1E3031229870EE403122987D3E40307
:10383000122987FDE40312298714E5031229873A28
:10384000E50312298771E50312298791E5031229FF
:1038500087B8E503122987D0E503122987AAE60372
:1038600012298702E70312298778E80312298707BC
:10387000E9031229872BE90312298742E903122958
:10388000870DEA03122987B0EA03122987D6EA03D3
:1038900012298706EC0312298725EC03122987A633
:1038A000EC0312298713ED0312298757ED03122920
:1038B00087E5ED0312298750EE0312298702EF03F3
:1038C000122987F2F003122987CAF1031229871CF3
:1038D000F20312298716F30312298723F40312290E
:1038E0008734F50312298742F50312298712F6035C
:1038F000122987B2F603122987F6F6031229870BDD
:10390000F7031229870BF803122987AEF80312294F
:103910008706F903122987A59306122987DE9406E4
:10392000122987A495061229870896061229877CF2
:103930009606122987918406122987AF84061229D8
:1039400087F384061229871985061229873F850681
:103950001229875785061229876F850612298787BE
:103960008506122987F285061229873486061229D0
:10397000874986061229875087061229876B870692
:103980001229877487061229877D87061229878660
:1039900087061229879087061229870D8806122923
:1039A00087F6F70512298712FC051229872EFC05D8
:1039B00012298733FC0512298787A3061229877AE3
:1039C0008C06122987908C06122987168E061229DA
:1039D000875F8E06122987CB8E0612298779AC065F
:1039E000122987E98F06122987FB8F06122987CDB6
:1039F000A706122987B099061229870C9A06122960
:103A0000874C9A06122987B59A06122987D99A06F1
:103A1000122987EE9A061229870E9B061229872EF5
:103A20009B061229873E9B06122987559B06122961
:103A300087819B06122987119C0612298795B0065B
:103A400012298719EE05122987578002122987C388
:103A500080021229874F81021229870582021229CA
:103A6000874D820212298766820212298789820283
:103A7000122987AB8202122987E98202122987382C
:103A80008302122987638302122987C183021229C4
:103A9000876884021229871085021229878C850283
:103AA000122987598602122987A08602122987ECDB
:103AB0008602122987748702122987AD870212298C
:103AC000870388021229871F88021229874E8802DD
:103AD0001229875A8A02122987888B02122987B4F1
:103AE0008B02122987E88B02122987098C0212297E
:103AF00087188C02122987238C02122987D28C0204
:103B0000122987428D02122987CD8D02122987D56D
:103B10008D02122987428E021229877E8E02122977
:103B200087448F021229871790021229876C90020E
:103B30001229870B9102122987659102122987AAFF
:103B4000910212298743940212298786950212292D
:103B500087709802122987549902122987389A028D
:103B60001229875D9A021229876E9A02122987E02C
:103B70009A02122987779B02122987EB9B0212294E
:103B800087DB9C02122987009D02122987189E025A
:103B9000122987369E02122987529E02122987C552
:103BA0009E02122987D49E021229875C9F02122945
:103BB0008759A00212298766A0021229876FA002E6
:103BC00012298751A2021229877DA3021229878D0B
:103BD000A302122987C8A40212298747A502122925
:103BE0008778A602122987B4A6021229878EA80216
:103BF0001229874BAC021229875FAC021229876910
:103C0000AC0212298773AC021229877DAC021229FB
:103C10008787AC02122987A0AC02122987AAAC02BE
:103C200012298721AD021229872CAD021229875B48
:103C3000AD0212298783AD021229878EAD021229A7
:103C400087F3AD02122987FDAD0212298708AE0263
:103C50001229872CAE0212298750AE02122987C280
:103C6000AE021229870BAF0212298727AF02122951
:103C70008798AF02122987E4AF021229872DB0027C
:103C80001229876BB002122987ECB00212298793A0
:103C9000B10212298758B302122987BDB302122933
:103CA00087EBB40212298711B50212298759B6028F
:103CB00012298793B90212298791BB021229875CC6
:103CC000BD02122987F5BD02122987F6BF0212290B
:103CD00087ABC002122987E4C00212298754C102AF
:103CE0001229875EC10212298787C3021229878A97
:103CF000C402122987C7C5021229871EC6021229CB
:103D000087C9C60212298779C802122987C6C90243
:103D1000122987E6C9021229873BCA021229873C69
:103D2000CB0212298764CB02122987C3CB02122946
:103D300087BBCC0212298732CD0212298745CE02D9
:103D4000122987B3CE02122987B2CF021229870C1B
:103D5000D20212298735D2021229879BD302122957
:103D6000871DD50212298774D50212298722D6020F
:103D7000122987C7D6021229872AD702122987E873
:103D8000D7021229877AD802122987D9D802122994
:103D9000871BD9021229874CD902122987A3DA027C
:103DA0001229870080031229873280031229876B2A
:103DB000800312298734820312298778820312290B
:103DC000874E8303122987AD8303122987C3840397
:103DD0001229870F85031229879D8703122987815E
:103DE0008A03122987C88B03122987608C03122942
:103DF000876C8C03122987B58C03122987F78D03F2
:103E0000122987ED8E03122987178F031229876DD8
:103E10008F03122987C68F0312298739900312292D
:103E2000876F9203122987F19303122987DC940389
:103E30001229872696031229875E98031229875B29
:103E40009B031229876A9B03122987FE9B03122971
:103E500087A99C03122987EC9C03122987359D03AF
:103E6000122987859D03122987E99D031229875B03
:103E70009E03122987779E03122987A69E03122983
:103E800087E59E03122987E09F031229878FA003ED
:103E90001229870CA3031229873EA403122987162F
:103EA000A50312298798A503122987CDA9031229F2
:103EB00087FCA90312298757AA031229878AAA0314
:103EC00012298702AB0312298735AB031229879683
:103ED000AB03122987E6AB03122987B3AC0312297F
:103EE000876CAD0312298730AE03122987AAB0036D
:103EF0001229870CB2031229875DB3031229878127
:103F0000B40312298784B403122987B3B403122996
:103F100087ABB6031229876AB70312298799B703BB
:103F2000122987B7B8031229877FB903122987405E
:103F3000BB03122987B0BB03122987E2BB031229F6
:103F40008702BC0312298771BC031229876ABD034B
:103F50001229878EBD0312298701BE031229872AE1
:103F6000C00312298789C003122987DDC0031229E3
:103F7000870CC303122987EFC30312298777C40371
:103F80001229875BC503122987E5C503122987F922
:103F9000C5031229870DC60312298721C6031229DA
:103FA0008735C60312298762C60312298792C60382
:103FB0001229874DC80312298723C903122987C7ED
:103FC000C9031229871CCA031229877FCA03122931
:103FD00087C8CA03122987EFCA03122987B7CB0300
:103FE0001229875DCC03122987E3CD031229876E3E
:103FF000CE03122987B5CE0312298727CF031229B2
:10400000877CD00312298725D10312298759D10330
:1040100012298771D10312298714D203122987909C
:10402000D40312298738D60312298756D6031229BA
:104030008774D60312298740D7031229878EDA03A3
:104040001229872F8101122987718101122987DEA8
:1040500086011229872A8701122987708701122970
:1040600087C188011229872689011229876A890157
:10407000122987D08A011229872B8E011229875E87
:104080008F01122987ED9A011229877D9B01122940
:1040900087679E01122987CC9F011229872FA001D3
:1040A0001229874BA101122987B5A20112298794F1
:1040B000A30112298702A60112298794A7011229B8
:1040C0008725A80112298744A901122987D1A901AE
:1040D000122987DBA90112298703AA01122987A6C1
:1040E000AA0112298791AB0112298759AC01122923
:1040F00087E6AC01122987FCAC0112298719AD01B2
:1041000012298742AD011229876FAD01122987B3A9
:10411000AF0112298786B001122987CAB00112297E
:10412000874CB101122987EDB1011229871FB20115
:1041300012298766B20112298799B201122987DDF7
:10414000B2011229872CB30112298731B301122938
:10415000878DB301122987D1B301122987BBB4011E
:1041600012298720B5011229877EB501122987FD02
:10417000B50112298775B90112298778BA01122968
:10418000870EBC0112298751BF01122987F3BF0195
:104190001229873CC201122987F7C20112298736EA
:1041A000C301122987FAC40112298717C5011229F0
:1041B0008720C50112298729C50112298734C50125
:1041C00012298753C50112298777C701122987D47D
:1041D000C701122987DEC701122987E8C701122902
:1041E000874BC801122987A7C801122987B4C901C2
:1041F00012298715CA0112298726CB011229876F38
:10420000CB0112298739CC0112298750CD011229FF
:104210008714CE0112298760CF0112298764D0014B
:104220001229875DD10112298775D101122987AC26
:10423000D101122987B6D101122987C0D1011229D3
:1042400087CBD101122987E9D10112298731D20107
:104250001229878FD201122987B6D201122987C865
:10426000D20112298771D301122987AAD3011229F9
:1042700087DBD40112298738D50112298729D60175
:104280001229875FD601122987CFD6011229874BC1
:10429000D701122987CCD801122987F3D901122915
:1042A00087B5DA0112298783DB0112298708DC012F
:1042B000122987B7DC011229879FDD01122987386F
:1042C000DE0112298714DF011229877CDF01122900
:1042D000873BE00112298797E001122987FBE00163
:1042E000122987C1E101122987E4E1011229879E81
:1042F000E201122987C0E20112298721E301122974
:104300008751E5011229874AE601122987F6E6015D
:1043100012298713E9011229875CE901122987A76D
:10432000E90112298703EA0112298761EA011229AA
:104330008785EA01122987A9EA01122987DEEA01A5
:1043400012298706EB011229874BEB01122987A955
:10435000EB0112298702EC01122987FCEC011229DA
:1043600087A8EE01122987EDEE0112298716EF01C9
:104370001229879FEF0112298712F0011229872045
:10438000F00112298744F0011229879AF0011229BD
:1043900087B5F00112298770F1011229879CF1017C
:1043A000122987DFF10112298742F201122987526F
:1043B000F4011229877EF40112298739F5011229A7
:1043C000871DF601122987B1F601122987D4C60587
:1043D0001229870CC7051229872DC7051229876F57
:1043E000C705122987D3C705122987DDC7051229FA
:1043F00087EDC70512298724C805122987CDCB056B
:1044000012298795CD0512298779CF051229871B97
:10441000D005122987A5D0051229875080041229BA
:1044200087F98004122987D88104122987E482043D
:10443000122987048304122987268404122987D627
:1044400085041229874386041229871487041229B8
:10445000871A8804122987928804122987CD880434
:10446000122987268904122987618904122987AABB
:1044700089041229873E8A04122987D48A041229C2
:1044800087A98B041229877C8C041229870A8D0442
:10449000122987308D041229875D8D041229878E99
:1044A0008D041229875B8E041229876B8E041229D2
:1044B00087BE8E04122987CB8E04122987D88E04DA
:1044C000122987E18E04122987458F04122987A3B8
:1044D0008F04122987EE8F0412298709900412296C
:1044E000873090041229874D90041229875990042F
:1044F000122987EA91041229870392041229877FDF
:104500009204122987929204122987A292041229F6
:1045100087469304122987B29404122987C595040B
:104520001229876596041229876F9604122987EE4F
:104530009604122987FF96041229873E97041229B0
:10454000876C970412298739980412298790980458
:10455000122987C998041229871F99041229873DB7
:1045600099041229878B9904122987569A041229D3
:1045700087A49A04122987F19A04122987749B044C
:104580001229879E9B04122987D49B04122987E352
:104590009B04122987429C04122987BA9C04122981
:1045A00087FB9C041229874B9D04122987769D0462
:1045B000122987909D04122987AA9D041229877FBA
:1045C0009E04122987899E04122987C49E041229F9
:1045D00087D49E04122987DD9E041229872E9F040A
:1045E000122987429F0412298764A0041229877721
:1045F000A0041229878CA0041229871FA104122964
:104600008793A10412298738A20412298743A204A0
:10461000122987A6A304122987C2A3041229870E90
:10462000A4041229877CA404122987AEA4041229A9
:1046300087C8A40412298728A504122987C7A504BE
:1046400012298712A60412298765A804122987FD5A
:10465000A80412298774A904122987D1AB0412294E
:1046600087E9AB04122987ECAB04122987F8AB0465
:104670001229870CAC0412298714AC041229874B29
:10468000AC041229873FAD04122987C9AD04122951
:10469000874BAE04122987CBAE04122987A2AF0440
:1046A000122987C4AF041229875DB004122987BA82
:1046B000B004122987BDB0041229872CB104122935
:1046C0008778B2041229878BB30412298716B404A1
:1046D00012298729B504122987F0B50412298721E8
:1046E000B60412298747B60412298750B604122946
:1046F000877FB6041229872FB704122987DFB704F2
:1047000012298752B804122987F5B804122987683C
:10471000B904122987A7B904122987F0B90412290C
:1047200087CDFF0512298789FF0512298774FF05A8
:1047300012298764FF05122987E2FF01122987FAEF
:10474000FF01122987CDFF041229872FFF041229A8
:10475000871EFF041229870CAD0512298759AC0565
:104760001229878DAB05122987E9A905122987B27D
:10477000A90512298784A90512298731A9051229BB
:104780008788A805122987F0A705122987CAA705D7
:104790001229877FA70512298753A705122987C7E2
:1047A000A60512298766A60512298721A6051229C2
:1047B00087E1B0061229873CA505122987D3B006E8
:1047C000122987CAB006122987C1B006122987D9D3
:1047D000FF05122987F6FF02122987E6FF02122938
:1047E00087F7FF011229875AA40512298702A40519
:1047F00012298772A3051229872DA3051229876222
:10480000AD0612298711A305122987BFA105122918
:104810008781A1051229875BA105122987008002E3
:10482000122987DFA005122987FCAC06122987957B
:10483000BA051229874EBA05122987EDB905122942
:1048400087C0B90512298796B90512298762B9056B
:104850001229873AB905122987DAB805122987C4BF
:10486000B80512298789B80512298700B8051229C9
:104870008747B40512298705B205122987CAAF05F3
:104880001229874CAF05122987FDAE05122987ED45
:10489000AD051229878AAE051229874BAE0512296C
:1048A00087BA8F0600000080FB8F000100251A8761
:1048B000000100241A35000400AA1D25000200AEE4
:1048C0001D26000200B01D27000200B21D280001B5
:1048D00000BC1D29000100BD1D84000400BE1D8612
:1048E000000100C21D2A000100C31D2B000100C4ED
:1048F0001D2C000100C81D2D000800061A2E000105
:1049000000C91D2F000100CA1D30000100CB1D3160
:10491000000100CC1D320001000E1A330001000F0F
:104920001A34000100CD1D36000100101A380001B4
:1049300000CE1D39000100C71D83000200E21D6387
:10494000000100211A64000100C51D65000100C6B8
:104950001D6D000100221A71000800FE1966000199
:1049600000E11D43000100D21D44000200D31D459B
:10497000000100D51D46000200D61D4700080019A1
:104980001A48000100D81D4B000100D91D04000188
:1049900000E41DA1000100E71D37000100E61D88AD
:1049A000000100E51D3C000100111A3D000100CF8F
:1049B0001D49000200DA1D67000100231A4D0002A4
:1049C00000DC1D4E000100DE1D4F000200DF1D3E19
:1049D000000100181A51000100121A52000100D003
:1049E0001D53000100D11D54000100131A000000E6
:1049F0000000000001363601010001020100010340
:104A00000100010401060605020000070100340848
:104A100001000F090401010D0100FF0E080000173D
:104A2000020000190100FF1A0100011B0100FE1C19
:104A30000100081D0200001F0100012001000121EA
:104A40000200002301000F240200002601000127BC
:104A5000010008280200FF2A0100072B0102402C58
:104A60000100002D0100012E0100012F0100FF3087
:104A7000010B1D310800003A0100083B01000F3C0A
:104A80000100013D0100FF3E040000420400004619
:104A90000400004A0400004E0400005204000056C6
:104AA0000400005A04000001037103010301030123
:104AB00003010301032203020301031003000300A7
:104AC0000300030003000300030003420300032468
:104AD0000306030003000304031203250323032535
:104AE000032303040304030003000300034403003F
:104AF0000300032303000365032100350381030042
:104B0000030503000300030003000325032303013F
:104B100001710101010101110101013101010101D5
:104B2000018001100161013B0014006301730172F7
:104B300001620143010001130106013D013500043A
:104B40000112010001000100010001040104013310
:104B50000133013C014401320136000001000165CE
:104B6000010001350081010001050182018301007E
:104B7000010302710230016002110270020102029F
:104B80000202028002100261023A004100630273D5
:104B900002720262024302000213023800000200A5
:104BA00002040212020002000200020002040204D7
:104BB00002370037003C02440200023900000200C4
:104BC00002650200023502810200020502820283B0
:104BD0000200020304710402046004110470040260
:104BE00004020401040204100461040004140463B8
:104BF00004730472046204430400041304060400F2
:104C0000040004040412040004000400040004511D
:104C100004640000040004000444040004000400D0
:104C200004000465040004350481046400050400E4
:104C3000048304000403007100300160001100705F
:104C400000310220035004800010006100000014B5
:104C5000006300730072006200430000001300064E
:104C6000000000000004001200000000000000002E
:104C70000004000400370037003C0244000000003C
:104C80000000000000650000003500810000000504
:104C90000000008300000036000100060000000F45
:104CA0000000000000000000000000000003FFFF03
:104CB00000000403FFFF0000FFFF0FF4010005C424
:104CC000040320000100000B0000000000000000B1
:104CD00003010F00000000000000000000000000C1
:104CE00000000000000000000000000000000000C4
:104CF000000000000000002237130080361F0086ED
:104D0000361F808C36010022370200083603000E61
:104D1000360400143605001A3606002636300044E4
:104D20003631003E36320050363300563635005CA0
:104D30003634006236360068361100743614007A54
:104D40003615003836FFFF00000A000000020000A0
:104D50000004000000080000001000000020000017
:104D60000040000000800000000001000000020080
:104D700000000400000008000000100000002000F7
:104D8000000040000001884006BE4008B8400BD635
:104D90004010523D0AE840028E4005AC4007944066
:104DA0000C70400D7C40642A3BFF000007ECFDFDC9
:104DB000FDECDCDCCCBCACAC9C9C8C7C7C6C6C5C82
:104DC0005C5C4C4C3C3C2C2C1C1C03EAF5E5D5D51A
:104DD000C5B5A59595858575756565555545453563
:104DE00035252515150500160F00000B150B0200C3
:104DF00002220F3300000E5A6967426565416C6CF0
:104E000069616E6365303901030507090B0D0F00F9
:104E1000020406080A0C0D000119161816161823AC
:104E20000300303017181921301B1D1F3030301689
:104E3000181920231A1C1E3000393D3F373C3C36E0
:104E40002C442D00034A49434E181A2505020C0E26
:104E5000020B040B0A0708000F0204020101010102
:104E60000902E803000000BE040A0000E8030E0087
:104E700000007F001E1E050303000404100A0C102E
:104E8000080C280009040903010C05081508FFC0D7
:104E900082C08390197CE4F0A3F07C547D1B7AE9F6
:104EA0007B1812332C123B5A123DA0123B60026356
:104EB000B074F512243874F5122A80E9FF8A08EBE1
:104EC000FE8C09E9705B74026A703E7908123578CD
:104ED000750A00780A1229DEE509F50A780A12290E
:104EE000DEEEF50A780A1229DE90190512280390E1
:104EF0001DC2E0F97C197D1A901DE2126254123B2A
:104F000084740712299C024FD874016A6003024F0F
:104F1000DD79081235787B00EEFAF9123BC6024FB4
:104F2000D874016F600874026F6003024FDDEA609D
:104F30000574036A70477902123578901DC2E0F952
:104F4000901905122C6F123B72E9F8901914E0A227
:104F5000E34010E9700D901980E004F064047003E0
:104F6000124FF7740365087071901981E0F97401AC
:104F700029F0E9C394054062124FF7805D74016A1D
:104F8000705B74016F790A702E1235787401122CDF
:104F90009EE4F07402122C9E7403F004122C9EE422
:104FA000F0A3F0A3F0A3F07408122C9EE4F0AA186A
:104FB000AB1912409A8036123578901DB81228032A
:104FC0007A007B201259A912299C901DC2E0F99009
:104FD0001905122C6F123BA8E9F8E860109080DEEA
:104FE0001228037A017B001259A912299C740B1212
:104FF000299C7F030226B5901905E4F0A374F8F00C
:10500000A374FFF0A37407F02274F6122438E9FFAA
:10501000EAFE7AD1F91231A68A828B83E582458332
:10502000702A7A027B00123188EA4B700E7A107B6C
:1050300000901909E0F91231CA80148A828B8374B6
:10504000D1F0EFA3F0EEF91231948003EFA3F00258
:10505000525774F712243889089004D1127557FFFB
:10506000901DA5E0F47003A3E0F470319009BCE05A
:10507000901DA5F0A3E4F080248E828F83A312609C
:10508000B8600F8E828F83A3A31260B5FAA90812AD
:1050900035F08E828F83125F7EE8FEE9FFEE4F705F
:1050A000D8901DA5E0F47003A3E0F4600A901DA55C
:1050B000E0FAA9081235F01241A89018D31257CD82
:1050C0001241A27F010226B574F0122438890B8C9C
:1050D0000C7509007508007410122C9E125F7E7406
:1050E00012122C9E1267C8FD8047125192F50EA332
:1050F000E0F50FAE08EE2EFEE433FFEA2EF582EB6C
:1051000012645F650E7004A3E0650F7019AE09EEBE
:105110002EFEE433FFEC2EF582ED3FF583E50EF035
:10512000A3E50FF00509050AE50AC3950C40BB0588
:1051300008E508C3950B5005750A0080EBA90980A6
:10514000007F080226B574F4122438890B7D0074A0
:105150000C122C9E125F7E80010DEDC3950B502E1C
:10516000750A008002050AE50AC39C50ECED25E0B3
:10517000FEE433FFEA2EF582EB3F1269C112519231
:1051800065087004A3E0650970DB7901800279008D
:105190008014AE0AEE2EFEE433FFE82EF582E9120B
:1051A00059932212299C7F040226B574F6122438E2
:1051B0001252417003A3E06D70177508127509193A
:1051C00078081229DAEEFA123728740212299C8024
:1051D0001A75080275098078081229DA8A0889097F
:1051E00078081229DA12522F12299C806A74F6125A
:1051F00024381252417003A3E06D701775081F75B3
:10520000091978081229DAEEFA12372E74021229D7
:105210009C801A75080375098078081229DA8A08B3
:10522000890978081229DA12522F12299C8028EE57
:10523000240E125990FD7C8012646712374C74045E
:1052400022EAFEEBFF12647EFCE439FD9018D3E005
:105250006C22740212299C7F020226B574F6122475
:105260003874FE122A80EAFEEBFF851882851983C6
:10527000E41253001265B9FBECFA88828983A3A378
:10528000E0F9750900750800600574FF697005751F
:105290000882803E9018D3E06A7003A3E06B701B15
:1052A000AA18AB19124856E9FA8518828519831293
:1052B00067D370037508838A098017901A24E06009
:1052C00004640170057508818008E064027003754C
:1052D00008808518828519831267C8FDA908EEFA2F
:1052E000EFFB123734E509601485188285198312A3
:1052F00067D36009851882851983126DF0025252B6
:10530000F0A3F01274302274F2122438EAFEEBFF9C
:1053100075080075090012647AF50AE439F50B1274
:1053200041A8EA650A7003EB650B7012124844E964
:1053300014F50879017A487B1912483E80037509F3
:1053400080EE240E12645CF50C780C1229DE750CCC
:1053500048750D19780C1229DA78081229DE780AB6
:105360001229DAE509F50878081229DE12624312DB
:10537000645CF97A057B8012373A7407027695747B
:10538000F6122438E9FF7E0080328A828B83E0F5B2
:1053900008A3E0F8E4C8F9E50828E439F509EE25A2
:1053A000E0F8E433F9EC28F582ED39F583E508F00F
:1053B000A3E509F0EA2402FA50010B0EEEC39F4068
:1053C000C902525774E812243874FC122A808A16D3
:1053D0008B177511007402122C9EE4F0A31265C1A4
:1053E00012530035171259A1F50B850A82F5831265
:1053F00077FBFEE439FF850A82850B83A3A3E0FADD
:10540000850A82850B83A3A3A3E0F9EAF508E439B2
:10541000F509EEFAEFFB124244E964016016EEFA78
:10542000EFFB124244E970389018D3E06E7003A38A
:10543000E06F602C1271971229DEE4F508F5097807
:10544000081229DA78081229DE9018D31228077575
:10545000088078081229DE12579B12299C02577A7D
:10546000850A82850B83A3A3A3A3E0F510E50A2494
:1054700005F50A5002050BE510602812770C74023E
:10548000122C9E1257CD7402122C9E1267D36013F9
:105490007402122C9E125791A9101236208A0A8B80
:1054A0000B8003751000850A82850B831276A66037
:1054B0002412770C851882851983EAF0A3EB126712
:1054C000D9E8496010851882851983125791A90F70
:1054D0001236208003750F009004D18052850A8215
:1054E000850B83A3A3A3A3A3A3A3A3E4F0A3F0AA80
:1054F0000AAB0B851482851583A3A3E0F81260B56F
:10550000F9123194851282851383E0C0E0A81174EA
:105510004828F582E43419F583D0E0F00511A200A3
:105520005007AA12AB13123230851482851583E01E
:10553000F514A3E0F515E514451570030256F7853B
:105540001482851583A31260B860DE8514828515E8
:1055500083A3A3A3A3A3A3A3A3E0A2E050CB85149A
:1055600082851583A3A3A3A31267D385148285150F
:1055700083A3A3601E1260B9FA7901851482851590
:1055800083A3A3A3A31257841226168A128B13D2C5
:1055900000800F125784A3A3A3E0F512A3E0F51334
:1055A000C200E5124513700302551E851282851351
:1055B00083A3E065087004A3E06509600F74FF65CC
:1055C00008700474FF6509600302551E8512828508
:1055D0001383A3A3A3A3A3A3A312280785128285E1
:1055E0001383A3A3A3A3A3A3E0FC7404122C9E1211
:1055F0006254A910123602740212299CE9703C858B
:105600001282851383A3A3A3A3A3A3A3A3A3A3127B
:105610002807851282851383A3A3A3A3A3A3A3A30F
:10562000A3E0FC7402122C9E126254A90F123602DF
:10563000740212299CE9700302551EE50F2510C360
:1056400033240AFA7B001231888A0A8B0BEA4B70EA
:10565000030255048A828B8374D21269CB8A828BAF
:1056600083A3A3E8F0A3E9127675A3E510127805E9
:10567000E50FF0E510602CEA240AFAE4350BFB850F
:105680000A82850B831257C87402122C9E1257BBD4
:105690001229D6AC10EC2CFCE433FD126EC9122991
:1056A0009C800D8A828B83A3A3A3A3A3E4F0A3F021
:1056B000E50F70030254DDA810E828F8E433F9E59B
:1056C0000A28F8E50B39F9E8240AFAE439FB850AD7
:1056D00082850B83A3A3A31257C8851882851983DB
:1056E0001257BB1229D6AC0FEC2CFCE433FD126E22
:1056F000C912299C0254EFE51160251271971229F5
:10570000DE75084875091978081229DAE511F508D7
:1057100078081229DE9018D312280775080080290E
:10572000EEFAEFFB124244E9702A1271971229DE59
:1057300075084875091978081229DA75080078087B
:105740001229DE9018D312280778081229DE125782
:105750009B12299C7402122C9E1267D3600874025B
:10576000122C9E126DF08518828519831267D36002
:1057700009851882851983126DF0740412299C7FA3
:10578000100226B512578822E0F8A3E0F58388823C
:1057900022E0FCA3E0FDAA0AAB0B22E5162402FCE2
:1057A000E43517FDE516240FF582E43517F583E09F
:1057B000F97A067B8012373A740722E0F50CA3E0F1
:1057C000F50D750E00780C22A3A3A3A3A3EAF0A302
:1057D000EBF02274F112243874F4122A808A088BB8
:1057E00009ECFEEDFF740B122C9E7403F0122A429A
:1057F00012332C12632C7403122A42123326E960EE
:105800000A1259986010E06401600B8518828519AE
:105810008374840259448E828F83A3A3A3A3A3A37A
:10582000A3A3E06013F460101259987016EE2414CC
:1058300012645C6003F4700B85188285198374828E
:1058400002594412751BE064217002A3E060030258
:10585000591B851882851983748CF012599860033E
:105860000259057401122A4AEE240BFAE43FFB1296
:105870003ECCE960030259051235668A0A8B0BEAB1
:105880004B70030259458E0C8F0D750E00780C126B
:1058900029D67C157D00126EC912299C8508828547
:1058A0000983A3A3E50A2415FCE4350BFD74091252
:1058B000290012714CC0E0E50A241E12597DD0E087
:1058C000125DD5C0E0E50A241F12597DD0E0F0E555
:1058D0000A242012597D7405F0EE240BFE50010FAE
:1058E000FAEFFB12477E7D007C007900EEFAEFFBB9
:1058F0001236F29080DE1228037A007B101259A92A
:1059000012299C80731259851229DE1259B4123E55
:10591000AE740112299CE9702C8014125985122949
:10592000DE1259B4123EB4740112299CE9700D853F
:105930001882851983E4F01235368009851882852E
:1059400019837488F012714CF50A780A1229DE74F2
:1059500001122A3A880A890B780A1229DAE5082402
:105960000CF582E435091259A14480F50B780A122E
:1059700029DA12630E12299C740C026CDFF582E4A2
:10598000350BF58322EE2414125990F50A780A2279
:10599000F582E43FF583E022EE241312599064036C
:1059A00022F583E0F50AA3E022901909E0F912320A
:1059B000E4740422EE240BFCE43FFD8E828F83A36B
:1059C000A3A3A3A3A3A3A3A31271878E828F83A3F0
:1059D000A3A3A3A3A3A3A3E0F922C082C08374F36B
:1059E000122A80851882851983E4F004122C9E12F5
:1059F00057CD7403122C9EAA82AB83123A5EAA186A
:105A0000AB19123A9A740D12299C0263B074F61203
:105A10002438126455F8A3E0125A50F890191AE08D
:105A200058F508A3E059F509E5084509601F78080D
:105A30001229DA9018D3122807EE240E12645CFDA6
:105A40007C00126463123746740412299C02525778
:105A50008882F583125A5822E0FAA3E0F9EA227408
:105A6000EA12243874DB122A808A148B157512000E
:105A700075130012742C3515F5831260B9F50EAC50
:105A800018AD197A007B00799C123BD87A04790012
:105A9000123AC4EAF50C851882851983E02AF0F8D9
:105AA000E50EC3984003025C83E0C3950EF509C37D
:105AB00094044003750903E50975F01AA4FAABF0E4
:105AC00012322A8A128B13EA4B7003025C86750D20
:105AD00000AE12AF13850E08025B637C087D00796F
:105AE000FFEE240AFAE43FFB123170850A82850B2F
:105AF00083A3A3A3A3E0702D850A82850B8312677D
:105B0000D3700C127360F0EE2418127363801012BD
:105B10005D0BF0901BC6E014C0E0125CEED0E0120A
:105B20005D3EE48034901BC6E004C0E0125CEED021
:105B3000E0125D31C39403EE4003025BEC1274216A
:105B40007402125D3164017003025BF9EE241512D8
:105B50005D0EF0EE2416125D0EF0EE241AFE5001DA
:105B60000F050DE50DC395094003025C24E508C34C
:105B7000950C4003025C02AA087B00123B128A0AC1
:105B80008B0B0508901BB3125D17850A82850B836A
:105B9000125F7E125CE6F583E8F0A3E9125D4E85A4
:105BA0000A82850B83A3A3A3A3A3A3A3A3A3A3E018
:105BB000C0E0125CDCD0E0F07401122C9EE4F085B1
:105BC0000A82850B83125F7E7402122C9EE8127586
:105BD000657401122A42123A88E964016003025A8C
:105BE000DB7404122C9E125CFC025AEB125D0C1248
:105BF0005D3164036003025B4CEE24151273630293
:105C00005B52E50CC3950E4005750800801DE50E3E
:105C1000C3950CF5088014125D0BF0EE241AFE50AB
:105C2000010F050DE50DC39509505B740E122A4A4C
:105C3000AA087B007987123BD805087418122C9E9D
:105C4000125D177410122C9E125CFCEE2412F8E404
:105C50003FF9740E122C9E12625488828983EAF0F6
:105C6000A3EB125D3E7403125D4E741D122C9EE078
:105C7000C0E0125CDCD0E0127642E8497099127301
:105C8000608097750900750A00780A1229DE78127B
:105C90001229DA78091229DEE50EF50978091229A8
:105CA000DE7405122C9EE0FD7C00E5141261D135F6
:105CB00015FBE5141273513515F583E0F91237829F
:105CC000740512299CE51245136007AA12AB131242
:105CD0003230742512299C7F0E0226B5EE2419F568
:105CE00082E43FF58322EE2412F582E43F22125C27
:105CF000F222EE2418F582E43FF58322AC82AD83D4
:105D0000EE240AFAE43FFB12332C22EE2414F5822F
:105D1000E43FF5837401221269D88E828F83E8F004
:105D2000A3E9F07CC77D1BEE1261D13FFB12332C3F
:105D300022F0850A82850B83A3A3A3A3E02212731A
:105D4000A47402F0EE2416F582E43FF58322F0EE0F
:105D50002417F582E43FF5837402F0125CF274FFBD
:105D6000F02274F612243874F9122A80127428353D
:105D7000091278B9851882851983122C878E828F33
:105D800083A3A3A3A3E0C0E07404122C9ED0E0126E
:105D90007657F87405122C9E7401F07406122C9E2E
:105DA0007401F09018DDF09018E604127446FAA31E
:105DB000E0FB9018DE1257CDE89018E7125DD59001
:105DC00018DCF0AA18AB19123B78E96003123B7E8D
:105DD0007407025254F0E508240F1271542274F231
:105DE00012243874FF122A807508007E007F00128A
:105DF00040CA8A0A8B0B125F5E80080508125F6A30
:105E0000125F7EE84970F4901A24E0600764016034
:105E100003025ED6125F5E8006125F6A125F7EE842
:105E200049603388828983126254901BB3E06A70A0
:105E300003A3E06B600A125F6A126254EA4B70D9E6
:105E400088828983125F7E901BB3E0687003A3E0B1
:105E5000697003025ED67A167B001275DA6077905D
:105E60001BB3125F7E8A828B83E8127565901BA834
:105E7000126ABAF012422CE98E828F83A3A3A3A3E5
:105E8000A3F0901DC3E08E828F83A3A3A3A3A3A33B
:105E9000F07CC77D1BEE240B125D03AA18AB1979A9
:105EA0004112393E851882851983E060089018D325
:105EB000125F7E800478FE79FF8E828F83A3A3A376
:105EC000A3A3A3A3E8127565EE125F723F125F826F
:105ED0008E0A8F0B05089018E7E0F8E508C3985084
:105EE0000479008027E508C398F9C3940640027935
:105EF000057800800DE50A125F72350B1259A1F585
:105F00000B089018E7E0FAE8C39A40E975090078B1
:105F1000091229DE780A1229DAE9F5097809122925
:105F2000DE9018E7E0F50978091229DEAD087C005B
:105F30007ADE7B189018DCE0F912377C74051229A0
:105F40009C901A24E060046401700BEE4F6007EE31
:105F5000FAEFFB123230123B7E740102769512404A
:105F6000CA8A0C8B0DA80CA90D22E8125F7239F5B4
:105F700083222414F582E42285188285198312690C
:105F8000D822F583E50AF0A3E50BF02274F0122481
:105F90003874FF122A808A0A8B0B7E008E0E8E0FB9
:105FA00012742C1259801260B9FFAC18AD197A0026
:105FB0007B00799D123BD8851882851983E0F8EF24
:105FC000C3984003026060E0C39FFEC3940B40028D
:105FD0007E0AEE75F007A4FAABF01261C98A0E8B47
:105FE0000FEA4B6079750C00801A85088285098359
:105FF000A3A3A3A3A37403F0E5082407F5085002A4
:106000000509050CE50CC39E5056AC08AD09E50C1E
:106010002FFAE43400FB798B123BD885088285097E
:1060200083A3A3A3A3A3E014600814601314601F48
:1060300080B8850882850983A3A3A3A3A3E480B7BE
:10604000850882850983A3A3A3A3A3740180A885DF
:106050000882850983A3A3A3A3A3740280997E0069
:1060600075080078081229DE780E1229DAEEF50894
:1060700078081229DEEFF50878081229DE74051277
:106080002C9EE0FD7C00E50A1261D1350BFBE50A90
:10609000127351125980E0F9123788740512299C45
:1060A000E50E450F6007AA0EAB0F123230740112D5
:1060B000299C02514112578AA3125788E02274EE9C
:1060C00012243874FE122A808A0C8B0D751000750C
:1060D000110012742C350DF5831260B9F50AAC1855
:1060E000AD197A007B0079A3123EBA125F78C3E53E
:1060F0000A98E4995074851882851983A80AE0C328
:1061000098FEA3E09400FFC3EE9404EF94004006D1
:106110007E037F008004EE4F6050EEFAEFFBEA75DD
:10612000F015A4FAA8F075F015EBA4281261C88A3E
:10613000108B11EA4B6033750B00750E00801FAC9D
:1061400008AD09A80AE50E28FAE43400FB79A2128A
:106150003EBAE5082415F50850020509050EC3E509
:106160000E9EE49F40D9EEF98005750B8B79007582
:10617000080078081229DE78101229DAE9F5087883
:10618000081229DEE50AF50878081229DE740512DE
:106190002C9EE0FDAC0BE50C1261D1350DFBE50C3E
:1061A000127351350DF583E0F912378E74051229FB
:1061B0009CE51045116007AA10AB11123230740231
:1061C00012299C7F0A0226B5FB12322A8A088B0903
:1061D000222402FAE42274F612243874FF122A8070
:1061E000EAFEEBFF12622F1262548A82F583A3A3A8
:1061F000A3A3A3A3A3A3E0F9123B9CE9851882857E
:106200001983F075080078081229DE7401122A3A01
:106210008808890978081229DA750835750980789F
:10622000081229DA12623712299C7401025254EAC8
:106230001274313FF583227901126243FAE43F126E
:10624000632522EE2402FCE43FFDEE240F22851894
:10625000828519831271872274F412243874FA1219
:106260002A80127428126EBB127557FFEEFAEFFBEC
:10627000123A64E9600F12632CEEFAEFFB12332638
:10628000E96401700A7401122C9EE4F0A380097481
:1062900001122C9EEEF0A3EF127682F8A2E65008CF
:1062A0007403122C9E7401F0E8A2E75008740412E3
:1062B0002C9E7401F07405122C9EE4F004122A4204
:1062C000123BCCE9851882851983F09080E2122C6C
:1062D0006F1241C67A007B001241D27A007B001215
:1062E00041CC750A00780A1229DE7401122A3A8814
:1062F0000A890B780A1229DA750A34750B80780A34
:106300001229DA12630E12299C74060251A3790134
:10631000E5082402FCE43509FDE508240FFAE4351C
:106320000912632522FB1236E67405221241A28A65
:106330000A8B0BAC0AAD0B2274F612243874FF12D0
:106340002A80126455F8A3E08882F583E0F509A35A
:10635000E0F508A909123B8AE9851882851983F0BE
:10636000901A24E0700B740165087005A9091238B1
:1063700048EE240B12645C70277508007808122917
:10638000DE7401122A3A8808890978081229DA7518
:10639000083675098078081229DA12623712299CAA
:1063A00002622AC082C083901A24E0700312384E21
:1063B000D083D08202298474F412243874EF122A14
:1063C00080EAFEEBFF12647AF508E439F5099018CB
:1063D000D3E06A7003A3E0697052A818A919880A6B
:1063E000890B780A1229DA750A11750B00780A12DE
:1063F00029DA7C007D007A817B001232B4740412A9
:10640000299CE97027750A00780A1229DE740112A6
:106410002A3A880A890B780A1229DAAC08AD0912DF
:106420006463123740740312299C8024750A117525
:106430000B80780A1229DA78081229DAEE240E1273
:10644000645CFD7C8412646312374C740412299CD2
:1064500074110251A3EAFEEBFFEA2413F582E41261
:1064600059932212646722EE2402FAE43FFBEE24E1
:106470000FF582E43FF583E0F92212647E22EA24DC
:1064800013F582E43FF583126D518882F583E0FABB
:10649000A3E0F8E4C8F9EA282274F112243874EB76
:1064A000122A80EAFEEBFF12742C1265B9FAE4CAD4
:1064B000FBEC2AF5089018D3E06C7003A3E06B6046
:1064C0000302655E88828983A3A3E09410500F883D
:1064D000828983A3A3E085188285198380088518A3
:1064E000828519837410F0E0C0E07404122C9ED0F1
:1064F000E0127546A982AA83890C8A0D750E007870
:106500000C1229D67407122C9EE0FC7D0074081230
:106510002C9EAA82AB83126EC912299C7404122A83
:106520003A880A890B780A1229DA750A11750B0064
:10653000780A1229DA7C007D007A817B001232AE63
:10654000740412299C7404122C9EE09019126005A8
:10655000E0D2E48003E0C2E41265C1E4800885185B
:10656000828519837484F0E0C0E07401122C9ED0FF
:10657000E0F07402122C9EE508F07403122C9EE5E4
:1065800008F01265B23F1271A01229DE7402122ABD
:106590003A8808890978081229DA7508147509807B
:1065A00078081229DA790312623912299C741502CB
:1065B0006CDFEE240EF582E4223F12756AFCA3E044
:1065C00022F08518828519832274F612243874E02B
:1065D000122A80EAFEEBFF901BB5E064086008E039
:1065E000640460030267ADAC18AD191236CE901A80
:1065F00024E0640270271241A27402122C9EAC8225
:10660000AD83123326E960151267B28518828519A9
:1066100083E0687003A3E06970030267AD124376FC
:106620007402122C9EAC82AD8312624E124274E947
:10663000640170030267AD7418122A421241B474E7
:1066400002122C9EAC82AD837418122A4212332699
:10665000E9602D1241AE8A088B09A808A90985189E
:1066600082851983E0687003A3E0696013125F7884
:10667000901BA9E81275657AA97B1B794B123944E6
:10668000901A24E06004640170671267B2EE24116E
:1066900012645C687003A3E06960567402122C9E59
:1066A000AA82AB83123AEE8B09A909EA4960268ACD
:1066B000828B83A3A3A3A3E06401600D8A828B83F2
:1066C000A3A3A3A3E06402700C7402122C9EAA82FE
:1066D000AB83123AFA901C431267D36014901A18D5
:1066E000E06401700C12624E901C4412578B12260B
:1066F00016790012624E123D1C901BB31267C8FD42
:1067000012624E12432E740B122C9EE41267D9743F
:106710000C122C9EE8127565740B122A42123A88EC
:10672000E9603F7C087D0079007418122A4212311A
