:020000040000FA
:100000000212FF022003FFFFFFFFFF02200BFFFF92
:10001000FFFFFF020E61FFFFFFFFFF02201BFFFF3C
:10002000FFFFFF022023FFFFFFFFFF02202BFFFF48
:10003000FFFFFF022033FFFFFFFFFF020EA4FFFFC1
:10004000FFFFFF022043FFFFFFFFFF02204BFFFFE8
:10005000FFFFFF022053FFFFFFFFFF02205BFFFFB8
:10006000FFFFFF022063FFFFFFFFFF02206BFFFF88
:10007000FFFFFF022073FFFFFFFFFF02207BFFFF58
:10008000FFFFFF022083FFFFFFFFFF02208BFFFF28
:10009000FFFF70DFFFFF040000000002000000C847
:1000A0000300030369A5020269A501000000000026
:1000B00004003273000074F8121046900393E0605D
:1000C0001590030274FEF0900304744DF0A37405C0
:1000D000F07A011206857F0102116374F71210464F
:1000E00074FF12126B7E00801F851882851983E0D1
:1000F00064FE70069003877401F085188285198369
:10010000E0F8900384E068F07C017D00AA18AB1948
:10011000120E1C8B09EA450970030201F38518824F
:10012000851983E064EF70027E07E0C0E0900387EA
:10013000E0FA900385E0F8EA28F8E43400F9740264
:1001400028F582740339F583D0E0F0900387E060EE
:100150009814600E14602C14603C14605214606893
:100160008098900384E4F0851882851983E09003D9
:1001700086F0C394809003874004E40200F974027F
:100180000200F9851882851983E0900382F09003BC
:100190008774030200F9851882851983E090038330
:1001A000F0900386E0601990038774040200F990D0
:1001B0000385E004F0F8900386E06860030200FA2B
:1001C00090038774050200F9900385E4F09003879B
:1001D000F0900384E0F8851882851983E068600355
:1001E0000200FA900382E0644D60030200FA1203F9
:1001F000288002EEF974011212377F020211637433
:10020000F712104674FB12126BEAFEEBFF7508043E
:1002100075090078081212CF74021212E87A907BE6
:10022000007904120EC574021212371206771213E7
:1002300039E0687003A3E06970128518828519831C
:10024000E0F47003A3E0F4600302030874041212E4
:10025000E01206DD8A088B09A808A90974021213A6
:1002600039E8F0A3E9F07404121339E06008790169
:100270001200B6020321851882851983E068700395
:10028000A3E0697076851882851983E0F47003A372
:10029000E0F4701974021213397410F0A37420F092
:1002A0008518828519837410F0A37420F0750801F5
:1002B00075090078081212CF74021212E87A247BB2
:1002C00008120F49740212123775080478081212C6
:1002D000CF74021212E87A907B007904120EC57472
:1002E00002121237120677121339E0687003A3E086
:1002F000697004790280067904800279031200B6DD
:100300008E828F83741E80058E828F83E4F01206A6
:1003100077121339E0687003A3E0697004790180F3
:1003200002790074050201F774ED12104674F81298
:10033000126B900307E0FD900306E0FCFAEDF8E491
:10034000C8F9EA28FEE93408FF751001750B00753D
:100350000A068E088F0974027808121296C395084F
:10036000F8E49509F9740228F50E740339F50F8E37
:10037000088F09740978081212F0E508F511EE24C7
:1003800010F508E43FF509EEF50CEF5401F50D907A
:100390000383E014605914700302046414700302B0
:1003A00004DF14601024FE700302059A1470030227
:1003B000064A02065A750A03794E120C5B9003072F
:1003C00012066D7402F0A3744012066B74081206D4
:1003D0006BF0A3F07418C3940704F510AA10A90BCE
:1003E000120685A90A74081212377F0C0211637570
:1003F0000A04794E120C5BEE450D7005A911120F1F
:10040000AFC3EE9425EF9408503CC3E5089424E56F
:100410000994084031E50E2496F8E50F3420F98858
:10042000828983E0701BA3AA82AB83E070139003E0
:10043000887401F08882898374A5F08A828B838016
:1004400004900388E4F0750810750900780812120A
:10045000CF7C087D03EEFAEFFB120F4974021212F3
:10046000370203DC750A05E511C394794006750B64
:10047000010203DC75124075130078121212CF7C52
:10048000097D037402780C121296AA0CAB0DA91107
:10049000120EC57402121237900307E0A3F0900306
:1004A00006E0A3F0751043C3EE9425EF94084003D3
:1004B0000203DCC3E5089424E50994085003020311
:1004C000DC900388E070030203DCE50E2497F8E576
:1004D0000F3420F988828983E4F0A3F00203DC75ED
:1004E000080475090078081212CF74021212E87A13
:1004F000907B007904120EC5740212123774021236
:100500001339E0F8A3E0F9851882851983E0687053
:1005100003A3E069851882851983700BE0F47003EA
:10052000A3E0F470578009E0F47003A3E0F4700DC9
:100530008518828519837410F0A37420F012067751
:10054000121339E8F0A3E9F075080178081212CF08
:1005500074021212E87A247B08120F4974021212F4
:100560003775080478081212CF74021212E87A90D4
:100570007B007904120EC57402121237120677122C
:100580001339E0687003A3E0697006750A0102037D
:10059000DC750A02750B070203DC900391E060072B
:1005A000640260030203DCEDFF7A01790012068524
:1005B000E0600302063E8003120D1C120D26E97056
:1005C000F7740412133912065F7404121339780891
:1005D00012131D85080C85090D850A0E850B0F90D9
:1005E00005A2780C1212BC7404121339780C121381
:1005F0000EE5084509450A450B70CE8EC2E5C55487
:10060000E04FF5C5740412133912065F7404121317
:1006100039780812131D85080C85090D850A0E8589
:100620000B0F9005A2780C1212BC740412133978C7
:100630000C12130EE5084509450A450B70CE7A01E8
:10064000790012068579080203E5EC900393F070B7
:10065000030203DC750A090203DC79060203E5E400
:10066000F0A37426F0A3E4F0A3F022F0A3E4F0A337
:10067000F0A3F0A3F0A322851882851983E0F8A3E4
:10068000E0F974022274F8121046EAFE900305E0C5
:10069000D2E7F0E9A3F0EE900303F08E0874042A89
:1006A000FE7C028004E062080CECFA3395E0FB74F7
:1006B000022AF58274033BF583EEF8C3EA98EB94C3
:1006C00000A2D265D03340DDE508F074012A0C3376
:1006D00095E0FD7A027B03120E4C0200D674E912FB
:1006E00010467582007583FE1211FE8A168B1775EF
:1006F00014007515008A828B83E4F0900391E070FA
:1007000006D2AAD2AF80046402700579001200B646
:10071000750C00750D20750E00750F00900391E0AB
:10072000600464027015120D1C1200DBE9F87409F4
:1007300068600302080D79001200B675080075099B
:100740000278081212CF74021212E8850C08850D87
:1007500009AA08E5095407FB850E0A850F0B740BDF
:100760007808121252A908120EC574021212377EAE
:10077000007F009005AAC0828E10EFF5113395E03E
:10078000F512F513850C08850D09850E0A850F0BEA
:10079000780879101212A99005A678081212BC7573
:1007A0008305D08278081211DF501D8518828519C3
:1007B00083E5822EF582E5833FF583E0F9AA14AB49
:1007C0001512083C8A148B150EEE70010FC3EF94BE
:1007D0000240A09005AE780C1212BC9005B2780CC5
:1007E0001211DF400302071C7900AA14AB1512088E
:1007F0003C790012083C8B15900391E07004C2AF65
:10080000C2AAEA451570277AA57BA58021E8700366
:1008100002073B740668700302073B7407687003A5
:1008200002073B8516828517837401F080BA7582B2
:10083000007583021211FE7F10021163C008C00907
:100840007C088A088B09740F78081212F0E508F802
:10085000EA25E0FAEB33FBE9A2E7500474014AFA17
:10086000E8A2E0500874216AFA74106BFBE9C33304
:10087000F91CEC70CDD009D0082274F8121046781B
:10088000007900802274942EF582E43403F583E02D
:100890008A828B83F09004141209FA4005900414A4
:1008A000E4F008E8700109900414E0FEA3E06E6033
:1008B00007C3E89CE99D40CDE8FAE9FB7F010211FE
:1008C0006374F7121046900498E0F509A3E0F50868
:1008D000F8E509C398F895E0F9E508C39509E850EB
:1008E0000B120ADC701178007900801B247F500104
:1008F00009C39CE99D50EF7A007B008041E004F041
:10090000D2E908E8700109C3E89CE99D502C8A826D
:100910008B83E0C0E0900499E0FE74182EF582E429
:100920003404F583D0E0120ACC90049AE4F09004E9
:1009300099E0C3947F40C6E480C5E8FAE9FB7F02F2
:10094000021163C082C083C2E9900498E0F8A3E07A
:10095000686017741828F582E43404F583E0F5C163
:10096000900498120AF34002E4F0020D3A74F8126F
:1009700010467800790090051DE07055A3E0705195
:1009800075F900C28FC284A28340FCA28F4004A2EA
:100990008350F8AEF9C28FA2835004D2848032EE25
:1009A000C0E0E0FE1209EFD0E0F090051E120AF35D
:1009B00040D9E4F080D51209EFE08A828B83F09071
:1009C000051D1209FA400590051DE4F008E87001C4
:1009D0000990051DE0FEA3E06E6007C3E89CE99D59
:1009E00040D4E8497006E4F090051DF00208B874A0
:1009F0009D2EF582E43404F58322E004120AD0C36C
:100A000094802274F81210469005A0E0FEF890053C
:100A10009FE0FFEEC39FE0500DC398F895E0F912F8
:100A20000ADB70188012C398F895E0F9E8247F502B
:100A30000109C39CE99D4004EC4D70077A007B00DE
:100A4000020AC98A828B83E0F5F9A3AA82AB837874
:100A50000179008008E004F008E8700109C3E89C0F
:100A6000E99D50278A828B83E0C0E09005A0E0FEDC
:100A7000741F2EF582E43405F583D0E0120ACC9081
:100A800005A0E0C3947F40CDE480CCC28FA2834018
:100A9000FCC284A28F4004A28350F890059F120AE2
:100AA000E6E0F5F9C28F90059FE0FAA3E06A9005B1
:100AB0009F7005120AE68005120AF34002E4F0A2D4
:100AC0008350D0D284E8FAE9FB0208BC120AD02293
:100AD000F08A828B83A3AA82AB8322E824FF18E9E1
:100AE00034FFF9E84922E0FA741F2AF582E434055C
:100AF000F58322E004F0C394802274FB12126B7E13
:100B0000009005CA780812131D9005CA7401F0A35D
:100B1000F0A37469F0A374A5F09005B678081212DA
:100B20008170047E0180159005BA780812128160E8
:100B300008E59D541864107003022000120C81EE29
:100B4000A2E05003020BFEAA18AB191201FFE970D4
:100B500003020BFE851882851983E0C3943C500C78
:100B6000E0F8743CC398FA95E0FB80047A007B00BF
:100B7000120D3FE97003020BFE900391E0640170D7
:100B80000C75F800C2AB539AF7D2EA805E7907126F
:100B900000B68003120D1C120D26E970F7740112C5
:100BA0001339E4F0A37426F0A3E4F0A3F074011267
:100BB0001339780812131D85080C85090D850A0E56
:100BC000850B0F9005A2780C1212BC740112133918
:100BD000780C12130EE5084509450A450B70CE75D1
:100BE0008600C2AAC28B539AFBC2E990000174CD61
:100BF000F0022000C2AF75C9AB75C95B80FE7508F5
:100C000000750900750A00750B00900391E0701BD8
:100C1000D2AAD2AF79051200B6E07003120D1C12F1
:100C200000DBE9F8740968700980E9794E120C5B01
:100C300080ED74016870E2E07017120D1C9005BE23
:100C400078081212BC9005C278081211DF50EBC26E
:100C5000AAC2AF75C9AB75C95B80FEC082C083787C
:100C6000109005A1E0C399501575B60FE5B4A2E741
:100C700050FAE5BBC39940F118E870EDE9F0020DB8
:100C80003AC082C08353BEFBE59DA2E650FA0078CD
:100C9000F8790100120ADB70FA75C6807480659ECF
:100CA00070FA43BE049062707408F0794A120C5BCB
:100CB00090000174F5F07403F5D575D489A2A0E411
:100CC00033900391F0A2E05029D28453F3F753F309
:100CD000EF53FDF743FD10538FF753F7DF43FC202D
:100CE00043F10253F5DF75F82043F4F0D2FED2ABA6
:100CF000802853FF3F85FFFF53F1FE43F30C53F26F
:100D0000F375868075C48090049BE4F0A3F075C2EF
:100D1000D875C50B75C402438640801E8003120936
:100D200043A2E940F922C082C083900498E0F8A36E
:100D3000E0686004790180027900D083D082227457
:100D4000F112104674FF12126B7E00900391E06462
:100D500001706CC2849003927401F07508388E099A
:100D60008E0A8E0B7C017D00AA18AB19120E1C8B0B
:100D70000DEA450D6018851882851983E0641060BE
:100D80002DE064EF70088E088E098E0A8E0B8508A0
:100D90000C85090D850A0E850B0F9005A2780812A7
:100DA00012BCE50C450D450E450F70347E019003D5
:100DB00091E064017056D284900392E4F08051D2A5
:100DC000AAD2AF8A088B09E4F50AF50B9005C6781C
:100DD0000C12131D7808790C120FC679061200B692
:100DE000900391E06003020D64120D1C1200DBE918
:100DF000F8740968700779061200B6809174076864
:100E00006084E8608974066870A48082C2AFC2AA58
:100E1000EEF974011212377F08021163C082C08399
:100E2000900391E0700512087A801E900392E060B2
:100E300015A28F500BE5F98A828B83F07A0180022C
:100E40007A007B00800312096D020D3AC082C083D4
:100E5000900391E070051208C18003120A03020D8D
:100E60003AC0E074F21210AC900001E064CD70055D
:100E7000122013802AE064F57024E5C1C28BC0E023
:100E8000900415E0F8749428F582E43403F583D0D7
:100E9000E0F0900415120AF34005E4F08001007FB1
:100EA0000102110BC0E074F21210AC900001E0647A
:100EB000CD700512203B800BE064F57005120943EC
:100EC00080010080DA74F6121046890A740F550A00
:100ED000F508750900740B7808121296EA2400F8D8
:100EE000EB3480F9E82400E93509F985C709A2AF98
:100EF000E433F508C2AFE50AC4540FFAE5C754F865
:100F00004AF5C7740A121339E0FAA3E0FB801C8883
:100F1000828983E08C828D83F088828983A3A88272
:100F2000A9838C828D83A3AC82AD83EAFEEBFFEEB6
:100F300024FF1AEF34FFFBEE4F70D48509C7E50894
:100F4000A2E092AF7F0302116374F7121046ED9096
:100F50000389F0ECA3F0A37462F0A37473F0A3E030
:100F6000541FF07409121339E0F508A3E0F509E500
:100F700008333354FC90038EF0740678081212F094
:100F8000E50890038DF090038F7412F0A37442F083
:100F900075D1FE75D601EA906271F0EBA3F0906214
:100FA00070E0D2E1F0E0A2E740FB7F02021163C0F3
:100FB00082C083E9C333906272F0906270E0D2E045
:100FC000F0D083D08222080808EAC0E0EBC0E086B7
:100FD000F0E7A4FA180986F0E7A42AFA180986F0BF
:100FE000E7A42AFA180986F0E7A42AFA1986F0E796
:100FF000A4FBE5F02AFA190886F0E7A42BFBE5F03C
:101000003AFA190886F0E7A42BFBE5F03AFA18182B
:101010000986F0E7A4C5F02BFBE43AFA1908E7C506
:10102000F0C6A426F6E5F03BFBE43AFA1886F0E7B2
:10103000A4F6E5F00826F6E43B08F6E43A08F6D014
:10104000E0FBD0E0FA222518C582C0E0E51934FFA4
:10105000C583C0E0E518C3958224F910AF088583E5
:10106000198582188008858319858218D2AFCEF041
:10107000A3E520F0A37808E608F0A3DEFAEFF0A3DA
:10108000E58124FBF8E608F0A3E608F0A30808E6EB
:1010900008F0A3E608F0A315811581D0E0FED0E0AA
:1010A000F815811581E8C0E0EEC0E022C0D0251817
:1010B000C582C0E0E51934FFC583C0E0E518C395DB
:1010C0008224F310AF0885831985821880088583F0
:1010D00019858218D2AFC8F0A3E9F0A3EAF0A3EB18
:1010E000F0A37908E709F0A3D8FAECF0A3EDF0A398
:1010F000EEF0A3EFF0A3D0E0F0A3D0E0F0A3D0E0B7
:10110000F0A3E520F0A3E5F0F0A32285198385186C
:1011100082E0C0E0A3E0F9A3E0FAA3E0FBA3780833
:10112000E0F608A3DFFAE0FCA3E0FDA3E0FEA3E005
:10113000FFA3E0C0E0A3E0C0E0A3E0F5D0A3E0F5AA
:1011400020A3E0A3F5F010AF0885831985821880ED
:1011500008858319858218D2AFD082D083D0E0F879
:10116000D0E032851983851882E0A3FEE0A3F52044
:101170007808E0A3F608DFFAE0A3FFE0A3C0E0E010
:10118000A3C0E0E0A3C0E0E0A3C0E010AF08858208
:10119000188583198008858218858319D2AFD0837A
:1011A000D08222E490030278A179038002F0A3D8D0
:1011B000FCD9FA7AA27B0590008E782979018015F6
:1011C000E493A3AD82AE838A828B83F0A3AA82AB21
:1011D000838D828E83D8E9D9E7120AFA121343C0AD
:1011E00008C3E096F50808A3E096420808A3E09635
:1011F000420808A3E09645087001D3D00822C582B2
:101200002518C582C583351910AF07F519858218D1
:101210008007F519858218D2AFC583222518F5827B
:1012200010AF08F518400C15198008F51840021584
:1012300019D2AF8519832200C0D0251810AF08F548
:1012400018500C05198008F51850020519D2AFD0B6
:10125000D0226016080808C6C313C618C613C618DD
:10126000C613C618C613C6D5E0EA22251810AF0863
:10127000F518400C15198008F51840021519D2AF61
:1012800022E066701008A3E066700A08A3E06670AA
:101290000408A3E06622700422600D18C6C333C69A
:1012A00008C633C6D5E0F41822E627F60809E63763
:1012B000F60809E637F60809E637F622E026F608CA
:1012C000A3E036F608A3E036F608A3E036F622746B
:1012D000028000C0E0F40412121CD0E012132C2291
:1012E0002518FAE43519FB222518FCE43519FD22EE
:1012F000600C08C6C313C618C613C6D5E0F4227521
:10130000D00075813F7518027519030211A3E6F02C
:1013100008A3E6F008A3E6F008A3E6F022E0F6084A
:10132000A3E0F608A3E0F608A3E0F622CAC0E0E6D0
:10133000F0A308DAFAD0E0FA222518F582E435198C
:10134000F5832200000080FBFFFFFFFFFFFFFFFF90
:10135000FFFFFFFFFFFFFFFFFFFFFFFFFFFFFFFF9D
:10136000FFFFFFFFFFFFFFFFFFFFFFFFFFFFFFFF8D
:10137000FFFFFFFFFFFFFFFFFFFFFFFFFFFFFFFF7D
:10138000FFFFFFFFFFFFFFFFFFFFFFFFFFFFFFFF6D
:0A1FF600CA05094338860000000008
:020000040003F7
:01FFF000F020
:020000040000FA
:10200000022C4F0221F7FFFFFFFFFFFFFFFFFFFF43
:10201000FFFFFFFFFFFFFFFFFFFFFFFFFFFFFFFFD0
:10202000FFFFFFFFFFFFFFFFFFFFFF022914FFFF7E
:10203000FFFFFF0228ECFFFFFFFFFFFFFFFFFFFF97
:10204000FFFFFF022741FFFFFFFFFFFFFFFFFFFF33
:10205000FFFFFF022137FFFFFFFFFFFFFFFFFFFF33
:10206000FFFFFFFFFFFFFFFFFFFFFFFFFFFFFFFF80
:10207000FFFFFFFFFFFFFFFFFFFFFFFFFFFFFFFF70
:10208000FFFFFF02218BFFFFFFFFFFFFFFFFFFFFAF
:1020900010201020010105030101FF0F10FEFFEBCE
:1020A0004B00000000214B00000000FF000000FF7B
:1020B000000196511800020000463D00000000E0BB
:1020C0003CC43D163D8E3D00000A3D00000000006E
:1020D0000000000000000000000000000000000000
:1020E00000000006FFFFFF01010400331B00000099
:1020F000E8030000FFFF021C03E803000064006423
:1021000000B801A0BB0D00A0BB0D0002020008003A
:10211000000502070401051E02051E020A0A010845
:102120000803B80B02803E0102FEFFE8030A050027
:1021300001FFFF0A1401E0C0E074F212250BA2AF08
:10214000E433F508D2AFAFA7AEA1EE5F541060063E
:10215000123A7675A1EFEE5F54086008123A7C756A
:10216000A1F78023EEA2E092F0EFA2E082F05017F8
:10217000906198E0F8900B50E0C398A2D265D033FC
:102180005002E8F075A1FEE5088063C0E074F21229
:10219000250BA2AFE433FED2AF9061A4E0F8759BAB
:1021A00000E59158540860087591F7123AC48023ED
:1021B000E59158541060087591EF123ACA8014E501
:1021C00091A2E092F0E8A2E082F05007E0C2E0F0D5
:1021D000123C149061A3E0F8E5E9585404600E1233
:1021E0003BEA75E9FB906193E0A2E640F2EEA2E0E3
:1021F00092AF7F0102256AC0E074F212250BA2AFF4
:10220000E433FED2AF9061A5E0F8E5BF5854046016
:102210000675BFFB123C2C80D4C3E498F8E499F90E
:1022200012225A8026C3E49AFAE49BFBE920E7E9EC
:1022300012225AE498F8E499F922C3E498F8E49950
:10224000F912225AE498F8E499F9C3E49AFAE49B63
:10225000FB22EB20E7CFE920E7E0B90010BB000844
:10226000E88AF084F8AAF022E4FBC8FA22EB702294
:102270007B10C833C8C933C9335007C39AC3DBF2D4
:1022800080069A50012ADBEAC833F4C8C933F4C97E
:10229000FA2275F008E4C833C8C933C933C99AC9EA
:1022A0009B5004C92AC93BD5F0ECFBC833F4C8E401
:1022B000C9FA2274F51224A574FA122AAC7508041E
:1022C0007509007808122A1B7404122AA47AF87B74
:1022D0000779031239807402122A2E9080D278086E
:1022E000122C5F7402122CEC7808122B02704975C4
:1022F00008027509007808122A1B7402122AA47AAF
:10230000F67B0779031239807402122A2E8518820F
:10231000851983E0F47003A3E0F4601C85188285BE
:102320001983E0F8A3E0F9888289837402F0A3F0AE
:10233000A37469F0A374A5F0C2AF75D69F02000024
:102340007406122A2E7F04022784080808EAC0E0D7
:10235000EBC0E086F0E7A4FA180986F0E7A42AFAB1
:10236000180986F0E7A42AFA180986F0E7A42AFAE1
:102370001986F0E7A4FBE5F02AFA190886F0E7A42D
:102380002BFBE5F03AFA190886F0E7A42BFBE5F001
:102390003AFA18180986F0E7A4C5F02BFBE43AFADC
:1023A0001908E7C5F0C6A426F6E5F03BFBE43AFAC7
:1023B0001886F0E7A4F6E5F00826F6E43B08F6E414
:1023C0003A08F6D0E0FBD0E0FA22E4CFC0E0E4CE59
:1023D000C0E0E4CDC0E0E4CCC0E075F020E626F635
:1023E00008E633F608E633F608E633F6181818EC74
:1023F00033FCED33FDEE33FEEF33FFC3EC9709ED15
:102400009709EE9709EF97191919400FFFEC97FC00
:1024100009ED97FD09EE97FE191906D5F0BFECF707
:1024200009EDF709EEF709EFF7191919D0E0FCD01B
:10243000E0FDD0E0FED0E0FF222518C582C0E0E537
:102440001934FFC583C0E0E518C3958224F810AFA6
:10245000088583198582188008858319858218D29A
:10246000AFCEF0A3E520F0A37808E608F0A3DEFAEB
:10247000EFF0A3E58124FAF8E608F0A3E608F0A35C
:10248000E608F0A30808E608F0A3E608F0A3158123
:102490001581D0E0FED0E0F8158115811581E8C0E6
:1024A000E0EEC0E0222518C582C0E0E51934FFC582
:1024B00083C0E0E518C3958224F910AF088583191D
:1024C0008582188008858319858218D2AFCEF0A343
:1024D000E520F0A37808E608F0A3DEFAEFF0A3E524
:1024E0008124FBF8E608F0A3E608F0A30808E60854
:1024F000F0A3E608F0A315811581D0E0FED0E0F846
:1025000015811581E8C0E0EEC0E022C0D02518C5D5
:1025100082C0E0E51934FFC583C0E0E518C39582A9
:1025200024F310AF088583198582188008858319E4
:10253000858218D2AFC8F0A3E9F0A3EAF0A3EBF0CC
:10254000A37908E709F0A3D8FAECF0A3EDF0A3EE25
:10255000F0A3EFF0A3D0E0F0A3D0E0F0A3D0E0F040
:10256000A3E520F0A3E5F0F0A32285198385188266
:10257000E0C0E0A3E0F9A3E0FAA3E0FBA37808E061
:10258000F608A3DFFAE0FCA3E0FDA3E0FEA3E0FF72
:10259000A3E0C0E0A3E0C0E0A3E0F5D0A3E0F52015
:1025A000A3E0A3F5F010AF08858319858218800891
:1025B000858319858218D2AFD082D083D0E0F8D03D
:1025C000E032122CE1B90003022601E49004D17834
:1025D000E679198002F0A3D8FCD9FA7AB67B1D906F
:1025E000209478A479018015E493A3AD82AE838A08
:1025F000828B83F0A3AA82AB838D828E83D8E9D9A4
:10260000E775823B7583AE74061229DA75821C75F4
:10261000834974001229DA1075F0108E1A8F1B8509
:10262000821F85831E851882851983E0CEA3E0CFA3
:10263000851F82851E83EBC9EAC8EDCBECCAC3E8CF
:1026400033C8E933C9EA33CAEB33CBC3EA9EF51D7D
:10265000EB9FF51CB35004AB1CAA1DEC33CCED333F
:10266000CDD5F0DAAE1AAF1B22D083D082ECC0E019
:10267000EDC0E0E493A3FCE493A3FDED4C600D12E8
:1026800027C4EC24FFFCED34FFFD80EFE493A3FCB2
:10269000E493A3FDED4C600D122897EC24FFFCEDB4
:1026A00034FFFD80EFD0E0FDD0E0FCE493A3C0E078
:1026B000E493C0E022851983851882E0A3FEE0A39D
:1026C000F5207808E0A3F608DFFAE0A3FFE0A3C056
:1026D000E0E0A3C0E0E0A3C0E0E0A3C0E0E0A3C06E
:1026E000E010AF08858218858319800885821885D7
:1026F0008319D2AFD083D0820229E0D083D082E97F
:10270000C0E0E493A3C386F0C5F095F0F908E49324
:10271000A386F0C5F095F0700BE493A3C399400530
:10272000E9048002A3E475F002A42582F582E5F0B5
:102730003583F583D0E0F9E493A3C0E0E493C0E0EF
:1027400022C0E074F212250BA2AFE433FED2AFC276
:10275000C0901CAFE0700BE5D1A2E4501D1239E02F
:102760008018E5D1A2E3500675D1F71239B6E5D14C
:10277000A2E4500675D1EF1239BCEEA2E092AF7F11
:102780000102256A851983851882E0A3FEE0A3F57E
:10279000207808E0A3F608DFFAE0A3FFE0A3C0E09A
:1027A000E0A3C0E0E0A3C0E0E0A3C0E010AF088574
:1027B00082188583198008858218858319D2AFD045
:1027C00083D08222C0E0C3E49396087401939618E4
:1027D000400FE493667008087401936618700070E7
:1027E00019A3A3C3E49396087401939618A3A34076
:1027F0000DD0E0D0E0D0E00226A5A3A3A3A3A3A31D
:10280000D0E022D083D082C5F0E493A3C5F0C39575
:10281000F0F5F0E493A3C395F04005E5F0048001E2
:10282000E475F002A42582F582E5F03583F583E4B2
:1028300093A3C0E0E493C0E0227404800474028097
:1028400000CCC0E0EDC0E0E518C39CCCAD19500150
:102850001D10AF068C188D1980068C188D19D2AFFB
:1028600012295CD0E0FDD0E0FC2274028000CCC0D4
:10287000E0EDC0E0E518C39CCCAD1950011D10AFD0
:10288000068C188D1980068C188D19D2AF12293A32
:10289000D0E0FDD0E0FC22C0E0C0F088F0E4936618
:1028A00070080874019366187000A8F0A3A3700B59
:1028B000D0F0D0E0D0E0D0E00226A5A3A3D0F0D0A5
:1028C000E022D083D082CCC0E0E493A3600612293A
:1028D0009C1470FAE493A36006122AC21470FAD012
:1028E000E0FCE493A3C0E0E493C0E022C0E074F213
:1028F00012250B758B00C2E8901CAFE0700E7A00B9
:102900007B10900BE6E0F9123EF680031247727FCF
:102910000102256AC0E0C0D0E8C0E0E9C0E0A9A893
:10292000D2AFC2C7E9A2E7E433F8E9A2E792AFD099
:10293000E0F9D0E0F8D0D0D0E032CAC0E0E493A310
:10294000C582CCC582C583CDC583F0A3C582CCC565
:1029500082C583CDC583DAE5D0E0CA22CAC0E0E0F3
:10296000A3C582CCC582C583CDC583F0A3C582CC67
:10297000C582C583CDC583DAE6D0E0CA22C008C3CC
:10298000E096F50808A3E096420808A3E0964208FE
:1029900008A3E09645087001D3D00822C0E0E49374
:1029A000A3D39C5010E493A3C39C400AD0E0D0E092
:1029B000D0E00228DFA3A3A3D0E022700908080812
:1029C000226016181818C6C333C608C633C608C610
:1029D00033C608C633C6D5E0EA22C09FF59FE4732C
:1029E000D09F22D083D082C09FE493C0E074019333
:1029F000C0E0740293F59F222518F58210AF08F508
:102A000018400C15198008F51840021519D2AF8529
:102A10001983227404800A7403800674028002748D
:102A200001C0E0F4041229F8D0E0122C8C2200C07E
:102A3000D0251810AF08F518500C05198008F518A6
:102A400050020519D2AFD0D022BB0102E722C082CA
:102A5000C08389828A83BB0003E08002E493D08331
:102A6000D082226016080808C6C313C618C613C64B
:102A700018C613C618C613C6D5E0EA22C3E0C69628
:102A8000F608A3E0C696F608A3E0C696F608A3E00B
:102A9000C696F6222518F8E43519F9222518FAE425
:102AA0003519FB222518FCE43519FD22251810AF35
:102AB00008F518400C15198008F51840021519D2B0
:102AC000AF22C0E0E493A36C7009D0E0D0E0D0E086
:102AD0000228DFA3A3D0E022C3E09608A3E0960873
:102AE000A3E09608A3E096A2D265D03322E76670F1
:102AF000100809E766700A0809E76670040809E724
:102B00006622E066701008A3E066700A08A3E0661B
:102B1000700408A3E06622C3E096F008A3E096F0F4
:102B200008A3E096F008A3E096F022C3E697F60823
:102B300009E697F60809E697F60809E697F622C32C
:102B4000E4939608740193960874029396087403AC
:102B5000939622E627F60809E637F60809E637F6DF
:102B60000809E637F622E026F608A3E036F608A3C1
:102B7000E036F608A3E036F622E493F608740193F3
:102B8000F608740293F608740393F622E647F608F3
:102B900009E647F60809E647F60809E647F622E699
:102BA00057F60809E657F60809E657F60809E65702
:102BB000F622E056F608A3E056F608A3E056F6081B
:102BC000A3E056F622E056F008A3E056F008A3E092
:102BD00056F008A3E056F022E026F008A3E036F015
:102BE00008A3E036F008A3E036F022700422600D5E
:102BF00018C6C333C608C633C6D5E0F41822E4C3EA
:102C000096F608E496F608E496F608E496F622C6E8
:102C1000F4C608C6F4C608C6F4C608C6F4C62260E0
:102C20000D08C6A2E713C618C613C6D5E0F322C323
:102C3000E7960809E7960809E7960809E79622C388
:102C4000E09608A3E09608A3E09608A3E096227514
:102C5000D00075813F7518D1751904000225C2E0B6
:102C6000F608A3E0F608A3E0F608A3E0F622600C5D
:102C700008C6C313C618C613C6D5E0F422E6F0088A
:102C8000A3E6F008A3E6F008A3E6F022CAC0E0E657
:102C9000F0A308DAFAD0E0FA22E0F8A3E0F9A3E022
:102CA000FAA3E0FB22E0FCA3E0FDA3E0FEA3E0FF2B
:102CB00022EAF0A3EBF0A3ECF0A3EDF022E0FAA3FC
:102CC000E0FBA3E0FCA3E0FD22ECF0A3EDF0A3EE1B
:102CD000F0A3EFF022E8F0A3E9F0A3EAF0A3EBF011
:102CE00022E5C754F84401F5C77901222518F58279
:102CF000E43519F583221229E3C8A4021229E34717
:102D0000A5021229E378A6021229E3B4A602122929
:102D1000E38EA8021229E34BAC021229E35FAC0256
:102D20001229E369AC021229E373AC021229E37D94
:102D3000AC021229E387AC021229E3A0AC021229EB
:102D4000E3AAAC021229E321AD021229E32CAD0261
:102D50001229E35BAD021229E383AD021229E38E4F
:102D6000AD021229E3F3AD021229E3FDAD021229EF
:102D7000E308AE021229E32CAE021229E350AE02A0
:102D80001229E3C2AE021229E30BAF021229E32794
:102D9000AF021229E398AF021229E3E4AF0212292D
:102DA000E32DB0021229E36BB0021229E3ECB0026A
:102DB0001229E393B1021229E358B3021229E3BDA9
:102DC000B3021229E3EBB4021229E311B50212296E
:102DD000E359B6021229E393B9021229E391BB0227
:102DE0001229E35CBD021229E3F5BD021229E3F6C4
:102DF000BF021229E3ABC0021229E3E4C002122988
:102E0000E354C1021229E35EC1021229E387C3021F
:102E10001229E38AC4021229E3C7C5021229E31E5C
:102E2000C6021229E3C9C6021229E379C80212298F
:102E3000E3C6C9021229E3E6C9021229E33BCA022A
:102E40001229E33CCB021229E364CB021229E3C32B
:102E5000CB021229E3BBCC021229E332CD021229A4
:102E6000E345CE021229E3B3CE021229E3B2CF0228
:102E70001229E30CD2021229E335D2021229E39B74
:102E8000D3021229E31DD5021229E374D5021229B7
:102E9000E322D6021229E3C7D6021229E32AD70277
:102EA0001229E3E8D7021229E37AD8021229E3D9DA
:102EB000D8021229E31BD9021229E34CD9021229A4
:102EC000E3A3DA021229E30080031229E33280032C
:102ED0001229E36B80031229E33482031229E37879
:102EE00082031229E34E83031229E3AD83031229DF
:102EF000E3C384031229E30F85031229E39D8703AB
:102F00001229E3818A031229E3C88B031229E360A3
:102F10008C031229E36C8C031229E3B58C0312296C
:102F2000E3F78D031229E3ED8E031229E3178F03D4
:102F30001229E36D8F031229E3C68F031229E339A7
:102F400090031229E36F92031229E3F193031229EC
:102F5000E3DC94031229E32696031229E35E980327
:102F60001229E35B9B031229E36A9B031229E3FE08
:102F70009B031229E3A99C031229E3EC9C03122969
:102F8000E3359D031229E3859D031229E3E99D039F
:102F90001229E35B9E031229E3779E031229E3A61D
:102FA0009E031229E3E59E031229E3E09F03122901
:102FB000E38FA0031229E30CA3031229E33EA40329
:102FC0001229E316A5031229E398A5031229E3CDDC
:102FD000A9031229E3FCA9031229E357AA03122922
:102FE000E38AAA031229E302AB031229E335AB03F8
:102FF0001229E396AB031229E3E6AB031229E3B3EC
:10300000AC031229E36CAD031229E330AE0312299D
:10301000E3AAB0031229E30CB2031229E35DB30360
:103020001229E381B4031229E384B4031229E3B320
:10303000B4031229E3ABB6031229E36AB7031229DA
:10304000E399B7031229E3B7B8031229E37FB90361
:103050001229E340BB031229E3B0BB031229E3E2C8
:10306000BB031229E302BC031229E371BC0312293A
:10307000E36ABD031229E38EBD031229E301BE03F7
:103080001229E32AC0031229E389C0031229E3DDD0
:10309000C0031229E30CC3031229E3EFC30312296F
:1030A000E377C4031229E35BC5031229E3E5C503F3
:1030B0001229E3F9C5031229E30DC6031229E321FE
:1030C000C6031229E335C6031229E362C603122997
:1030D000E392C6031229E34DC8031229E323C9036F
:1030E0001229E3C7C9031229E31CCA031229E37F8B
:1030F000CA031229E3C8CA031229E3EFCA0312293B
:10310000E3B7CB031229E35DCC031229E3E3CD033C
:103110001229E36ECE031229E3B5CE031229E32769
:10312000CF031229E37CD0031229E325D10312290E
:10313000E359D1031229E371D1031229E314D20315
:103140001229E390D4031229E338D6031229E35657
:10315000D6031229E374D6031229E340D7031229B8
:10316000E38EDA031229E32F81011229E371810131
:103170001229E3DE86011229E32A87011229E3706E
:1031800087011229E3C188011229E3268901122946
:10319000E36A89011229E3D08A011229E32B8E0107
:1031A0001229E35E8F011229E3ED9A011229E37DD2
:1031B0009B011229E3679E011229E3CC9F0112298A
:1031C000E32FA0011229E34BA1011229E3B5A201CB
:1031D0001229E394A3011229E302A6011229E39420
:1031E000A7011229E325A8011229E344A901122904
:1031F000E3D1A9011229E3DBA9011229E303AA0102
:103200001229E3A6AA011229E391AB011229E3597D
:10321000AC011229E3E6AC011229E3FCAC0112294E
:10322000E319AD011229E342AD011229E36FAD01AB
:103230001229E3B3AF011229E386B0011229E3CAD0
:10324000B0011229E34CB1011229E3EDB1011229B9
:10325000E31FB2011229E366B2011229E399B20118
:103260001229E3DDB2011229E32CB3011229E33163
:10327000B3011229E38DB3011229E3D1B30112295D
:10328000E3BBB4011229E320B5011229E37EB501A5
:103290001229E3FDB5011229E375B9011229E3787A
:1032A000BA011229E30EBC011229E351BF01122910
:1032B000E3F3BF011229E33CC2011229E3F7C20183
:1032C0001229E336C3011229E3FAC4011229E317D4
:1032D000C5011229E320C5011229E329C5011229DC
:1032E000E334C5011229E353C5011229E377C7016D
:1032F0001229E3D4C7011229E3DEC7011229E3E84A
:10330000C7011229E34BC8011229E3A7C8011229FA
:10331000E3B4C9011229E315CA011229E326CB013E
:103320001229E36FCB011229E339CC011229E350B2
:10333000CD011229E314CE011229E360CF01122935
:10334000E364D0011229E35DD1011229E375D101B3
:103350001229E3ACD1011229E3B6D1011229E3C04D
:10336000D1011229E3CBD1011229E3E9D1011229BC
:10337000E331D2011229E38FD2011229E3B6D2013F
:103380001229E3C8D2011229E371D3011229E3AA59
:10339000D3011229E3DBD4011229E338D501122924
:1033A000E329D6011229E35FD6011229E3CFD60122
:1033B0001229E34BD7011229E3CCD8011229E3F3F8
:1033C000D9011229E3B5DA011229E383DB011229BD
:1033D000E308DC011229E3B7DC011229E39FDD01D8
:1033E0001229E338DE011229E314DF011229E37CFC
:1033F000DF011229E33BE0011229E397E0011229E2
:10340000E3FBE0011229E3C1E1011229E3E4E10158
:103410001229E39EE2011229E3C0E2011229E3210D
:10342000E3011229E351E5011229E34AE6011229D9
:10343000E3F6E6011229E313E9011229E35CE9014D
:103440001229E3A7E9011229E303EA011229E36142
:10345000EA011229E385EA011229E3A9EA01122906
:10346000E3DEEA011229E306EB011229E34BEB014B
:103470001229E3A9EB011229E302EC011229E3FC72
:10348000EC011229E3A8EE011229E3EDEE01122965
:10349000E316EF011229E39FEF011229E312F00175
:1034A0001229E320F0011229E344F0011229E39AE2
:1034B000F0011229E3B5F0011229E370F10112299C
:1034C000E39CF1011229E3DFF1011229E342F20149
:1034D0001229E352F4011229E37EF4011229E3399F
:1034E000F5011229E31DF6011229E3B1F6011229B3
:1034F000E3BCC7051229E3F4C7051229E315C80583
:103500001229E357C8051229E3BBC8051229E3C5F0
:10351000C8051229E3D5C8051229E30CC9051229EB
:10352000E3B5CC051229E37DCE051229E361D00570
:103530001229E303D1051229E38DD1051229E350A5
:1035400080041229E3F980041229E3D881041229A6
:10355000E3E482041229E30483041229E3268404A9
:103560001229E3D685041229E34386041229E314C1
:1035700087041229E31A88041229E3928804122985
:10358000E3CD88041229E32689041229E361890422
:103590001229E3AA89041229E33E8A041229E3D4FA
:1035A0008A041229E3A98B041229E37C8C041229D2
:1035B000E30A8D041229E3308D041229E35D8D04A2
:1035C0001229E38E8D041229E35B8E041229E36B2A
:1035D0008E041229E3BE8E041229E3CB8E04122935
:1035E000E3D88E041229E3E18E041229E3458F0407
:1035F0001229E3A38F041229E3EE8F041229E309B1
:1036000090041229E33090041229E34D900412290A
:10361000E35990041229E3EA91041229E303920486
:103620001229E37F92041229E39292041229E3A261
:1036300092041229E34693041229E3B29404122956
:10364000E3C595041229E36596041229E36F9604F5
:103650001229E3EE96041229E3FF96041229E33EB1
:1036600097041229E36C97041229E339980412296C
:10367000E39098041229E3C998041229E31F9904DE
:103680001229E33D99041229E38B99041229E35688
:103690009A041229E3A49A041229E3F19A04122944
:1036A000E3749B041229E39E9B041229E3D49B0438
:1036B0001229E3E39B041229E3429C041229E3BA92
:1036C0009C041229E3FB9C041229E34B9D0412295C
:1036D000E3769D041229E3909D041229E3AA9D0438
:1036E0001229E37F9E041229E3899E041229E3C470
:1036F0009E041229E3D49E041229E3DD9E041229BC
:10370000E32E9F041229E3429F041229E364A004DC
:103710001229E377A0041229E38CA0041229E31FE5
:10372000A1041229E393A1041229E338A204122967
:10373000E343A2041229E3A6A3041229E3C2A304CB
:103740001229E30EA4041229E37CA4041229E3AE97
:10375000A4041229E3C8A4041229E328A504122909
:10376000E3C7A5041229E312A6041229E365A804FD
:103770001229E3FDA8041229E374A9041229E3D154
:10378000AB041229E3E9AB041229E3ECAB041229E0
:10379000E3F8AB041229E30CAC041229E314AC04E3
:1037A0001229E34BAC041229E33FAD041229E3C90B
:1037B000AD041229E34BAE041229E3CBAE04122967
:1037C000E3A2AF041229E3C4AF041229E35DB004FD
:1037D0001229E3BAB0041229E3BDB0041229E32C84
:1037E000B1041229E378B2041229E38BB30412293D
:1037F000E316B4041229E329B5041229E3F0B50451
:103800001229E321B6041229E347B6041229E35032
:10381000B6041229E37FB6041229E32FB704122954
:10382000E3DFB7041229E352B8041229E3F5B80420
:103830001229E368B9041229E3A7B9041229E3F0B5
:10384000B9041229E31294051229E37F9405122981
:10385000E3C694051229E33C95051229E38E9505EC
:103860001229E31496051229E35898051229E387D3
:103870009A051229E3649E051229E3E49E051229A4
:10388000E31F9F051229E33D9F051229E39D9F0534
:103890001229E3C59F051229E3F59F051229E326A6
:1038A000A0051229E353A0051229E3ACA0051229B3
:1038B000E3F7A0051229E32EA1051229E3AAA10529
:1038C0001229E3D6A1051229E308A2051229E36A09
:1038D000A3051229E386A3051229E3C4A30512292F
:1038E000E351A4051229E3ADA4051229E373A5054C
:1038F0001229E332A6051229E377A6051229E3D897
:10390000A6051229E34DA7051229E387A705122969
:10391000E3DFA7051229E301A8051229E399A80509
:103920001229E340A9051229E38DA9051229E3B65E
:10393000A9051229E3F7A9051229E3A4AB05122969
:10394000E388AC051229E339AD051229E307BB066C
:103950001229E318BB061229E3B6BB061229E3F7C6
:103960007F001229E3ECFF011229E387FF031229EC
:10397000E397FF031229E3ACFF031229E3F0FF03EF
:103980001229E311B9061229E395B9061229E3FBBE
:10399000B9061229E3FA7F001229E3EAFF0412298B
:1039A000E3FAFF041229E367BD061229E3D5FF05F8
:1039B0001229E3DEFF051229E3E7FF051229E3F5EB
:1039C000FF051229E30080061229E36C8006122904
:1039D000E33481061229E32982061229E38A830649
:1039E0001229E3E483061229E33784061229E34807
:1039F00084061229E35A84061229E3C68406122992
:103A0000E3DA84061229E3E584061229E3F7840643
:103A10001229E31D7A001229E3497A001229E3EF03
:103A20007C001229E3467D001229E3827D001229E1
:103A3000E3967D001229E3AF7D001229E3009D0289
:103A40001229E37C7F001229E3907F001229E327EB
:103A5000B0061229E34BB0061229E364B00612291E
:103A6000E3A2B0061229E3D8B0061229E30BB1068F
:103A70001229E377B1061229E37AB1061229E38409
:103A8000B1061229E391B1061229E352FD0212296F
:103A9000E375FD021229E3C0FD021229E3DEFD02F7
:103AA0001229E38DA3021229E35FFE021229E36BC0
:103AB000FE021229E3C8FE021229E3ECFE021229DB
:103AC000E3B2FF021229E3BFFF021229E3D0FF0293
:103AD0001229E370BC061229E388BC061229E3B45C
:103AE000BC061229E31D8A061229E3818B061229DE
:103AF000E38F8B061229E3A38B061229E3C08B0602
:103B00001229E3D58B061229E3E88B061229E36A12
:103B10008C061229E3D08C061229E3678D06122940
:103B2000E3408E061229E3508E061229E35F8E06CB
:103B30001229E3D7BB061229E3FBBB061229E323B4
:103B4000BC061229E34BBC061229E3AEA4061229D7
:103B5000E3D5A4061229E3F4A4061229E369A50615
:103B60001229E3E5A1061229E3FEA1061229E315B5
:103B7000A2061229E31EA2061229E33CA20612297C
:103B8000E346A2061229E350A2061229E363A20625
:103B90001229E3F0A2061229E35FA3061229E38D9E
:103BA000A3061229E3DEA3061229E32AA40612299A
:103BB000E345A4061229E34FA4061229E360A406F4
:103BC0001229E3A3A4061229E3AC7F001229E33CE7
:103BD000D2051229E368D2051229E38BD2051229F6
:103BE000E39ED2051229E3B9D2051229E31DD305BC
:103BF0001229E34BD3051229E358D7051229E39A7A
:103C0000D8051229E3CCD8051229E337D9051229A2
:103C1000E3BBDA051229E3E3DA051229E3F8DA0552
:103C20001229E308DB051229E348DB051229E38AA0
:103C3000DB051229E39ADB051229E364B406122995
:103C4000E374B4061229E398B4061229E3C1B4065A
:103C50001229E3EBB4061229E30FB5061229E32675
:103C6000B5061229E354B5061229E377B5061229E1
:103C7000E3F5BC061229E33B9E061229E34B9E06A0
:103C80001229E3699F061229E39D9F061229E3BFCB
:103C90009F061229E3E79F061229E300A0061229D6
:103CA000E33CA0061229E3A2A0061229E3E7A0063E
:103CB0001229E32CA1061229E359A1061229E39146
:103CC000A1061229E39892061229E3FA9206122914
:103CD000E3A193061229E3D993061229E323F20400
:103CE0001229E3D2F2041229E306F5041229E3D9DA
:103CF000F7041229E359F9041229E3BBF904122944
:103D0000E3C6FC041229E30AFE041229E3AFB50658
:103D10001229E3FAB5061229E38CF1051229E34BC7
:103D2000F4051229E3E8F4051229E314F505122934
:103D3000E342F5051229E377F5051229E39FF5051E
:103D40001229E3FFF5051229E31BBB051229E32C19
:103D5000BF051229E323C1051229E351C205122927
:103D6000E32DC3051229E3E2C4051229E37DC6054C
:103D70001229E34AC7051229E39EC7051229E3ACBD
:103D8000A9061229E3B7A9061229E3D8A906122920
:103D9000E326AE051229E34DB3051229E37CB405F1
:103DA0001229E358B6051229E351B7051229E38811
:103DB000B8051229E395B9051229E37ABA05122943
:103DC000E325BA041229E35DBA041229E3BAC40454
:103DD0001229E3A4C5041229E3F4C6041229E33F1F
:103DE000C8041229E3EAC8041229E3BDC904122950
:103DF000E354CA041229E338CB041229E33BCC0470
:103E00001229E3FDCC041229E32BCD041229E3A3EC
:103E1000CE041229E32CCF041229E345CF04122942
:103E2000E39FD0041229E351D1041229E3E0D10425
:103E30001229E38FD2041229E3F2D2041229E38E6D
:103E4000D3041229E307D4041229E325D404122948
:103E5000E3F2D4041229E3C1D5041229E377D6048E
:103E60001229E39BB1061229E3C5B1061229E3D951
:103E7000B2061229E3DCB2061229E348FF04122934
:103E8000E38EFF041229E3D0FF041229E3E0FF04CC
:103E90001229E306EB051229E34DEB051229E3B6DF
:103EA000EB051229E3D7EB051229E3F0EB05122904
:103EB000E3A0EC051229E3A9EC051229E3FAEC05CD
:103EC0001229E330ED051229E347ED051229E3B489
:103ED000ED051229E344EE051229E37AEE051229D5
:103EE000E3C3EE051229E324EF051229E35EEF0593
:103EF0001229E3C6EF051229E319F0051229E35C44
:103F0000F0051229E399F0051229E3ABF005122917
:103F1000E3BDF0051229E3F7F0051229E337F105B7
:103F20001229E360F1051229E3B3F6051229E3F93A
:103F3000F7051229E322F8051229E333F8051229BF
:103F4000E34BFA051229E36BFA051229E3F9AB06F4
:103F50001229E32DAC061229E37CAC061229E3D822
:103F6000AD061229E30080051229E33E81051229DE
:103F7000E37A81051229E33F83051229E36983056A
:103F80001229E3EF85051229E32F86051229E3C5DF
:103F900087051229E35A88051229E3B888051229F2
:103FA000E33E89051229E37689051229E3B88905DC
:103FB0001229E3258B051229E3A98C051229E3E3D5
:103FC0008E051229E3118F051229E33D8F05122971
:103FD000E3468F051229E39C8F051229E32C9005F7
:103FE0001229E33393051229E3B593051229E389D6
:103FF000BD061229E39FBD061229E3908E06122901
:10400000E3A98E061229E34E8F061229E38E8F064E
:104010001229E3A78F061229E3DA8F061229E32774
:1040200090061229E35B90061229E39D900612295F
:10403000E38692061229E3E3B6061229E338B706AF
:104040001229E383B7061229E3FEB7061229E370AB
:10405000B8061229E3AEB8061229E3EFB806122912
:10406000E3CADB051229E3D0DB051229E317DC05DF
:104070001229E323DE051229E353DE051229E3BDED
:10408000DE051229E378DF051229E3BBDF051229DB
:10409000E3ECDF051229E376E0051229E38DE00564
:1040A0001229E39AE0051229E3A4E0051229E3446A
:1040B000E2051229E336E3051229E394E305122908
:1040C000E372F7011229E388F7011229E33AF801B4
:1040D0001229E364F9011229E359FA011229E3F0E4
:1040E000FA011229E32BFB011229E39DFB0112299E
:1040F000E3FBFB011229E30BFC011229E332FC0173
:104100001229E384FC011229E3F0FD011229E3F5F1
:10411000FD011229E317FE011229E3FFDA02122939
:10412000E357DB021229E3F7DB021229E374DD0215
:104130001229E360DE021229E31DDF021229E334B3
:10414000DF021229E383DF021229E3F7DF021229DB
:10415000E34DE0021229E360E0021229E3C4E00229
:104160001229E333E1021229E3E2E3021229E3E731
:10417000E4021229E342E5021229E396E50212293C
:10418000E340E8021229E390E8021229E311E90270
:104190001229E353E9021229E32DEA021229E36608
:1041A000EA021229E385EA021229E3D0EA0212297F
:1041B000E3E6EA021229E3A1EB021229E388EC020A
:1041C0001229E393EC021229E3E1EC021229E3360F
:1041D000ED021229E382ED021229E3DDEE0212293B
:1041E000E307EF021229E39FF1021229E3C9F1026A
:1041F0001229E3D4F2021229E303F3021229E37B2A
:10420000F3021229E356F4021229E398F402122968
:10421000E30CF5021229E326F6021229E373F602F3
:104220001229E386F6021229E389F6021229E392A3
:10423000F6021229E3ADF6021229E325F70212294C
:10424000E35EF7021229E37AF7021229E3A6F702E6
:104250001229E3CDF7021229E3F1F7021229E36AEA
:10426000F8021229E3DDF8021229E320F9021229EB
:10427000E32AF9021229E359F9021229E36FF9023C
:104280001229E38BF9021229E3BAF9021229E3DABF
:10429000F9021229E323FA021229E35EFA02122933
:1042A000E36AFB021229E3CDFC021229E3ECFC02D3
:1042B0001229E303FD021229E315FD021229E3147A
:1042C000BA061229E325BA061229E3AEBA06122964
:1042D000E35FFA031229E39DFA031229E336FB0395
:1042E0001229E341FC031229E389FE031229E306A4
:1042F000FF031229E3CDE3051229E31CE40512298B
:10430000E3DAE5051229E3AEE7051229E3ECE70558
:104310001229E3CDE8051229E3D7E9051229E3F9CB
:10432000E9051229E355EA051229E3D6EA0512291F
:10433000E3084F001229E32A4F001229E3995000A5
:104340001229E3E250001229E35351001229E3D667
:1043500051001229E34D52001229E3945200122910
:10436000E30B53001229E3AF53001229E324540056
:104370001229E36154001229E3A958001229E3CC61
:104380005A001229E3055B001229E3445B0012295D
:10439000E3405E001229E3D05E001229E38460004E
:1043A0001229E3BE61001229E3DE62001229E34F05
:1043B00063001229E33064001229E3B36400122978
:1043C000E3C764001229E39665001229E3CD660075
:1043D0001229E3FC68001229E30B6B001229E3F7B2
:1043E0006B001229E38E6E001229E3636F0012291D
:1043F000E3A270001229E3D273001229E3E27300F2
:104400001229E31875001229E3B175001229E3E2BD
:1044100076001229E35077001229E38978001229E7
:10442000E3C478001229E36D79001229E33CD70434
:104430001229E3DED7041229E34AD8041229E364DF
:10444000D8041229E3E6D8041229E320D90412295A
:10445000E322DA041229E364DA041229E3D6DA0447
:104460001229E326DB041229E385DB041229E33158
:10447000DC041229E31BDF041229E3E2DF04122922
:10448000E348E0041229E3F0E1041229E389E2049D
:104490001229E322E3041229E385E3041229E3FB52
:1044A000E3041229E3FCE4041229E3EDE5041229F4
:1044B000E328E6041229E33FE6041229E31DE7049A
:1044C0001229E35BE7041229E3E3E7041229E3304E
:1044D000E9041229E3F4EA041229E332EC04122974
:1044E000E365ED041229E379EE041229E310EF04E9
:1044F0001229E37FEF041229E38CF0041229E3ACC4
:10450000DA031229E315DB031229E35DDB03122929
:10451000E3A1DB031229E314DC031229E36EDC03BD
:104520001229E3A9DC031229E343DD031229E39DE9
:10453000DD031229E309DF031229E382DF031229D5
:10454000E3ACDF031229E3C0E0031229E3D4E10363
:104550001229E3FCE1031229E3FAE2031229E30B37
:10456000E3031229E323E3031229E329E4031229D5
:10457000E34CE4031229E31BE5031229E345E503B9
:104580001229E35CE5031229E382E5031229E3C162
:10459000E5031229E3E1E5031229E308E603122902
:1045A000E320E6031229E303E7031229E35DE703AF
:1045B0001229E3C4E8031229E342E9031229E3665E
:1045C000E9031229E37DE9031229E351EA031229E1
:1045D000E3EAEA031229E310EB031229E360EC0398
:1045E0001229E37FEC031229E3FEEC031229E335E1
:1045F000ED031229E373ED031229E309EE031229F7
:10460000E37EEE031229E362EF031229E340F10394
:104610001229E315F2031229E361F2031229E36C74
:10462000F3031229E38AF4031229E3A8F5031229FC
:10463000E3B6F5031229E3B2F6031229E354F703B4
:104640001229E39AF7031229E3AFF7031229E3C112
:10465000F8031229E362F9031229E3BEF9031229D0
:10466000E39396061229E34E98061229E31699065B
:104670001229E36B99061229E3F199061229E3BF87
:10468000FB051229E3DDFB051229E321FC051229B4
:10469000E347FC051229E36EFC051229E386FC05BD
:1046A0001229E39EFC051229E3B6FC051229E35CFE
:1046B000FD051229E39EFD051229E3B3FD0512292C
:1046C000E3BAFE051229E3D5FE051229E3DEFE0555
:1046D0001229E3E7FE051229E3F0FE051229E3FAA9
:1046E000FE051229E377FF051229E30B850612293F
:1046F000E34D89061229E36989061229E36E8906CA
:104700001229E3ADAE061229E3859A061229E39B2E
:104710009A061229E3269C061229E3719C061229A7
:10472000E3DD9C061229E3DB9D061229E30A9E06BF
:104730001229E31C9E061229E309B3061229E3336A
:10474000A7061229E38FA7061229E3C5A706122997
:10475000E332A8061229E34AA8061229E35CA80658
:104760001229E388A8061229E3A8A8061229E3B8AB
:10477000A8061229E3CEA8061229E3F9A8061229F1
:10478000E382A9061229E33BBD061229E3DB9C0262
:104790001229E3EB9B021229E3779B021229E3E043
:1047A0009A021229E36E9A021229E35D9A021229F3
:1047B000E3389A021229E35499021229E37098020D
:1047C0001229E38695021229E34394021229E3AAEF
:1047D00091021229E36591021229E30B9102122939
:1047E000E36C90021229E31790021229E3448F022E
:1047F0001229E37E8E021229E3428E021229E3D5AA
:104800008D021229E3CD8D021229E3428D02122975
:10481000E3D28C021229E3238C021229E37DA30246
:104820001229E3188C021229E351A2021229E36F24
:10483000A0021229E366A0021229E359A00212295C
:10484000E35C9F021229E3D49E021229E3C59E0273
:104850001229E3529E021229E3098C021229E3E88D
:104860008B021229E3B48B021229E3888B021229EE
:10487000E3369E021229E35A8A021229E34E880285
:104880001229E31F88021229E30388021229E3F99F
:10489000FD021229E3AD87021229E3189E021229B4
:1048A000E37487021229E3EC86021229E3A0860250
:1048B0001229E35986021229E38C85021229E3109A
:1048C00085021229E36884021229E3C183021229B6
:1048D000E36383021229E33883021229E3E98202A7
:1048E0001229E3AB82021229E38982021229E366CC
:1048F00082021229E34D82021229E3058202122963
:10490000E34F81021229E30080021229E3C38002EF
:104910001229E35780021229E3A07E0000000080E4
:10492000FBE4738F000100A31C87000100A21C356B
:104930000004001B1E250002001F1E26000200218D
:104940001E27000200231E280001002D1E29000141
:10495000002E1E840004002F1E86000100331E2A34
:10496000000100341E2B000100351E2C000100390F
:104970001E2D000800841C2E0001003A1E2F00018D
:10498000003B1E300001003C1E310001003D1E3284
:104990000001008C1C330001008D1C340001003E1E
:1049A0001E360001008E1C380001003F1E39000138
:1049B00000381E83000200531E630001009F1C6428
:1049C000000100361E65000100371E6D000100A0C9
:1049D0001C710008007C1C66000100521E4300018F
:1049E00000431E44000200441E45000100461E46CE
:1049F000000200471E47000800971C4800010049BC
:104A00001E4B0001004A1E04000100551EA10001BA
:104A100000581E37000100571E88000100561E3C3A
:104A20000001008F1C3D000100401E490002004BA8
:104A30001E67000100A11C4D0002004D1E4E00012A
:104A4000004F1E4F000200501E3E000100961C51F8
:104A5000000100901C52000100411E530001004261
:104A60001E54000100911C000000000000000136EF
:104A700036010100010201000103010001040106E9
:104A80000605020000070100340801000F090401B7
:104A9000010D0100FF0E08000017020000190100BF
:104AA000FF1A0100011B0100FE1C0100081D02008D
:104AB000001F01000120010001210200002301006C
:104AC0000F2402000026010001270100082802002F
:104AD000FF2A0100072B0102402C0100002D0100DC
:104AE000012E0100012F0100FF30010B1D310800D4
:104AF000003A0100083B01000F3C0100013D0100AC
:104B0000FF3E04000042040000460400004A040086
:104B1000004E04000052040000560400005A040035
:104B200000010371030103010301030103010322D7
:104B3000030203010310030003000300030003004A
:104B400003000300034203000324030603000300E1
:104B5000030403120325032303250323030403048F
:104B600003000300030003440300030003230300C6
:104B700003650321003503810300030503000300DF
:104B800003000300032503230303047104020460EC
:104B900004110470040204020401040204100461FC
:104BA00004000414046304730472046204430400E4
:104BB00004130406040004000404041204000400A6
:104BC00004000400045104640000040004000444D0
:104BD000040004000400040004650400043504819A
:104BE0000464000504000483040004030071003021
:104BF0000160001100700031022003500480001099
:104C00000061000000140063007300720062004342
:104C10000000001300060000000000040012000065
:104C20000000000000000004000400370037003CD2
:104C30000244000000000000000000650000003594
:104C400000810000000500000083000000010171E8
:104C50000101010101110101013101010101018085
:104C600001100161013B00140063017301720162D4
:104C70000143010001130106013D01350004011249
:104C800001000100010001000104010401330133AE
:104C9000013C0144013201360000010001650100C0
:104CA000013500810100010501820183010001033A
:104CB000027102300160021102700201020202025E
:104CC000028002100261023A004100630273027224
:104CD00002620243020002130238000002000204D2
:104CE0000212020002000200020002040204023763
:104CF0000037003C02440200023900000200026555
:104D000002000235028102000205028202830200D3
:104D10000236000100060000000F00000000000045
:104D20000000000000000003FFFF00000403FFFF7D
:104D30000000FFFF0FF4010005C404032000010080
:104D4000000B000000000000000003010F00000045
:104D50000000000000000000000000000000000053
:104D60000000000000000000000000000000000043
:104D7000006C441300CA431F00D0431F80D6430178
:104D8000006C44020052430300584304005E430594
:104D90000064430600704330008E43310088433284
:104DA000009A433300A0433500A6433400AC433699
:104DB00000B2431100BE431400C44315008243FFF8
:104DC000FF00000A000000020000000400000008CC
:104DD00000000010000000200000004000000080E3
:104DE00000000000010000000200000004000000BC
:104DF000080000001000000020000000400000013A
:104E0000AC3106E23108DC310BFA3110762E0A0C97
:104E10003202B23105D03107B8310C94310DA031D6
:104E200064DE47FF000007ECFDFDFDECDCDCCCBCE4
:104E3000ACAC9C9C8C7C7C6C6C5C5C5C4C4C3C3C62
:104E40002C2C1C1C03EAF5E5D5D5C5B5A595958593
:104E50008575756565555545453535252515150502
:104E600000160F00000B150B020002220F3300008A
:104E70000E5A6967426565416C6C69616E636530A5
:104E80003901030507090B0D0F00020406080A0C7F
:104E90000D00034A49434E181A2505020001191650
:104EA000181616182303000C0E020B040B0A070831
:104EB000000F303016181920231A1C1E3000393DFF
:104EC0003F373C3C362C442D303017181921301B0D
:104ED0001D1F30020402010101010902E803000064
:104EE00000BE040A000000007F00E8030E000C0A68
:104EF000030305090008000CFF1E1E280508030413
:104F0000040910150401080CC082C083901BFAE448
:104F1000F0A3F07CED7D047A137B1B1240581247FE
:104F2000AE122EC41247A80264C074F3122439745E
:104F3000F5122AAC89098A088B0A8C0BE9705F7418
:104F4000026508703F79081242A4750C00780C12B3
:104F50002A1FE50BF50C780C122A1FE50AF50C78D0
:104F60000C122A1F901B2F122839901E33E0F97C57
:104F7000977D1C901E53126F18123A3A7407122A2A
:104F80002E025061740165086003025066790812B0
:104F900042A47B00AA0AA90A12481A0250617401AD
:104FA00065096009740265096003025066EA6006DB
:104FB00074036508704779021242A4901E33E0F929
:104FC000901B2F122CBD124796E9F9901B3EE0A2D0
:104FD000E34010E9700D901BFEE004F064047003E0
:104FE00012508774036508707A901BFFE0F8740113
:104FF00028F0E8C39405406B125087806674016501
:1050000008706374016509790A702E1242A4740154
:10501000122CECE4F07402122CEC7403F004122C49
:10502000ECE4F0A3F0A3F0A3F07408122CECE4F08D
:10503000AA18AB191231BE80441242A4901E291244
:1050400028397A007B20901B33E0F9124010740459
:10505000122A2E901E33E0F9901B2F122CBD1248FD
:105060003EE9F9E960179080BE1228397A017B0089
:10507000901B33E0F91240107404122A2E740B12A4
:105080002A2E7F050226B5901B2FE4F0A374F8F0BA
:10509000A374FFF0A37407F02274F6122439E9FF19
:1050A000EAFE7AD1F9123ED28A828B83E582458369
:1050B000702A7A027B00123EB4EA4B700E7A107BA3
:1050C00000901B33E0F9123EF680148A828B8374C1
:1050D000D1F0EFA3F0EEF9123EC08003EFA3F0028F
:1050E000530674F712243989089006FB12642B903A
:1050F0001E16E0F47003A3E0F4702D900BE6E09030
:105100001E16F0A3E4F080208E828F83A31261B874
:10511000600F8E828F83A3A31261B2FAA908124393
:105120003A8E828F831251C9EE4F70DC901E16E0CA
:10513000F47003A3E0F4600A901E16E0FAA90812C6
:10514000433A1232CC901AFD125AFF1232C67F0136
:105150000226B574F0122439890B8C0C7508007581
:1051600009007410122CEC12523D7412122CEC1225
:1051700051C9803CA80A12522DF50EA3E0F50FA8E4
:1051800009125220F583E0650E7004A3E0650F70EC
:10519000141251C0EE28F582EF39F583E50EF0A325
:1051A000E50FF00508050AE50AC3950C40C6050998
:1051B000E509C3950B5005750A0080EBA90880111D
:1051C000A808E828F8E433F922126BF1E8FEE9FFB9
:1051D000227F080226B574F4122439890B8C0A75D3
:1051E0000800740C122CEC12523D80020508E508F0
:1051F000C3950B502775090080020509E509C39581
:105200000A50E9A808125220126429A80912522D46
:105210006E7003A3E06F70E279018002790080284C
:10522000E828F8E433F9EA28F582EB3922E828F88F
:10523000E433F9EC28F582ED39F583E022126BF1C5
:10524000E8FCE9FD22122A2E7F040226B574F6122C
:1052500024391252F07003A3E06D701775083C7585
:10526000091B7808122A1BEEFA1244727402122AE1
:105270002E801F7508027509807808122A1B8C0879
:105280008D097808122A1B1252DB124496740412FC
:105290002A2E807274F61224391252F07003A3E0A1
:1052A0006D701775084975091B7808122A1BEEFAEC
:1052B0001244787402122A2E801F75080375098023
:1052C0007808122A1B8C088D097808122A1B1252A2
:1052D000DB1244967404122A2E802B1252E93FF5F9
:1052E00083E0FD7C8012656822EE240EF582E422C4
:1052F000EAFEEBFF12657DFCE439FD901AFDE06CDF
:10530000227402122A2E7F020226B574F612243964
:1053100074FE122AACEAFEEBFF851882851983E43D
:10532000F0A3125AAF1264AEFCA3E0FBECFA888241
:105330008983A3A3E0F9750900750800600574FF6F
:10534000697005750882803D901AFDE06A7003A3BC
:10535000E06B701AAA18AB19123884E9F5098518A0
:10536000828519831268EF701C7508838017901C62
:10537000A2E06004640170057508818008E06402A1
:1053800070037508808518828519831268D8A9086A
:10539000EEFAEFFB12447EE509601185188285194B
:1053A000831268EF6006126F12123F5C02530174A1
:1053B000F2122439EAFEEBFF750800750900126548
:1053C00079F50AE439F50B1232CCEA650A7003EB81
:1053D000650B7012123896E914F50879017AC67BCC
:1053E0001B12389C80037509801268DEF50C780C5E
:1053F000122A1F750CC6750D1B780C122A1B780813
:10540000122A1F780A122A1BE509F5087808122AC1
:105410001F1263441268E1F97A057B801244847498
:10542000070276AE74F612243989097508008027C0
:105430008A828B83E0FE127871EE28E439FF1251E4
:10544000C0EC28F582ED39F583EEF0A3EFF0EA2405
:1054500002FA50010B0508E508C3950940D2025332
:105460000674E812243974FB122AAC8A168B17854D
:105470001882851983E4F07403122CECE4F0A3F095
:1054800004122CECE4F0A3F01258723517125A8172
:10549000F50B850A82F58312795DFEE439FF850AF2
:1054A00082850B83A3A3E0FA850A82850B83A3A3DD
:1054B000A3E0F9EAF508E439F509E50A2404F50A58
:1054C0005002050BEEFAEFFB123368E96401601637
:1054D000EEFAEFFB123368E9703D901AFDE06E7052
:1054E00003A3E06F60311266BE122A1FE4F508F5CF
:1054F000097808122A1B7808122A1F901AFD122810
:105500003D7508807808122A1F1258591244847475
:1055100007122A2E02584F12588C8810602B1274D2
:10552000FC123F567403122CEC125AFF7403122C17
:10553000EC1268EF60137403122CEC125884A9105B
:1055400012436A8A0A8B0B800375100012588C88EC
:105550000F60271274FC123F567401122CEC125A81
:10556000FF7401122CEC1268EF600F7401122CEC26
:10557000125884A90F12436A8003750F009006FB2E
:10558000805C850A82850B83A3A3A3A3A3A3A3A303
:10559000E4F0A3F0AA0AAB0B851482851583A3A3BC
:1055A000E0F81261B2F9123EC0851282851383E0E1
:1055B000C0E0851882851983E0F874C628F582E476
:1055C000341BF583D0E01268F304F0E511A2E0503B
:1055D00007AA12AB13123F5C851482851583E0F590
:1055E00014A3E0F515E514451570030257BC8514A6
:1055F00082851583A31261B860DE851482851583C8
:10560000A3A3A3A3A3A3A3A3E0A2E050CB851482EA
:10561000851583A3A3A3A31268EF85148285158340
:10562000A3A3601F1261B9FA7901851482851583DD
:10563000A3A3A3A31258771249218A128B137511C1
:10564000018010125877A3A3A3E0F512A3E0F5138D
:10565000751100E512451370030255CB8512828542
:105660001383A3E065087004A3E06509600F74FF6D
:105670006508700474FF650960030255CB851282CA
:10568000851383A3A3A3A3A3A3A312283D851282FA
:10569000851383A3A3A3A3A3A3E0FC7405122CEC9E
:1056A000126F18A91012434C7402122A2EE9703C92
:1056B000851282851383A3A3A3A3A3A3A3A3A3A358
:1056C00012283D851282851383A3A3A3A3A3A3A3BA
:1056D000A3A3E0FC7403122CEC126F18A90F124361
:1056E0004C7402122A2EE970030255CBE50F2510E7
:1056F000C333240AFA7B00123EB48A0A8B0BEA45B4
:105700000B70030255A98A828B8374D2126AFE8AB7
:10571000828B83A3A3E8F0A3E91277D7A3E5101245
:105720007965E50FF0E510603CEA2405FAE4350BF5
:10573000FBE50A240AF8E4350BF98A828B831260B0
:105740007E7403122CEC12589C122A17AC10EC2C0D
:10575000FCE433FD8A828B83126F18123E9074032F
:10576000122A2E800D8A828B83A3A3A3A3A3E4F025
:10577000A3F0E50F7003025582A8101251C2E50A8A
:1057800028F8E50B39F9E8240AFAE439FB850A829E
:10579000850B83A3A3A3A3A3A3A3A3125AFF7401FE
:1057A000122CEC12589C122A17AC0FEC2CFCE43390
:1057B000FD123E907403122A2E025594851882859C
:1057C0001983E060271266BE122A1F7508C6750984
:1057D0001B7808122A1B7403122CEC1266C7122ABB
:1057E0001F901AFD12283D7508008029EEFAEFFB84
:1057F000123368E9702F1266BE122A1F7508C6752B
:10580000091B7808122A1B7508007808122A1F90B5
:105810001AFD12283D7808122A1F12585912448482
:105820007407122A2E7403122CEC1268EF600B74AA
:1058300003122CEC126F18123F5C7401122CEC1244
:1058400068EF600B7401122CEC126F18123F5C743D
:1058500005122A2E7F100226B5E5162402FCE43537
:1058600017FDE5161262D83517F583E0F97A067B45
:105870008022EA1264A52212587B22E0F8A3E0F508
:10588000838882221268D8AA0AAB0B22850A8285F5
:105890000B83E0F8A385820A85830B22E0F50CA335
:1058A000E0F50D750E00780C2274F112243974F4B1
:1058B000122AAC8A088B09ECFEEDFF740B122CEC5B
:1058C0007403F0122A9C1240581232C68A0A8B0BBB
:1058D000AC0AAD0B7403122A9C124052E9600A1202
:1058E0005A7B6010E06401600B851882851983740F
:1058F00084025A298E828F83A3A3A3A3A3A3A3A365
:10590000E06013F46010125A7B7016EE24141268D3
:10591000E16003F4700B8518828519837482025A42
:105920002912767FE064217002A3E06003025A002E
:10593000851882851983748C125AAF640360030240
:1059400059EA7401122AA4126063122FF0E960036D
:105950000259EA1242928A0A8B0BEA450B70030243
:105960005A2A8E0C8F0D750E00780C122A177C1592
:105970007D00123E907403122A2E850882850983C9
:10598000A3A3E50A2415FCE4350BFD740912295C78
:1059900012730BC0E0E50A241E125A69D0E0125EB1
:1059A000CAC0E0E50A241F125A69D0E0F0E50A24D3
:1059B00020125A697405F0EE240BFE50010FFAEF25
:1059C000FB12391A7D007C007900EEFAEFFB1244DD
:1059D0003C9080BE1228397A007B10901B33E0F98E
:1059E0001240107404122A2E8078125A71122A1F43
:1059F000125A89122FD27401122A2EE9702C8014A7
:105A0000125A71122A1F125A89122FD87401122A9F
:105A10002EE9700D851882851983E4F012426280A8
:105A2000098518828519837488F012730BF50A783A
:105A30000A122A1F7401122A94880A890B780A1202
:105A40002A1BE508240CF582E43509125A814480AA
:105A5000F50B780A122A1B126414124430740512D2
:105A60002A2E740C122A2E805EF582E4350BF58303
:105A700022EE126070E0F50A780A22125AB464032A
:105A800022F583E0F50AA3E022EE240BFCE43FFDBF
:105A90008E828F83A3A3A3A3A3A3A3A3A3126F5553
:105AA0008E828F83A3A3A3A3A3A3A3A3E0F922F0D1
:105AB000125AB422125AB822EE2413F582E43FF5AA
:105AC00083E022EEFAEFFB7F070226B5C082C08397
:105AD00074F3122AAC851882851983E4F004122C21
:105AE000EC125AFF7403122CECAA82AB831248F218
:105AF000AA18AB191248B6740D122A2E0264C0EA15
:105B0000F0A3EBF02274F6122439126498FAA3E0A1
:105B1000F9EAF8901B44E058F508A3E059F509E5C7
:105B2000084509601C7808122A1B901AFD12283DAE
:105B30001268DEFD7C001265641244907404122A1F
:105B40002E02530674EA12243974DB122AAC8A142A
:105B50008B157512007513001258723515F58312E6
:105B600061B9F50EAC18AD197A007B00799C122C46
:105B7000FC7A047900124880EAF50C8518828519B0
:105B800083E02AF0F8E50EC3984003025D68E0C3A5
:105B9000950EF509C394044003750903E50975F0F2
:105BA0001AA4FAABF0123F568A128B13EA4513700F
:105BB00003025D6B750D00AE12AF13850E08025C1B
:105BC000457C087D0079FF125DE7123E9C850A82C4
:105BD000850B83A3A3A3A3E0702D850A82850B8385
:105BE0001268EF700C127061F0EE2418127064806D
:105BF00010125DEFF090055FE014C0E0125DCBD0B5
:105C0000E0125E1AE4803490055FE004C0E0125DAB
:105C1000CBD0E0125E12C39403EE4003025CCD12BF
:105C2000606C7402125E1264017003025CDAEE248E
:105C300015125DF2F0EE2416125DF2F0EE241AFE5B
:105C400050010F050DE50DC395094003025D05E503
:105C500008C3950C4003025CE3AA087B001247F6D8
:105C60008A0A8B0B050890054C125DFB1240588583
:105C70000A82850B83126BED125DD9E8F0A3E9125D
:105C80005E2C850A82850B83A3A3A3A3A3A3A3A34E
:105C9000A3A3E0C0E0125DC1D0E0F07401122CECCF
:105CA000E412782B126BED7402122CEC12607E74ED
:105CB00001122A9C1248C8E964016003025BC174A6
:105CC00004122CEC125DE3124058025BCD125DF021
:105CD000125E1264036003025C2EEE2415127064DF
:105CE000025C34E50CC3950E4005750800801DE587
:105CF0000EC3950CF5088014125DEFF0EE241AFE29
:105D000050010F050DE50DC39509505F740E122A61
:105D1000A4AA087B007987122CFC05087418122CA1
:105D2000EC125DFB1240587410122CEC125DE31261
:105D30004058EE2412F8E43FF9740E122CEC126F66
:105D40001888828983EAF0A3EB125E1A7403125E4C
:105D50002C741D122CECE0C0E0125DC1D0E0126E7C
:105D60008770951270618093750900750A00780A32
:105D7000122A1F7812122A1B7809122A1FE50EF523
:105D8000097809122A1F7405122CECE0FD7C00E54D
:105D9000141262CF3515FBE5141262D43515F58364
:105DA000E0F91244CC7405122A2EE512451360075F
:105DB000AA12AB13123F5C7425122A2E7F0E022604
:105DC000B5EE2419F582E43FF58322125DCF22EE71
:105DD0002418F582E43FF58322EE2412F582E43F95
:105DE000F58322AC82AD83EE240AFAE43FFB22EE77
:105DF0002414F582E43FF583740122126BF18E8244
:105E00008F83E8F0A3E9F07C607D05EE1262CF3F5E
:105E1000FB22127826A3A3A3E022F0EE127058749E
:105E200002F0EE2416F582E43FF58322F0EE24170B
:105E3000F582E43FF5837402F0125DCF74FFF02227
:105E400074F612243974F9122AAC125EBF1279E783
:105E5000123EA8EAF8EBF9ECFAEDFB8518828519F9
:105E600083122CD5EE2404FE50010F8E828F83E026
:105E7000C0E07404122CECD0E0126E5EF8740512CF
:105E80002CEC7401F07406122CEC7401F0901B07DA
:105E9000F0901B1004127843A3126F18901B081285
:105EA0005AFFE8901B11125ECA901B06F0AA18ABAD
:105EB00019124790E9600312478A74070253038A54
:105EC000088B09EA1264A5350922F01277A3E022B3
:105ED00074F212243974FF122AAC7508007E007F18
:105EE000001231EE8A0A8B0B1231EE8A0C8B0DA850
:105EF0000CA90D80050508126BE7E84970F7901CA6
:105F0000A2E0600764016003025FDB1231EE8A0CDD
:105F10008B0DA80CA90D8003126BE7E84960368849
:105F2000828983126F1890054CE06A7003A3E06BBE
:105F3000600D12607739F583126F18EA4B70D988BB
:105F4000828983126BED90054CE0687003A3E069D1
:105F50007003025FDB7A167B00123F568A0C8B0DB2
:105F6000AE0CAF0DEE4F607390054C126BED8E8250
:105F70008F8312607E900541E08E828F83A3A3F011
:105F8000123350E98E828F83A3A3A3A3A3F0901EA4
:105F90003412781AF07C607D05126063124058AAB2
:105FA00018AB197941124688851882851983E060FB
:105FB00008901AFD126BED800478FE79FF8E828FB7
:105FC00083A3A3A3A3A3A3A312607E12606BE50A1D
:105FD000F0A3E50BF08E0A8F0B0508901B11E0F87B
:105FE000E508C398500479008027E508C398F9C3F1
:105FF0009406400279057800800DE50A1260783534
:106000000B125A81F50B08901B11E0FAE8C39A4075
:10601000E97509007809122A1F780A122A1BE9F586
:10602000097809122A1F901B11E0F5097809122A34
:106030001FAD087C007A087B1B901B06E0F9124418
:10604000C67405122A2E901CA2E060046401700B35
:10605000EE4F6007EEFAEFFB123F5C12478A7401C5
:106060000276AEEE240BFAE43FFB22EE12607022C1
:106070001260783FF58322E82414F582E422E8F0E8
:10608000A3E9F02274F012243974FF122AAC8A0AB0
:106090008B0B7E008E0E8E0F125872125A6C12618C
:1060A000B9FFAC18AD197A007B00799D122CFC85E4
:1060B0001882851983E0F8EFC398400302615DE020
:1060C000C39FFEC3940B40027E0AEE75F007A4FA4C
:1060D000ABF0123F568A088B098A0E8B0FEA450FE8
:1060E0006079750C00801A850882850983A3A3A3B3
:1060F000A3A37403F0E5082407F508500205090579
:106100000CE50CC39E5056AC08AD09E50C2FFAE423
:106110003400FB798B122CFC850882850983A3A3AC
:10612000A3A3A3E014600814601314601F80B88553
:106130000882850983A3A3A3A3A3E480B78508826B
:10614000850983A3A3A3A3A3740180A885088285DE
:106150000983A3A3A3A3A3740280997E00750800FA
:106160007808122A1F780E122A1BEEF508780812FA
:106170002A1FEFF5087808122A1F7405122CECE08C
:10618000FD7C00E50A1262CF350BFBE50A1262D4F2
:10619000125A6CE0F91244D27405122A2EE50E450B
:1061A0000F6007AA0EAB0F123F5C7401122A2E0279
:1061B00051D1A3E0F5838882A312587BE02274EECC
:1061C00012243974FE122AAC8A0C8B0D75100075DE
:1061D0001100125872350DF5831261B9F50AAC1829
:1061E000AD197A007B0079A3122FDE126F12C3E57E
:1061F0000A9AE49B5076851882851983A80AE0C321
:1062000098FEA3E09400FFC3EE9404EF94004006D0
:106210007E037F008004EE4F6052EEFAEFFBEA75DA
:10622000F015A4FAA8F075F015EBA428FB123F5660
:106230008A088B098A108B11EA4511602F750B00B3
:10624000750E00C3E50E9EE49F5026AC08AD09A86C
:106250000AE50E28FAE43400FB79A2122FDEE508E5
:106260002415F50850020509050E80D7750B8B7EA5
:10627000007508007808122A1F7810122A1BEEF504
:10628000087808122A1FE50AF5087808122A1F74F0
:1062900005122CECE0FDAC0BE50C1262CF350DFBCA
:1062A000E50C1262D4350DF583E0F91244D874057B
:1062B000122A2EE51045116007AA10AB11123F5C9F
:1062C0007402122A2E7F0A0226B5FCEFFDE508248F
:1062D00002FAE4221262D822240FF582E42274F634
:1062E00012243974FF122AACEAFEEBFFEE12587347
:1062F0003F1276D3A3A3A3A3A3A3A3A3E0F91248B9
:106300004AE9851882851983F07508007808122AF1
:106310001F7401122A94880889097808122A1B75AB
:1063200008357509807808122A1B12633A12443026
:106330007405122A2E74010253037901126344FA80
:10634000E43FFB22EE2402FCE43FFDEE240F227426
:10635000F412243974FA122AAC125EBF126429EEC8
:10636000FAEFFB1248ECE960171232C68A0A8B0B6F
:10637000AC0AAD0BEEFAEFFB124052E96401700A71
:106380007401122CECE4F0A380097401122CECEEE1
:10639000F0A3EF12785FA3A3A3A3A3E0F8A2E650B3
:1063A000087403122CEC7401F0E8A2E7500874049E
:1063B000122CEC7401F07405122CECE4F004122A97
:1063C0009C123AA0E9851882851983F09080C61244
:1063D0002CBD1232EA7A007B001232F67A007B0082
:1063E0001232F0750A00780A122A1F7401122A94D8
:1063F000880A890B780A122A1B750A34750B807873
:106400000A122A1B1264141244307405122A2E74C4
:10641000060252457901E5082402FCE43509FDE550
:1064200008240FFAE43509FB22F5831276DDFF22FA
:1064300074F612243974FF122AAC126498F509A379
:10644000E0F508A909124898E9851882851983F0B2
:10645000901CA2E0700B740165087005A909124533
:1064600092EE240B1268E1702C7508007808122A4D
:106470001F7401122A94880889097808122A1B754A
:1064800008367509807808122A1B12633A124430C4
:106490007405122A2E026335EAFEEBFF1264A43F54
:1064A0001264AB22EE2413F582E422F583E0126538
:1064B0008DE022C082C083901CA2E0700312459838
:1064C000D083D0820229E074F412243974EF122AA6
:1064D000ACEAFEEBFF126579F508E439F509901A8C
:1064E000FDE065087004A3E065097052A818A919B9
:1064F000880A890B780A122A1B750A11750B007815
:106500000A122A1B7C007D007A817B00123FE07416
:1065100004122A2EE97027750A00780A122A1F74BD
:1065200001122A94880A890B780A122A1BAC08AD3A
:106530000912656412448A7403122A2E8021750A96
:1065400011750B80780A122A1B7808122A1B126810
:10655000DEFD7C841265641244967404122A2E7443
:106560001102524512656822EE2402FAE43FFBEE66
:106570001262D83FF583E0F92212657D22125AB8E3
:1065800012658D12778EF8E4C8F9EA2822F8A3E0A4
:10659000F9888289832274F112243974EB122AACAF
:1065A000126498FCA3E0FAE4CAFBEC2AF508E43B89
:1065B000F509901AFDE065087004A3E06509600321
:1065C00002666588828983A3A3E09410500F8882B5
:1065D0008983A3A3E08518828519838008851882A2
:1065E0008519837410F0E0C0E07404122CECD0E044
:1065F0001276BFA3A3A982AA83890C8A0D750E0007
:10660000780C122A177407122CECE0FC7D00740839
:10661000122CECAA82AB83123E907403122A2E74C1
:1066200004122A94880A890B780A122A1B750A1107
:10663000750B00780A122A1B7C007D007A817B0092
:10664000123FDA7404122A2E7404122CECE0901B10
:106650003C6005E0D2E48003E0C2E4F08518828566
:106660001983E480088518828519837484F0E0C05A
:10667000E07401122CECD0E0F07402122CECE5086E
:10668000F07403122CECE508F01252E93F1266C5D3
:10669000122A1F7402122A94880889097808122A7B
:1066A0001B7508147509807808122A1B7903126378
:1066B0003C1244307405122A2E7415025A64E516F1
:1066C0001252EA3517F583E0F50878082274F612BD
:1066D000243974E0122AACEAFEEBFF90054EE06428
:1066E000086008E0640460030268D3AC18AD1912B6
:1066F0004418901CA2E06402702F1232C674021279
:106700002CECAC82AD83124052E9601D1232CC8A6F
:10671000088B09A808A909851882851983E0687083
:1067200003A3E06970030268D312349A7402122C36
